:020000040040BA
:10000000E8F04420492440004124400045244000B9
:1000100041244000412440004124400000000000F1
:10002000000000000000000000000000412440002B
:1000300041244000000000004124400041244000D1
:10004000412440004124400041244000412440001C
:10005000412440004124400041244000412440000C
:100060004124400000000000811E40004D1F400060
:100070001920400041244000D52640004124400082
:10008000E5204000B12140004124400041244000CF
:1000900041244000412440004124400041244000CC
:1000A00041244000412440004124400041244000BC
:1000B00041244000412440004124400041244000AC
:1000C000412440004124400041244000412440009C
:1000D00000000000412440000000000041244000D6
:1000E000412440004124400041244000412440007C
:1000F000412440004124400041244000412440006C
:10010000412440004124400041244000412440005B
:100110004124400041244000000000000000000095
:100120004124400041244000AD01400041244000F2
:1001300041244000000000004124400041244000D0
:1001400010B5054C237833B9044B13B10448AFF311
:1001500000800123237010BD0040402000000000FB
:10016000107740000C4B43B10C480D4910B5AFF36C
:1001700000800C48036823B910BD0A48036833B9EE
:100180007047094B002BF7D0BDE810401847064BCD
:10019000002BF5D0184700BF00000000107740008A
:1001A000044040201077400000000000214B70B454
:1001B000DB6DDA0729D5204D0022204C2B78204812
:1001C00093422E781F49204B1CBF2146034686F0E0
:1001D00001061E4C1E489FED1F7A2E7021600360A1
:1001E00001E0216803689B5A114404321BB2B2F546
:1001F000805F07EE903AF8EEE77A67EE877AC1ED16
:10020000007AEED1144B01221A700A4BD3F89C30BD
:10021000DB070CD5114B12481C7812491A78002CB8
:1002200018BF0146104882F0010201601A7070BCCC
:10023000704700BF0080074010004020007044203D
:1002400000C0442000B04420008044201C00402016
:100250000C004020FD0000381C40402018004020C9
:100260000090442000A04420140040202DE9F041DB
:10027000202688B00021304B3246684698472F4BE5
:100280003A202F4C98474FF080652E4B6A46DFF896
:10029000C8E02046C3F88451002183F83A630F2751
:1002A0005D600125DFF8B480CDF80CE0C047264B37
:1002B0006A46DFF8ACE0294603F1100023F003069C
:1002C000DFF8A0C018602046E766A666E5601F4E0E
:1002D0002565C3F80CE0DFF890E0C3F81CC0DFF838
:1002E0008CC05E605E61C3F808E0C3F818E01B6173
:1002F000CDF80CC0C047164B0221164ADFF870C07B
:1003000003F1100823F00300DFF868E05E605E612F
:100310001B61C3F80080C3F808C0C4F8AC70C3F810
:1003200018E0C4F8A800DA60E160DA61C4F890501F
:1003300008B0BDE8F08100BF7D4440007D2340004F
:100340000080074000E100E0204040200008000B52
:10035000404040202440004001280421F91740007B
:1003600000C044200080442020400040114801206B
:100370000090442000A0442010B5134B984718B1BA
:100380001248134B9847FEE7124B04469847124B0E
:100390009847124B984721460220114B9847214617
:1003A0000220104B984702200F4B98474FF04020F7
:1003B0000E4B98470E4C01220E4B4FF04020E2614D
:1003C00098470223E36110BD79134000486B400059
:1003D000B13D4000BD044000F90340006D02400003
:1003E000C5234000F92340002D244000051440009F
:1003F00000800740151440002DE9F041284B9CB0C7
:100400001620002498474FF04020264B0F25984790
:1004100001264FF4E0684FF0020E80270EAA6946CD
:100420004FF04020204BCDF800E00194029403945B
:100430001094129413941494CDF818800596049592
:100440000E9511950F9798474FF0200C4FF0100E16
:1004500015AA07A94FF04020144BCDF824C0CDF8C1
:100460002CE0CDF83480079608940A940C961595E4
:1004700016971794189519941A941B9498474FF04F
:1004800040200B4B98474FF040200A4B98474FF0C5
:10049000FF314FF04020084B98471CB0BDE8F08179
:1004A0007D234000F11340009914400025144000C2
:1004B0001D1440000D1440000D1540002DE9F041C1
:1004C0004FF6FF713D4C00203D4EA0473D4B0020B4
:1004D0003D4D9847082104203C4FA0474721052067
:1004E000A0473046A84743210520A0470921042002
:1004F000A04703210C20A04703210E20A047002184
:100500002120A04700213D20A04701216220A047D3
:1005100001216820A04700217420A04740F2047107
:100520007520A0474FF400417620A0474FF4BB51FF
:100530007720A04705217420A0473046A84740F601
:1005400005411520A04700211420A04744F20601D0
:100550001620A04742211920A04708211A20A047B1
:100560004FF402611B20A0470F211220A047304604
:10057000A84710212C20A04710212D20A047112191
:100580005A20A04733215A20A0470F214320A047DB
:10059000F0214420A0473846A84777215A20A04799
:1005A000FF215A20A047B9213920A0473A20B9217C
:1005B000A04738462B46BDE8F041184701134000DC
:1005C000C2DB03003D13400001004020252B4D00FD
:1005D0004FF480629549964B2DE9F04F92460024E6
:1005E000DFF868B22DED048B87B0FFEE009A9847D4
:1005F000514603AB04AA8D4800948E4CA04703AB30
:1006000005AA514689488C4CA0479DED059AF6EE07
:10061000087A9DED047AB1EE499A0123DFED878ACD
:100620009FED878A89FE079A29EE279A07EE903A6E
:10063000BAF1010FF8EEE77A88EEA77AFDEEC77AF5
:1006400017EE904A40F38482BAF1030F40F36B82B5
:10065000AAF1040E754B0020DFF8F4812EF0010E94
:10066000194601930246D3ED007A0EF1030E0646B9
:100670000546C446B0EE487A012350E00122D1ED90
:10068000027AF5EE407AF1EE10FA06DDF5EEC06A78
:10069000F1EE10FA01D800200122F5EE407AF1EED9
:1006A00010FA06D5F5EEC06AF1EE10FA01DB012072
:1006B0000022B4EEC86A37EEE67AF1EE10FA2ADDCF
:1006C000B5EEC06A00F00107F1EE10FA58BF00273E
:1006D000AFB1B5EEC07AF1EE10FA10DBF0EEE65AEB
:1006E000B4EEE59AF1EE10FA09D804EB0C079F423C
:1006F00005DA54489C4640F8253001350020B5EE17
:10070000406AF1EE10FA06DD2AB1B5EEC07AF1EEDC
:1007100010FA6BD901220233083173457BD0F5EE14
:10072000407AD1ED016A5F1EF1EE10FA06D8F5EEBF
:10073000C06AF1EE10FA01DD00200122F5EE407AE8
:10074000F1EE10FA06DBF5EEC06AF1EE10FA01D513
:1007500001200022B4EEC87A36EEE76AF1EE10FA14
:100760008DDDB5EEC07A00F00109F1EE10FA58BF48
:100770004FF00009B9F1000F15D0B5EE406AF1EE67
:1007800010FA10DBF0EEE75AB4EEE59AF1EE10FA4B
:1007900009D804EB0C09B94505DA2A48BC4640F8EB
:1007A000257001350020B5EE407AF1EE10FA7FF7A2
:1007B00066AF002A3FF463AFB5EEC06AF1EE10FAFF
:1007C0003FF65CAFF0EEE77AB4EEE79AF1EE10FA9E
:1007D0003FF654AF04EB0802BA42BFF64FAF1A4AD5
:1007E000B84642F826700136002248E7F0EEE66A85
:1007F000B4EEE69AF1EE10FA8CD804EB08029A42B5
:1008000088DA114A9846083142F826300233013618
:100810000022734583D1019F6FF04041DFF824909F
:10082000A646194407EB81011AE000BF007440207E
:10083000C13140005D3340008132400019047841ED
:1008400000007AC40064402000544020004440204E
:10085000C0BDF0FF01220133B0EE677A9A4565DD35
:10086000D1ED017A5F1EF1EC016AF5EE407AF1EE0E
:1008700010FA06DDF5EEC06AF1EE10FA01D800209C
:100880000122F5EE407AF1EE10FA06D5F5EEC06AD7
:10089000F1EE10FA01DB01200022B4EEC87A77EE07
:1008A000E67AF1EE10FAD6DDB5EEC07A00F001047A
:1008B000F1EE10FA58BF0024A4B1F5EE407AF1EE43
:1008C00010FA0FDBB0EEE66AB4EEC69AF1EE10FA5B
:1008D00008D80EEB0C04BC4204DA49F82570BC467B
:1008E00001350020B5EE407AF1EE10FAB3DD002AB2
:1008F000B1D0F5EEC07AF1EE10FAABD8F0EEE66AC0
:10090000B4EEE69AF1EE10FAA4D80EEB0802BA4261
:10091000A0DA0133CF4AB846B0EE677A9A4542F87A
:10092000267006F101064FF0000299DC744615B9F5
:10093000002E00F00D814FF4805200215846C64B26
:1009400098474DB3DFF82CE302220027714612E0EE
:10095000D1F800C04B68ACEB0303002BB8BF5B427F
:10096000AA425BF8230000F101004BF82300C0F21B
:10097000CC80043101320137AF42E9DBAA420BDA05
:100980005EF822200B689B1A002BB8BF5B425BF815
:10099000232001324BF8232046B3AE4D022200271C
:1009A000294612E0D1F800E04B68AEEB0303002BC0
:1009B000B8BF5B42B2425BF8230000F101004BF884
:1009C0002300C0F28F81043101320137B742E9DBE5
:1009D000B2420BDA55F822200B689B1A002BB8BFE5
:1009E0005B425BF8232001324BF823204FF0FF36A7
:1009F000C4F1000E002504F1010C37467445C0F225
:100A000082802B1B0CEB05020021534504DA002BDE
:100A100002DB5BF82300014401339342F5D1B94274
:100A20006CD001DD0F462E4601355545E6D17445A3
:100A3000C0F287809FED897A621C331BF0EE476A13
:100A40001644B3F5806F11D25BF8232002FB03F14B
:100A500006EE102A002A07EE901AB8EEC66AF8EEE3
:100A6000E77A03DD76EE866A37EE277A0133B34202
:100A7000E7D187EE266A009BFFEE007AF4EEE79A54
:100A8000F1EE10FA12DDB0EE007A6400F0EE696A61
:100A900007EE904AD6EE076AF8EEE77AB0EEE67A0D
:100AA000B4EEE77AF1EE10FA40F287800133062BBC
:100AB00000934DD0019B4FEA6A0A694AF6EE006A3C
:100AC00003EBCA01134693ED007A083353ED017A24
:100AD0008B4277EE277A67EEA67AE2EC017AF2D1C2
:100AE000009B012B57D0022B30D0032B2CD0052B91
:100AF0000CBF20231023F0EE469A97E5B5EB460F86
:100B000008BF2E4690E7002189E75EF82230ACEB63
:100B1000030383EAE370A0EBE3705BF8203001335A
:100B20004BF8203025E700204D49DFF84C81B0EE2E
:100B3000487A0123024606460546C44601910F46FF
:100B40006AE69FED486A96E70823D4E70423D2E7D4
:100B5000454ABFEE007AD2ED007AF4EEC77AF1EEA4
:100B600010FA1ADD5368002B20DD013B5360002B87
:100B700013DDFFEE006A9FED397AF4EE667AF1EE4E
:100B800010FA48BFF0EE477A17EE900A07B0BDECB6
:100B9000048BBDE8F08F0223ADE7FFEE007A17EE7D
:100BA000900A07B0BDEC048BBDE8F08F002382ED06
:100BB000007AF0EE477A5360F1E7013B002B40F3F7
:100BC0008E80012B00F09E80022B00F09980042B78
:100BD0000CBF1023082307EE903AF8EEE77A69EE8F
:100BE000A79ADFED226AB7EE007AC6EEA97AF4EE94
:100BF000C77AF1EE10FAABD4BFEE007AF4EEC77A02
:100C0000F1EE10FAA4DD184AD2ED006AF5EEC06AE2
:100C1000F1EE10FA3AD436EEE77A9FED156ABDEEA2
:100C2000C77A17EE103A002BB8BF5B4207EE103AB6
:100C30005368B8EEC77AC7EE275AF4EEC65AF1EEFB
:100C400010FA1BD5042BC2ED007AD4BF0133052363
:100C500053608CE7005440207D44400000000000B9
:100C6000007440200000C07F2000402000A73547CE
:100C7000CDCC4C3E00644020C0BDF0FF022B0ADC0E
:100C8000002B03DD013BF0EE667AE1E70123C2EDC4
:100C9000007A53606DE737EEA77A76EEC75AF0EE2A
:100CA000E55A85EE875AB4EEC65AF1EE10FA04D52D
:100CB00082ED007AF0EE477A5BE7B6EE007A67EEF7
:100CC000877A36EEE77AB0EEC77AC7EE275AF4EEA7
:100CD000C65AF1EE10FAD5D5C2ED007A49E7F7EE23
:100CE000007A7CE755F82230AEEB030383EAE37029
:100CF000A0EBE3705BF8203001334BF8203062E664
:100D0000042368E7022366E7F8B50026194C4FF480
:100D1000805219493046194DA04730464FF4805251
:100D20001749A04730464FF420521649A0472C27B8
:100D300029460B224FF07E504FF07E56A047124BB3
:100D40003A46124C002112486B602E60A0473A468A
:100D5000002110480127A0470F4E104C4FF440656A
:100D60000F4900200F4B40F2D11237602560086018
:100D70001A60F8BD913140000090402000204120D1
:100D800000E040205C204120000080BF7D44400006
:100D900000D0402030204120008440202C204120E1
:100DA00004844020088440202DE9F04F2DED068B6F
:100DB0008DB009EE102AA34C0893A34B0B911B682E
:100DC0009DED1C8A1A460693DDED1D8A03F58063AE
:100DD00002F50061C3F30B02013350F8045B04EB2E
:100DE00082028B421560F5D1984BD3F8008007EE54
:100DF000908AB8F1000FF8EEE77A22DD9FED947A41
:100E0000F7EE00AAB6EE00AA924EC7EE279A00258A
:100E1000914F07EE905A0135F8EEE77A67EEA97A1E
:100E200017EE900AB84707EE900A884B7AEEE77AF9
:100E30001B6867EE8A7AB5EB430FE6EC017AE8DBD4
:100E40009846089991ED007AB5EEC07AF1EE10FA65
:100E500040F3F481814B07EE908A814AB7EE000A95
:100E6000184609930023F8EEE70A006804319B4610
:100E700092ED001A03900138D2ED011AC8F1000971
:100E80000A9092ED022A7748D2ED032A92ED043AB5
:100E9000D2ED053A92ED064AD2ED074A92ED085A94
:100EA000D2ED095A92ED0A6A6F4D059007910A9AA0
:100EB000C0EE079A934540F2B8816C4A77EE417ACA
:100EC000D2F800E0039AF0EEE77A012A40F2D080EF
:100ED00077EE616AF0EEE66AF4EEE67AF1EE10FA89
:100EE00006DD624BF0EE667AD3F804E05D4B5B689A
:100EF000022A00F0BD8077EE426AF0EEE66AF4EE78
:100F0000E67AF1EE10FA06DD584BF0EE667AD3F889
:100F100008E0544B9B68032A00F0AA8077EE626ACF
:100F2000F0EEE66AF4EEE67AF1EE10FA06DD4F4BEB
:100F3000F0EE667AD3F80CE04A4BDB68042A00F046
:100F4000978077EE436AF0EEE66AF4EEE67AF1EE29
:100F500010FA06DD454BF0EE667AD3F810E0414B0F
:100F60001B69052A00F0848077EE636AF0EEE66A7A
:100F7000F4EEE67AF1EE10FA06DD3C4BF0EE667A1E
:100F8000D3F814E0374B5B69062A71D077EE446AD8
:100F9000F0EEE66AF4EEE67AF1EE10FA06DD334B97
:100FA000F0EE667AD3F818E02E4B9B69072A5FD0E3
:100FB00077EE646AF0EEE66AF4EEE67AF1EE10FAA5
:100FC00006DD2A4BF0EE667AD3F81CE0254BDB6990
:100FD000082A4DD077EE456AF0EEE66AF4EEE67A3E
:100FE000F1EE10FA06DD214BF0EE667AD3F820E040
:100FF0001C4B1B6A092A3BD077EE656AF0EEE66A65
:10100000F4EEE67AF1EE10FA06DD184BF0EE667AB1
:10101000D3F824E0134B5B6A0A2A29D037EE467ACC
:10102000B0EEC77AF4EEC77AF1EE10FA04DD0F4B9A
:10103000D3F828E00B4B9B6A0B2A19D0024B069A77
:101040001A6000BF009040200484402008844020A3
:10105000DB0F49405C2041203934400000844020AF
:10106000002041203020412000E0402000D04020DE
:101070004FEA8B02029260EEA99A4FF48062DDF88B
:1010800018A00492FCEEE97ACDF800B0CDED017A1B
:10109000002B3DD10AF5006CCCF30B0CBCF5006FB6
:1010A00080F0BC80F44532D8F24530D30AF5167B87
:1010B000019B9E44009BCEF30B0E002B40F08280E0
:1010C000C8451EDDAEEB08025F480EEB0807ABEB30
:1010D0000E06B318C2F30B01B0EC017A0132C3F370
:1010E0000B0305EB810127EE287A974204EB83037B
:1010F000D1ED007AD3ED006AE7EE267AC1ED007AF1
:10110000E7D1BCF5006F80F08280F44550D94346AA
:10111000049A0AF1010A013B013ACAF30B0A04924C
:10112000B6D1059A02991360484ADDF800B042F83A
:1011300001E0079A0BF1010BB2EC017AB5EEC07A2F
:101140000792F1EE10FA07DD059ABBF10B0F02F1E1
:10115000040205927FF4ABAE3D4BC3F800A00B9A9E
:1011600000243C493C4E02F580550B6806EB830099
:1011700001330768C3F30B0342F8047BAA420460FF
:10118000F4D19FED367A0B22099CC7EE097A0B60E9
:10119000C4F800B00898324C3249334BFCEEE77A81
:1011A000C4ED007A0DB0BDEC068BBDE8F04F1847DA
:1011B000D645ACD8019B9E44009BCEF30B0E002B72
:1011C0003FF47EAFC8459CDDAEEB08021E480EEB37
:1011D0000807ABEB0E06B318C2F30B01B0EC017AB3
:1011E0000132C3F30B0305EB810127EE087A974226
:1011F00004EB8303D1ED007AD3ED006AE7EE267AA3
:10120000C1ED007AE7D1BCF5006FFFF47EAFD645A3
:101210007FF64EAFF4453FF67AAF49E7F245BFF4AB
:1012200045AFF4453FF673AF40E74FEA8B030293B7
:10123000064B53F82BE0059B1B681CE70B4B4FF04C
:10124000000B09938BE700BF5C20412000D04020B9
:10125000048440202C20412000E0402000A7354796
:101260000884402000204120C131400000844020FB
:101270002DE9F04190B9002A90460DDD0C468F18FB
:10128000084E094D2146013430682B689847BC420E
:10129000F8D14046BDE8F0818046FAE74FF0FF38CC
:1012A000F7E700BF08D0442000D0442001380228CE
:1012B0001ED82DE9F0411546BAB10E460C46DFF8AE
:1012C0003C800D4F01E0013D0DD014F8011BD8F812
:1012D00000003B6898470028A4EB0600F3DA4FF0C3
:1012E000FF30BDE8F081BDE8F0811046BDE8F08137
:1012F0004FF0FF30704700BF04D0442008D0442096
:1013000070B50B4686B00E0A1A228DF80130012501
:10131000022401A9074B8DF8040007488DF80060EE
:101320000295CDF80CD004948DF81420984706B09F
:1013300070BD00BFA51640000080014030B587B0E9
:101340001A22012502248DF8040001A9084B09483E
:101350000295CDF80CD004948DF8142098479DF890
:1013600000009DF8013043EA002007B030BD00BF07
:10137000F11540000080014010B54FF0005184B0DD
:10138000154C2120A0474FF000512020A0474FF0DE
:1013900080517A20A0474FF000611620A0474FF0FF
:1013A00080517820A0474FF0C0510A20A0474FF04D
:1013B00080511220A047002208491320084C094BF5
:1013C00001918DF80D200294984701A9064B07481A
:1013D000984704B010BD00BF2D1D400080D1F0081B
:1013E000801A06007D234000111540000080014056
:1013F00000234FF400420260436003614361836154
:10140000C361704701230360704700BF022303607C
:10141000704700BF4FF48073036070474FF4007350
:1014200003607047F0B400292FD00469CF688E693B
:1014300091E828002B438D6823434C692B430D69A9
:1014400021043B4301F47F01334343EA05630B432B
:101450000361EAB15469536891692343466914688A
:101460000B43916804F01F0415693343D2680902E5
:101470002343120401F4706143EA057302F47022FD
:101480000B431343F0BC436170470161002AE1D173
:101490004261F0BC704700BFF0B400292FD08469CE
:1014A000CF688E6991E828002B438D6823434C69EF
:1014B0002B430D6921043B4301F47F01334343EA8D
:1014C00005630B438361EAB154695368916923430F
:1014D000C66914680B43916804F01F04156933430F
:1014E000D26809022343120401F4706143EA0573D0
:1014F00002F470220B431343F0BCC3617047816157
:10150000002AE1D1C261F0BC704700BF816470471E
:10151000F0B44FF0FF338026042208252024836294
:101520002F4B076A0660066B0560046002604A681C
:101530009A424DD82B4C0B68A2422ED92A4C2B49EB
:101540001444A1FB0321A400890BB3FBF4F303397A
:10155000033BFF2940D9002200E03CB10132490899
:10156000062A8CBF00240124FF29F6D8FF2B07D9B7
:1015700014B905E0062A03D85B080132FF2BF9D81D
:101580001B02002412049BB202F4E022C9B21343EE
:101590000B4303612046F0BC70475200B3FBF2F3EB
:1015A000033B0022FF2B02D808E0062A03D85B0881
:1015B0000132FF2BF9D8120402F4E02219020024B0
:1015C000DBB289B213430B4303612046F0BC704782
:1015D00001242046F0BC704701240022C6E700BF6A
:1015E000801A060000DC05000012FD3FF1197605A7
:1015F000CA68002A53D070B400268C6846604B68D5
:101600000D7C1B022D0403F4407305F4FE0543F426
:1016100080532B434360C6604B689BB91D46012332
:10162000C5600360036AD9051FD4012A20D047F2A0
:1016300030519E0712D4036ADD0516D40139F8D162
:1016400009202AE0012B0D78E9DD4E78022B46EACD
:101650000525E4D08B7843EA0525E0E7036B013AE2
:1016600004F8013B036AD905DFD5052070BC70473B
:1016700002219D0747F23052016007D4036ADE055C
:10168000F3D4013ADCD09D070160F7D5036B2370DA
:10169000036ADB07FCD5036A002070BC7047012099
:1016A000704700BF0346C868002834D070B40026D5
:1016B0008C685E600A7C4D6812042D0202F4FE0202
:1016C00005F440752A435A60DE604A688AB91546B7
:1016D000DD601A6AD60509D45507FAD514F8012B2E
:1016E00001385A6313D01A6AD605F5D5052070BCA7
:1016F0007047012A0D78EBDD4E78022A46EA05256F
:10170000E6D08A7842EA0525E2E7510705D41A6A4D
:10171000D405EBD4F9E70120704702221A601A6A57
:10172000D207FCD570BC7047F0B50346244C0020AE
:101730004FF0880EC3F8E44024274FF480764FF42E
:101740000025204C5860206058629862C3F800E081
:101750001F601E601D6061B308680501AA421CD3AA
:1017600068084FF6FE7600EBC202B2FBF5F2D50830
:10177000681EB0421DD81204002002F4E0222A4361
:101780001A624D688A680F692A43CE6859683A43DD
:101790003243114322605960F0BDC0004FF6FE761F
:1017A000D20002EB5002B2FBF0F2D508681EB04244
:1017B00001D90120F0BD586840F400205860DAE7F4
:1017C000004153555CC0412040230360704700BF77
:1017D00010230360704700BF816070474069704705
:1017E0004369DB0705D583690020C3F308030B6059
:1017F00070470120704700BF00EB81115368C86D2E
:101800000B6693684B66136823F07F430B6713697D
:10181000C3F30B034B675369CB67936923F07F4393
:10182000C1F88030D36923F07F43C1F88430D36896
:101830008B67704770B51048104DA8472020104B9B
:10184000104C9847A0470028FCD00F4B98470F4CEE
:101850000F4B104A9A62A0470028FCD002200E4B82
:1018600098470E4B002098470D4B98472B4602484F
:10187000BDE87040184700BF00A3E111E925400012
:10188000012340004D2340005D2340006D234000B4
:1018900000060E40013F18207D224000AD2240008E
:1018A00001254000A44B4FF400422DE9F0475A6057
:1018B000BFF35F8FDFF8F482A04FA14E4046A14DE9
:1018C000B04740EA07011120A8479F48B0479F4909
:1018D0009F4C01439F48A8474046B04740EA070154
:1018E0009D48A8479D48B04740EA04019C48A84746
:1018F0009C48B04740EA04019B48A8476FF060400D
:10190000B0479A499A4C01439A48A8476FF07040F3
:10191000B047994901439948A847636A0520984A06
:1019200043F4E02363629047BFF34F8FBFF36F8FA1
:10193000BFF34F8FBFF36F8F4FF00009C4F8509281
:10194000636943F400336361BFF34F8FBFF36F8F5D
:101950008C4B8D498D4A59605A60BFF34F8FBFF34E
:101960006F8FD4F8903223F00103C4F89032D4F88A
:10197000943223F00103C4F89432BFF34F8FBFF3C6
:101980006F8F834C0A20A0470B20A0470C20A04754
:101990001020A0471120A0474FF400757D4C4FF454
:1019A00000037D4F4FF4001123611026C4F8A030CE
:1019B0004FF0080E236338463D614B46C7F8A050F0
:1019C0004FF400523D636561C4F8A0506566C4F8E9
:1019D000905065652562C4F88450D4F870C0DFF873
:1019E000D0812CF4007CC4F870C0D4F874C02CF4FE
:1019F000007CC4F874C0C4F8C050C4F8D450C4F813
:101A0000B0502166C4F8901061656162C4F880101E
:101A1000D4F870C02CF4001CC4F870C0D4F874C0A2
:101A20002CF4001CC4F874C06160D8F8141141EAA9
:101A3000060C5A49C8F814C10E66C1F890604E658C
:101A40004E62C1F88060D1F870C0DFF868814CEA5E
:101A5000060CC1F870C0D1F874C04CEA060CC1F88D
:101A600074C04E604FF06051C4F860E0C4F890E07C
:101A7000C4F854E0C4F824E0C4F880E0D4F870C09E
:101A80002CF0080CC4F870C0D4F874C02CF0080C0A
:101A9000C4F874C0C4F804E02666C4F890606665B3
:101AA0006662C4F88060D4F870E02EF0100EC4F8BE
:101AB00070E0D4F874E02EF0100EC4F874E06660A4
:101AC000C0474B4638464FF080424FF06051C04708
:101AD00038460123FF224FF00061C04701233F2217
:101AE0004FF000612E48C047204601234FF4C0321A
:101AF0004FF00061C047384601234FF480724FF029
:101B00000061C047384601234FF400624FF0006186
:101B1000C04701234FF400224FF000612148C04725
:101B20004B462A4638464FF08051C0472946384632
:101B30001D4BBDE8F047184750180E40010000014A
:101B4000D11B4000C51B4000FFFF1F000100230602
:101B5000010023031200400013000020FFFF0300D8
:101B600014004020FFFF0100150044200100011374
:101B700000ED00E0160000400100000317000060C7
:101B8000B91B4000000C0E400C08005A0C07005A0C
:101B90007D234000000E0E4000120E4000100E404B
:101BA00000160E4000140E40F51B4000FFFF3F00E2
:101BB00000800840F91B4000014B5860704700BF8F
:101BC00090ED00E0014BD8601961704790ED00E0A6
:101BD00020280DD94022052302E001331F2B05D018
:101BE00090424FEA4202F8D8580070473E207047B2
:101BF0000820704701637047B1F1005F30B43BD0FB
:101C000031D9B1F1405F1BD0B1F1605F18D0B1F1B3
:101C1000205F03D0002330BC18467047DD074264C4
:101C200048D413F00A0F026648D09C07026248D5D8
:101C3000C0F88020012342610260184630BC704722
:101C400003F00404DB0742642FD54266002C2FD03A
:101C50000265B1F1605F4ED0426301230261026010
:101C6000184630BC7047B1F1805F05D0B1F1C05F5C
:101C700002D0B1F1006FCDD1B1F1805F42643CD0B0
:101C800024D9B1F1C05F42D0B1F1005F05D1016F3D
:101C900011430167416F11434167DB07426025D55E
:101CA00001234266184630BC70470266002CCFD133
:101CB0004265CEE713F00A0F4266B6D19C07426236
:101CC000B6D41907B6D5C0F88420B3E7B1F1006FD8
:101CD000E3D1046FD143056F2C400D460C400467DF
:101CE000416F446F214029404167D6E701230266D6
:101CF000184630BC70470263AFE7016F11430167BC
:101D0000416F446F214021EA02014167C5E7016F3D
:101D1000046F214021EA02010167416F11434167CD
:101D2000BBE700BFC06C7047806C7047534B01F03D
:101D3000F04203EB5013B2F1005F70B44FEA43235B
:101D40006DD00BD8B2F1805F27D0B2F1C05F52D016
:101D5000B2F1006F38D0002070BC7047B2F1405F24
:101D600066D0B2F1605F63D0B2F1205FF3D100F0D2
:101D70001F000122CD0702FA00F25A6473D55A6699
:101D800011F00A0F6DD01A628C076ED5C3F880204F
:101D90005A6101201A6070BC704700F01F020120D8
:101DA000C90700FA02F25A641C6F44EA02041C6775
:101DB0005C6F5D6F04EA050424EA02045C675A6004
:101DC00016D55A6670BC704700F01F02012000FA59
:101DD00002F25A64D6431D6F1C6F254035401D67C3
:101DE0005C6F5D6F2C4034405C67CC075A60E8D470
:101DF0001A6670BC704700F01F02012000FA02F260
:101E00005A641C6F1D6F2C4024EA02041C67CE0725
:101E10005C6F44EA02045C675A60E9D5D1E700F0E0
:101E20001F02012000FA02F25A641C6F1443EDE70E
:101E300000F01F00012201F0605401F0040582400F
:101E4000C9075A640BD55A66A5B11A65B4F1605F2B
:101E500012D05A631A6101201A6070BC70471A666A
:101E6000F2E75A6290E71A668AE7080790D5C3F846
:101E700084208DE75A65E9E71A63EBE7070720003E
:101E800070B52E4B2E48984705462E4B2C48984748
:101E9000054015D02C4C20680A2819D020690A2842
:101EA0001FD0206A0A2825D0206B0A282BD0206C4E
:101EB0000A2831D0206D0A2837D0206E0A2800D099
:101EC00070BD616E2942FBD0E36EBDE870401847DB
:101ED00061680D42E2D0E368984763689D43EFD0A4
:101EE000DCE761692942DCD0E369984763699D4377
:101EF000E6D0D6E7616A2942D6D0E36A9847636A9A
:101F00009D43DDD0D0E7616B2942D0D0E36B984789
:101F1000636B9D43D4D0CAE7616C2942CAD0E36C9D
:101F20009847636C9D43CBD0C4E7616D2942C4D010
:101F3000E36D9847636D9D43C2D0BEE7251D400009
:101F4000000E0E40291D400060C0412070B52E4B90
:101F50002E48984705462E4B2C489847054015D0EB
:101F60002C4C20680B2819D020690B281FD0206A20
:101F70000B2825D0206B0B282BD0206C0B2831D0C0
:101F8000206D0B2837D0206E0B2800D070BD616EFD
:101F90002942FBD0E36EBDE87040184761680D42EE
:101FA000E2D0E368984763689D43EFD0DCE761695E
:101FB0002942DCD0E369984763699D43E6D0D6E7C0
:101FC000616A2942D6D0E36A9847636A9D43DDD0AF
:101FD000D0E7616B2942D0D0E36B9847636B9D4398
:101FE000D4D0CAE7616C2942CAD0E36C9847636CCD
:101FF0009D43CBD0C4E7616D2942C4D0E36D9847BF
:10200000636D9D43C2D0BEE7251D400000100E4009
:10201000291D400060C0412070B52E4B2E489847C6
:1020200005462E4B2C489847054015D02C4C20686F
:102030000C2819D020690C281FD0206A0C2825D024
:10204000206B0C282BD0206C0C2831D0206D0C2854
:1020500037D0206E0C2800D070BD616E2942FBD0B5
:10206000E36EBDE87040184761680D42E2D0E36856
:10207000984763689D43EFD0DCE761692942DCD073
:10208000E369984763699D43E6D0D6E7616A2942D0
:10209000D6D0E36A9847636A9D43DDD0D0E7616B91
:1020A0002942D0D0E36B9847636B9D43D4D0CAE7F5
:1020B000616C2942CAD0E36C9847636C9D43CBD0D6
:1020C000C4E7616D2942C4D0E36D9847636D9D43B9
:1020D000C2D0BEE7251D400000120E40291D400061
:1020E00060C0412070B52E4B2E48984705462E4BB8
:1020F0002C489847054015D02C4C2068102819D042
:10210000206910281FD0206A102825D0206B1028A5
:102110002BD0206C102831D0206D102837D0206EA5
:10212000102800D070BD616E2942FBD0E36EBDE87F
:102130007040184761680D42E2D0E36898476368D1
:102140009D43EFD0DCE761692942DCD0E369984721
:1021500063699D43E6D0D6E7616A2942D6D0E36A37
:102160009847636A9D43DDD0D0E7616B2942D0D0A8
:10217000E36B9847636B9D43D4D0CAE7616C2942F7
:10218000CAD0E36C9847636C9D43CBD0C4E7616DC4
:102190002942C4D0E36D9847636D9D43C2D0BEE72A
:1021A000251D400000140E40291D400060C0412044
:1021B00070B52E4B2E48984705462E4B2C48984715
:1021C000054015D02C4C2068112819D02069112801
:1021D0001FD0206A112825D0206B11282BD0206C0D
:1021E000112831D0206D112837D0206E112800D051
:1021F00070BD616E2942FBD0E36EBDE870401847A8
:1022000061680D42E2D0E368984763689D43EFD070
:10221000DCE761692942DCD0E369984763699D4343
:10222000E6D0D6E7616A2942D6D0E36A9847636A66
:102230009D43DDD0D0E7616B2942D0D0E36B984756
:10224000636B9D43D4D0CAE7616C2942CAD0E36C6A
:102250009847636C9D43CBD0C4E7616D2942C4D0DD
:10226000E36D9847636D9D43C2D0BEE7251D4000D6
:1022700000160E40291D400060C04120023802288F
:102280000DD8084B53F8200007490B6B0A4623F47E
:10229000407303430B63936E1B07FCD5704700200C
:1022A000F2E700BF6C6B400000060E4013490B6B59
:1022B00023F07003184308638B6E180707D44FF49C
:1022C000006301E0013B16D08A6E1207FAD50B4974
:1022D0000B6B23F0030343F002030B638B6E1807B1
:1022E00007D44FF4006301E0013B04D08A6E12076B
:1022F000FAD5002070470120704700BF00060E404D
:102300000E4A10B40E4C1146136A1C4314628B6EB5
:102310009A03FCD50C6A0B4B084A234043F45C1328
:1023200018430862936E9B03FCD5116A064B0B4061
:1023300043F45C1313625DF8044B704700060E40D3
:10234000080037008FFFC8FFFFFFC8FE024B986EE2
:1023500000F48030704700BF00060E40024B4FF083
:1023600000529A62704700BF00060E40024B986E02
:1023700000F00200704700BF00060E403F281AD848
:102380001F280AD801230E4A03FA00F0916930EAA7
:10239000010312D010610020704701232038084A41
:1023A00003FA00F0D2F8083130EA030305D0C2F88E
:1023B000000100207047012070470020704700BFD7
:1023C00000060E400B4B4FF4807210B403EB8004F8
:1023D00002FA00F0226C22F47F621143216402E0D1
:1023E0009A6E024202D11A680242F9D15DF8044B9A
:1023F000704700BF00060E400B4B4FF4807210B4C4
:1024000003EB800402FA00F0226C22F00702114371
:10241000216402E09A6E024202D11A680242F9D1A6
:102420005DF8044B704700BF00060E404FF4807308
:10243000024A03FA00F01060704700BF00060E4029
:10244000FEE700BFFEE700BF20492148814210B5EA
:1024500082B009D01F4B984206D2C2431E4C1A4488
:1024600022F003020432A0471C481D4B984207D2B9
:10247000C24300211B4C1A4422F003020432A0473D
:10248000194B1A4A23F07F039360EFF31083B3FADA
:1024900083F35B09019372B6BFF35F8F144A002385
:1024A0001449137001980B6843F470030B60BFF379
:1024B0004F8FBFF36F8F20B101231370BFF35F8F76
:1024C00062B60D4B98470D4B9847FEE710774000DA
:1024D00000004020000A40204943400000404020C6
:1024E000E8D044207D4440000000400000ED00E0C2
:1024F0002800402088ED00E0613D4000CD294000EB
:10250000324A136B03F00303012B3CD025D3022B7B
:102510000DD02F4803682D490A6B02F07002702A13
:102520002BD00A6BC2F30212D34003607047136AC8
:102530002748DB013AD5274B036024490A6B02F098
:102540000302022AE7D18A6A896AC2F30A42C9B23F
:1025500002FB0333B3FBF1F3DDE71F4B1B495B6960
:102560000A6B13F0800F1A4802F0700214BF4FF488
:1025700000434FF4FA43702AD3D1184AA2FB032335
:102580005B0803607047136AD9010CD410481449E2
:102590000160126A02F07002102A11D00D4B202A3D
:1025A00018BF0B46B7E70B4B0948B4E70C4B036069
:1025B000126A02F07002102A04D0202ABBD0BCE7B5
:1025C000084BA8E7074B0360B7E700BF00060E40C3
:1025D0002C004020001BB70010180E40ABAAAAAA7E
:1025E00000093D0000127A00164B984217D9164B8D
:1025F000984210D9154B98421AD9154B984213D9C5
:10260000144B984218D9144B9842144B94BF144A57
:10261000144A1A607047114B134A1A6070470F4BE7
:102620004FF080621A6070470C4B104A1A60704776
:102630000A4B0F4A1A607047084B4FF004221A6089
:10264000704700BFBFF35E017FE7BD023FDB1C04A4
:10265000FFCE7B05BFC2DA067FB63908000C0E40FC
:10266000000500040006000400010004000300044B
:10267000000200040D4A0E49136843B11844814218
:1026800002DB1060184670474FF0FF30704710B4FF
:10269000084C20441460814204DB106020465DF841
:1026A000044B70474FF0FF30F9E700BFD0C0412026
:1026B000FCFF4520E8F244204FF0FF30704700BF98
:1026C0004FF4005300204B60704700BF012070475B
:1026D000002070472DE9F041984B82B09848984708
:1026E000C30702D402B0BDE8F081964B01A994481B
:1026F0009847954A137803F0FF008BB993490B78FC
:1027000003F0FF04E3B1DDED017A9FED917AF8EE7D
:10271000677A904B67EE877AC3ED007A0870E1E73D
:10272000DDED017A00239FED8A7AF8EE677A8A4917
:1027300067EE877AC1ED007A137002B0BDE8F081D0
:102740008648037803F0FF054BB9854C237803F0E6
:10275000FF068BB1019A834B1A602570C2E7DDED4D
:10276000017A9FED7B7AF8EE677A7F4B67EE877A86
:10277000C3ED007A0470B5E77C4D2B7803F0FF07BA
:1027800063B1DDED017A9FED727AF8EE677A784BEE
:1027900067EE877AC3ED007A2E70A3E7754E337823
:1027A00003F0FF0E63B1DDED017A9FED737AF8EE71
:1027B000677A724B67EE877AC3ED007A377091E7DC
:1027C0006F4F3B7803F0FF0C8BB1DDED017ADFED4D
:1027D0006D6AB8EE677ADFED6C7A6C4BE7EE667A7D
:1027E000FCEEE77AC3ED007A87F800E07AE7DFF8DD
:1027F000D0E19EF800306BB1DDED017A9FED647A97
:10280000F8EE677A634B67EE877AC3ED007A8EF84D
:1028100000C067E7DFF8AC8198F8003073B1DDEDF8
:10282000017A00239FED4A7AF8EE677A5A4A67EEFA
:10283000877AC2ED007A88F8003053E7DFF888C164
:102840009CF8003083B1DDED017A0023DFED536A9F
:10285000B8EE677ADFED527A524AE7EE267AC2ED99
:10286000007A8CF800303DE7019BFF2B2CD0F72B32
:1028700030D0FE2B2BD0FD2B4FD0FB2B4AD0F62B8C
:1028800059D0F82B54D0F92B4ED0FA2B48D0F52B39
:102890003CD0FC2B34D0444AFBB111680A291CD827
:1028A000424C43481568216800EB830301EBC501E6
:1028B0001B680B6010682368019903EBC003596023
:1028C0001368013313600DE7012313700AE7012336
:1028D0000B7007E70123037004E7344900201668F2
:1028E0000B68344D03EBC603334C1D600D68136851
:1028F000266805EBC30325600E6058601060F1E6A2
:102900002E4A137883F001031370EBE601238CF851
:102910000030E7E601232B70E4E601232370E1E6B3
:10292000012388F80030DDE601238EF80030D9E677
:1029300001233B70D6E601233370D3E6DD17400058
:1029400000800240E11740000A5444200B54442008
:102950000402013C4C004020400040200954442027
:102960000C544420500040203C0040200D54442092
:1029700000544420085444206C9CB43B0400432081
:1029800007544420F278DC4200207D463800402085
:10299000A069CE3B00004320D4C041208542213DA8
:1029A000CDCCCC3E340040200040442044004020A8
:1029B000786B4000000080BF48004020300040207D
:1029C0000654442005544420045444202DE9F04F7B
:1029D000B74B2DED068B97B09847B64B9847BFF392
:1029E0004F8FBFF36F8FB44B00245A6922F400322B
:1029F0005A61C3F85042BFF34F8FBFF36F8FBFF3DD
:102A00004F8FBFF36F8FC3F850425A6942F40032C0
:102A10005A61BFF34F8FBFF36F8FA84B4FF4E1356F
:102A20009847A74B9847C0214FF40062A54B0E2052
:102A30000A950B916FF001050C924FF4804B0D94A9
:102A40002F460E944FF07E58029498479E4A0AA94A
:102A50009E4BA1469E4898479E4E9D48B0479E4D2E
:102A60009B48A8479A48B0479948A84701219848E9
:102A700000259A4B98479A4BDFF8C0A24FF0400EC2
:102A8000FF1A984E984B2846DFF8B4C24FF4806284
:102A900007978AF80EE3CAF880B1CAF800B0DFF8E9
:102AA000A4A2356091491D6074605C60B5609D6052
:102AB000F460DC6035611D6174615C61B5619D61CC
:102AC000F461DC6135621D6274625C62B5629D62B4
:102AD000F462DC6235631D6374635C63B5639D639C
:102AE000F463DC6335641D6474645C64B5649D6484
:102AF000F464DC6435651D6574655C657C4BCDF8FC
:102B00002CC0CDF854C0CDF8288098475A462846A6
:102B10005146774B98475A4628467649744BDFED25
:102B200076AADFED768ADFF820B29847744B1B78DF
:102B3000002BFBD0734A00239FED739A1068704AF4
:102B40001370724B9847B7EE007A07EE900A0C228A
:102B50007F2087FEAA8AC7EE089ADFED6D7A1318E8
:102B60005B0877EEC87A39EE487A591CF0EEE77ABE
:102B7000B0EEC77AFCEEE77ABCEEC77A17EE905A51
:102B800017EE104AAC421FD24EE15C1C614A614D07
:102B900002EB830205EB840592ED009AD5ED007AF5
:102BA00039EE487A77EEC87AB0EEC77AF0EEE77A77
:102BB000BCEEC77AFCEEE77A17EE102A17EE905AB1
:102BC000AA42C0F0328121460B1881424FEA5303DA
:102BD000DBD3504B03EB800393ED009A4E4B1A78F6
:102BE0004E4B002A1B6814BFF0EE497AF0EE487A8B
:102BF000372B03D9494B1B68482B1ED9474B1B6801
:102C00007F2B1AD8454B1B68402B444BD3ED006AF1
:102C1000404B03EB800000F26082F8EE666A9FEDA5
:102C2000406A9FED407A50ED025A76EEC66A39EE60
:102C3000656A26EE877AE7EE067AB7EE00AA314B90
:102C400077EEC87A09AA18684FF48071B0EE4A7A14
:102C5000354BA9EEA77A8DED0A7A9847B4EEEA8A49
:102C6000F1EE10FA40F3F080DFED307A9DED097A55
:102C7000B4EEE77AF1EE10FA40F3E6802C4B1B68D5
:102C8000D3ED007AF4EECA7AF1EE10FA40F31D8229
:102C9000B1EE046A0120B0EE4A7A0022DFED256A27
:102CA000DFED1F3ADFED1F4A9FED234A7DE000BFB5
:102CB00035184000A518400000ED00E07903400001
:102CC000090D40007D23400080D1F0082917400005
:102CD00000800240C9174000D1174000D9174000BA
:102CE0000044442068D044200CD0442000584420A4
:102CF00091314000000042200000C84200A7354743
:102D00001C4040201C0040200000DC43D105400056
:102D1000FE14E943786B4000300040205000402012
:102D2000000080420000803C15324000BD378635EF
:102D300048004020666666BF00007C4200E100E07B
:102D4000000080BF004043201400402075EEE35A8D
:102D500094ED003A14ED025A65EEA45A33EE455A4A
:102D6000E5EE257A77EEC87A67EEA97AF4EE667A10
:102D7000F1EE10FA0CDDF4EE467AF1EE10FA07D51A
:102D800016A977EE877A01EB8001013041ED0C7ACC
:102D90000833D3ED007A0132F4EE477AF1EE10FAFF
:102DA00040F394810A2A00F09181D3ED007A77EE06
:102DB000C97AF5EEC07AD3ED007AF1EE10FA4CBF85
:102DC00079EE677A77EEC97AF4EEC77AF1EE10FA07
:102DD000CCBF012100210029DAD0C949D3ED007A06
:102DE00009684029BED05968C54C7F292468B9D8E4
:102DF0007F2CB7D8C24C2468402CC14CD4ED005A6B
:102E0000C04CF8EE655A04EB810421469ED975EE5C
:102E1000C45A94ED023A94ED005A65EEA45A33EE8A
:102E2000455AE5EE257A9DE711468B4240F26681D0
:102E30005C1818460A46B349630801EB830191ED1B
:102E4000009AD1ED017A8AE6AF4B0B93AF4BB04AB3
:102E500019680AAB146818EE102AAE480068009191
:102E60000194AD49AD4CA047AB4C4A46C2F30D03AB
:102E700054F8041B01320AEB83031960A84B9C42EF
:102E8000F4D1A84B9FEDA88AD3ED007A09F58063B1
:102E9000A64D88EEA77A05939FEDA5AA9E4BDFED80
:102EA000A59A9FEDA59A27EE888A03930694FCEED7
:102EB000C77ACDED047AA14BA14A93ED007AD2ED09
:102EC000007AA04A77EE277A029BD2ED006A039A35
:102ED0005C1C77EEA67A9C4E52F8048B17EE900A93
:102EE00003929A4A90470022994BB047994E0B465D
:102EF000024699490020B04706460F46934A40468D
:102F000090470B460246394630468F4EB047934AAB
:102F10009047DDED027A049A2346F8EE677A28603E
:102F2000A24208BF0023A9F2DF54864E67EE887ADA
:102F300002938B4BC4F30D0417EE900A0AEB840442
:102F40009847F0EE697A07EE100A6FF4FA63A9F277
:102F5000B3407B4AE7EE0A7A4B44C0F30D0092ED92
:102F6000004AC3F30D03C9F30D010AEB800024EE00
:102F7000094A0AEB8303D5ED005A9FED7A5A67EEB2
:102F8000A87A93ED006A784BFCEEE77A1A68A9EB11
:102F9000020217EE903AD4ED007A744CC2F30D029F
:102FA00036EE276AD0ED007A6448A9EB030394ED6E
:102FB000003A09F10109D0ED003AA3F1C7046C48C9
:102FC00036EE276AC4F30D04D6ED004A00EB81010A
:102FD0006FF4C870664E0AEB8404181824EE855A04
:102FE00006EB820294ED007AC0F30D006FF41674C4
:102FF000C3F30D06D2ED002A0AEB80001A19D0EDBA
:10300000007A0AEB86006FF44A76C2F30D0277EE7F
:10301000277AD0ED006A33440AEB820277EEA67A73
:10302000C3F30D0392ED007A0AEB830337EE877A40
:10303000D3ED007A059B77EE277A9945E7EE845A1F
:10304000F0EE657AB0EE657AE6EE057AA2EE837A66
:10305000E7EE237A81ED007AE5EC017A7FF42BAF7D
:103060004FF480523149434B2B48069C9847424BC2
:10307000DFED427A93ED007A4FF48063264A67EEE3
:10308000277A3F4D104617EE901AA847224B079F0C
:10309000214ADBF80060981AF3EC017AFDEEE77A3A
:1030A000FD18A342CDED037ABDF80C203252325AFE
:1030B00092B27253ECD1334B1B7803F0FF02002B1A
:1030C0007FF434AD2F4B1A7030E5012016AA0E4B59
:1030D00002EB800040F8303CB8E6F8EE666A9FEDFF
:1030E0002A6A9FED2A7AD0ED025A76EEC66A35EE4C
:1030F000C96A26EE877AE7EE067A9EE518466DE500
:1031000050004020786B4000000080BF400040200D
:103110003C0040201C00402000444420A90D4000F9
:10312000005444203400402045AD0D39005844205F
:10313000A69B443B0AD7233CCDCC4C3E0400432005
:10314000D4C04120005444209D384000F537400051
:103150000000E03F353540000000F03FC13C40003A
:1031600039344000C3F5A83E380040200000432019
:1031700000004220494340004C00402000FE7F46B2
:10318000C13440001C40402000007C420000803CD4
:1031900030B495080BD00B462C46013C18605860A3
:1031A0009860D86003F11003F7D101EB051112F01C
:1031B000030203D0013A41F8040BFBD130BC704745
:1031C0002DE9F0035FEA920918D004460B464D46FC
:1031D000D4F80080D4F804C0A768E668013DC3F8BD
:1031E0000080C3F804C09F60DE6004F1100403F1A6
:1031F0001003EDD14FEA09194844494412F0030283
:1032000005D050F8043B013A41F8043BF9D1BDE840
:10321000F003704730B48D08DFED187A1FD00346F5
:103220002C46D3ED006A93ED017A66EEA66A27EE8E
:10323000076A76EEA77A93ED027A76EE277A67EE42
:10324000076A93ED037A76EEA76A27EE077A013CC8
:1032500003F1100377EE267AE3D100EB051011F0AD
:10326000030107D0B0EC017A27EE077A013977EE37
:10327000877AF7D1C2ED007A30BC704700000000B9
:103280002DE9F00301F1FF3C5FEA9C0900F104071E
:10329000D0ED007A5CD03C464E4604200025D4EDAB
:1032A000006AF4EEE76AF1EE10FA94ED017A48BF95
:1032B000F0EE667AF4EEC77AA0F1030848BF4546FF
:1032C000F1EE10FAD4ED026AC8BFF0EE477AF4EEE0
:1032D000E67AA0F10208C8BF4546F1EE10FA94ED77
:1032E000037AC8BFF0EE667AF4EEC77A00F1FF38D1
:1032F000C8BF4546F1EE10FAC8BF0546C8BFF0EE9C
:10330000477A013E04F1100400F10400C7D107EB35
:1033100009171CF0030C1DD0CCEB01010020B7EC09
:10332000017AB4EEE77AF1EE10FA48BFF0EE477A90
:1033300001EB000400F1010048BF25466045B0EEF6
:10334000677AECD182ED007A1D60BDE8F00370472A
:103350004D46DEE7B0EE677AF4E700BF2DE9F003F3
:1033600001F1FF3C5FEA9C0900F10407D0ED007A0F
:103370005CD03C464E4604200025D4ED006AF4EEB5
:10338000E76AF1EE10FA94ED017AC8BFF0EE667AC2
:10339000F4EEC77AA0F10308C8BF4546F1EE10FA73
:1033A000D4ED026A48BFF0EE477AF4EEE67AA0F177
:1033B000020848BF4546F1EE10FA94ED037A48BF83
:1033C000F0EE667AF4EEC77A00F1FF3848BF454662
:1033D000F1EE10FA48BF054648BFF0EE477A013ECD
:1033E00004F1100400F10400C7D107EB09171CF029
:1033F000030C1DD0CCEB01010020B7EC017AB4EE38
:10340000E77AF1EE10FAC8BFF0EE477A01EB00045C
:1034100000F10100C8BF25466045B0EE677AECD1E7
:1034200082ED007A1D60BDE8F00370474D46DEE78F
:10343000B0EE677AF4E700BFDFED1E7A06EE900A81
:10344000B5EE007A66EEA77A77EE877AF5EEC07A67
:10345000F1EE10FABDEEE77A04D517EE103A013B13
:1034600007EE103AB8EEC77ADFED136A77EEC77A47
:1034700067EEA67AFCEEE76A16EE903AC3F308030D
:1034800007EE103AF8EE476AB7EE007A77EEE67A82
:103490000A4A37EE677A02EB830191ED006AD1EDBB
:1034A000016A27EE067A67EEA67A77EE277A17EE9C
:1034B000900A704783F9223E00000044786D400076
:1034C00070B49E0807EE901A23D035461446014684
:1034D000D1ED005A91ED016AD1ED026A91ED037AC6
:1034E00065EEA75A26EE276A66EEA76A27EE277AC8
:1034F000013DC4ED005A84ED016AC4ED026A84ED19
:10350000037A01F1100104F11004E1D136013044D5
:10351000324413F0030307D0B0EC017A27EE277A88
:10352000013BA2EC017AF7D170BC704781F00041F9
:1035300002E000BF83F0004330B54FEA41044FEA98
:10354000430594EA050F08BF90EA020F1FBF54EA33
:10355000000C55EA020C7FEA645C7FEA655C00F0CF
:10356000E2804FEA5454D4EB5555B8BF6D420CDDA0
:103570002C4480EA020281EA030382EA000083EA23
:10358000010180EA020281EA0303362D88BF30BDC3
:1035900011F0004F4FEA01314FF4801C4CEA113119
:1035A00002D0404261EB410113F0004F4FEA033378
:1035B0004CEA133302D0524263EB430394EA050F03
:1035C00000F0A780A4F10104D5F1200E0DDB02FA72
:1035D0000EFC22FA05F2801841F1000103FA0EF206
:1035E000801843FA05F359410EE0A5F120050EF1CC
:1035F000200E012A03FA0EFC28BF4CF0020C43FAFD
:1036000005F3C01851EBE37101F0004507D54FF009
:10361000000EDCF1000C7EEB00006EEB0101B1F559
:10362000801F1BD3B1F5001F0CD349085FEA30009F
:103630004FEA3C0C04F101044FEA445212F5800FAA
:1036400080F09A80BCF1004F08BF5FEA500C50F147
:10365000000041EB045141EA050130BD5FEA4C0C2A
:10366000404141EB010111F4801FA4F10104E9D1B3
:1036700091F0000F04BF01460020B1FA81F308BFAA
:103680002033A3F10B03B3F120020CDA0C3208DD76
:1036900002F1140CC2F10C0201FA0CF021FA02F151
:1036A0000CE002F11402D8BFC2F1200C01FA02F1C1
:1036B00020FA0CFCDCBF41EA0C019040E41AA2BFE6
:1036C00001EB0451294330BD6FEA04041F3C1CDAAE
:1036D0000C340EDC04F11404C4F1200220FA04F0CE
:1036E00001FA02F340EA030021FA04F345EA030178
:1036F00030BDC4F10C04C4F1200220FA02F001FA3A
:1037000004F340EA0300294630BD21FA04F02946BB
:1037100030BD94F0000F83F4801306BF81F4801154
:103720000134013D4EE77FEA645C18BF7FEA655CC7
:1037300029D094EA050F08BF90EA020F05D054EA99
:10374000000C04BF1946104630BD91EA030F1EBF9E
:103750000021002030BD5FEA545C05D140004941A2
:1037600028BF41F0004130BD14F580043CBF01F595
:10377000801130BD01F0004545F0FE4141F470017B
:103780004FF0000030BD7FEA645C1ABF1946104656
:103790007FEA655C1CBF0B46024650EA013406BF57
:1037A00052EA033591EA030F41F4002130BD00BF16
:1037B00090F0000F04BF0021704730B54FF48064D3
:1037C00004F132044FF000054FF0000150E700BF54
:1037D00090F0000F04BF0021704730B54FF48064B3
:1037E00004F1320410F0004548BF40424FF00001A0
:1037F0003EE700BF42004FEAE2014FEA31014FEAE3
:1038000002701FBF12F07F4393F07F4F81F0605131
:10381000704792F0000F14BF93F07F4F704730B5A0
:103820004FF4607401F0004521F0004120E700BF33
:1038300050EA010208BF704730B54FF000050AE0BA
:1038400050EA010208BF704730B511F0004502D5BB
:10385000404261EB41014FF4806404F132045FEABD
:10386000915C3FF4DCAE4FF003025FEADC0C18BF62
:1038700003325FEADC0C18BF033202EBDC02C2F158
:10388000200300FA03FC20FA02F001FA03FE40EAEA
:103890000E0021FA02F11444C1E600BF70B54FF0EA
:1038A000FF0C4CF4E06C1CEA11541DBF1CEA1355CC
:1038B00094EA0C0F95EA0C0F00F0DEF82C4481EA34
:1038C000030621EA4C5123EA4C5350EA013518BF54
:1038D00052EA033541F4801143F4801338D0A0FB41
:1038E00002CE4FF00005E1FB02E506F00042E0FBEE
:1038F00003E54FF00006E1FB03569CF0000F18BFF4
:103900004EF0010EA4F1FF04B6F5007F64F540749B
:1039100004D25FEA4E0E6D4146EB060642EAC6212E
:1039200041EA55514FEAC52040EA5E504FEACE2E9B
:10393000B4F1FD0C88BFBCF5E06F1ED8BEF1004F9E
:1039400008BF5FEA500E50F1000041EB045170BD1A
:1039500006F0004646EA010140EA020081EA03015E
:10396000B4EB5C04C2BFD4EB0C0541EA045170BD5A
:1039700041F480114FF0000E013C00F3AB8014F1D4
:10398000360FDEBF002001F0004170BDC4F100041D
:10399000203C35DA0C341BDC04F11404C4F120059E
:1039A00000FA05F320FA04F001FA05F240EA0200F9
:1039B00001F0004221F0004110EBD37021FA04F62F
:1039C00042EB06015EEA430E08BF20EAD37070BDE9
:1039D000C4F10C04C4F1200500FA04F320FA05F048
:1039E00001FA04F240EA020001F0004110EBD3704A
:1039F00041F100015EEA430E08BF20EAD37070BDBA
:103A0000C4F1200500FA05F24EEA020E20FA04F392
:103A100001FA05F243EA020321FA04F001F0004141
:103A200021FA04F220EA020000EBD3705EEA430EB2
:103A300008BF20EAD37070BD94F0000F0FD101F0E1
:103A40000046400041EB010111F4801F08BF013C1A
:103A5000F7D041EA060195F0000F18BF704703F058
:103A60000046520043EB030313F4801F08BF013DDF
:103A7000F7D043EA0603704794EA0C0F0CEA13559B
:103A800018BF95EA0C0F0CD050EA410618BF52EA55
:103A90004306D1D181EA030101F000414FF000005B
:103AA00070BD50EA410606BF1046194652EA430669
:103AB00019D094EA0C0F02D150EA013613D195EADD
:103AC0000C0F05D152EA03361CBF104619460AD125
:103AD00081EA030101F0004141F0FE4141F470012F
:103AE0004FF0000070BD41F0FE4141F4780170BD1F
:103AF00070B54FF0FF0C4CF4E06C1CEA11541DBF84
:103B00001CEA135594EA0C0F95EA0C0F00F0A7F885
:103B1000A4EB050481EA030E52EA03354FEA0131B2
:103B200000F088804FEA03334FF0805545EA1313C5
:103B300043EA12634FEA022245EA111545EA10658D
:103B40004FEA00260EF000419D4208BF964244F124
:103B5000FD0404F5407402D25B084FEA3202B61A43
:103B600065EB03055B084FEA32024FF480104FF417
:103B7000002CB6EB020E75EB030E22BFB61A75468B
:103B800040EA0C005B084FEA3202B6EB020E75EB1E
:103B9000030E22BFB61A754640EA5C005B084FEA86
:103BA0003202B6EB020E75EB030E22BFB61A754653
:103BB00040EA9C005B084FEA3202B6EB020E75EB5E
:103BC000030E22BFB61A754640EADC0055EA060E1F
:103BD00018D04FEA051545EA16754FEA06164FEA62
:103BE000C30343EA52734FEAC2025FEA1C1CC0D10E
:103BF00011F4801F0BD141EA00014FF000004FF09B
:103C0000004CB6E711F4801F04BF01430020B4F15B
:103C1000FD0C88BFBCF5E06F3FF6AFAEB5EB030C13
:103C200004BFB6EB020C5FEA500C50F1000041EB10
:103C3000045170BD0EF0004E4EEA113114EB5C04DD
:103C4000C2BFD4EB0C0541EA045170BD41F48011B0
:103C50004FF0000E013C90E645EA060E8DE60CEAB8
:103C6000135594EA0C0F08BF95EA0C0F3FF43BAFD5
:103C700094EA0C0F0AD150EA01347FF434AF95EA8C
:103C80000C0F7FF425AF104619462CE795EA0C0F70
:103C900006D152EA03353FF4FDAE1046194622E73D
:103CA00050EA410618BF52EA43067FF4C5AE50EA17
:103CB00041047FF40DAF52EA43057FF4EBAE12E707
:103CC0004FEA4102B2F1E04324BFB3F5001CDCF13E
:103CD000FE5C0DD901F0004C4FEAC0024CEA507076
:103CE000B2F1004F40EB830008BF20F001007047A5
:103CF00011F0804F21D113F13872BCBF01F00040A8
:103D0000704741F480114FEA5252C2F11802C2F1D9
:103D1000200C10FA0CF320FA02F018BF40F001005A
:103D20004FEAC1234FEAD32303FA0CFC40EA0C000C
:103D300023FA02F34FEA4303CCE77FEA625307D149
:103D400050EA01331EBF4FF0FE4040F44000704780
:103D500001F0004040F0FE4040F40000704700BF1A
:103D600070B50F4E0F4D761BB61018BF002405D04E
:103D7000013455F8043B9847A642F9D10A4E0B4D41
:103D8000761B03F0AFFCB61018BF002406D0013438
:103D900055F8043B9847A642F9D170BD70BD00BFED
:103DA000F0764000F0764000F8764000F076400073
:103DB0000FB400B5074983B004AB086853F8042B6F
:103DC0008168019300F006FC03B05DF804EB04B0D9
:103DD000704700BF54004020024B0146186800F0B5
:103DE00003B800BF540040202DE9F04F01F10B064D
:103DF000162E83B0054640F29E8036F0070600F18D
:103E0000BD80B14200F2BA8000F086FBB6F5FC7FBF
:103E1000C0F09382730A00F0B880042B00F279811D
:103E2000B30903F1390003F1380EC300BF4F3B441F
:103E3000A3F108015C68A14206D10CE0002A80F2DF
:103E4000AA80E468A14206D0636823F003039A1BAA
:103E50000F2AF3DD70463C69DFF8E4E2744500F0B8
:103E6000AB81636823F003039A1B0F2A00F3908150
:103E7000002AC7F814E0C7F810E080F29D80B3F57F
:103E8000007F80F06181DB0803F1010C99107A68F2
:103E900057F83C80C4F8088001238B4007EBCC0125
:103EA00013430839E1607B6047F83C40C8F80C4098
:103EB0008210012494409C4200F28B801C4206D167
:103EC00020F0030064001C4200F10400FAD007EB6C
:103ED000C009CC468046DCF80C309C4507D16DE12A
:103EE000002A80F27B81DB689C4500F0678159687D
:103EF00021F003018A1B0F2AF2DDD3F80CC0D3F89E
:103F0000088000939C19284646F0010642F00105FE
:103F10005E60C8F80CC0CCF808807C613C61C4F8D5
:103F20000CE0C4F808E065605A5000F0FBFA009B12
:103F300003F108041EE0102920D800F0EDFA102645
:103F400018230220794F3B44A3F108025C68944295
:103F500000F03D816368E168A66823F00303234411
:103F600028465A68F16042F001028E605A6000F003
:103F7000D9FA0834204603B0BDE8F08F00240C23A2
:103F800020462B6003B0BDE8F08F40204FF4007353
:103F90004FF03F0E4AE72344E1685A68A66842F0B2
:103FA0000102F16028468E605A6000F0BBFA0834C6
:103FB000204603B0BDE8F08F234428465A6842F0FB
:103FC00001025A6000F0AEFA0834204603B0BDE8A2
:103FD000F08FBC68636823F00308B04504D3A8EBF6
:103FE00006030F2B00F38580DFF85891504BD9F86A
:103FF00000201B680132334404EB080A00F05581AD
:1040000003F580530F3323F47F6B2BF00F0B5946CE
:10401000284600F08DFA411C024600F0FC808245E3
:1040200000F2F780434B19685944196000F04D8144
:10403000D9F8000001301BBFA2EB0A0A5144C9F8AD
:104040000020196012F0070100F01581C1F108008D
:10405000C1F580510244083102EB0B09C9F30B0989
:10406000A1EB0909494628460193009200F060FA45
:10407000431C9DE80C0000F04381801A484440F046
:1040800001001968BA604944BC425060196017D0F9
:10409000B8F10F0F40F2FB806068A8F10C0222F02B
:1040A000070204EB020E00F001004FF0050C104374
:1040B0000F2A6060CEF804C0CEF808C000F2178165
:1040C0001D4BBC681A68914288BF19601B4B1A6867
:1040D0009142626888BF196022F003029642A2EB07
:1040E000060301D80F2B04DC284600F01BFA00243D
:1040F00040E7A21943F0010346F001066660284636
:10410000BA60536000F00EFA0834204603B0BDE8F0
:10411000F08F142B71D9542B00F2A380330B03F1D1
:104120006F0003F16E0EC30080E600BF80044020E4
:104130003068442000684420286844202C684420CB
:1041400088044020880840205A0A042A5BD9142A8F
:1041500000F2AE8002F15C01C9005B3207EB010C9A
:104160007958ACF1080C8C4500F088804A6822F040
:104170000302934273D289688C45F7D1DCF80C2096
:104180007B68E260C4F808C09460CCF80C408FE60D
:10419000A11946F0010C42F00106C4F804C02846FB
:1041A00079613961C1F80CE0C1F808E04E60E25075
:1041B00000F0B8F90834DDE67B6879E608F101081B
:1041C00018F0030F0CF1080C7FF485AE2DE0DC68CD
:1041D000A34208BF02303FF43EAEBBE619441C4682
:1041E0004A68DB6854F8086F42F001024A602846CA
:1041F000F3609E6000F096F9BCE603F15C0003F109
:104200005B0EC30012E69A0902F13901C900383287
:10421000A4E7BC4254D0BC68626822F003025DE7A8
:1042200059F80839994540F0868010F0030F00F1E5
:10423000FF30F5D17B6823EA04037B6064009C4275
:104240003FF6C7AE002C3FF4C4AE1C4240467FF49C
:104250003EAE64001C4200F10400FAD037E68C4602
:104260008CE7B3F5AA7F15D8F30B03F1780003F1BF
:10427000770EC300DAE54FF48051EDE67B689210CB
:10428000012101FA02F213437B60624679E70123C0
:10429000536029E740F25452934222D8B30C03F101
:1042A0007D0003F17C0EC300C0E503F1100BAEE608
:1042B000542A29D81A0B02F16F01C9006E324DE75A
:1042C000204B196859441960B2E6CAF30B00002864
:1042D0007FF4AEAE08EB0B03BA6843F00103536002
:1042E000EEE67F204FF47E734FF07E0E9EE504F1E4
:1042F00008012846009301F089FA009B1968DFE65F
:1043000001204FF00009BCE6B2F5AA7F05D8DA0B10
:1043100002F17801C900773220E740F254518A4215
:1043200005D89A0C02F17D01C9007C3216E74FF4E2
:104330007E717E2212E77B6880E7F00806F10803B1
:1043400000E600BF00684420844641EA000313F001
:1043500003036DD1403A41D351F8043B40F8043B8C
:1043600051F8043B40F8043B51F8043B40F8043B4F
:1043700051F8043B40F8043B51F8043B40F8043B3F
:1043800051F8043B40F8043B51F8043B40F8043B2F
:1043900051F8043B40F8043B51F8043B40F8043B1F
:1043A00051F8043B40F8043B51F8043B40F8043B0F
:1043B00051F8043B40F8043B51F8043B40F8043BFF
:1043C00051F8043B40F8043B51F8043B40F8043BEF
:1043D00051F8043B40F8043B403ABDD2303211D38F
:1043E00051F8043B40F8043B51F8043B40F8043BCF
:1043F00051F8043B40F8043B51F8043B40F8043BBF
:10440000103AEDD20C3205D351F8043B40F8043B8E
:10441000043AF9D2043208D0D2071CBF11F8013B8C
:1044200000F8013B01D30B8803806046704700BF52
:10443000082A13D38B078DD010F003038AD0C3F161
:104440000403D21ADB071CBF11F8013B00F8013B43
:1044500080D331F8023B20F8023B7BE7043AD9D302
:10446000013A11F8013B00F8013BF9D20B780370D7
:104470004B7843708B7883706046704770B48607C2
:1044800046D0541E002A41D0CAB2034602E014F1BD
:10449000FF343BD303F8012B9D07F8D1032C2ED911
:1044A000CDB245EA05250F2C45EA054519D903F19A
:1044B00010022646103E0F2E42F8105C42F80C5CAB
:1044C00042F8085C42F8045C02F11002F2D8A4F150
:1044D000100222F00F0204F00F041032032C1344D8
:1044E0000DD91E462246043A032A46F8045BFAD840
:1044F000221F22F003020432134404F003042CB1FF
:10450000C9B21C4403F8011B9C42FBD170BC70472C
:1045100014460346C2E700BF014801F011BC00BFCA
:10452000D0D04420014801F00DBC00BFD0D04420C1
:1045300038B5074C0023054608462360FEF79AF875
:10454000431C00D038BD2368002BFBD02B6038BD46
:10455000E4D044202DE9F84F4B6E9C0493462FD5B0
:104560009368126853B30E46074602F1080919E929
:1045700020045FEA9A0817D0043D002401E0A0451A
:1045800010D0324655F8041F384601F0BBF8431CE2
:1045900004F10104F3D10023CBF80830CBF8043048
:1045A000BDE8F88FDBF808302AF0030AA3EB0A0312
:1045B000CBF8083009F10809002BD8D10020EAE730
:1045C00001F00AFA0023CBF80830CBF80430BDE83C
:1045D000F88F00BF2DE9F04FADB01D468B469046D9
:1045E0000793069018B1836B002B00F0F380DBF883
:1045F0006430BBF90C00DF0781B202D48E0540F1B4
:10460000FC808C040AD4DBF8643040F4005123F4BD
:104610000053ABF80C10CBF8643089B2080740F1B6
:10462000B380DBF81030002B00F0AE8001F01A03ED
:104630000A2B00F0B58000230DF170090B93119344
:1046400010930393CDF83C90CA46CDF810B098F87B
:1046500000304446FBB1252B02D11CE0252B03D0B2
:1046600014F8013F002BF9D1A4EB08059DB1109B74
:10467000119ACAF8008001332A44072BCAF8045063
:10468000119210937ADD002A40F0B084039B1092BF
:104690002B44CA4603932378002B00F0E0830020CC
:1046A0004FF000038DF8373004F1010862780546B9
:1046B000064603464FF0FF3408F10108A2F120013D
:1046C000582900F2DE82DFE811F02102DC02DC0270
:1046D0002902DC02DC02DC02DC02DC02DC028902F0
:1046E0009502DC02A200BD02DC029F01A401A4012C
:1046F000A401A401A401A401A401A401A401DC0259
:10470000DC02DC02DC02DC02DC02DC02DC02DC02B9
:10471000DC02B201DC02DC02DC02DC02DC02DC02D4
:10472000DC02DC02DC02DC029701DC02DC02DC02DF
:10473000DC02DC029B01DC02DC025302DC02DC0254
:10474000DC02DC02DC02DC02DC02DC02DC02DC0279
:104750005A021B02DC02DC02DC026E021B02DC02DB
:10476000DC027302DC02F50182010902D702DC02DD
:104770009A02DC02A700DC02DC022E020AF1080A1F
:10478000039B2B44039386E75946069800F0ACFD43
:1047900018BBBBF80C1001F01A030A2B7FF44BAFC7
:1047A000BBF90E30002BFFF646AFDBF86430DB07B9
:1047B00005D48F0503D4DBF8580001F0C3FA2B466B
:1047C00042465946069800F04DFD039003982DB0DF
:1047D000BDE8F08F00F0F4FE09E7DBF86430D9079C
:1047E00004D4BBF80C309A0540F1AA844FF0FF3393
:1047F000039303982DB0BDE8F08FDBF8580001F06B
:104800009FFABBF90C0081B2FBE67642079243F0B7
:10481000040398F800204FE708969E0600F15084A4
:104820000799DD060A4600F1EF83580640F1EC8354
:104830000E8804310027012207914FF000018DF806
:1048400037100025611C00F0168123F080010291D1
:1048500056EA070140F01481002C40F05C83002AE6
:1048600040F0B78313F00103059300F057840DF176
:10487000B00B30230BF8413D059BA342B8BF234644
:1048800001930DB101330193029B13F002030993CD
:1048900002D0019B02330193029B13F084030A931D
:1048A00040F01782089B019A9D1A002D40F3118257
:1048B000102D40F39084109B119AC44ED6461027B9
:1048C000A2461946069C07E001F1020C0EF1080E03
:1048D0000146103D102D11DD481C103207281192A1
:1048E0008EE8C0001090EFDD002A40F0E481103D1A
:1048F000102D11464FF0010CCE46EDDC54466146BA
:10490000F2462A4407291192CAF80060CAF80450F6
:10491000109100F3EC829DF837500AF1080A481C08
:10492000002D40F0DE81099B002B00F0F88102325F
:104930000EA902230728119210908AE80A0040F37A
:10494000EA81002A40F08C830A9B802B4FF0010003
:104950001146CA4640F0E781089B019D5E1B002E70
:1049600040F3E181102E9A4D40F35084D446102735
:10497000A246069C07E001F1020E0CF1080C01466C
:10498000103E102E11DD481C1032072811928CE8C1
:10499000A0001090EFDD002A40F09D82103E102E06
:1049A0004FF0010E1146CC46EDDC5446E24632444F
:1049B000BEF1070F11928AE86000CDF840E000F3E5
:1049C00069830AF1080A0EF101007146ABE108960D
:1049D00013F0200240F08C8313F0100140F01A8392
:1049E00013F0400200F0168307980A46014604318E
:1049F00006880791002720E7089643F01003E7E7B1
:104A0000089643F0100308E743F0800398F800206D
:104A100052E6A2F13001002618F8012B06EB8606BB
:104A200001EB4606A2F130010929F5D946E60896C0
:104A3000002840F0088443F010039E0600F14C83E8
:104A4000DD0600F1F382580640F1F082079DB5F9CA
:104A500000602A46F717043230463946079200288C
:104A600071F10002C0F25D83611C9DF837504FF078
:104A700001027FF4EAAE56EA070100F04D8202938C
:104A8000012A00F08C82022A40F05C820B98CB460F
:104A9000330906F00F0143EA07733A091E46174629
:104AA000435C0BF8013D56EA0703F1D1A9EB0B0378
:104AB0000593E1E6002840F0C083990600F1678382
:104AC000DA0600F1F1805B0640F1EE80079A136888
:104AD00004320792BDF80C201A80B8E507983D4AC9
:104AE00008960B9206687822302104308DF8392020
:104AF00043F00203079000278DF8381002229CE64D
:104B00000896002899D08DF8375096E798F800203D
:104B1000002D7FF4D1AD01202025CDE543F0010328
:104B200098F80020C8E50896002840F093832949AA
:104B30000B919F0600F1E8820798DE06014600F11E
:104B400070825D0640F16D8204310688079100276E
:104B5000D80740F1228256EA070100F01E82302178
:104B60008DF8392043F002038DF83810022264E6F4
:104B70000896002840F06B8317490B91D9E70799F5
:104B800008960A688DF848204FF000000A468DF814
:104B90003700043201200190079205900DF1480B77
:104BA0000293002470E643F0400398F8002083E568
:104BB00098F800206C2A03BF98F8012043F02003E6
:104BC00008F1010843F0100376E500BFB07540001E
:104BD000C0754000947540008075400007990E68CC
:104BE0000A46002E02F10402FFF60FAE079298F873
:104BF000002061E598F8002001202B255CE507994D
:104C00000896D1F800B04FF000028DF837200E1D45
:104C1000BBF1000F00F0E582671C00F0C482224661
:104C200000215846019301F023F9019B002800F070
:104C3000E582A0EB0B020592079602939DF8375090
:104C4000002419E698F800202A2A08F1010700F04C
:104C5000E982A2F130010929B8464FF000043FF67D
:104C60002DAD18F8012B04EB840401EB4404A2F1F0
:104C700030010929F5D921E543F0200398F80020F7
:104C80001AE50896002840F0DB82002A00F0E78051
:104C900001218DF848204FF0000201918DF8372056
:104CA00005910DF1480B7BE7079A136804320792D0
:104CB000039A1A60CBE40FAA04992046FFF74AFC36
:104CC000002840F039811099119A01F1010CCE466B
:104CD000FFE51099119A481C9DF83750002D3FF4BC
:104CE00022AE01320DF137050121072811921090F3
:104CF000CAF80050CAF8041040F30881002A40F0B6
:104D0000BC81099B002B3FF41FAE0EAB022208466C
:104D10001C931D92CA4601460AF1080A01300A9BFB
:104D2000802B3FF419AE059BE41A002C2EDD102CCD
:104D3000B34D1EDDD6461026069FDDF810A006E016
:104D4000881C0EF1080E1946103C102C10DD4B1C6F
:104D50001032072B11928EE860001093F0DD002ACC
:104D600065D1103C102C4FF001001146CE46EEDC10
:104D7000F246224407281192CAF80050CAF80440AB
:104D8000109000F385800AF1080A01300599CAF8ED
:104D900000B00A4407281192CAF80410109040F39A
:104DA0008280002A40F01881029B1092580735D566
:104DB000089B01995C1A002C40F3E780CA46102C2E
:104DC00040F3188210998F4E069FDDF810B0102521
:104DD00006E0881C0AF1080A1946103C102C11DD67
:104DE0004B1C1032072B1192CAF80060CAF804500D
:104DF0001093EEDD42BB103C102C4FF00100114629
:104E0000CA46EDDC224407281192CAF80060CAF8AD
:104E10000440109051DD002A40F09B81039B089ACA
:104E200001998A42ACBF9B185B1803934EE00FAA0E
:104E300051463846FFF78EFB002840F03F8110991D
:104E4000119A481CCE467FE70FAA59463846FFF70D
:104E500081FB60B91099119A481CCA46BDE7119BA5
:104E6000DDF810B0002B40F0D48100231093DBF864
:104E7000643013F0010FBBF80C3002D19A0540F1F9
:104E8000DE805B063FF5B2AC03982DB0BDE8F08F35
:104E9000002A40F00681059A1D9201231192CDF857
:104EA00070B01093CA460AF1080A029B590704D54C
:104EB000089B01995C1A002C81DC039B08990198DE
:104EC0008142ACBF5B181B18039372BB0023109385
:104ED000CA46FFF7BCBB0FAA04992046FFF73AFB6E
:104EE00050BB1099119A01F1010ECC4648E5002AF9
:104EF00040F040819DF83710002900F01B8101220D
:104F00000DF1370110461D921C91CA4601460AF167
:104F1000080A013007E5029B012A00F09880022A66
:104F20000DD1029300260027B0E50FAA0499069838
:104F3000FFF710FB0028C9D0DDF810B097E7029307
:104F400000260027494600E05946F20842EA477227
:104F5000F80806F0070307461646303356EA0702FC
:104F600001F8013C01F1FF3BEED1029AD6077FF533
:104F70009DAD302B3FF49AAD023930230BF8013C44
:104F8000A9EB010305938B4676E4039B089A8A42BA
:104F9000ACBF9B185B18039398E702224DE4002FE7
:104FA00008BF0A2E52D3CB46304639460A22002388
:104FB00001F042FC30320BF8012D30463946002317
:104FC0000A2201F039FC06460F4656EA0703EBD1E8
:104FD0006CE50594CB464FE40FAA04990698FFF7B9
:104FE000B9FA0028A8D1119ACA465EE70FAA049917
:104FF0000698FFF7AFFA00289ED1CA46FFF7C0BB5C
:10500000C0754000B0754000043116680791012258
:10501000002712E40798014604310668079100272B
:105020000BE40E6804310791002791E507990E689B
:105030000A46F71704320792304639460FE5DBF887
:10504000580000F07FFEBBF80C301AE7029B029379
:105050000DF1B00B303601230BF8416D05930BE4D5
:105060000FAA04990698FFF775FA00287FF464AF39
:105070001099119A481CCA4651E60FAA049906983D
:10508000FFF768FA00287FF457AF1099119A481C6F
:10509000CA4648E4002A40F0918001201146CA46E1
:1050A00041E60FAA04990698FFF754FA00287FF406
:1050B00043AF1098119A0130CA4667E6D346D6E648
:1050C000079E073626F0070202F10801D2E90067C1
:1050D00007910122FFF7B1BB079E073626F00706AE
:1050E000D6E9000106F10802079206460F46B6E42B
:1050F000079E073626F0070202F10801D2E9006791
:1051000007910022FFF799BB079E073626F007019B
:1051100001F108000790D1E9006719E5CB46FFF7D8
:10512000ABBB2D25764267EB47078DF83750012240
:10513000FFF788BB099BB3B911460120CA46F2E5C7
:10514000DBF8580000F0FEFD4FF0FF330393FFF74C
:1051500050BB0FAA04990698FFF7FCF900287FF4CA
:10516000EBAE119AA9E60EAB02221C931D92012010
:10517000CA46D0E50FAA04990698FFF7EBF9002874
:105180007FF4DAAE1099119A481CCA46A4E5079A32
:1051900003991368CD170846043229460792C3E9DC
:1051A0000001FFF754BA58460796029301F008F938
:1051B000002405909DF83750FFF75EBB0FAA0499B5
:1051C0000698FFF7C7F900287FF4B6AE1099119A38
:1051D000481CCA46A7E51099119A204E0131FFF7E5
:1051E00090BB062C28BF0624059407960194DFF88F
:1051F00070B0D5E41098194E013003E605949DF87F
:105200003750079602930446FFF736BB8646FFF7F2
:10521000CEBB06980FAA5946FFF79CF900283FF429
:1052200024AE24E6079998F801200C68043144EA7A
:10523000E474B8460791FFF73FBA8DF837503CE465
:105240008DF8375021E58DF83750FFF7F4BB8DF816
:10525000375091E48DF8375069E400BFB0754000D5
:10526000A87540002DE9F0410C46ADF58D6D89899A
:10527000666EE589199621F002010646E069ADF8EF
:105280000C1017464FF48061626AADF80E509846D4
:105290001AAD0023079016A809920693009504956D
:1052A0000291059100F048FD43463A466946304672
:1052B000FFF790F9051E07DB3046694600F028F934
:1052C000002818BF4FF0FF35BDF80C305B0603D542
:1052D000A38943F04003A381169800F02FFD2846D0
:1052E0000DF58D6DBDE8F08138B5304B1B68054676
:1052F0000C4613B19A6B002A38D0B4F90C2093B243
:1053000018070CD52069A8B113F001021ED06369FB
:1053100000225B42A361A260F0B1002038BDD90633
:105320003CD5580726D4206942F00803A3819BB2DC
:105330000028E9D103F42072B2F5007FE4D02846BA
:10534000214600F02FFDA3892069DDE7990758BFAA
:105350006269A2600028E0D1B4F90C301A06DDD5EC
:1053600043F04003A3814FF0FF3038BD184600F0F2
:1053700027F9C2E7216B51B104F14003994204D0EF
:10538000284600F043FAB4F90C20002323630023DD
:105390002069636022F024022060C5E742F04002E9
:1053A00009232B604FF0FF30A28138BD540040200C
:1053B000024B13B1024800F005B87047000000002E
:1053C00031564000002301461A46184601F00CB938
:1053D000B1F90C309AB22DE9F0410D461107804623
:1053E0003AD46A6843F40063002AAB816FDDAC6A8B
:1053F000002C49D000229BB2D8F80060C8F80020E9
:1054000013F4805267D02A6D5F0705D569682B6B4E
:10541000521A0BB1EB6BD21A0023E9694046A04740
:10542000441C3CD0B5F90C302A692A6023F400638F
:105430000022AB81DB046A6047D4296BC8F80060A6
:1054400011B305F14003994202D0404600F0DEF965
:1054500000202863BDE8F0812E69AEB12C682E6073
:1054600091070CBF6B690023A41BAB600AE02346C5
:1054700032466F6AE9694046B8470028A4EB000449
:10548000064404DD002CF2DC0020BDE8F081AB898D
:1054900043F04003AB814FF0FF30BDE8F081D8F816
:1054A00000401D2CF3D8194BE340DB4313F00103FC
:1054B000EDD1B5F90C206B6022F400632969AB8152
:1054C000DA042960B9D5002CB7D12865B5E7EA6BB5
:1054D000002A8CDCD8E70123E9694046A047431C39
:1054E000024602D0AB89AC6A8EE7D8F80030002BB8
:1054F000F8D01D2B01D0162B02D1C8F80060C3E7ED
:10550000AB8943F04003AB81BDE8F081010040204E
:1055100038B50D46044608B1836BBBB1B5F90C0034
:1055200088B16B6EDB0701D4810517D5204629466B
:10553000FFF74EFF6B6EDA07044602D4AB899B057A
:1055400007D5204638BD0446204638BD00F038F85F
:10555000E4E7A86D00F0F6FB204638BDA86D00F02A
:10556000EFFBE3E7014900F0AFBB00BFD1664000AD
:1055700010B5002304468181C281036043608360CB
:105580004366036143618361194608225C30FEF77C
:1055900075FF07480749084A084B2062E4616162C9
:1055A000A262E36204F15800BDE8104000F0C4BB01
:1055B000256340004963400085634000A5634000C7
:1055C00010B50446124800F0BBFBA26BD2B904F53B
:1055D0003B731048C4F8E8320321C4F8E022E063CA
:1055E000C4F8E41260680421FFF7C2FF0122092118
:1055F000A068FFF7BDFF02221221E068FFF7B8FFA5
:105600000123A3630248BDE8104000F09BBB00BF2C
:10561000CCD0442065554000014800F091BB00BF4C
:10562000E0D04420014800F08DBB00BFE0D0442012
:1056300038B50A4C0A4D641BA4100AD004F180430B
:10564000013B05EB8305013C55F804399847002CD4
:10565000F9D1BDE8384002F04FB800BF08774000EC
:10566000047740002DE9F04782B080468946144611
:1056700000F054FB012836D04A4604F15C0301A92E
:10568000404600F063FF421C064625D0A8B39DF8B3
:1056900004E000250DF1040A09E023685A1C226089
:1056A00083F800E00135B54227D215F80AE0A36877
:1056B000013B002BA360F0DAA769BB42714622468A
:1056C000404602DBBEF10A0FE7D100F0E7FE431CC3
:1056D000E8D102B0BDE8F087A38943F04003A3817D
:1056E00002B0BDE8F08709F1FF33FE2BC4D85FFAA2
:1056F00089FE06468DF804E0CBE7484602B0BDE8D7
:10570000F08700BF30B5536E13F0010FB2F90C30C3
:10571000144683B005469AB201D190051CD5900479
:1057200006D4626E43F4005342F40052A3816266D1
:1057300028462246FFF796FF636EDA07054602D435
:10574000A3899B0502D5284603B030BDA06D00F0AB
:10575000F9FA284603B030BDA06D019100F0F0FACF
:10576000B4F90C3001999AB2D9E700BFF8B5244FCB
:105770000C460646FEF7D0FEBB685D68C4F57E6148
:105780000F3125F00305294421F47F6121F00F0139
:10579000A1F58054B4F5805F07DB00213046FEF7A9
:1057A000C7FEBB682B44984204D03046FEF7BAFED1
:1057B0000020F8BD61423046FEF7BAFE01300DD040
:1057C000104BBA6819682D1B45F001053046091BBE
:1057D00055601960FEF7A6FE0120F8BD0021304695
:1057E000FEF7A6FEBA68831A0F2BDEDD064C0549CC
:1057F000246843F00103001B53600860D5E700BF35
:10580000800440200068442088084020002944D0BB
:105810002DE9F0410D468046FEF77EFE55F8047CEA
:10582000694927F00103A5F10804E2188E68506861
:10583000B24220F003005ED0FE0750600BD455F852
:10584000087CE41B01F1080EA56875453B446DD04A
:10585000E768EF60BD6015186D68ED073ED543F051
:1058600001026260E350B3F5007F17D2DB08581CD9
:105870009A104D6851F83070A7600123934001EBF6
:10588000C0022B43083AE2604B6041F83040FC60B4
:105890004046BDE8F041FEF745BE70475A0A042A6B
:1058A00052D89A0902F13907FF0002F13805C819E8
:1058B000CA59083890424FD0516821F003018B42F9
:1058C00032D292689042F7D1C368A060E3609C60D6
:1058D000C4604046BDE8F041FEF724BE95683B4FEA
:1058E000BD42034440D0D068E86043F001028560C7
:1058F0006260E350B7E7FF07034407D455F8082C6C
:10590000A41A1344A068E268C2609060304A12682A
:1059100043F00100934260608C60B9D32D4B404648
:105920001968FFF723FFB3E71046CDE71118496860
:10593000C90744D49168D268CA60034443F00100A7
:1059400091606060E350A3E7142A16D802F15C0767
:10595000FF0002F15B05AAE7AA1001234D689340FE
:105960002B434B600346B0E743F001024C610C61EE
:10597000E560A5606260E3508AE7542A06D81A0BF6
:1059800002F16F07FF0002F16E0590E7B2F5AA7F02
:1059900006D8DA0B02F17807FF0002F1770586E7F7
:1059A00040F25450824206D89A0C02F17D07FF0063
:1059B00002F17C057BE74FF47E777E2577E743F0A5
:1059C00001016160136063E7800440208804402087
:1059D0008C084020306844209368002B73D02DE958
:1059E000F04F8B8983B00C4619070090164626D5D8
:1059F000226922B313F0020035682CD04FF0000961
:105A0000B04FC846B246B84543464A4628BF3B4613
:105A10000098B8F1000F50D0E169666AB0470028DD
:105A200058DDDAF808301B1A8144A8EB0008CAF8E0
:105A30000830002BE7D1002003B0BDE8F08F2146ED
:105A40000098FFF751FC002840F03381A3893568A6
:105A500013F00200D2D113F0010945D14F4601964F
:105A600037B39A05D4F8088040F183804745C34690
:105A7000C0F0AB8013F4906F40F0AC802068BA4661
:105A80005A46494600F044FAA2682368A2EB08028D
:105A90005B44A2602360019A9368A3EB0A03D1449C
:105AA000A7EB0A079360002BC5D0A389002FD8D19C
:105AB000D5F800906F680835D2E7D5F80090D5F892
:105AC000048008359FE70020704721460098FFF7C3
:105AD0001FFD70B3B4F90C3043F040034FF0FF30BA
