:020000040040BA
:10000000985C4520752F40006D2F4000712F4000F7
:100010006D2F40006D2F40006D2F4000000000004C
:10002000000000000000000000000000D13340008C
:100030006D2F40000000000071344000D5344000B6
:100040006D2F40006D2F40006D2F40006D2F400040
:100050006D2F40006D2F40006D2F40006D2F400030
:100060006D2F400000000000A5294000712A4000CB
:100070003D2B40006D2F4000314F40006D2F400060
:10008000092C4000D52C40006D2F40006D2F400002
:100090006D2F40006D2F40006D2F40006D2F4000F0
:1000A0006D2F40006D2F40006D2F40006D2F4000E0
:1000B0006D2F40006D2F40006D2F40006D2F4000D0
:1000C0006D2F40006D2F40006D2F40006D2F4000C0
:1000D000000000006D2F4000000000006D2F400068
:1000E0006D2F40006D2F40006D2F40006D2F4000A0
:1000F0006D2F40006D2F40006D2F40006D2F400090
:100100006D2F40006D2F40006D2F40006D2F40007F
:100110006D2F40006D2F4000000000000000000027
:100120006D2F40006D2F4000AD0140006D2F40004D
:100130006D2F4000000000006D2F40006D2F40002B
:1001400010B5054C237833B9044B13B10448AFF311
:1001500000800123237010BD0040402000000000FB
:10016000D49240000C4B43B10C480D4910B5AFF38D
:1001700000800C48036823B910BD0A48036833B9EE
:100180007047094B002BF7D0BDE810401847064BCD
:10019000002BF5D0184700BF00000000D4924000AB
:1001A00004404020D492400000000000214B70B475
:1001B000DB6DDA0729D5204D0022204C2B78204812
:1001C00093422E781F49204B1CBF2146034686F0E0
:1001D00001061E4C1E489FED1F7A2E7021600360A1
:1001E00001E0216803689B5A114404321BB2B2F546
:1001F000006F07EE903AF8EEE77A67EE877AC1ED86
:10020000007AEED1144B01221A700A4BD3F89C30BD
:10021000DB070CD5114B12481C7812491A78002CB8
:1002200018BF0146104882F0010201601A7070BCCC
:10023000704700BF0080074010004020000C4520A0
:1002400000344520002C4520001445201C0040208F
:100250000C004020FD0000381C40402018004020C9
:10026000001C452000244520140040202DE9F041C9
:10027000202688B00021304B3246684698472F4BE5
:100280003A202F4C98474FF080652E4B6A46DFF896
:10029000C8E02046C3F88451002183F83A630F2751
:1002A0005D600125DFF8B480CDF80CE0C047264B37
:1002B0006A46DFF8ACE0294603F1100023F003069C
:1002C000DFF8A0C018602046E766A666E5601F4E0E
:1002D0002565C3F80CE0DFF890E0C3F81CC0DFF838
:1002E0008CC05E605E61C3F808E0C3F818E01B6173
:1002F000CDF80CC0C047164B0221164ADFF870C07B
:1003000003F1100823F00300DFF868E05E605E612F
:100310001B61C3F80080C3F808C0C4F8AC70C3F810
:1003200018E0C4F8A800DA60E160DA61C4F890501F
:1003300008B0BDE8F08100BFD55F4000A92E4000A5
:100340000080074000E100E0204040200004000B56
:10035000404040202440004001280421192340004F
:100360000034452000144520204000401148012061
:10037000001C45200024452010B5134B984718B1A8
:100380001248134B9847FEE7124B04469847124B0E
:100390009847124B984721460220114B9847214617
:1003A0000220104B984702200F4B98474FF04020F7
:1003B0000E4B98470E4C01220E4B4FF04020E2614D
:1003C00098470223E36110BD951A400098864000CB
:1003D00009594000BD044000F90340006D0240008F
:1003E000F12E4000252F4000592F4000251F4000CE
:1003F00000800740351F40002DE9F041284B9CB09C
:100400001620002498474FF04020264B0F25984790
:1004100001264FF4E0684FF0020E80270EAA6946CD
:100420004FF04020204BCDF800E00194029403945B
:100430001094129413941494CDF818800596049592
:100440000E9511950F9798474FF0200C4FF0100E16
:1004500015AA07A94FF04020144BCDF824C0CDF8C1
:100460002CE0CDF83480079608940A940C961595E4
:1004700016971794189519941A941B9498474FF04F
:1004800040200B4B98474FF040200A4B98474FF0C5
:10049000FF314FF04020084B98471CB0BDE8F08179
:1004A000A92E4000111F4000B91F4000451F400009
:1004B0003D1F40002D1F40002D20400070B54FF61D
:1004C000FF710020404CA047404B0020984748F661
:1004D0000413984203D03E483E4B9847FEE708215C
:1004E0000420A047472105203B4DA0473B48A84793
:1004F00043210520A04709210420A04703210C2007
:10050000A04703210E20A04700212120A047002161
:100510003D20A04701216220A04701216820A0477B
:1005200000217420A04740F204717520A0474FF4C9
:1005300000417620A0474FF4BB517720A04705210A
:100540007420A0472548A84740F605411520A0473C
:1005500000211420A04744F206011620A0474221A2
:100560001920A04708211A20A0474FF402611B2040
:10057000A0470F211220A0471848A84710212C207F
:10058000A04710212D20A04711215A20A047332138
:100590005A20A0470F214320A047F0214420A04724
:1005A0000F48A84777215A20A047FF215A20A0478B
:1005B000B9213920A0473A20B921A0472B46084845
:1005C000BDE87040184700BF1D1A4000591A40008E
:1005D000BC8640000959400001004020C2DB0300F6
:1005E000252B4D004FF400729549964B2DE9F04FA5
:1005F00092460024DFF868B22DED048B87B0FFEE41
:10060000009A9847514603AB04AA8D4800948E4C3B
:10061000A04703AB05AA514689488C4CA0479DEDE5
:10062000059AF6EE087A9DED047AB1EE499A012317
:10063000DFED878A9FED878A89FE079A29EE279A40
:1006400007EE903ABAF1010FF8EEE77A88EEA77A52
:10065000FDEEC77A17EE904A40F37D82BAF1030FA0
:1006600040F36B82AAF1040E754B0020DFF8F48191
:100670002EF0010E194601930246D3ED007A0EF1D9
:10068000030E06460546C446B0EE487A012350E004
:100690000122D1ED027AF5EE407AF1EE10FA06DD94
:1006A000F5EEC06AF1EE10FA01D800200122F5EE55
:1006B000407AF1EE10FA06D5F5EEC06AF1EE10FAC6
:1006C00001DB01200022B4EEC86A37EEE67AF1EED3
:1006D00010FA2ADDB5EEC06A00F00107F1EE10FA5B
:1006E00058BF0027AFB1B5EEC07AF1EE10FA10DBBB
:1006F000F0EEE65AB4EEE59AF1EE10FA09D804EB02
:100700000C079F4205DA54489C4640F825300135D5
:100710000020B5EE406AF1EE10FA06DD2AB1B5EE22
:10072000C07AF1EE10FA6BD9012202330831734519
:100730007BD0F5EE407AD1ED016A5F1EF1EE10FA42
:1007400006D8F5EEC06AF1EE10FA01DD00200122B4
:10075000F5EE407AF1EE10FA06DBF5EEC06AF1EE46
:1007600010FA01D501200022B4EEC87A36EEE76A0D
:10077000F1EE10FA8DDDB5EEC07A00F00109F1EE70
:1007800010FA58BF4FF00009B9F1000F15D0B5EEBF
:10079000406AF1EE10FA10DBF0EEE75AB4EEE59A9B
:1007A000F1EE10FA09D804EB0C09B94505DA2A482C
:1007B000BC4640F8257001350020B5EE407AF1EED8
:1007C00010FA7FF766AF002A3FF463AFB5EEC06A58
:1007D000F1EE10FA3FF65CAFF0EEE77AB4EEE79A8E
:1007E000F1EE10FA3FF654AF04EB0802BA42BFF63E
:1007F0004FAF1A4AB84642F826700136002248E741
:10080000F0EEE66AB4EEE69AF1EE10FA8CD804EB5C
:1008100008029A4288DA114A9846083142F826308E
:10082000023301360022734583D1019F6FF04041AE
:10083000DFF82490A646194407EB81011AE000BFB7
:10084000005A40204D554000E95640000D564000EA
:100850001904784100007AC400524020004A402028
:1008600000424020C0BDF0FF01220133B0EE677AA4
:100870009A4565DDD1ED017A5F1EF1EC016AF5EE76
:10088000407AF1EE10FA06DDF5EEC06AF1EE10FAEC
:1008900001D800200122F5EE407AF1EE10FA06D5DB
:1008A000F5EEC06AF1EE10FA01DB01200022B4EE91
:1008B000C87A77EEE67AF1EE10FAD6DDB5EEC07AB8
:1008C00000F00104F1EE10FA58BF0024A4B1F5EED7
:1008D000407AF1EE10FA0FDBB0EEE66AB4EEC69A9B
:1008E000F1EE10FA08D80EEB0C04BC4204DA49F819
:1008F0002570BC4601350020B5EE407AF1EE10FAC5
:10090000B3DD002AB1D0F5EEC07AF1EE10FAABD823
:10091000F0EEE66AB4EEE69AF1EE10FAA4D80EEB29
:100920000802BA42A0DA0133AC4AB846B0EE677AA0
:100930009A4542F8267006F101064FF0000299DC54
:10094000744615B9002E00F006814FF400620021B4
:100950005846A34B98474DB3DFF898E20222002790
:10096000714612E0D1F800C04B68ACEB0303002BDA
:10097000B8BF5B42AA425BF8230000F101004BF8CC
:100980002300C0F2CC80043101320137AF42E9DBF1
:10099000AA420BDA5EF822200B689B1A002BB8BF24
:1009A0005B425BF8232001324BF8232046B38B4D8A
:1009B00002220027294612E0D1F800E04B68AEEB96
:1009C0000303002BB8BF5B42B2425BF8230000F187
:1009D00001004BF82300C0F293810431013201374A
:1009E000B742E9DBB2420BDA55F822200B689B1ABA
:1009F000002BB8BF5B425BF8232001324BF8232069
:100A00004FF0FF36C4F1000E002504F1010C37460B
:100A10007445C0F282802B1B0CEB0502002153456C
:100A200004DA002B02DB5BF823000144013393421C
:100A3000F5D1B9426CD001DD0F462E460135554542
:100A4000E6D17445C0F2AA809FED667A621C331B22
:100A5000F0EE476A1644B3F5007F11D25BF823200D
:100A600002FB03F106EE102A002A07EE901AB8EEF8
:100A7000C66AF8EEE77A03DD76EE866A37EE277A05
:100A80000133B342E7D187EE266A009BFFEE007A7E
:100A9000F4EEE79AF1EE10FA12DDB0EE007A64009F
:100AA000F0EE696A07EE904AD6EE076AF8EEE77A4A
:100AB000B0EEE67AB4EEE77AF1EE10FA40F2A080FA
:100AC0000133062B009346D0019B4FEA6A0A464A3F
:100AD000F6EE006A03EBCA01134693ED007A083381
:100AE00053ED017A8B4277EE277A67EEA67AE2EC35
:100AF000017AF2D1009B012B57D0022B53D0032B4C
:100B00004FD0052B0CBF20231023F0EE469A97E51B
:100B1000B5EB460F08BF2E4690E7002189E75EF847
:100B20002230ACEB030383EAE370A0EBE3705BF8E5
:100B3000203001334BF8203025E700202A49DFF828
:100B4000B880B0EE487A0123024606460546C44600
:100B500001910F466AE6254ABFEE007AD2ED007A8F
:100B6000F4EEC77AF1EE10FA21DD5368002B27DD91
:100B7000013B5360002B1ADDFFEE006A9FED197AEE
:100B8000F4EE667AF1EE10FA48BFF0EE477A17EE0F
:100B9000900A07B0BDEC048BBDE8F08F9FED146A9E
:100BA00073E70823B1E70423AFE70223ADE7FFEEC5
:100BB000007A17EE900A07B0BDEC048BBDE8F08F09
:100BC000F0EE477A002382ED007A536017EE900A28
:100BD00007B0BDEC048BBDE8F08F00BF004A402099
:100BE000D55F400000000000005A40202000402057
:100BF0000000C07F00524020C0BDF0FF00A7354775
:100C0000013B002B79DD012B00F08A80022B00F0E4
:100C10008580042B0CBF1023082307EE903AF8EED2
:100C2000E77A69EEA79A5FED0B6AB7EE007AC6EE37
:100C3000A97AF4EEC77AF1EE10FA8CD4BFEE007AFE
:100C4000F4EEC77AF1EE10FA85DD364AD2ED006A8D
:100C5000F5EEC06AF1EE10FA26D436EEE77A9FED93
:100C6000326ABDEEC77A17EE103A002BB8BF5B426E
:100C700007EE103A5368B8EEC77AC7EE275AF4EE7B
:100C8000C65AF1EE10FA07D5042BC2ED007AD4BF94
:100C90000133052353606DE7022B0ADC002B03DDD3
:100CA000013BF0EE667AF5E70123C2ED007A53606E
:100CB00062E737EEA77A76EEC75AF0EEE55A85EE90
:100CC000875AB4EEC65AF1EE10FA04D582ED007AD6
:100CD000F0EE477A50E7B6EE007A67EE877A36EEA6
:100CE000E77AB0EEC77AC7EE275AF4EEC65AF1EEAD
:100CF00010FAD5D5C2ED007A3EE7F7EE007A90E71C
:100D000055F82230AEEB030383EAE370A0EBE37007
:100D10005BF8203001334BF820305EE604237CE79B
:100D200002237AE720004020CDCC4C3EF0B40E4C9C
:100D300020EAE07021EAE171B4F90040944201DC5C
:100D4000621E12B2094CB4F900409C4201DC013C25
:100D500023B2074F074E084D084C388031802A8057
:100D60002380F0BC704700BF003C45200A3C452072
:100D7000023C4520063C4520043C4520083C4520DB
:100D80002DE9F047BDF82070002A47D01D46002B02
:100D900044D0002A14464FDB002D41DB324BB3F91F
:100DA000006086423ADB314BB3F900E08E4535DB1B
:100DB0002F4B0219B3F900309A422FDDDFF8BCC087
:100DC00001EB050ABCF90090CA4527DD98423DDBDE
:100DD0001FFA80FC494540DB1FFA81F80CF1FF3215
:100DE00008F1FF3322442B4412B21BB2964204DABC
:100DF000741C3246A4EB0C0424B29E4505DA0EF1B5
:100E000001057346A5EB08052DB21A4EB04704FB49
:100E100005F13846184BBDE8F0471847BDE8F087A4
:100E2000ABB201315D4219440F4B2DB2B3F90060F2
:100E300009B28642B7DAF1E793B20130002DC3F16F
:100E40000004184424B200B2A8DAE9E71FFA83FCD0
:100E50001846A2EB0C0424B2BCE71FFA89F84946F5
:100E6000AAEB08052DB2B9E7043C4520083C452013
:100E7000023C4520F91D4000791E4000063C4520FB
:100E80002DE9F04786B00024284D6FF07F42284EB0
:100E90004FF4A0784FF4F077DFF8B4A002A8254B08
:100EA00004924FF0C649A5F800800594CDF808805B
:100EB00037800397984750464FF080411E4B984724
:100EC00053234FF080415046A9F800301B4B984700
:100ED00024224FF6FF701A4BA9F800209847194BAF
:100EE0009847DFF870902146B5F90020B6F9003038
:100EF0002046C8470220144B98472146204640F21E
:100F00003F1340F2DF122F80A6F80080C847B5F9E2
:100F100000202146BDF814502046B6F900300B4C95
:100F20000095A04706B0BDE8F08700BF003C452013
:100F30000A3C4520811C400019274000152740002D
:100F4000C51D4000C91B4000211E4000810D40000E
:100F500000120E402D0D400010B5034B9847034B77
:100F6000BDE81040184700BF810E4000710F4000DF
:100F70002DE9F043574C9FB0DFF8909104F10C0538
:100F800006AB15AF04F1300CEE460CAEDFF88081F5
:100F900094E8070003C31A803C340FCD0FC70FCD70
:100FA0000FC79CE807002B680025AEE803003B60F4
:100FB0004A278EF80020DFF85CE10FCC0FC60FCC7B
:100FC000D4F800C0444CCDF828E00B9509958DF875
:100FD0002C700FC64FF0205101234FF080523F4834
:100FE00086F800C0A0473E4A13203E4B4FF4AF7432
:100FF00009928DF82D50984709A93B4B3B489847DB
:101000003B4E7C233A4639493A48B0473A4E2A4645
:1010100006213848394FB047012201463548B847C4
:101020003748C8472A4607213248B04720220146A0
:101030003048B8472A4607212E48B047411C1022A5
:101040002C4889B2B8472A4607212A48B047811C54
:101050004B22284889B2B8472A4607212548B0477D
:10106000C11C8422234889B2B8472A460821214856
:10107000B04706AA01461F48C0472A4609211D4815
:10108000B04715AA01461B48C0472A462E211948D9
:10109000B0476A4601461748C0472A4638211548D6
:1010A000B0470CAA01461348C0472A4606211148FA
:1010B000B047811C01220F4889B2124EB84712482E
:1010C0000C4DC84703A92846B047013CFAD11FB0D0
:1010D000BDE8F083D08640001D27400000140E407C
:1010E00080D1F008A92E400031204000008001404E
:1010F000011440000062402005184000C91840005B
:10110000D828320011194000252B4D000100402045
:101110004D184000801A0600F8B500250F4C4FF41A
:1011200080420F4928460F4EA04728464FF4804280
:101130000D49A04728464FF4A0520C49A0474FF450
:10114000785700230A4D0B4C40F245210A480B4AC0
:1011500037602B60236003601160F8BD1D554000AF
:10116000286240202C6242202C62412034624220BE
:1011700020624020286241203062422024624020C8
:101180002DE9F04F1D46924B924E2DED048B1B68BE
:1011900089B008EE102A1A460791039303F50073ED
:1011A00002F580618C4A126804928C4A126805929A
:1011B000C3F30D02013350F8044B06EB82028B425D
:1011C0001460F5D1864BD3F800C007EE90CABCF18D
:1011D000000FF8EEE77A23DD9FED827AF7EE009AB2
:1011E000B6EE009A804FC7EE278A0024DFF80C8203
:1011F00007EE904A0134F8EEE77A67EEA87A17EE28
:10120000900AC04707EE900A754B79EEE77A1B68A3
:1012100067EE897AB4EB430FE7EC017AE8DB9C4692
:101220006D4B07EE90CA00226949D3F800E0F8EE52
:10123000E75A6A4B91460295CCF1000B1B68D1F836
:1012400000A06A4D9FED6A6A0299F1EC017AF5EE11
:10125000C07A0291F1EE10FACCBF01210021B9F160
:101260000B0F0CBF002101F001010691002900F0D5
:10127000858085EEA77A4FF4007209F10109DDF847
:1012800010E0DDF80CA0059B0192FCEEC77ACDEDD5
:10129000007AD3BB0AF50058C8F30D08B8F5005F13
:1012A00069D2F04530D8F2452ED3009BB9F1010F39
:1012B0009E44CEF30D0E3ED0DC451EDDAEEB0C029F
:1012C00049480EEB0C07AAEB0E04A318C2F30D015C
:1012D000B0EC017A0132C3F30D0305EB810127EE77
:1012E000067A974206EB8303D1ED007AD3ED006ACC
:1012F000E7EE267AC1ED007AE7D1B8F5005F0FD2AC
:10130000F04501D8D645D0D96346019A0AF1010AC1
:10131000013B013ACAF30D0A0192BAD1069A93E74A
:10132000D645C2D9F045EFD8009BB9F1010F9E44D4
:10133000CEF30D0EC0D1DC45DFDDAEEB0C022A484A
:101340000EEB0C07AAEB0E04A318C2F30D01F0EC90
:10135000016A0132C3F30D0305EB8101BA4206EBCA
:101360008303D1ED007A93ED007AE6EE877AC1ED42
:10137000007AE9D1C1E7F04595D896E73AB1164A27
:10138000C2F800E0154A1360114BC3F800A0079A99
:101390000026184902F500640B6805EB8300013351
:1013A0000768C3F30D0342F8047B94420660F4D14E
:1013B0009FED117A0B60C7EE087A094BFCEEE77AD5
:1013C000C3ED007A09B0BDEC048BBDE8F08F00BF1F
:1013D0002062402028624020286241203062422062
:1013E00024624020DB0F4940346242202C624120BD
:1013F0001F856B3F2C62422000A73547C557400030
:101400002DE9F04F044600258361072089B0A160D3
:1014100025618A46227317464E4E8146B0470346E1
:101420004FF00208079503955046236003A94A4DE3
:1014300005938DF81C70CDF81080CDF81890A84752
:10144000002840F0D781D4F800A007469AF806009B
:1014500000EB40004000B0470397606003A905908F
:10146000069707978DF80C90CDF810809AF8063003
:10147000227B03EB4303A0688DF81C205B000693DE
:10148000A847002840F0B68194E888001978587879
:10149000DA7841EA0020997893F805E041EA0221E0
:1014A0001A799B7981EA4001387842EA0E2203EBEF
:1014B000430C82EA4102294943EA00234FEA4C0CDB
:1014C00083EA42030CF1070CDA011FFA8CFC3ED4CC
:1014D000ACF1080EBEF1010F13DD0120DFF87C80B6
:1014E00039183A5C0230497880B242EA012282EA35
:1014F000430313F0807F83EA080218BF1346704548
:10150000EEDB674417F8087C87EA4307F90103D547
:1015100087F4000787F01B07022000234FEA1C2EE8
:101520000322049002A8039303A90793237B059049
:10153000A0688DF80CC08DF80DE006928DF81C3077
:10154000A84768B16FF0030009B0BDE8F08F4B40C9
:10155000BEE700BF31594000112140001B00800050
:101560009DF80A5027F07F439DF808209DF8091048
:1015700042EA054242EA01229A42E3D123689F7976
:101580000193002F00F03981A7F1080A7B1ED4F8DF
:101590000480CAF3C40A432B03460AF1010A4FEA46
:1015A000CA02D2B240F2168108F1350986460146D8
:1015B000002019F818CC19F830BC0133054609F1A0
:1015C00030096BF3070019F842BC6CF3070519F8F2
:1015D0005ACC6BF30F2519F83CBC6CF30F2019F8AB
:1015E00054CC6BF3174519F836BC6CF3174019F857
:1015F0004ECC6BF31F6501F07F3B6CF31F6005F071
:101600007F3C694000F07F3580EA0E00DC440EF03C
:101610007F3E5FFA83FB01F0803100F08030AE4402
:10162000DA458CEA01018EEA000EC1D8CEF3072319
:10163000CEF3074CC1F30725C1F30740734497422B
:10164000634403EB1E630B442B44034403EB11631D
:10165000DBB20AD002EB4201013208EB4101D2B207
:10166000497997420B44DBB2F4D85800B047019B4C
:1016700060619B79002B3FF465AF60684FF0000C10
:1016800001270CEB4C0E00254FEA4E0E00EB0E012D
:101690004B79A3B13B4618B262690978013302F86D
:1016A0001010DBB26169DA1B01EB4001D2B24D7060
:1016B000606800EB0E014E799642ECD81F4601356A
:1016C0000B79EDB2AB42E3D20CF1010C23685FFA67
:1016D0008CFC99798C45D4D300293FF433AFA1F128
:1016E000080C4B1ECCF3C40C432B0CF1010C4FEA3D
:1016F000CC05EDB270D94FF0000800F13507424635
:101700004646002317F8189C17F830AC08F101087A
:101710009E4630376AF3070317F842AC69F3070EA9
:1017200017F85A9C6AF30F2E69F30F2317F83CAC95
:1017300017F8549C6AF3174E17F836AC69F3174341
:1017400017F84E9C6AF31F6E06F07F3A69F31F6329
:101750008EEA06060EF07F3903F07F3B5FFA88FEC3
:10176000534002F07F3206F08036D14403F08033DC
:101770005A44F44589EA060682EA0302C1D8C2F354
:101780000723C2F3074CC6F3072EC6F307471344DB
:10179000A942634403EB1263334473443B4403EBB9
:1017A0001663DBB21AD1002B3FF4CCAE61690A7824
:1017B000092A24D000220132D2B29A423FF4C2AEAA
:1017C00011F8020F0928F6D152B20020227709B091
:1017D000BDE8F08F02463DE700231D4605EB4502BC
:1017E000013500EB4202EDB25279A9421344DBB25B
:1017F000F4D8D8E74FF0FF30A6E6384636E70022A7
:10180000E3E700BF03689B79EBB110B4446822782A
:101810008A4213D05A1EA31DD2B2013202EB4202F9
:1018200004EB420203E013F8060B884206D0934211
:101830001C46F8D100205DF8044B7047B4F8010055
:101840005DF8044B70471846704700BF30B5002361
:1018500087B004680225019303920A0A0493059352
:101860000295A3798DF804108DF80520BBB144686A
:10187000B4F801208A4220D05A1EA31DD2B20132F0
:1018800002EB420204EB420203E0B4F801508D4245
:1018900013D09A421C4603F10603F6D10023047BC1
:1018A00001A9084A806804938DF8144090470030DD
:1018B00018BF0120404207B030BDE3780133DBB2EE
:1018C000EDE700BFC5214000F0B589B00C4600230C
:1018D000090A077B02268DF807200DF10705012272
:1018E000039307938DF80D1003A9084B80688DF8BA
:1018F0000C408DF81C7004960595069298470030B0
:1019000018BF0120404209B0F0BD00BFC521400012
:10191000F0B5036887B09B79002B33D045682A78EF
:10192000052A2AD05A1EAB1DD2B2013202EB420266
:1019300005EB420203E013F8064B052C1DD0934241
:101940001D46F8D100231F460022047B02260925EC
:1019500001920592039101A90B4A80688DF80470E9
:101960008DF80530029604958DF8144090470030AC
:1019700018BF0120404207B0F0BDB5F80130DFB21A
:101980001B0AE1E71F46DFE7112140002DE9F04186
:1019900090B9002A90460DDD0C468F18084E094D6F
:1019A0002146013430682B689847BC42F8D1404644
:1019B000BDE8F0818046FAE74FF0FF38F7E700BF57
:1019C000143C45200C3C4520013802281ED82DE946
:1019D000F0411546BAB10E460C46DFF83C800D4F7B
:1019E00001E0013D0DD014F8011BD8F800003B6860
:1019F00098470028A4EB0600F3DA4FF0FF30BDE86B
:101A0000F081BDE8F0811046BDE8F0814FF0FF3075
:101A1000704700BF103C4520143C452070B50B4674
:101A200086B00E0A1A228DF801300125022401A980
:101A3000074B8DF8040007488DF800600295CDF83B
:101A40000CD004948DF81420984706B070BD00BFE8
:101A5000C52140000080014030B587B01A22012521
:101A600002248DF8040001A9084B09480295CDF81D
:101A70000CD004948DF8142098479DF800009DF830
:101A8000013043EA002007B030BD00BF1121400003
:101A90000080014010B54FF0005184B0154C21205A
:101AA000A0474FF000512020A0474FF080517A20EE
:101AB000A0474FF000611620A0474FF080517820DA
:101AC000A0474FF0C0510A20A0474FF0805112208C
:101AD000A047002208491320084C094B01918DF8BA
:101AE0000D200294984701A9064B0748984704B077
:101AF00010BD00BF5128400080D1F008801A0600B8
:101B0000A92E400031204000008001402DE9F04F17
:101B1000013A0C46013B294F85B002440546234457
:101B2000DFF8A08038464FF08041C2F3072AD6B2D2
:101B3000ADF80A20ADF80E304FEA152BADF808507D
:101B4000EDB2ADF80C404FF0C644C0472A221C4B02
:101B5000384622804FF000094FF0804101939847AA
:101B6000A4F800B0384625804FF08041A4F800A0CA
:101B70002680C047A4F8009038464FF080419DF879
:101B80000DB09DF80CA09DF80F609DF80E50C04759
:101B90002B2238464FF080412280019B98473846DF
:101BA0004FF08041A4F800B0A4F800A02680258062
:101BB000C047A4F8009005B0BDE8F08F00120E40B9
:101BC000152740001927400008B54FF08041044B0D
:101BD000044898474FF0C64329221A8008BD00BF29
:101BE0001927400000120E402DE9F047214D82B028
:101BF0000646214FADF8041028464FF080414FF0C3
:101C0000C644ADF80660B8472A234FEA1629F6B253
:101C1000284623804FF00008DFF860A04FF0804195
:101C2000D047A4F80090284626804FF08041A4F8C1
:101C300000902680B847A4F8008028464FF08041E5
:101C40009DF805909DF80460B8472B2328464FF077
:101C500080412380D04728464FF08041A4F800906F
:101C60002680A4F800902680B847A4F8008002B02F
:101C7000BDE8F08700120E401927400015274000EC
:101C80002DE9F8430746404B0920404D9847002274
:101C900003213F483F4B4FF0C64498473E4A03213B
:101CA0003B483E4B4FF0360998473D4A03213848A0
:101CB0003C4B4FF0480898473B4A3C4B0321344883
:101CC00098474FF080413A48A84701234FF08041A0
:101CD00037482380A84711234FF0804134482380A0
:101CE000A847344EA4F800904FF080413048B047E8
:101CF000A4F800804FF080412D48A847CF234FF033
:101D000080412B482380B04704234FF0804128486E
:101D10002380A8473A234FF0804125482380B047CD
:101D200005234FF0804122482380A84712234FF01B
:101D300080411F482380A84729234FF080411C4839
:101D40002380A847A4F800904FF080411848B0477E
:101D50000021A4F800800846BB883A88164CA047AA
:101D600038890022154B60F30F0203F5207160F3F0
:101D70001F4243F8042B8B42FBD10021104B084635
:101D800098470020BDE8F883A92E4000192740009D
:101D900000000840F11E400003040A0AF91E40003A
:101DA00004000A00011F400003100F00091F40003B
:101DB00000120E40152740000D1B400034B2422097
:101DC000E91B400070B5094D06464FF08041084BB5
:101DD00028464FF0C6449847512328464FF080418B
:101DE0002380044B9847268070BD00BF00120E4030
:101DF0001927400015274000F0B4054F054E064D49
:101E0000064C388031802A802380F0BC704700BFA8
:101E1000B8B44220BAB44220B4B44220B6B442208E
:101E200038B500F00103002B0BBF48240824C8215B
:101E300088210BBFE822A82268232823850701D523
:101E40000C46134610F0040F4FF0804107484FF046
:101E5000C645074A08BF1C46904736234FF08041CD
:101E600002482B80034B98472C8038BD00120E404F
:101E70001927400015274000154B164A2DE9F0415F
:101E800006461B8812880F46134801331349013256
:101E900000880988121A124D5B1A92B29BB2A847A9
:101EA000104B4FF08041104898474FF0C6452C2307
:101EB0002B805FB17C1EDFF834800B4F013C4FF06C
:101EC00080413846C047631C2E80F7D1BDE8F081C1
:101ED000B6B44220B4B44220B8B44220BAB44220CE
:101EE0000D1B40001927400000120E40152740002E
:101EF00009014250704700BF00EB01114A60704772
:101F000000EB01118A60704700EB0111CA60704755
:101F100000234FF400420260436003614361836128
:101F2000C361704701230360704700BF0223036051
:101F3000704700BF4FF48073036070474FF4007325
:101F400003607047F0B400292FD00469CF688E6910
:101F500091E828002B438D6823434C692B430D697E
:101F600021043B4301F47F01334343EA05630B4300
:101F70000361EAB15469536891692343466914685F
:101F80000B43916804F01F0415693343D2680902BA
:101F90002343120401F4706143EA057302F47022D2
:101FA0000B431343F0BC436170470161002AE1D148
:101FB0004261F0BC704700BFF0B400292FD08469A3
:101FC000CF688E6991E828002B438D6823434C69C4
:101FD0002B430D6921043B4301F47F01334343EA62
:101FE00005630B438361EAB15469536891692343E4
:101FF000C66914680B43916804F01F0415693343E4
:10200000D26809022343120401F4706143EA0573A4
:1020100002F470220B431343F0BCC361704781612B
:10202000002AE1D1C261F0BC704700BF81647047F3
:10203000F0B44FF0FF338026042208252024836269
:102040002F4B076A0660066B0560046002604A68F1
:102050009A424DD82B4C0B68A2422ED92A4C2B49C0
:102060001444A1FB0321A400890BB3FBF4F303394F
:10207000033BFF2940D9002200E03CB1013249086E
:10208000062A8CBF00240124FF29F6D8FF2B07D98C
:1020900014B905E0062A03D85B080132FF2BF9D8F2
:1020A0001B02002412049BB202F4E022C9B21343C3
:1020B0000B4303612046F0BC70475200B3FBF2F3C0
:1020C000033B0022FF2B02D808E0062A03D85B0856
:1020D0000132FF2BF9D8120402F4E0221902002485
:1020E000DBB289B213430B4303612046F0BC704757
:1020F00001242046F0BC704701240022C6E700BF3F
:10210000801A060000DC05000012FD3FF11976057B
:10211000CA68002A53D070B400268C6846604B68A9
:102120000D7C1B022D0403F4407305F4FE0543F4FB
:1021300080532B434360C6604B689BB91D46012307
:10214000C5600360036AD9051FD4012A20D047F275
:1021500030519E0712D4036ADD0516D40139F8D137
:1021600009202AE0012B0D78E9DD4E78022B46EAA2
:102170000525E4D08B7843EA0525E0E7036B013AB7
:1021800004F8013B036AD905DFD5052070BC704710
:1021900002219D0747F23052016007D4036ADE0531
:1021A000F3D4013ADCD09D070160F7D5036B2370AF
:1021B000036ADB07FCD5036A002070BC704701206E
:1021C000704700BF0346C868002834D070B40026AA
:1021D0008C685E600A7C4D6812042D0202F4FE02D7
:1021E00005F440752A435A60DE604A688AB915468C
:1021F000DD601A6AD60509D45507FAD514F8012B03
:1022000001385A6313D01A6AD605F5D5052070BC7B
:102210007047012A0D78EBDD4E78022A46EA052543
:10222000E6D08A7842EA0525E2E7510705D41A6A22
:10223000D405EBD4F9E70120704702221A601A6A2C
:10224000D207FCD570BC7047F0B50346244C002083
:102250004FF0880EC3F8E44024274FF480764FF403
:102260000025204C5860206058629862C3F800E056
:102270001F601E601D6061B308680501AA421CD37F
:1022800068084FF6FE7600EBC202B2FBF5F2D50805
:10229000681EB0421DD81204002002F4E0222A4336
:1022A0001A624D688A680F692A43CE6859683A43B2
:1022B0003243114322605960F0BDC0004FF6FE76F4
:1022C000D20002EB5002B2FBF0F2D508681EB04219
:1022D00001D90120F0BD586840F400205860DAE7C9
:1022E00000415355BCB4422040230360704700BFF7
:1022F00010230360704700BF8160704740697047DA
:102300004369DB0705D583690020C3F308030B602D
:1023100070470120704700BF00EB81115368C86D02
:102320000B6693684B66136823F07F430B67136952
:10233000C3F30B034B675369CB67936923F07F4368
:10234000C1F88030D36923F07F43C1F88430D3686B
:102350008B67704770B51048104DA8473E2100208C
:102360000F4B104C9847A0470028FCD00E4B9847C5
:102370000E4C0F4B0F4A9A62A0470028FCD0022057
:102380000D4B98470D4B002098470D4B98472B4617
:102390000148BDE87040184700A3E1111531400025
:1023A000252E4000792E4000892E4000992E4000B5
:1023B00000060E40013F1820A12D4000D12D400005
:1023C0002D304000A44B4FF400422DE9F0475A60F5
:1023D000BFF35F8FDFF8F482A04FA14E4046A14DBE
:1023E000B04740EA07011120A8479F48B0479F49DE
:1023F0009F4C01439F48A8474046B04740EA070129
:102400009D48A8479D48B04740EA04019C48A8471A
:102410009C48B04740EA04019B48A8476FF06040E1
:10242000B0479A499A4C01439A48A8476FF07040C8
:10243000B047994901439948A847636A0520984ADB
:1024400043F4E02363629047BFF34F8FBFF36F8F76
:10245000BFF34F8FBFF36F8F4FF00009C4F8509256
:10246000636943F400336361BFF34F8FBFF36F8F32
:102470008C4B8D498D4A59605A60BFF34F8FBFF323
:102480006F8FD4F8903223F00103C4F89032D4F85F
:10249000943223F00103C4F89432BFF34F8FBFF39B
:1024A0006F8F834C0A20A0470B20A0470C20A04729
:1024B0001020A0471120A0474FF400757D4C4FF429
:1024C00000037D4F4FF4001123611026C4F8A030A3
:1024D0004FF0080E236338463D614B46C7F8A050C5
:1024E0004FF400523D636561C4F8A0506566C4F8BE
:1024F000905065652562C4F88450D4F870C0DFF848
:10250000D0812CF4007CC4F870C0D4F874C02CF4D2
:10251000007CC4F874C0C4F8C050C4F8D450C4F8E7
:10252000B0502166C4F8901061656162C4F88010F3
:10253000D4F870C02CF4001CC4F870C0D4F874C077
:102540002CF4001CC4F874C06160D8F8141141EA7E
:10255000060C5A49C8F814C10E66C1F890604E6561
:102560004E62C1F88060D1F870C0DFF868814CEA33
:10257000060CC1F870C0D1F874C04CEA060CC1F862
:1025800074C04E604FF06051C4F860E0C4F890E051
:10259000C4F854E0C4F824E0C4F880E0D4F870C073
:1025A0002CF0080CC4F870C0D4F874C02CF0080CDF
:1025B000C4F874C0C4F804E02666C4F89060666588
:1025C0006662C4F88060D4F870E02EF0100EC4F893
:1025D00070E0D4F874E02EF0100EC4F874E0666079
:1025E000C0474B4638464FF080424FF06051C047DD
:1025F00038460123FF224FF00061C04701233F22EC
:102600004FF000612E48C047204601234FF4C032EE
:102610004FF00061C047384601234FF480724FF0FD
:102620000061C047384601234FF400624FF000615B
:10263000C04701234FF400224FF000612148C047FA
:102640004B462A4638464FF08051C0472946384607
:102650001D4BBDE8F047184750180E40010000011F
:10266000F1264000E5264000FFFF1F000100230681
:10267000010023031200400013000020FFFF0300AD
:1026800014004020FFFF0100150044200100011349
:1026900000ED00E01600004001000003170000609C
:1026A000D9264000000C0E400C08005A0C07005AB6
:1026B000A92E4000000E0E4000120E4000100E40E9
:1026C00000160E4000140E4015274000FFFF3F008B
:1026D000008008401D274000014B5860704700BF34
:1026E00090ED00E0014BD8601961704790ED00E07B
:1026F00020280DD94022052302E001331F2B05D0ED
:1027000090424FEA4202F8D8580070473E20704786
:10271000082070470163704741637047B1F1005F63
:1027200030B43BD031D9B1F1405F1BD0B1F1605F23
:1027300018D0B1F1205F03D0002330BC1846704799
:10274000DD07426448D413F00A0F026648D09C07A4
:10275000026248D5C0F88020012342610260184619
:1027600030BC704703F00404DB0742642FD5426697
:10277000002C2FD00265B1F1605F4ED0426301237F
:1027800002610260184630BC7047B1F1805F05D02D
:10279000B1F1C05F02D0B1F1006FCDD1B1F1805F76
:1027A00042643CD024D9B1F1C05F42D0B1F1005FA6
:1027B00005D1016F11430167416F11434167DB0789
:1027C000426025D501234266184630BC7047026638
:1027D000002CCFD14265CEE713F00A0F4266B6D186
:1027E0009C074262B6D41907B6D5C0F88420B3E777
:1027F000B1F1006FE3D1046FD143056F2C400D465A
:102800000C400467416F446F214029404167D6E77F
:1028100001230266184630BC70470263AFE7016FC0
:1028200011430167416F446F214021EA0201416772
:10283000C5E7016F046F214021EA02010167416F82
:1028400011434167BBE700BFC06C7047806C7047A5
:10285000534B01F0F04203EB5013B2F1005F70B440
:102860004FEA43236DD00BD8B2F1805F27D0B2F18D
:10287000C05F52D0B2F1006F38D0002070BC7047FA
:10288000B2F1405F66D0B2F1605F63D0B2F1205F19
:10289000F3D100F01F000122CD0702FA00F25A64C2
:1028A00073D55A6611F00A0F6DD01A628C076ED577
:1028B000C3F880205A6101201A6070BC704700F094
:1028C0001F020120C90700FA02F25A641C6F44EA91
:1028D00002041C675C6F5D6F04EA050424EA0204CD
:1028E0005C675A6016D55A6670BC704700F01F02CC
:1028F000012000FA02F25A64D6431D6F1C6F254076
:1029000035401D675C6F5D6F2C4034405C67CC07C1
:102910005A60E8D41A6670BC704700F01F020120AC
:1029200000FA02F25A641C6F1D6F2C4024EA020464
:102930001C67CE075C6F44EA02045C675A60E9D505
:10294000D1E700F01F02012000FA02F25A641C6F66
:102950001443EDE700F01F00012201F0605401F084
:1029600004058240C9075A640BD55A66A5B11A6599
:10297000B4F1605F12D05A631A6101201A6070BC12
:1029800070471A66F2E75A6290E71A668AE7080704
:1029900090D5C3F884208DE75A65E9E71A63EBE721
:1029A0000707200070B52E4B2E48984705462E4B42
:1029B0002C489847054015D02C4C20680A2819D07F
:1029C00020690A281FD0206A0A2825D0206B0A28EF
:1029D0002BD0206C0A2831D0206D0A2837D0206EE9
:1029E0000A2800D070BD616E2942FBD0E36EBDE8BD
:1029F0007040184761680D42E2D0E3689847636809
:102A00009D43EFD0DCE761692942DCD0E369984758
:102A100063699D43E6D0D6E7616A2942D6D0E36A6E
:102A20009847636A9D43DDD0D0E7616B2942D0D0DF
:102A3000E36B9847636B9D43D4D0CAE7616C29422E
:102A4000CAD0E36C9847636C9D43CBD0C4E7616DFB
:102A50002942C4D0E36D9847636D9D43C2D0BEE761
:102A600049284000000E0E404D284000C0B44220CE
:102A700070B52E4B2E48984705462E4B2C4898474C
:102A8000054015D02C4C20680B2819D020690B2844
:102A90001FD0206A0B2825D0206B0B282BD0206C50
:102AA0000B2831D0206D0B2837D0206E0B2800D09A
:102AB00070BD616E2942FBD0E36EBDE870401847DF
:102AC00061680D42E2D0E368984763689D43EFD0A8
:102AD000DCE761692942DCD0E369984763699D437B
:102AE000E6D0D6E7616A2942D6D0E36A9847636A9E
:102AF0009D43DDD0D0E7616B2942D0D0E36B98478E
:102B0000636B9D43D4D0CAE7616C2942CAD0E36CA1
:102B10009847636C9D43CBD0C4E7616D2942C4D014
:102B2000E36D9847636D9D43C2D0BEE749284000DE
:102B300000100E404D284000C0B4422070B52E4B0E
:102B40002E48984705462E4B2C489847054015D0EF
:102B50002C4C20680C2819D020690C281FD0206A22
:102B60000C2825D0206B0C282BD0206C0C2831D0C1
:102B7000206D0C2837D0206E0C2800D070BD616EFF
:102B80002942FBD0E36EBDE87040184761680D42F2
:102B9000E2D0E368984763689D43EFD0DCE7616962
:102BA0002942DCD0E369984763699D43E6D0D6E7C4
:102BB000616A2942D6D0E36A9847636A9D43DDD0B3
:102BC000D0E7616B2942D0D0E36B9847636B9D439C
:102BD000D4D0CAE7616C2942CAD0E36C9847636CD1
:102BE0009D43CBD0C4E7616D2942C4D0E36D9847C3
:102BF000636D9D43C2D0BEE74928400000120E40DD
:102C00004D284000C0B4422070B52E4B2E48984746
:102C100005462E4B2C489847054015D02C4C206873
:102C2000102819D0206910281FD0206A102825D01C
:102C3000206B10282BD0206C102831D0206D10284C
:102C400037D0206E102800D070BD616E2942FBD0B5
:102C5000E36EBDE87040184761680D42E2D0E3685A
:102C6000984763689D43EFD0DCE761692942DCD077
:102C7000E369984763699D43E6D0D6E7616A2942D4
:102C8000D6D0E36A9847636A9D43DDD0D0E7616B95
:102C90002942D0D0E36B9847636B9D43D4D0CAE7F9
:102CA000616C2942CAD0E36C9847636C9D43CBD0DA
:102CB000C4E7616D2942C4D0E36D9847636D9D43BD
:102CC000C2D0BEE74928400000140E404D28400005
:102CD000C0B4422070B52E4B2E48984705462E4B67
:102CE0002C489847054015D02C4C2068112819D045
:102CF000206911281FD0206A112825D0206B1128A7
:102D00002BD0206C112831D0206D112837D0206EA7
:102D1000112800D070BD616E2942FBD0E36EBDE882
:102D20007040184761680D42E2D0E36898476368D5
:102D30009D43EFD0DCE761692942DCD0E369984725
:102D400063699D43E6D0D6E7616A2942D6D0E36A3B
:102D50009847636A9D43DDD0D0E7616B2942D0D0AC
:102D6000E36B9847636B9D43D4D0CAE7616C2942FB
:102D7000CAD0E36C9847636C9D43CBD0C4E7616DC8
:102D80002942C4D0E36D9847636D9D43C2D0BEE72E
:102D90004928400000160E404D284000C0B4422093
:102DA000023802280DD8084B53F8200007490B6B56
:102DB0000A4623F4407303430B63936E1B07FCD551
:102DC00070470020F2E700BF3087400000060E4049
:102DD00013490B6B23F07003184308638B6E1807BD
:102DE00007D44FF4006301E0013B16D08A6E12074E
:102DF000FAD50B490B6B23F0030343F002030B637B
:102E00008B6E180707D44FF4006301E0013B04D038
:102E10008A6E1207FAD5002070470120704700BF64
:102E200000060E40A0B90E4B09020E4889B21A46A0
:102E300030B40D4C1D6A2C40204301431962936E3F
:102E4000DB07FCD5116A094B0B43136230BC70479A
:102E50000349074A086A074B024013430B62704755
:102E600000060E4001003700FCFFC8FF00003701DC
:102E7000FCFFC8FE02003701024B986E00F4803060
:102E8000704700BF00060E40024B4FF000529A629E
:102E9000704700BF00060E40024B986E00F0020023
:102EA000704700BF00060E403F281AD81F280AD8D6
:102EB00001230E4A03FA00F0916930EA010312D0AF
:102EC00010610020704701232038084A03FA00F0FF
:102ED000D2F8083130EA030305D0C2F8000100201F
:102EE0007047012070470020704700BF00060E4069
:102EF0000B4B4FF4807210B403EB800402FA00F025
:102F0000226C22F47F621143216402E09A6E024235
:102F100002D11A680242F9D15DF8044B704700BF34
:102F200000060E400B4B4FF4807210B403EB80048C
:102F300002FA00F0226C22F007021143216402E041
:102F40009A6E024202D11A680242F9D15DF8044B2E
:102F5000704700BF00060E404FF48073024A03FA28
:102F600000F01060704700BF00060E40FEE700BF93
:102F7000FEE700BF20492148814210B582B009D048
:102F80001F4B984206D2C2431E4C1A4422F0030241
:102F90000432A0471C481D4B984207D2C24300216F
:102FA0001B4C1A4422F003020432A047194B1A4A60
:102FB00023F07F039360EFF31083B3FA83F35B098D
:102FC000019372B6BFF35F8F144A00231449137044
:102FD00001980B6843F470030B60BFF34F8FBFF38E
:102FE0006F8F20B101231370BFF35F8F62B60D4B5B
:102FF00098470D4B9847FEE7D492400000004020D0
:10300000F8094020A15E400000404020983C452047
:10301000D55F40000000400000ED00E028004020A7
:1030200088ED00E0B9584000B54F4000324A136BBC
:1030300003F00303012B3CD025D3022B0DD02F48E6
:1030400003682D490A6B02F07002702A2BD00A6BBC
:10305000C2F30212D34003607047136A2748DB01B2
:103060003AD5274B036024490A6B02F00302022A77
:10307000E7D18A6A896AC2F30A42C9B202FB033302
:10308000B3FBF1F3DDE71F4B1B495B690A6B13F0E0
:10309000800F1A4802F0700214BF4FF400434FF43F
:1030A000FA43702AD3D1184AA2FB03235B080360BA
:1030B0007047136AD9010CD4104814490160126A90
:1030C00002F07002102A11D00D4B202A18BF0B46B7
:1030D000B7E70B4B0948B4E70C4B0360126A02F0E8
:1030E0007002102A04D0202ABBD0BCE7084BA8E706
:1030F000074B0360B7E700BF00060E402C004020DE
:10310000001BB70010180E40ABAAAAAA00093D0088
:1031100000127A00164B984217D9164B984210D9D4
:10312000154B98421AD9154B984213D9144B984213
:1031300018D9144B9842144B94BF144A144A1A607D
:103140007047114B134A1A6070470F4B4FF0806263
:103150001A6070470C4B104A1A6070470A4B0F4AAE
:103160001A607047084B4FF004221A60704700BF86
:10317000BFF35E017FE7BD023FDB1C04FFCE7B0592
:10318000BFC2DA067FB63908000C0E400005000405
:103190000006000400010004000300040002000413
:1031A0000D4A0E49136843B11844814202DB106096
:1031B000184670474FF0FF30704710B4084C204459
:1031C0001460814204DB106020465DF8044B7047B8
:1031D0004FF0FF30F9E700BF30B54220FCFF45203B
:1031E000985E45204FF0FF30704700BF4FF400530A
:1031F00000204B60704700BF0120704700207047DF
:103200002DE9F0410446154B0E469847236804F11A
:103210000C07206900253343114E23608742216843
:1032200014D090E8080113F0806F23F07F4202D1A0
:103230000A4203D108E032EA010E05D1DB0100D5D4
:10324000154341F00071B0474046E7E721EA050128
:10325000044B216098472068BDE8F081C93C4000DC
:10326000A1414000693E4000D0B111F07F4F0AD02B
:103270004FF0800372B683F31188BFF36F8FBFF3F3
:103280004F8F62B6FEE770B504460B4B0D4698476C
:1032900023680A4A23EA05032360BDE8704010470B
:1032A0004FF0800372B683F31188BFF36F8FBFF3C3
:1032B0004F8F62B6FEE700BFF53340004134400057
:1032C00068B111F07F4F15D04FF0800372B683F3D1
:1032D0001188BFF36F8FBFF34F8F62B6FEE74FF0D9
:1032E000800372B683F31188BFF36F8FBFF34F8FE4
:1032F00062B6FEE7004B18470132400010B4044CA0
:103300000A4600230146A44602485DF8044B604784
:103310009D46400069324000EFF311834FF0800278
:1033200072B682F31188BFF36F8FBFF34F8F62B60F
:10333000006883F31188704710B4044C13460A46A2
:103340000146A44602485DF8044B60479D46400094
:10335000C132400043684B609A688A609A68516045
:1033600099600861036801330360704730B40D68E9
:103370006B1C11D000F1080200E01A4653681C686B
:10338000A542FAD24B6099608A6051600861036877
:10339000013330BC0360704702695368F2E700BF35
:1033A00042688168036991608268416851605A6827
:1033B000904206D0002202611A68013A1A60186829
:1033C000704782685A60F5E70000000000000000C6
:1033D000074B19680868B0E8F04F80F30988BFF31D
:1033E0006F8F4FF0000080F311887047AFF30080BB
:1033F0003CB542204FF0800372B683F31188BFF3CF
:103400006F8FBFF34F8F62B60B4A13680133012BE6
:10341000136000D07047094B1B6813F0FF0FF9D001
:103420004FF0800372B683F31188BFF36F8FBFF341
:103430004F8F62B6FEE700BF3000402004ED00E091
:10344000094A136853B94FF0800372B683F31188A9
:10345000BFF36F8FBFF34F8F62B6FEE7013B136080
:103460000BB983F311887047300040200000000042
:10347000EFF30980BFF36F8F154B1A681EF0100F22
:1034800008BF20ED108A20E9F04F10602DE90900F7
:103490004FF0800072B680F31188BFF34F8FBFF3F7
:1034A0006F8F62B600F07EFD4FF0000080F3118850
:1034B00009BC19680868B0E8F04F1EF0100F08BF8B
:1034C000B0EC108A80F30988BFF36F8F704700BF9C
:1034D0003CB5422008B54FF0800372B683F31188E3
:1034E000BFF36F8FBFF34F8F62B6054B984718B18C
:1034F000044B4FF080521A60002383F3118808BDFB
:10350000ED3C400004ED00E0EFF305830F2B10D9F4
:103510001249134A5B5C12789A420AD94FF0800331
:1035200072B683F31188BFF36F8FBFF34F8F62B60C
:10353000FEE70C4B0C4A1B68126803F4E0639342ED
:103540000AD94FF0800372B683F31188BFF36F8FEF
:10355000BFF34F8F62B6FEE7704700BFF0E300E0B5
:1035600034B542200CED00E038B5422070B5154668
:10357000026C0446866B32B9056835BB4068164B51
:103580009847656024E0154B65B980689847A36843
:10359000216C62680B449342A36016D323682846CB
:1035A000A36015E0C0689847236CE2685B4221681D
:1035B0001A448A42E26002D262681344E360022D38
:1035C00003D126B1013E002002E0002000E0304699
:1035D0000136A66370BD00BF21434000A15E4000DC
:1035E000026C034672B1084610B4D9685C68114495
:1035F000A142D96001D31968D960D9685DF8044B3C
:10360000014B1847704700BFA15E40004FF0800398
:1036100072B683F31188BFF36F8FBFF34F8F62B61B
:10362000FEE700BF70B582B0846C0190B4B10A4669
:10363000E36BA16B99420AD34FF0800372B683F318
:103640001188BFF36F8FBFF34F8F62B6FEE7A16B98
:103650008B4205D80026304602B070BD0F4B98470C
:1036600094F8455001A90E4B20466DB29847064686
:103670006B1C06D06B1C30465BB284F8453002B040
:1036800070BD636A002BE6D004F12400054B984717
:10369000002818BF0126304602B070BD0D3640002C
:1036A0006D3540000D4140002DE9F8431C4B0746A5
:1036B000894690469847EFF311864FF0800372B623
:1036C00083F31188BFF36F8FBFF34F8F62B6BC6B6C
:1036D0000CB397F844504946124B38466DB2013C42
:1036E00098476B1CBC6310D13B690BB9012013E0F8
:1036F00007F110000C4B9847B8F1000FF6D00028E6
:10370000F4D00120C8F8000006E0013501206DB2B8
:1037100087F8445000E0204686F31188BDE8F8831E
:1037200009354000E13540000D4140002DE9F04FE2
:10373000044683B0DFF8EC80C04794F845707FB250
:10374000002F1EDDDFF8E090DFF8D0B0A56C002D73
:103750003CD0AA6BEB6B01949A420AD34FF08003E2
:1037600072B683F31188BFF36F8FBFF34F8F62B6CA
:10377000FEE7AA6B934233D87B1EDBB25FB2002B0D
:10378000E4D1FF23244E84F84530B047C04794F875
:1037900044506DB2002D12DD236983B104F110098C
:1037A000DFF884801D4F01E0236943B14846C047DC
:1037B00000B1B847013DEBB25DB2002BF4D1FF235D
:1037C00084F84430B04703B0BDE8F08F636A002B43
:1037D000D7D004F12400C8470028CDD0D847CBE784
:1037E00095F8456000220E4B01A976B2284698470D
:1037F0008246731C07D0731C5BB285F84530BAF162
:10380000000FB9D0EAE76B6A002BF8D005F124006D
:10381000C8470028F3D0E1E741344000F5424000BA
:103820006D354000F53340000D4140002DE9F04F6B
:1038300085B00192002800F0B880002900F0A68031
:10384000022B00F094801E46654B0446884698473C
:1038500010B9019B002B78D1A6F102054FF0000AA8
:10386000DFF8A891B5FA85F55E4FDFF8A4B16D09D0
:1038700024E00DF1080AB8475B4B9847C84794F815
:103880004430FF2B00F0A78094F84530FF2B00F068
:103890009E80B847504601A9544B9847002840F0F5
:1038A0008F80C847A26BE36B9A4217D0B847504B42
:1038B000204698474F4B98474FF0010AC847A26BE4
:1038C000E36B9A4225D325BB019BEBB1BAF1000F04
:1038D000CFD10DF1080A5046D847CCE7B847019937
:1038E00004F11000444B9847414B20469847414B08
:1038F00098470028E0D14FF08053404A1360BFF34F
:103900004F8FBFF36F8FD7E7B847284605B0BDE8A4
:10391000F08F3B4B4146324620469847A36C7BB123
:1039200031462046374B984738B1344B4FF08052E0
:103930001A60BFF34F8FBFF36F8FB8470120E5E7E1
:10394000636A6BB90028F0D1F7E74FF0800372B6D5
:1039500083F31188BFF36F8FBFF34F8F62B6FEE71B
:1039600004F12400284B98470028DED1E5E7C26B1C
:10397000012A3FF468AF4FF0800372B683F31188D9
:10398000BFF36F8FBFF34F8F62B6FEE7026C002A62
:103990003FF456AF4FF0800372B683F31188BFF344
:1039A0006F8FBFF34F8F62B6FEE74FF0800372B6A2
:1039B00083F31188BFF36F8FBFF34F8F62B6FEE7BB
:1039C00020460B4B98470B4B984700209EE700235F
:1039D00084F845305DE7002384F8443054E700BFA5
:1039E0000143400041344000C93C40005142400086
:1039F0002D374000693E40005540400004ED00E096
:103A00006D354000253640000D414000F533400043
:103A1000394240002DE9F84318B300294AD0022B5F
:103A20003AD01F46384B0446904689469847EFF3F4
:103A300011864FF0800372B683F31188BFF36F8F46
:103A4000BFF34F8F62B6A26BE36B9A4214D3A7F118
:103A50000200B0FA80F0400970B986F31188BDE821
:103A6000F8834FF0800372B683F31188BFF36F8F32
:103A7000BFF34F8F62B6FEE794F845504946234B9B
:103A80003A466DB2204698476B1C21D06B1C012032
:103A90005BB284F84530E0E7C46B012CC1D04FF035
:103AA000800372B683F31188BFF36F8FBFF34F8F1C
:103AB00062B6FEE7046C002CB1D04FF0800372B602
:103AC00083F31188BFF36F8FBFF34F8F62B6FEE7AA
:103AD000A36C5BB1394620460D4B984740B1B8F115
:103AE000000F05D00120C8F80000B6E7636A0BB9E3
:103AF0000120B2E704F12400064B9847B8F1000F0B
:103B0000F6D00028EED1F3E7093540006D354000CE
:103B1000253640000D414000002833D0036C53B1DE
:103B20004FF0800372B683F31188BFF36F8FBFF33A
:103B30004F8F62B6FEE70368002B3BD02A4B70B56F
:103B400004460E469847EFF311854FF0800372B696
:103B500083F31188BFF36F8FBFF34F8F62B6A26BF1
:103B6000E36B9A4224D294F8453001325BB2A263EF
:103B70005A1C12D0013301205BB284F8453085F322
:103B8000118870BD4FF0800372B683F31188BFF3C4
:103B90006F8FBFF34F8F62B6FEE7A36CC3B12046B1
:103BA0000021124B9847E0B1DEB101203060E6E71A
:103BB0000020E4E74368002BC0D04FF0800372B6CA
:103BC00083F31188BFF36F8FBFF34F8F62B6FEE7A9
:103BD000636A33B104F12400054B98470EB1002805
:103BE000E3D10120CBE700BF093540002536400076
:103BF0000D41400010B161B10D4B18474FF08003EB
:103C000072B683F31188BFF36F8FBFF34F8F62B625
:103C1000FEE7036C002BEFD04FF0800372B683F306
:103C20001188BFF36F8FBFF34F8F62B6FEE700BFFF
:103C3000A9364000F8B570B1036C002932D0ABB999
:103C40004FF0800372B683F31188BFF36F8FBFF319
:103C50004F8F62B6FEE74FF0800372B683F3118890
:103C6000BFF36F8FBFF34F8F62B6FEE7144B04466E
:103C70000D469847EFF311864FF0800372B683F339
:103C80001188BFF36F8FBFF34F8F62B6A06B30B157
:103C9000204629460B4BE76898470120E76086F3EA
:103CA0001188F8BD002BCBD04FF0800372B683F3A0
:103CB0001188BFF36F8FBFF34F8F62B6FEE700BF6F
:103CC00009354000E1354000024A136801331360B2
:103CD000704700BFB4B5422008B5024B9847024B6D
:103CE000186808BD09354000F0B542202DE9F84FAD
:103CF0004F4B1B68002B6FD14E4B1E6801361E6068
:103D0000002E5AD0DFF858A1DAF80020002496429D
:103D10006AD3494D494FDFF84C812FE02A68D268B9
:103D2000D2F80C90D9F8041009F1040B8E425846D1
:103D300073D3434B9847D9F8281009F1180009B1FB
:103D40003F4B9847D9F82C004FF0010E3D4B594698
:103D50000EFA00FE00EB80001B6807EB80004EEAC5
:103D6000030E384BC3F800E0374B9847D8F80000F3
:103D7000D9F82C10C26A914228BF01242A6812681F
:103D8000002ACBD14FF0FF32CAF80020D8F800301B
:103D90002E49DB6A03EB83039B00FA580B68022A67
:103DA00028BF01240BB92A4B98472A4B1B68002BCC
:103DB00018BF01242046BDE8F88F1F4D2B681B68F3
:103DC000B3B14FF0800372B683F31188BFF36F8FE6
:103DD000BFF34F8F62B6FEE71C4A00241C491368EC
:103DE000013313608847E0E7144FDFF87880CDE7B0
:103DF000194B2968194A186828601960136801333B
:103E000013602B681B685BB12A68DFF854A0D26886
:103E1000D2685268CAF8002076E7CAF80010B5E701
:103E2000DFF83CA04FF0FF32CAF800206CE700BF7B
:103E3000B4B54220F0B5422040B5422048B54220FA
:103E4000A1334000B8B5422055334000B0B5422000
:103E5000ED544000F4B5422044B54220C0B54220A4
:103E6000BCB542203CB542202DE9F84F3D4C2368BB
:103E700053B94FF0800372B683F31188BFF36F8F8D
:103E8000BFF34F8F62B6FEE7374B98472368013B7D
:103E900023602468002C57D1344B1B68002B53D06F
:103EA000334DDFF8F4B0334F334EDFF8F090DBF8EA
:103EB00000304FF0010833B3DBF80C30DC6804F15C
:103EC000040A04F11800B8475046B847E06AD6F82B
:103ED00000E0514608FA00F300EB8000274A43EA6D
:103EE0000E0309EB800033609047254BE26A1B68A4
:103EF000DB6A9A42DBD3C5F800804FF00108DBF89B
:103F00000030002BD8D13CB11E4B1A6812680ABB96
:103F10001D4B4FF0FF321A601C4E346844B1DFF87D
:103F200080800127C04700B12F60013CFAD1346086
:103F30002B684BB1164B4FF080521A60BFF34F8F76
:103F4000BFF36F8F012400E00024124B98472046F6
:103F5000BDE8F88F1A680C4BD268D26852681A60B4
:103F6000DAE700BFB4B54220F5334000ACB54220DB
:103F7000F4B54220A1334000B8B54220553340008B
:103F80003CB5422040B54220BCB54220B0B54220ED
:103F900004ED00E041344000C4B5422048B5422061
:103FA000ED3C4000254B1B68002B35D1244A10B551
:103FB000244C136023681B6B1A68B2F1A53F03D130
:103FC0005A68B2F1A53F2BD0206821681E4B3431CE
:103FD00098471E4B1B68B3FA83F3DBB21C4AC3F14C
:103FE0001F0303EB83039B00D058D11850B94FF047
:103FF000800372B683F31188BFF36F8FBFF34F8FC7
:1040000062B6FEE7083348681A44436893424B603F
:104010000FD0DB68236010BD094B01221A60704786
:104020009A68B2F1A53FCFD1DB68B3F1A53FCBD100
:10403000CFE75B684B60DB68236010BDB4B54220FE
:10404000F4B542203CB54220D5544000B8B54220DA
:1040500048B5422000282AD02DE9F041214D0C46D8
:10406000214E29681831B047204A214B176828682B
:104070000430984740B92B6801221E49D86A0B6862
:10408000824023EA02030B60631C1BD03C442B6874
:10409000A7425C601DD8184B186829680431B047E6
:1040A000164B1A68944200D21C60BDE8F0814FF0B4
:1040B000800372B683F31188BFF36F8FBFF34F8F06
:1040C00062B6FEE729680E4804310E4BBDE8F041A8
:1040D00018470D4B186833462968BDE8F041043194
:1040E000184700BF3CB542206D334000F0B5422078
:1040F000A1334000B8B5422040B54220BCB54220B3
:10410000DCB542205533400044B54220F8B5C368C1
:10411000DC681CB304F11805194F2846B847194B41
:104120001B6843BB261D184D3046B847E26A012381
:10413000164802EB8207314693402A6800EB87005D
:104140001343134A2B609047124BE26A1B68DB6AE9
:104150009A420ED9104B01201860F8BD4FF0800331
:1041600072B683F31188BFF36F8FBFF34F8F62B6C0
:10417000FEE70020F8BD29460848054B9847E3E7CD
:10418000A1334000B4B54220B8B5422048B5422022
:10419000553340003CB54220F4B54220C4B542201E
:1041A000F8B51E4B1B6853B94FF0800372B683F30A
:1041B0001188BFF36F8FBFF34F8F62B6FEE741F0F8
:1041C0000041C4680160ECB1261D154FB8470125B8
:1041D0003046B847134AE06A3146166805FA00F3DC
:1041E000114F00EB80003343104E07EB800013604B
:1041F000B0470F4BE26A1B68DB6A9A4201D90D4B4C
:104200001D60F8BD4FF0800372B683F31188BFF3D1
:104210006F8FBFF34F8F62B6FEE700BFB4B5422089
:10422000A1334000B8B5422048B542205533400084
:104230003CB54220F4B54220034A044B12681B6887
:1042400080E80C00704700BFC0B54220F0B54220A6
:10425000F8B500282DD009B30D46224B04469847E7
:104260002B68DFF88CE0591C6668DEF8002037D038
:104270001D4821680768B94206D0B24204D301261E
:104280001A4B98473046F8BD921B9A421CD3002324
:1042900001262B60154B98473046F8BD4FF0800340
:1042A00072B683F31188BFF36F8FBFF34F8F62B67F
:1042B000FEE74FF0800372B683F31188BFF36F8F70
:1042C000BFF34F8F62B6FEE700689B1ADEF800204E
:1042D00000262B60054B84E8050098473046F8BD62
:1042E0000026CDE7F5334000C0B542204134400000
:1042F000F0B54220014B01221A607047F4B542200C
:10430000054B1B6833B1054B1B68002B0CBF02200B
:104310000020704701207047D8B54220B4B5422034
:10432000002842D0F8B52B4B1B6898420AD04FF0BA
:10433000800372B683F31188BFF36F8FBFF34F8F83
:1043400062B6FEE7C36C53B94FF0800372B683F3D5
:104350001188BFF36F8FBFF34F8F62B6FEE7C16A5C
:10436000013B826CC364914231D0002B2FD1071DD9
:104370000446194B38469847C8B11848184AA36CE8
:104380000125D2F800E0394605FA03F6C3F1050726
:10439000E36203EB830346EA0E06A76100EB8300AA
:1043A000104B166098472846F8BD00207047E66A13
:1043B0000A4806EB86030A4A9B00C358002BDED14D
:1043C00001251368B54023EA05031360D7E70020F1
:1043D000F8BD00BF3CB54220A133400048B54220A3
:1043E000B8B54220553340002DE9F843089F68B323
:1043F0009946434B0446154688469847EFF3118685
:104400004FF0800372B683F31188BFF36F8FBFF351
:104410004F8F62B6B9F1000F02D0236DC9F800309A
:104420006B1E022294F8545084F85420EDB2032BF2
:1044300005D8DFE803F02723022CC4F85080012DB3
:104440000FD0012086F31188BDE8F8834FF0800378
:1044500072B683F31188BFF36F8FBFF34F8F62B6CD
:10446000FEE7A36AD3B14FF0800372B683F31188DD
:10447000BFF36F8FBFF34F8F62B6FEE7236D01333B
:104480002365DCE7236D43EA08032365D7E7022DA4
:10449000D3D1002086F31188BDE8F883194B1B683F
:1044A0000BBB04F10408184B40469847E06A174AD2
:1044B000414605FA00F3DFF868E0156800EB80007C
:1044C0002B430EEB8000124D1360A847114BE26A9C
:1044D0001B68DB6A9A42B4D95FB10120386086F369
:1044E0001188BDE8F88304F118010B48084B984780
:1044F000ECE70A4B0120186086F31188BDE8F883C9
:1045000009354000B4B54220A1334000B8B542207F
:10451000553340003CB54220C4B54220F4B542209A
:1045200048B5422008B3364B2DE9F04104460E460B
:104530009847EFF311874FF0800372B683F3118829
:10454000BFF36F8FBFF34F8F62B6022394F85450BE
:1045500084F85430EDB2236D012D03F1010323657E
:104560000ED087F31188BDE8F0814FF0800372B65A
:1045700083F31188BFF36F8FBFF34F8F62B6FEE7EF
:10458000A36A53B14FF0800372B683F31188BFF36F
:104590006F8FBFF34F8F62B6FEE71A4B1B680BBBE2
:1045A00004F10408184B40469847E06A174A414610
:1045B00005FA00F3DFF868E0156800EB80002B4394
:1045C0000EEB8000124D1360A847124BE26A1B6885
:1045D000DB6A9A42C5D95EB10123336087F3118843
:1045E000BDE8F08104F118010B48094B9847ECE74E
:1045F0000A4B01221A6087F31188BDE8F08100BFE1
:1046000009354000B4B54220A1334000B8B542207E
:10461000553340003CB54220C4B54220F4B5422099
:1046200048B5422038B370B5184D044684B02868A8
:1046300088B1164605291A460B4602948DE84800B3
:104640000BDC134B984702280DD0002328686946DD
:10465000104C1A46A04704B070BD002369460E4CAA
:10466000A04704B070BD0023089A6946094C286829
:10467000A04704B070BD4FF0800372B683F3118879
:10468000BFF36F8FBFF34F8F62B6FEE7F8B54220DE
:10469000014340002D384000153A400070B51E46D9
:1046A00084B0074C6FF00105019000230291694628
:1046B000039232462068034C0095A04704B070BDB9
:1046C000F8B54220153A400010B51E4C236801335E
:1046D000642B236012D0C82B19D0B3F5967F00D07D
:1046E00010BD194A1221194B1068984701281DD096
:1046F000174A012100231160236010BD124C154B95
:104700002068984750B1124B01221A6010BD0E4A22
:10471000104B106898471228F5D110BD024612219F
:1047200020680D4B98470128EDD110BD084B0022A1
:104730001B68226023B9094A136801331360CFE76D
:1047400010BD00BF00B6422004B64220FD3240003A
:1047500008B642201933400039334000FCB54220EE
:10476000F0B5002683B01C4C1C4B0196984723687B
:10477000C31A632B0AD91A4F0546386808B3194B78
:104780001B682BB9184B1B68ABB9256003B0F0BD93
:104790003146164EB047386801A9B0470028F1D01D
:1047A0004FF0800372B683F31188BFF36F8FBFF3AE
:1047B0004F8F62B6FEE70E4A01A90C4B106898476E
:1047C000E3E74FF0800372B683F31188BFF36F8F76
:1047D000BFF34F8F62B6FEE714B64220D93C4000CB
:1047E00010B642201CB6422018B64220193B4000A9
:1047F0000CB6422070B5214D84B00A2214232868DB
:104800000192029300282DD01D4C2368012B22D049
:1048100013D3022B0AD11B4B002203A99847039BF9
:10482000142B16D0184A0021236811600133022B83
:1048300088BF0023236004B070BD0223002201A9B9
:10484000124EB047124B286803A99847039B0A2BC6
:10485000E8D12368EAE70223002202A90B4DA8470A
:104860002368E3E74FF0800372B683F31188BFF348
:104870006F8FBFF34F8F62B6FEE700BF24B64220B2
:1048800020B64220F53B400034004020153A40005D
:10489000353C4000244B1B68EBB124490B680133C5
:1048A000312B19DD70B5224C002584B022680D60D3
:1048B000012A13D0022A1DD03AB91E4811461E4BB8
:1048C000006898472368013323601C4A136801334A
:1048D000136004B070BD70470B607047154A2B46DB
:1048E0000095294610680222154DA8472368013318
:1048F0002360EAE704ABFF210E480095104E43F811
:10490000041D29460068B047039BFF2B01D025609A
:10491000DBE74FF0800372B683F31188BFF36F8F2C
:10492000BFF34F8F62B6FEE738B6422030B6422062
:104930002CB6422034B642202545400028B64220FD
:10494000E94340002DE9F041AB4D82B02C680134C1
:104950002C60002C63D0A94B1B681A1F944279D09D
:104960001A1D944200F08F80A54A1A4452009442C6
:1049700000F0EB8002F108018C4200F0BD800432AF
:1049800002EB9302944200F094805A00D1188C42BA
:1049900000F0508204318C4200F08F829949194412
:1049A00089008C4200F0528214318C4200F08C81DC
:1049B000D9008C4200F05F81194404398C4200F028
:1049C000318103EB83014900A1F10800844200F02A
:1049D000DE8019440C398C4200F0CC811A449200DC
:1049E000083A944200F09B81C3EB03139C422ED102
:1049F000854B1B78032B00F00582844B00221A6044
:104A00001B68002B40F0FE814FF0800372B683F3E9
:104A10001188BFF36F8FBFF34F8F62B6FEE7DFF8E9
:104A2000E8E14FF0FF367A4F2346DFF8D0810921C5
:104A3000386800948EF80040DFF8DCE12E60D8F88A
:104A40000020744E8EF80040B047012848D002B0D4
:104A5000BDE8F0816C4B1B7883B16C4B00221A606F
:104A60001B68002BF3D14FF0800372B683F31188DB
:104A7000BFF36F8FBFF34F8F62B6FEE7664B1B78B5
:104A8000002BEAD1E3E7604B1B78012B00F0B481E7
:104A90005E4B00221A601B68002BD8D14FF08003B8
:104AA00072B683F31188BFF36F8FBFF34F8F62B677
:104AB000FEE7554B1B78022B00F08781534B0022F9
:104AC0001A601B68002B40F080814FF0800372B6A3
:104AD00083F31188BFF36F8FBFF34F8F62B6FEE78A
:104AE0004E482346D8F80020092100680094B047BA
:104AF000012845D12C60AAE7434B1B78022B0FD02D
:104B0000424B00221A601B6853B94FF0800372B603
:104B100083F31188BFF36F8FBFF34F8F62B6FEE749
:104B20003D4B1B78012B92D0384B00221A601B683A
:104B3000002B8CD14FF0800372B683F31188BFF342
:104B40006F8FBFF34F8F62B6FEE72F4B1B78012BA1
:104B500011D02E4B00221A601B68002B7FF477AF18
:104B60004FF0800372B683F31188BFF36F8FBFF3EA
:104B70004F8F62B6FEE7284B1B78012BE9D166E721
:104B800038682346009422460821B0475FE71E4B51
:104B90001B78032B0FD01D4B00221A601B6853B9E2
:104BA0004FF0800372B683F31188BFF36F8FBFF3AA
:104BB0004F8F62B6FEE7184B1B78022B0FD0134BBA
:104BC00000221A601B6853B94FF0800372B683F35A
:104BD0001188BFF36F8FBFF34F8F62B6FEE70F4AA6
:104BE0000F4B146898470023024607212046009384
:104BF000084CA0472BE700BF3800402040B64220B9
:104C0000FEFFFF7FFCFFFF3F3CB642203C00402000
:104C100044B64220254640003DB6422048B64220D8
:104C2000D93C4000934B1B78032B0FD0924B0022B2
:104C30001A601B6853B94FF0800372B683F3118872
:104C4000BFF36F8FBFF34F8F62B6FEE78B4B1B78BE
:104C5000022BC4D0884B00221A601B68002BBED1E7
:104C60004FF0800372B683F31188BFF36F8FBFF3E9
:104C70004F8F62B6FEE77F4B1B78032B0FD07E4B26
:104C800000221A601B6853B94FF0800372B683F399
:104C90001188BFF36F8FBFF34F8F62B6FEE7774B7C
:104CA0001B78022B9BD0744B00221A601B68002BD0
:104CB00095D14FF0800372B683F31188BFF36F8FE5
:104CC000BFF34F8F62B6FEE76A4B1B78032B0FD002
:104CD000694B00221A601B6853B94FF0800372B60B
:104CE00083F31188BFF36F8FBFF34F8F62B6FEE778
:104CF000624B1B78022B3FF4AAAE5F4B00221A6076
:104D00001B68002B7FF4A3AE4FF0800372B683F3D1
:104D10001188BFF36F8FBFF34F8F62B6FEE7554B1D
:104D20001B78032B0FD0544B00221A601B6853B919
:104D30004FF0800372B683F31188BFF36F8FBFF318
:104D40004F8F62B6FEE74D4B1B78032B3FF47FAECF
:104D5000494B00221A601B68002B7FF478AE4FF09D
:104D6000800372B683F31188BFF36F8FBFF34F8F49
:104D700062B6FEE73F4B1B78032B0FD03E4B002261
:104D80001A601B6853B94FF0800372B683F3118821
:104D9000BFF36F8FBFF34F8F62B6FEE7374B1B78C1
:104DA000022B3FF41CAF344B00221A601B68002B0F
:104DB0007FF415AF4FF0800372B683F31188BFF311
:104DC0006F8FBFF34F8F62B6FEE72C4B1B78012B22
:104DD0003FF43DAE284B00221A601B68002B7FF485
:104DE00036AE4FF0800372B683F31188BFF36F8F36
:104DF000BFF34F8F62B6FEE7204B1B78012B7FF489
:104E000047AE24E61D4B1B78032B0FD01A4B002214
:104E10001A601B6853B94FF0800372B683F3118890
:104E2000BFF36F8FBFF34F8F62B6FEE74FF0FF33D4
:104E30002B600CE6124A134B146898470023024675
:104E4000062120460093104CA04700E6094B1B7832
:104E5000032B1BD0084B00221A601B68B3B94FF01C
:104E6000800372B683F31188BFF36F8FBFF34F8F48
:104E700062B6FEE73CB642203C0040203DB64220F0
:104E800048B64220D93C400025464000234B1B78C1
:104E9000012B3FF4DCAD224B00221A601B68002B73
:104EA0007FF4D5AD4FF0800372B683F31188BFF362
:104EB0006F8FBFF34F8F62B6FEE71A4B1B78032B41
:104EC0000FD0174B00221A601B6853B94FF08003B4
:104ED00072B683F31188BFF36F8FBFF34F8F62B643
:104EE000FEE70E4B1B78012B0FD00D4B00221A60F2
:104EF0001B6853B94FF0800372B683F31188BFF378
:104F00006F8FBFF34F8F62B6FEE70023064A08217A
:104F1000064C10681A460093A04798E53DB642201B
:104F20003C0040203CB6422044B64220254640008A
:104F300070B5184B82B018489847C30701D402B027
:104F400070BD164B01A914489847019A144B82B1C1
:104F500019680A290DD8134913481C68096800EB21
:104F6000820201EB840112680A601A6801321A6039
:104F7000E5E70C4A00251E6811680C4801EB860124
:104F80000B4C0C60046811681D601460016002B075
:104F900070BD00BFFD2240000080024001234000A0
:104FA0004CB64220400040203C8740004400402056
:104FB000000080BF2DE9F04F884B2DED068B93B09C
:104FC0009847874B9847BFF34F8FBFF36F8F854C40
:104FD0000027636923F400336361C4F85072BFF3A0
:104FE0004F8FBFF36F8F804B9847BFF34F8FBFF347
:104FF0006F8FC4F85072636943F400336361BFF389
:105000004F8FBFF36F8F794B9847794B9847BFF31A
:105010004F8FBFF36F8F636923F400336361C4F86C
:105020005072BFF34F8FBFF36F8F4FF6E0761423AC
:105030006421704D1A4600960846A847142300962E
:1050400064211A46C820A84714230096B4211A46A2
:105050005020A84714230096C8211A466420A84768
:1050600014230096DC211A467820A84714230096C2
:10507000DC211A468C20A84714230096DC211A460E
:10508000A020A84714230096DC211A46B420A84784
:105090001423C82100961A460846A84714230096F0
:1050A000B4211A46DC20A847BFF34F8FBFF36F8FA0
:1050B000C4F85072636943F400336361BFF34F8FE8
:1050C000BFF36F8FC0214FF400624FF4E1344A4BBD
:1050D0000E2009970A974FF4804603976FF0010955
:1050E0000694079108929847444A06A9444B4548BC
:1050F0009847454D4348A847444C4248A04741483B
:10510000A8474048A047DFF848A101213D48404B4F
:10511000AAF50068984700233E4940223E4D4FF0D3
:105120007E5E3E4C18463E4FA9EB080981F80E23DF
:105130004FF40072C1F880610E603A4E3A492B601C
:105140000797236011976B60CDF818E06360DFF874
:1051500004B1AB609FED359AA360DFED358AEB605B
:10516000DFED349AE360344F2B6123616B6163613F
:10517000AB61A361EB61E3612B6223626B626362EB
:10518000AB62A362B0472D4D2D4E2E4B1B78002BEA
:10519000FBD02D4A002310682A4A13702B4B9847E6
:1051A000B0EE497AF0EE687A0AEE100A7F210C2000
:1051B00037EE4A7A431877EECA7A5B08F0EEC76A90
:1051C000F0EEE77A5A1CFCEEE66AFCEEE77A16EEA1
:1051D000904A17EE90EA74455BD246E155234000B1
:1051E000C523400000ED00E0590F40007903400066
:1051F00019114000810D4000A92E400080D1F00817
:105200004922400000800240E9224000F122400093
:10521000F922400000E100E0443C4520183C4520D4
:10522000000080BF1D554000000045200000DC4309
:10523000FE14E943666666BF00C0422014004020A9
:10524000000044201C4040201C004020E505400098
:1052500000C843203C8740005C1C0BEB83000BEB39
:10526000840E90ED007ADEED007A37EE4A7A77EE22
:10527000CA7AF0EEC76AF0EEE77AFCEEE66AFCEE78
:10528000E77A16EE900A17EE90EA7045C0F0EE80CD
:10529000224653188A424FEA5303DDD30BEB8101B8
:1052A00091ED007A37EE4A7AF7EE00AA7C4B05AA18
:1052B00080211868F0EE6A7A7A4BE8EE077ACDED35
:1052C000067A9847DFED787AB4EEE7AAF1EE10FAA5
:1052D00040F3DA80DFED757A9DED057AB4EEE77A7A
:1052E000F1EE10FA40F3D080714B8AEE8A8A1B6887
:1052F000D3ED007AF4EEEA7AF1EE10FA40F3CB80C7
:105300000122F2EE046AF1EE045AB0EE6A7A144613
:10531000D3ED007A013277EECA7AF5EEC07AD3ED9A
:10532000007AF1EE10FA4CBF7AEE677A77EECA7A1D
:10533000F4EEE67AF1EE10FACCBF01210021B9B10A
:10534000D3ED007A12A977EECA7A01EB840167EEF9
:10535000887AF4EE697A37EE876AF1EE10FA07DDA3
:10536000F4EE657AF1EE10FA02D5013401ED0C6A23
:105370000433D3ED007AF4EE477AF1EE10FA01DD52
:105380000B2AC5D12146029412AB4A4A03EB810392
:1053900043F8302C42481AEE102A4146464C06ABE0
:1053A0000068A047454A0399029CC1F30D0352F8D7
:1053B000040B013107EB830352451860F5D1DCB1D2
:1053C000039B3E49A3F59660DFED3D5A9FED3D6A94
:1053D000C0F30D03D1ED006A01309B00FC1833448B
:1053E000D4ED007A93ED007AE6EEA57AE7EE067A40
:1053F000E1EC017A9142EBD1304B03991C46C1F3A9
:105400000D0354F8040B013106EB8303944218603A
:10541000F5D102944FF400732B4C42462B49274898
:10542000A047264B029CA3EB080CF3EC017A2A68F8
:10543000FDEEE77A09EB030011469C42CDED027ABE
:10544000BDF808E022F80CE032F80C2092B20A52C3
:10545000E9D11F4B1B7803F0FF020BB91C4B1A70EC
:10546000039B03F5007303938FE602469A42BFF451
:105470001BAFD4181946104663080BEB8302D2ED1C
:10548000017A92ED007A93E60A4B01229FED06AA7B
:10549000029207937EE701230293194674E700BF47
:1054A0001C004020A15540000000A042BD378635B9
:1054B00044004020000080BF8111400000C0432014
:1054C000333333BF3333333F4D58400000FEFF4684
:1054D0001C4040204FF0800372B683F31188BFF365
:1054E0006F8FBFF34F8F62B6FEE700BF10B5064B5C
:1054F0009847064B9847064B9847064B9847064BEC
:10550000BDE81040184700BF45494000F54740003E
:10551000C9464000614740009548400030B49508B6
:105520000BD00B462C46013C186058609860D86040
:1055300003F11003F7D101EB051112F0030203D0C0
:10554000013A41F8040BFBD130BC70472DE9F00360
:105550005FEA920918D004460B464D46D4F8008005
:10556000D4F804C0A768E668013DC3F80080C3F81A
:1055700004C09F60DE6004F1100403F11003EDD15C
:105580004FEA09194844494412F0030205D050F883
:10559000043B013A41F8043BF9D1BDE8F003704700
:1055A00030B48D08DFED187A1FD003462C46D3EDBA
:1055B000006A93ED017A66EEA66A27EE076A76EE38
:1055C000A77A93ED027A76EE277A67EE076A93ED73
:1055D000037A76EEA76A27EE077A013C03F11003FF
:1055E00077EE267AE3D100EB051011F0030107D026
:1055F000B0EC017A27EE077A013977EE877AF7D196
:10560000C2ED007A30BC7047000000002DE9F003C5
:1056100001F1FF3C5FEA9C0900F10407D0ED007A3C
:105620005CD03C464E4604200025D4ED006AF4EEE2
:10563000E76AF1EE10FA94ED017A48BFF0EE667A6F
:10564000F4EEC77AA0F1030848BF4546F1EE10FA20
:10565000D4ED026AC8BFF0EE477AF4EEE67AA0F124
:105660000208C8BF4546F1EE10FA94ED037AC8BFB0
:10567000F0EE667AF4EEC77A00F1FF38C8BF45460F
:10568000F1EE10FAC8BF0546C8BFF0EE477A013EFA
:1056900004F1100400F10400C7D107EB09171CF056
:1056A000030C1DD0CCEB01010020B7EC017AB4EE65
:1056B000E77AF1EE10FA48BFF0EE477A01EB00040A
:1056C00000F1010048BF25466045B0EE677AECD195
:1056D00082ED007A1D60BDE8F00370474D46DEE7BD
:1056E000B0EE677AF4E700BF2DE9F00301F1FF3C6B
:1056F0005FEA9C0900F10407D0ED007A5CD03C46DB
:105700004E4604200025D4ED006AF4EEE76AF1EE7F
:1057100010FA94ED017AC8BFF0EE667AF4EEC77A1B
:10572000A0F10308C8BF4546F1EE10FAD4ED026AB5
:1057300048BFF0EE477AF4EEE67AA0F1020848BFDF
:105740004546F1EE10FA94ED037A48BFF0EE667A22
:10575000F4EEC77A00F1FF3848BF4546F1EE10FA83
:1057600048BF054648BFF0EE477A013E04F11004F9
:1057700000F10400C7D107EB09171CF0030C1DD082
:10578000CCEB01010020B7EC017AB4EEE77AF1EE40
:1057900010FAC8BFF0EE477A01EB000400F10100F7
:1057A000C8BF25466045B0EE677AECD182ED007A3D
:1057B0001D60BDE8F00370474D46DEE7B0EE677A46
:1057C000F4E700BFDFED1E7A06EE900AB5EE007A30
:1057D00066EEA77A77EE877AF5EEC07AF1EE10FAE8
:1057E000BDEEE77A04D517EE103A013B07EE103A0A
:1057F000B8EEC77ADFED136A77EEC77A67EEA67A5E
:10580000FCEEE76A16EE903AC3F3080307EE103A8F
:10581000F8EE476AB7EE007A77EEE67A0A4A37EE94
:10582000677A02EB830191ED006AD1ED016A27EE00
:10583000067A67EEA67A77EE277A17EE900A704717
:1058400083F9223E000000443C89400070B49E0869
:1058500007EE901A23D0354614460146D1ED005A82
:1058600091ED016AD1ED026A91ED037A65EEA75AD6
:1058700026EE276A66EEA76A27EE277A013DC4ED79
:10588000005A84ED016AC4ED026A84ED037A01F1E5
:10589000100104F11004E1D136013044324413F018
:1058A000030307D0B0EC017A27EE277A013BA2EC84
:1058B000017AF7D170BC704770B50F4E0F4D761B53
:1058C000B61018BF002405D0013455F8043B9847A2
:1058D000A642F9D10A4E0B4D761B03F0E5FCB6103B
:1058E00018BF002406D0013455F8043B9847A6425F
:1058F000F9D170BD70BD00BFB4924000B4924000B9
:10590000BC924000B49240000FB400B5074983B088
:1059100004AB086853F8042B8168019300F07EFC07
:1059200003B05DF804EB04B0704700BF48004020AE
:10593000024B0146186800F003B800BF4800402041
:105940002DE9F04F01F10B06162E83B0054640F20B
:105950009E8036F0070600F1BD80B14200F2BA80A9
:1059600000F086FBB6F5FC7FC0F09382730A00F06E
:10597000B880042B00F27981B30903F1390003F1F7
:10598000380EC300BF4F3B44A3F108015C68A1423D
:1059900006D10CE0002A80F2AA80E468A14206D079
:1059A000636823F003039A1B0F2AF3DD70463C69FA
:1059B000DFF8E4E2744500F0AB81636823F0030391
:1059C0009A1B0F2A00F39081002AC7F814E0C7F849
:1059D00010E080F29D80B3F5007F80F06181DB08EC
:1059E00003F1010C99107A6857F83C80C4F80880DC
:1059F00001238B4007EBCC0113430839E1607B6046
:105A000047F83C40C8F80C408210012494409C4266
:105A100000F28B801C4206D120F0030064001C427F
:105A200000F10400FAD007EBC009CC468046DCF850
:105A30000C309C4507D16DE1002A80F27B81DB6848
:105A40009C4500F06781596821F003018A1B0F2AE9
:105A5000F2DDD3F80CC0D3F8088000939C192846D7
:105A600046F0010642F001055E60C8F80CC0CCF8B3
:105A700008807C613C61C4F80CE0C4F808E0656013
:105A80005A5000F0FBFA009B03F108041EE01029B5
:105A900020D800F0EDFA102618230220794F3B445D
:105AA000A3F108025C68944200F03D816368E168FC
:105AB000A66823F00303234428465A68F16042F0A5
:105AC00001028E605A6000F0D9FA0834204603B013
:105AD000BDE8F08F00240C2320462B6003B0BDE806
