S01300004761746F725363726962652E73726563BC
S214400000B8C84420DD224000D5224000D922400016
S214400010D5224000D5224000D522400000000000F6
S214400020000000000000000000000000D522400054
S214400030D522400000000000D5224000D5224000D6
S214400040D5224000D5224000D5224000D52240008F
S214400050D5224000D5224000D5224000D52240007F
S214400060D522400000000000151D4000E11D400064
S214400070AD1E4000D522400069254000D5224000F4
S214400080791F400045204000D5224000D522400040
S214400090D5224000D5224000D5224000D52240003F
S2144000A0D5224000D5224000D5224000D52240002F
S2144000B0D5224000D5224000D5224000D52240001F
S2144000C0D5224000D5224000D5224000D52240000F
S2144000D000000000D522400000000000D52240006D
S2144000E0D5224000D5224000D5224000D5224000EF
S2144000F0D5224000D5224000D5224000D5224000DF
S214400100D5224000D5224000D5224000D5224000CE
S214400110D5224000D522400000000000000000002C
S214400120D5224000D5224000AD014000D5224000F7
S214400130D522400000000000D5224000D5224000D5
S21440014010B5054C237833B9044B13B10448AFF3CC
S21440015000800123237010BD0040402000000000B6
S214400160C08140000C4B43B10C480D4910B5AFF36D
S21440017000800C48036823B910BD0A48036833B9A9
S2144001807047094B002BF7D0BDE810401847064B88
S214400190002BF5D0184700BF00000000C08140008B
S2144001A004404020C0814000000000001D4B70B459
S2144001B0DB6DDA0722D51C4C1C4A21781C4B25786F
S2144001C0002908BF13461B4A85F001051A4E1946FA
S2144001D002F580509FED197A2570336031F8043B64
S2144001E01BB207EE903AF8EEE77A67EE877AE2ECD3
S2144001F0017A8242F2D1124B01221A70094BD3F88F
S2144002009C30DB070CD50F4B0F481C780F491A78EB
S214400210002C08BF01460E4882F0010201601A70A9
S21440022070BC7047008007401000402000584420B3
S21440023000984420006844200C004020FD00003810
S2144002401C4040201800402000884420007844206D
S214400250140040202DE9F041202688B00021304B84
S2144002603246684698472F4B3A202F4C98474FF0D7
S21440027080652E4B6A46DFF8C8E02046C3F88451B6
S214400280002183F83A630F275D600125DFF8B480CC
S214400290CDF80CE0C047264B6A46DFF8ACE029466E
S2144002A003F1100023F00306DFF8A0C018602046D4
S2144002B0E766A666E5601F4E2565C3F80CE0DFF8E6
S2144002C090E0C3F81CC0DFF88CC05E605E61C3F887
S2144002D008E0C3F818E01B61CDF80CC0C047164BC9
S2144002E00221164ADFF870C003F1100823F003001D
S2144002F0DFF868E05E605E611B61C3F80080C3F8AB
S21440030008C0C4F8AC70C3F818E0C4F8A800DA60B7
S214400310E160DA61C4F8905008B0BDE8F08100BFF3
S214400320154F4000112240000080074000E100E0E9
S214400330204040200008000B404040202440004021
S214400340012804218D16400000984420005844207F
S2144003502040004011480120007844200088442076
S21440036010B5134B984718B11248134B9847FEE701
S214400370124B04469847124B9847124B98472146D3
S2144003800220114B984721460220104B98470220E6
S2144003900F4B98474FF040200E4B98470E4C01228B
S2144003A00E4B4FF04020E26198470223E36110BDB8
S2144003B0F5114000C875400049484000A50440007B
S2144003C0E103400055024000592240008D22400083
S2144003D0C122400081124000008007409112400038
S2144003E02DE9F041284B9CB01620002498474FF04A
S2144003F04020264B0F25984701264FF4E0684FF0E3
S214400400020E80270EAA69464FF04020204BCDF8BA
S21440041000E001940294039410941294139414945C
S214400420CDF81880059604950E9511950F97984728
S2144004304FF0200C4FF0100E15AA07A94FF04020A1
S214400440144BCDF824C0CDF82CE0CDF83480079678
S21440045008940A940C96159516971794189519941F
S2144004601A941B9498474FF040200B4B98474FF0F8
S21440047040200A4B98474FF0FF314FF04020084B42
S21440048098471CB0BDE8F081112240006D12400034
S21440049015134000A11240009912400089124000F6
S2144004A0891340002DE9F0414FF6FF713F4C002084
S2144004B03F4EA0473F4B00203F4D98470821042021
S2144004C03E4FA04747210520A0473046A847432136
S2144004D00520A04709210420A04703210C20A0475F
S2144004E003210E20A04700212120A04700213D20C7
S2144004F0A04701216220A04701216820A047002193
S2144005007420A04740F204717520A0474FF4004184
S2144005107620A0474FF4BB517720A0470521742092
S214400520A0473046A84740F605411520A047002181
S2144005301420A04744F206011620A0474FF400714D
S2144005401820A04742211920A04708211A20A0477A
S2144005504FF402611B20A0470F211220A0473046CF
S214400560A84710212C20A04710212D20A04711215C
S2144005705A20A04733215A20A0470F214320A047A6
S214400580F0214420A0473846A84777215A20A04764
S214400590FF215A20A047BA213920A0473A20BA2145
S2144005A0A04738462B46BDE8F04118477D1140002D
S2144005B0C2DB0300B911400001004020252B4D004E
S2144005C04FF480629E499F4B2DE9F04F924600249F
S2144005D0DFF890B22DED048B87B0FFEE009A984777
S2144005E0514602AB03AA96480094974CA04702ABEC
S2144005F004AA51469248954CA047002306AA514665
S2144006008F4842F8043D924B9847DDED056A9DEDD4
S214400610047AB6EE086ADDED037A012337EE667A91
S214400620DFED8C8A77EEE67A9FED8B8AB1EE479ABD
S2144006308DED047ACDED037AC9FE277A27EE869AA9
S21440064007EE903ABAF1010FF8EEE77A88EEA77A0D
S214400650FDEEC77A17EE904A40F38682BAF1030F52
S21440066040F36D82AAF1040E754B0020DFF8F88146
S2144006702EF0010E194601930246D3ED007A0EF194
S214400680030E06460546C446B0EE487A012350E0BF
S2144006900122D1ED027AF5EE407AF1EE10FA06DD4F
S2144006A0F5EEC06AF1EE10FA01D800200122F5EE10
S2144006B0407AF1EE10FA06D5F5EEC06AF1EE10FA81
S2144006C001DB01200022B4EEC86A37EEE67AF1EE8E
S2144006D010FA2ADDB5EEC06A00F00107F1EE10FA16
S2144006E058BF0027AFB1B5EEC07AF1EE10FA10DB76
S2144006F0F0EEE65AB4EEE59AF1EE10FA09D804EBBD
S2144007000C079F4205DA55489C4640F8253001358F
S2144007100020B5EE406AF1EE10FA06DD2AB1B5EEDD
S214400720C07AF1EE10FA6BD90122023308317345D4
S2144007307BD0F5EE407AD1ED016A5F1EF1EE10FAFD
S21440074006D8F5EEC06AF1EE10FA01DD002001226F
S214400750F5EE407AF1EE10FA06DBF5EEC06AF1EE01
S21440076010FA01D501200022B4EEC87A36EEE76AC8
S214400770F1EE10FA8DDDB5EEC07A00F00109F1EE2B
S21440078010FA58BF4FF00009B9F1000F15D0B5EE7A
S214400790406AF1EE10FA10DBF0EEE75AB4EEE59A56
S2144007A0F1EE10FA09D804EB0C09B94505DA2B48E6
S2144007B0BC4640F8257001350020B5EE407AF1EE93
S2144007C010FA7FF766AF002A3FF463AFB5EEC06A13
S2144007D0F1EE10FA3FF65CAFF0EEE77AB4EEE79A49
S2144007E0F1EE10FA3FF654AF04EB0802BA42BFF6F9
S2144007F04FAF1B4AB84642F826700136002248E7FB
S214400800F0EEE66AB4EEE69AF1EE10FA8CD804EB17
S21440081008029A4288DA124A9846083142F8263048
S214400820023301360022734583D1019F6FF0404169
S214400830DFF82890A646194407EB81011CE000BF6C
S214400840007440209D3840009D3A40005D3940008D
S214400850393A40000000744100007AC400644020E9
S2144008600054402000444020C0BDF0FF0122013328
S214400870B0EE677A9A4565DDD1ED017A5F1EF1EC00
S214400880016AF5EE407AF1EE10FA06DDF5EEC06A42
S214400890F1EE10FA01D800200122F5EE407AF1EE92
S2144008A010FA06D5F5EEC06AF1EE10FA01DB01202B
S2144008B00022B4EEC87A77EEE67AF1EE10FAD6DD8C
S2144008C0B5EEC07A00F00104F1EE10FA58BF0024ED
S2144008D0A4B1F5EE407AF1EE10FA0FDBB0EEE66A20
S2144008E0B4EEC69AF1EE10FA08D80EEB0C04BC42F1
S2144008F004DA49F82570BC4601350020B5EE407A4A
S214400900F1EE10FAB3DD002AB1D0F5EEC07AF1EE82
S21440091010FAABD8F0EEE66AB4EEE69AF1EE10FACC
S214400920A4D80EEB0802BA42A0DA0133CF4AB84642
S214400930B0EE677A9A4542F8267006F101064FF007
S214400940000299DC744615B9002E00F00D814FF474
S214400950805200215846C64B98474DB3DFF82CE3EB
S21440096002220027714612E0D1F800C04B68ACEB7B
S2144009700303002BB8BF5B42AA425BF8230000F19A
S21440098001004BF82300C0F2CC800431013201371D
S214400990AF42E9DBAA420BDA5EF822200B689B1ACC
S2144009A0002BB8BF5B425BF8232001324BF8232074
S2144009B046B3AE4D02220027294612E0D1F800E0A9
S2144009C04B68AEEB0303002BB8BF5B42B2425BF80A
S2144009D0230000F101004BF82300C0F28F81043160
S2144009E001320137B742E9DBB2420BDA55F8222032
S2144009F00B689B1A002BB8BF5B425BF82320013282
S214400A004BF823204FF0FF36C4F1000E002504F1CA
S214400A10010C37467445C0F282802B1B0CEB050256
S214400A200021534504DA002B02DB5BF82300014427
S214400A3001339342F5D1B9426CD001DD0F462E46C4
S214400A4001355545E6D17445C0F287809FED897AD9
S214400A50621C331BF0EE476A1644B3F5806F11D222
S214400A605BF8232002FB03F106EE102A002A07EE6D
S214400A70901AB8EEC66AF8EEE77A03DD76EE866A36
S214400A8037EE277A0133B342E7D187EE266A009BDA
S214400A90FFEE007AF4EEE79AF1EE10FA12DDB0EED1
S214400AA0007A6400F0EE696A07EE904AD6EE076A6E
S214400AB0F8EEE77AB0EEE67AB4EEE77AF1EE10FAC0
S214400AC040F287800133062B00934DD0019B4FEABE
S214400AD06A0A694AF6EE006A03EBCA01134693EDCA
S214400AE0007A083353ED017A8B4277EE277A67EE29
S214400AF0A67AE2EC017AF2D1009B012B57D0022B6A
S214400B0030D0032B2CD0052B0CBF20231023F0EE27
S214400B10469A95E5B5EB460F08BF2E4690E700216E
S214400B2089E75EF82230ACEB030383EAE370A0EB80
S214400B30E3705BF8203001334BF8203025E7002087
S214400B404D49DFF84C81B0EE487A0123024606460E
S214400B500546C44601910F4668E69FED486A96E70B
S214400B600823D4E70423D2E7454ABFEE007AD2ED05
S214400B70007AF4EEC77AF1EE10FA1ADD5368002BCD
S214400B8020DD013B5360002B13DDFFEE006A9FED36
S214400B90397AF4EE667AF1EE10FA48BFF0EE477A0C
S214400BA017EE900A07B0BDEC048BBDE8F08F022329
S214400BB0ADE7FFEE007A17EE900A07B0BDEC048B67
S214400BC0BDE8F08F002382ED007AF0EE477A53605E
S214400BD0F1E7013B002B40F38E80012B00F09E8016
S214400BE0022B00F09980042B0CBF1023082307EE3D
S214400BF0903AF8EEE77A69EEA79ADFED226AB7EE0A
S214400C00007AC6EEA97AF4EEC77AF1EE10FAABD4C3
S214400C10BFEE007AF4EEC77AF1EE10FAA4DD184A79
S214400C20D2ED006AF5EEC06AF1EE10FA3AD436EE2E
S214400C30E77A9FED156ABDEEC77A17EE103A002B9D
S214400C40B8BF5B4207EE103A5368B8EEC77AC7EEB5
S214400C50275AF4EEC65AF1EE10FA1BD5042BC2ED15
S214400C60007AD4BF0133052353608CE700544020FC
S214400C70154F400000000000007440200000C07F78
S214400C801C00402000B63247CDCC4C3E006440208D
S214400C90C0BDF0FF022B0ADC002B03DD013BF0EE6B
S214400CA0667AE1E70123C2ED007A53606DE737EEDE
S214400CB0A77A76EEC75AF0EEE55A85EE875AB4EE36
S214400CC0C65AF1EE10FA04D582ED007AF0EE477A75
S214400CD05BE7B6EE007A67EE877A36EEE77AB0EEF6
S214400CE0C77AC7EE275AF4EEC65AF1EE10FAD5D5B3
S214400CF0C2ED007A49E7F7EE007A7CE755F82230F5
S214400D00AEEB030383EAE370A0EBE3705BF82030BE
S214400D1001334BF8203062E6042368E7022366E797
S214400D20F8B50026194C4FF4805219493046194DF3
S214400D30A04730464FF480521749A04730464FF4FC
S214400D4020521649A0474C27294613224FF07E5082
S214400D504FF07E56A047124B3A46124C002112489E
S214400D606B602E60A0473A46002110480127A047F6
S214400D700F4E104C4FF440650F4900200F4B40F289
S214400D80C9123760256008601A60F8BD6D384000AB
S214400D90009040200020412000E040209C20412040
S214400DA0000080BF154F400000D04020502041201A
S214400DB0008440204C204120048440200884402069
S214400DC02DE9F04F2DED068B8BB008EE902AB44FF0
S214400DD00593B44B09911B689DED1A8A1A460693F3
S214400DE09DED1B9A03F5806302F50061C3F30B0289
S214400DF0013350F8044B07EB820299421460F5D158
S214400E00A94BAA4A1868D2F800800130A84B07EED2
S214400E10900AF8EE677A17EE900A984707EE108A1F
S214400E20B8F1000F07EE900AF8EEC76A24DDB6EE7A
S214400E30007A9FEDA06AF7EE00AA9F4D86EE26AA9E
S214400E4000249E4EC7EE279A07EE904A0134F8EEED
S214400E50E77A67EE8A7A17EE900AB04707EE900A6E
S214400E60924B7AEEE77A1B6867EEA97AB4EB430FAB
S214400E70E5EC017AE8DB98468B4907EE908A904A83
S214400E8000230968F7EE004AD2ED005AB8EEE75A5A
S214400E9002EB81028B489B46C8F1000A0792814AC2
S214400EA0894ED2F80090059A089103900492049ACD
S214400EB0B2EC017AB5EEC07A0492F1EE10FA40F345
S214400EC0C480824B84EE876AD3F800E0804B1B6870
S214400ED0BBF1000F1FD0089A77EE656A012AF0EE44
S214400EE0E66A18D97B4874467B497C4AF0EC017A1E
S214400EF077EE677AF0EEE77AF4EEE76AF1EE10FA0C
S214400F0003DDF0EE676A0C681368079D043104320F
S214400F108542EBD1A64665EE067A4FF48062DDF850
S214400F2018900292FCEEE77ACDF800B0CDED017A4B
S214400F30002B3AD109F5006CCCF30B0CBCF5006FD6
S214400F407ED2F44530D8F1452ED309F5167B019B69
S214400F509E44009BCEF30B0E002B4FD0D0451EDD9B
S214400F60AEEB080254480EEB0805ABEB0E04A31894
S214400F70C2F30B01B0EC017A0132C3F30B0306EB6C
S214400F80810127EE087AAA4207EB8303D1ED007A67
S214400F90D3ED006AE7EE267AC1ED007AE7D1BCF5DC
S214400FA0006F20D2F44520D94346029A09F1010940
S214400FB0013B013AC9F30B090292B9D1DDF800B002
S214400FC0424A42F82BE00BF1010B039ABBF1130F98
S214400FD042F8043F4FF0010303927FF468AF314B71
S214400FE0C3F8009033E0F445B1D9CE45DCD8019B38
S214400FF09E44009BCEF30B0E002BAFD1D045CEDDEA
S214401000AEEB08032C480EEB0805ABEB0E04E218DB
S214401010C3F30B01B0EC017A0133C2F30B0206EBCB
S214401020810127EE097A9D4207EB8202D1ED007AD4
S214401030D2ED006AE7EE267AC1ED007AE7D1AEE758
S214401040F14582D2F445AFD87FE7002BC7D1099A45
S2144010500025234902F580540B6806EB83000133D4
S2144010600768C3F30B0342F8047BA2420560F4D141
S2144010709FED1C7A13220C4CC7EE287A0B60C4F8FE
S21440108000B00598094C0E49174BFCEEE77AC4EDC4
S214401090007A0BB0BDEC068BBDE8F04F184700BF9A
S2144010A00090402004844020008440200884402053
S2144010B06D3C4000DB0F49409C204120793B40007E
S2144010C0002041204C20412000E0402000D040201D
S2144010D0502041200420412004D04020542041206C
S2144010E04C20412000803B479D3840002DE9F04190
S2144010F090B9002A90460DDD0C468F18084E094DD3
S2144011002146013430682B689847BC42F8D14046A7
S214401110BDE8F0818046FAE74FF0FF38F7E700BFBA
S21440112008A8442000A84420013802281ED82DE9EB
S214401130F0411546BAB10E460C46DFF83C800D4FDE
S21440114001E0013D0DD014F8011BD8F800003B68C3
S21440115098470028A4EB0600F3DA4FF0FF30BDE8CE
S214401160F081BDE8F0811046BDE8F0814FF0FF30D9
S214401170704700BF04A8442008A8442070B50B461A
S21440118086B00E0A1A228DF801300125022401A9E4
S214401190074B8DF8040007488DF800600295CDF89F
S2144011A00CD004948DF81420984706B070BD00BF4C
S2144011B0211540000080014030B587B01A22012535
S2144011C002248DF8040001A9084B09480295CDF881
S2144011D00CD004948DF8142098479DF800009DF894
S2144011E0013043EA002007B030BD00BF6D14400018
S2144011F00080014010B54FF0005184B0154C2120BE
S214401200A0474FF000512020A0474FF080517A2051
S214401210A0474FF000611620A0474FF0805178203D
S214401220A0474FF0C0510A20A0474FF080511220EF
S214401230A047002208491320084C094B01918DF81D
S2144012400D200294984701A9064B0748984704B0DA
S21440125010BD00BFC11B400080D1F008801A0600B8
S214401260112240008D1340000080014000234FF4BF
S214401270004202604360036143618361C36170471B
S21440128001230360704700BF02230360704700BF1E
S2144012904FF48073036070474FF4007303607047E9
S2144012A0F0B400292FD00469CF688E6991E82800F1
S2144012B02B438D6823434C692B430D6921043B43E4
S2144012C001F47F01334343EA05630B430361EAB10C
S2144012D05469536891692343466914680B4391687F
S2144012E004F01F0415693343D268090223431204ED
S2144012F001F4706143EA057302F470220B43134312
S214401300F0BC436170470161002AE1D14261F0BC04
S214401310704700BFF0B400292FD08469CF688E692B
S21440132091E828002B438D6823434C692B430D6975
S21440133021043B4301F47F01334343EA05630B43F7
S2144013408361EAB15469536891692343C669146856
S2144013500B43916804F01F0415693343D2680902B1
S2144013602343120401F4706143EA057302F47022C9
S2144013700B431343F0BCC36170478161002AE1D13F
S214401380C261F0BC704700BF81647047F0B44FF054
S214401390FF33802604220825202483622F4B076AC9
S2144013A00660066B0560046002604A689A424DD843
S2144013B02B4C0B68A2422ED92A4C2B491444A1FB35
S2144013C00321A400890BB3FBF4F30339033BFF2945
S2144013D040D9002200E03CB101324908062A8CBFC1
S2144013E000240124FF29F6D8FF2B07D914B905E0BD
S2144013F0062A03D85B080132FF2BF9D81B020024CB
S21440140012049BB202F4E022C9B213430B430361B9
S2144014102046F0BC70475200B3FBF2F3033B002279
S214401420FF2B02D808E0062A03D85B080132FF2BC0
S214401430F9D8120402F4E02219020024DBB289B281
S21440144013430B4303612046F0BC704701242046FB
S214401450F0BC704701240022C6E700BF801A060091
S21440146000DC05000012FD3FF1197605CA68002A27
S21440147053D070B400268C6846604B680D7C1B02C7
S2144014802D0403F4407305F4FE0543F480532B43C8
S2144014904360C6604B689BB91D460123C560036028
S2144014A0036AD9051FD4012A20D047F230519E073F
S2144014B012D4036ADD0516D40139F8D109202AE092
S2144014C0012B0D78E9DD4E78022B46EA0525E4D05F
S2144014D08B7843EA0525E0E7036B013A04F8013BC5
S2144014E0036AD905DFD5052070BC704702219D07E9
S2144014F047F23052016007D4036ADE05F3D4013A5E
S214401500DCD09D070160F7D5036B2370036ADB07C9
S214401510FCD5036A002070BC70470120704700BFAE
S2144015200346C868002834D070B400268C685E60D5
S2144015300A7C4D6812042D0202F4FE0205F4407542
S2144015402A435A60DE604A688AB91546DD601A6AE0
S214401550D60509D45507FAD514F8012B01385A6335
S21440156013D01A6AD605F5D5052070BC7047012AF7
S2144015700D78EBDD4E78022A46EA0525E6D08A78D5
S21440158042EA0525E2E7510705D41A6AD405EBD4AA
S214401590F9E70120704702221A601A6AD207FCD582
S2144015A070BC7047F0B50346244C00204FF0880EC0
S2144015B0C3F8E44024274FF480764FF40025204CAF
S2144015C05860206058629862C3F800E01F601E6052
S2144015D01D6061B308680501AA421CD368084FF62F
S2144015E0FE7600EBC202B2FBF5F2D508681EB042AA
S2144015F01DD81204002002F4E0222A431A624D68E5
S2144016008A680F692A43CE6859683A433243114381
S21440161022605960F0BDC0004FF6FE76D20002EB65
S2144016205002B2FBF0F2D508681EB04201D9012044
S214401630F0BD586840F400205860DAE70041535542
S2144016409CC0412040230360704700BF10230360C6
S214401650704700BF816070474069704742690346E3
S214401660920704D5C1F308010020D96170470120D4
S214401670704700BF4369DB0705D583690020C3F385
S21440168008030B6070470120704700BF00EB8111D4
S2144016905368C86D0B6693684B66136823F07F43A8
S2144016A00B671369C3F30B034B675369CB679369A7
S2144016B023F07F43C1F88030D36923F07F43C1F8DD
S2144016C08430D3688B67704770B51048104DA84774
S2144016D02020104B104C9847A0470028FCD00F4BBA
S2144016E098470F4C0F4B104A9A62A0470028FCD0F0
S2144016F002200E4B98470E4B002098470D4B9847BC
S2144017002B460248BDE87040184700BF00A3E111D1
S2144017107D24400095214000E1214000F121400019
S2144017200122400000060E40013F182011214000D3
S2144017304121400095234000A44B4FF400422DE940
S214401740F0475A60BFF35F8FDFF8F482A04FA14E98
S2144017504046A14DB04740EA07011120A8479F48A0
S214401760B0479F499F4C01439F48A8474046B047D3
S21440177040EA07019D48A8479D48B04740EA040113
S2144017809C48A8479C48B04740EA04019B48A84765
S2144017906FF06040B0479A499A4C01439A48A84730
S2144017A06FF07040B047994901439948A847636A2B
S2144017B00520984A43F4E02363629047BFF34F8F77
S2144017C0BFF36F8FBFF34F8FBFF36F8F4FF000099C
S2144017D0C4F85092636943F400336361BFF34F8F9C
S2144017E0BFF36F8F8C4B8D498D4A59605A60BFF35B
S2144017F04F8FBFF36F8FD4F8903223F00103C4F8B5
S2144018009032D4F8943223F00103C4F89432BFF3F4
S2144018104F8FBFF36F8F834C0A20A0470B20A04703
S2144018200C20A0471020A0471120A0474FF4007579
S2144018307D4C4FF400037D4F4FF40011236110267A
S214401840C4F8A0304FF0080E236338463D614B463F
S214401850C7F8A0504FF400523D636561C4F8A050ED
S2144018606566C4F8905065652562C4F88450D4F81F
S21440187070C0DFF8D0812CF4007CC4F870C0D4F877
S21440188074C02CF4007CC4F874C0C4F8C050C4F8CB
S214401890D450C4F8B0502166C4F8901061656162B7
S2144018A0C4F88010D4F870C02CF4001CC4F870C083
S2144018B0D4F874C02CF4001CC4F874C06160D8F826
S2144018C0141141EA060C5A49C8F814C10E66C1F80C
S2144018D090604E654E62C1F88060D1F870C0DFF807
S2144018E068814CEA060CC1F870C0D1F874C04CEA66
S2144018F0060CC1F874C04E604FF06051C4F860E00A
S214401900C4F890E0C4F854E0C4F824E0C4F880E09A
S214401910D4F870C02CF0080CC4F870C0D4F874C06A
S2144019202CF0080CC4F874C0C4F804E02666C4F86A
S214401930906066656662C4F88060D4F870E02EF009
S214401940100EC4F870E0D4F874E02EF0100EC4F810
S21440195074E06660C0474B4638464FF080424FF0D2
S2144019606051C04738460123FF224FF00061C04710
S21440197001233F224FF000612E48C04720460123F6
S2144019804FF4C0324FF00061C047384601234FF451
S21440199080724FF00061C047384601234FF4006222
S2144019A04FF00061C04701234FF400224FF0006122
S2144019B02148C0474B462A4638464FF08051C047DC
S2144019C0294638461D4BBDE8F047184750180E408C
S2144019D001000001651A4000591A4000FFFF1F0031
S2144019E001002306010023031200400013000020DC
S2144019F0FFFF030014004020FFFF010015004420B5
S214401A000100011300ED00E0160000400100000355
S214401A10170000604D1A4000000C0E400C08005A9B
S214401A200C07005A11224000000E0E4000120E40D5
S214401A3000100E4000160E4000140E40891A40005A
S214401A40FFFF3F00008008408D1A4000014B586061
S214401A50704700BF90ED00E0014BD86019617047B9
S214401A6090ED00E020280DD94022052302E0013306
S214401A701F2B05D090424FEA4202F8D858007047D4
S214401A803E2070470820704701637047B1F1005F01
S214401A9030B43BD031D9B1F1405F1BD0B1F1605F7B
S214401AA018D0B1F1205F03D0002330BC18467047F1
S214401AB0DD07426448D413F00A0F026648D09C07FC
S214401AC0026248D5C0F88020012342610260184671
S214401AD030BC704703F00404DB0742642FD54266EF
S214401AE0002C2FD00265B1F1605F4ED042630123D7
S214401AF002610260184630BC7047B1F1805F05D085
S214401B00B1F1C05F02D0B1F1006FCDD1B1F1805FCD
S214401B1042643CD024D9B1F1C05F42D0B1F1005FFD
S214401B2005D1016F11430167416F11434167DB07E0
S214401B30426025D501234266184630BC704702668F
S214401B40002CCFD14265CEE713F00A0F4266B6D1DD
S214401B509C074262B6D41907B6D5C0F88420B3E7CE
S214401B60B1F1006FE3D1046FD143056F2C400D46B1
S214401B700C400467416F446F214029404167D6E7D7
S214401B8001230266184630BC70470263AFE7016F18
S214401B9011430167416F446F214021EA02014167CA
S214401BA0C5E7016F046F214021EA02010167416FDA
S214401BB011434167BBE700BFC06C7047806C7047FD
S214401BC0534B01F0F04203EB5013B2F1005F70B498
S214401BD04FEA43236DD00BD8B2F1805F27D0B2F1E5
S214401BE0C05F52D0B2F1006F38D0002070BC704752
S214401BF0B2F1405F66D0B2F1605F63D0B2F1205F71
S214401C00F3D100F01F000122CD0702FA00F25A6419
S214401C1073D55A6611F00A0F6DD01A628C076ED5CE
S214401C20C3F880205A6101201A6070BC704700F0EB
S214401C301F020120C90700FA02F25A641C6F44EAE8
S214401C4002041C675C6F5D6F04EA050424EA020424
S214401C505C675A6016D55A6670BC704700F01F0223
S214401C60012000FA02F25A64D6431D6F1C6F2540CD
S214401C7035401D675C6F5D6F2C4034405C67CC0719
S214401C805A60E8D41A6670BC704700F01F02012004
S214401C9000FA02F25A641C6F1D6F2C4024EA0204BC
S214401CA01C67CE075C6F44EA02045C675A60E9D55D
S214401CB0D1E700F01F02012000FA02F25A641C6FBE
S214401CC01443EDE700F01F00012201F0605401F0DC
S214401CD004058240C9075A640BD55A66A5B11A65F1
S214401CE0B4F1605F12D05A631A6101201A6070BC6A
S214401CF070471A66F2E75A6290E71A668AE708075C
S214401D0090D5C3F884208DE75A65E9E71A63EBE778
S214401D100707200070B52E4B2E48984705462E4B99
S214401D202C489847054015D02C4C20680A2819D0D6
S214401D3020690A281FD0206A0A2825D0206B0A2846
S214401D402BD0206C0A2831D0206D0A2837D0206E40
S214401D500A2800D070BD616E2942FBD0E36EBDE814
S214401D607040184761680D42E2D0E3689847636860
S214401D709D43EFD0DCE761692942DCD0E3699847B0
S214401D8063699D43E6D0D6E7616A2942D6D0E36AC6
S214401D909847636A9D43DDD0D0E7616B2942D0D037
S214401DA0E36B9847636B9D43D4D0CAE7616C294286
S214401DB0CAD0E36C9847636C9D43CBD0C4E7616D53
S214401DC02942C4D0E36D9847636D9D43C2D0BEE7B9
S214401DD0B91B4000000E0E40BD1B4000A0C0412075
S214401DE070B52E4B2E48984705462E4B2C489847A4
S214401DF0054015D02C4C20680B2819D020690B289C
S214401E001FD0206A0B2825D0206B0B282BD0206CA7
S214401E100B2831D0206D0B2837D0206E0B2800D0F1
S214401E2070BD616E2942FBD0E36EBDE87040184736
S214401E3061680D42E2D0E368984763689D43EFD0FF
S214401E40DCE761692942DCD0E369984763699D43D2
S214401E50E6D0D6E7616A2942D6D0E36A9847636AF5
S214401E609D43DDD0D0E7616B2942D0D0E36B9847E5
S214401E70636B9D43D4D0CAE7616C2942CAD0E36CF9
S214401E809847636C9D43CBD0C4E7616D2942C4D06C
S214401E90E36D9847636D9D43C2D0BEE7B91B4000D3
S214401EA000100E40BD1B4000A0C0412070B52E4B18
S214401EB02E48984705462E4B2C489847054015D047
S214401EC02C4C20680C2819D020690C281FD0206A7A
S214401ED00C2825D0206B0C282BD0206C0C2831D019
S214401EE0206D0C2837D0206E0C2800D070BD616E57
S214401EF02942FBD0E36EBDE87040184761680D424A
S214401F00E2D0E368984763689D43EFD0DCE76169B9
S214401F102942DCD0E369984763699D43E6D0D6E71B
S214401F20616A2942D6D0E36A9847636A9D43DDD00A
S214401F30D0E7616B2942D0D0E36B9847636B9D43F3
S214401F40D4D0CAE7616C2942CAD0E36C9847636C28
S214401F509D43CBD0C4E7616D2942C4D0E36D98471A
S214401F60636D9D43C2D0BEE7B91B400000120E40D1
S214401F70BD1B4000A0C0412070B52E4B2E48984750
S214401F8005462E4B2C489847054015D02C4C2068CB
S214401F90102819D0206910281FD0206A102825D074
S214401FA0206B10282BD0206C102831D0206D1028A4
S214401FB037D0206E102800D070BD616E2942FBD00D
S214401FC0E36EBDE87040184761680D42E2D0E368B2
S214401FD0984763689D43EFD0DCE761692942DCD0CF
S214401FE0E369984763699D43E6D0D6E7616A29422C
S214401FF0D6D0E36A9847636A9D43DDD0D0E7616BED
S2144020002942D0D0E36B9847636B9D43D4D0CAE750
S214402010616C2942CAD0E36C9847636C9D43CBD031
S214402020C4E7616D2942C4D0E36D9847636D9D4314
S214402030C2D0BEE7B91B400000140E40BD1B400096
S214402040A0C0412070B52E4B2E48984705462E4BD3
S2144020502C489847054015D02C4C2068112819D09C
S214402060206911281FD0206A112825D0206B1128FE
S2144020702BD0206C112831D0206D112837D0206EFF
S214402080112800D070BD616E2942FBD0E36EBDE8DA
S2144020907040184761680D42E2D0E368984763682D
S2144020A09D43EFD0DCE761692942DCD0E36998477D
S2144020B063699D43E6D0D6E7616A2942D6D0E36A93
S2144020C09847636A9D43DDD0D0E7616B2942D0D004
S2144020D0E36B9847636B9D43D4D0CAE7616C294253
S2144020E0CAD0E36C9847636C9D43CBD0C4E7616D20
S2144020F02942C4D0E36D9847636D9D43C2D0BEE786
S214402100B91B400000160E40BD1B4000A0C0412039
S214402110023802280DD8084B53F8200007490B6BAD
S2144021200A4623F4407303430B63936E1B07FCD5A8
S21440213070470020F2E700BFEC75400000060E40F6
S21440214013490B6B23F07003184308638B6E180714
S21440215007D44FF4006301E0013B16D08A6E1207A5
S214402160FAD50B490B6B23F0030343F002030B63D2
S2144021708B6E180707D44FF4006301E0013B04D090
S2144021808A6E1207FAD5002070470120704700BFBC
S21440219000060E400E4A10B40E4C1146136A1C43FD
S2144021A014628B6E9A03FCD50C6A0B4B084A23408C
S2144021B043F45C1318430862936E9B03FCD5116A84
S2144021C0064B0B4043F45C1313625DF8044B7047B8
S2144021D000060E40080037008FFFC8FFFFFFC8FE0E
S2144021E0024B986E00F48030704700BF00060E40E9
S2144021F0024B4FF000529A62704700BF00060E40F6
S214402200024B986E00F00200704700BF00060E407A
S2144022103F281AD81F280AD801230E4A03FA00F08E
S214402220916930EA010312D0106100207047012303
S2144022302038084A03FA00F0D2F8083130EA03039F
S21440224005D0C2F8000100207047012070470020EA
S214402250704700BF00060E400B4B4FF4807210B420
S21440226003EB800402FA00F0226C22F47F621143F2
S214402270216402E09A6E024202D11A680242F9D103
S2144022805DF8044B704700BF00060E400B4B4FF402
S214402290807210B403EB800402FA00F0226C22F045
S2144022A007021143216402E09A6E024202D11A6884
S2144022B00242F9D15DF8044B704700BF00060E405D
S2144022C04FF48073024A03FA00F01060704700BF74
S2144022D000060E40FEE700BFFEE700BF204921484B
S2144022E0814210B582B009D01F4B984206D2C243F5
S2144022F01E4C1A4422F003020432A0471C481D4BD1
S214402300984207D2C24300211B4C1A4422F00302D3
S2144023100432A047194B1A4A23F07F039360EFF329
S2144023201083B3FA83F35B09019372B6BFF35F8FF2
S214402330144A00231449137001980B6843F4700341
S2144023400B60BFF34F8FBFF36F8F20B10123137025
S214402350BFF35F8F62B60D4B98470D4B9847FEE72D
S214402360C081400000004020000A4020E14D40006F
S21440237000404020B8A84420154F400000004000D0
S21440238000ED00E02400402088ED00E0F9474000E2
S214402390492A4000324A136B03F00303012B3CD01A
S2144023A025D3022B0DD02F4803682D490A6B02F027
S2144023B07002702A2BD00A6BC2F30212D34003601D
S2144023C07047136A2748DB013AD5274B03602449F8
S2144023D00A6B02F00302022AE7D18A6A896AC2F3CC
S2144023E00A42C9B202FB0333B3FBF1F3DDE71F4BEE
S2144023F01B495B690A6B13F0800F1A4802F07002A3
S21440240014BF4FF400434FF4FA43702AD3D1184A0E
S214402410A2FB03235B0803607047136AD9010CD400
S214402420104814490160126A02F07002102A11D056
S2144024300D4B202A18BF0B46B7E70B4B0948B4E7AD
S2144024400C4B0360126A02F07002102A04D0202A55
S214402450BBD0BCE7084BA8E7074B0360B7E700BF15
S21440246000060E4028004020001BB70010180E4003
S214402470ABAAAAAA00093D0000127A00164B984261
S21440248017D9164B984210D9154B98421AD9154B66
S214402490984213D9144B984218D9144B9842144B6F
S2144024A094BF144A144A1A607047114B134A1A6074
S2144024B070470F4B4FF080621A6070470C4B104AC3
S2144024C01A6070470A4B0F4A1A607047084B4FF025
S2144024D004221A60704700BFBFF35E017FE7BD026B
S2144024E03FDB1C04FFCE7B05BFC2DA067FB6390849
S2144024F0000C0E4000050004000600040001000425
S21440250000030004000200040D4A0E49136843B15C
S2144025101844814202DB1060184670474FF0FF3087
S214402520704710B4084C20441460814204DB1060AD
S21440253020465DF8044B70474FF0FF30F9E700BF88
S21440254010C14120FCFF4520B8CA44204FF0FF3060
S214402550704700BF4FF4005300204B60704700BFE9
S214402560012070470020704738B5CE48CE4B98477C
S214402570C30700D438BDCD4CCD4D2168CD4B4A1C49
S214402580C84805EB8101226098472B68C02B00F0B5
S214402590CD802368032BEDD12A680021C648FF2A48
S2144025A02160026000F0C881902A00F0CF81802A26
S2144025B000F0CE80B02A40F001826B68053B582B75
S2144025C0D8D801A252F823F02129400075254000B2
S2144025D005294000752540007525400075254000BA
S2144025E0752540007525400075254000752540003E
S2144025F0752540007525400075254000752540002E
S214402600752540007525400075254000752540001D
S214402610752540007525400075254000752540000D
S21440262075254000752540007525400075254000FD
S21440263075254000752540007525400075254000ED
S21440264075254000752540007525400075254000DD
S21440265075254000752540007525400075254000CD
S21440266075254000752540007525400075254000BD
S21440267075254000752540007525400075254000AD
S214402680752540007525400075254000752540009D
S214402690752540007525400075254000752540008D
S2144026A0752540007525400075254000752540007D
S2144026B0752540007525400075254000752540006D
S2144026C0752540007525400075254000752540005D
S2144026D083284000372840001F2840000728400035
S2144026E0752540007525400075254000752540003D
S2144026F0752540007525400075254000752540002D
S21440270075254000EF2740007525400075254000A0
S214402710752540007525400075254000752540000C
S2144027206B284000752540004F2840002368022B48
S2144027307FF42FAF604B1B68B02B7FF42AAF6A68DC
S21440274000235E4923608B5C83F001038B5438BDC5
S2144027505B4A6B68107A10B15068834240D0117D56
S21440276019B111698B4200F04E8192F8201019B1D0
S214402770D1698B4200F0498192F82C1019B1916AC8
S2144027808B4200F0448192F8381019B1516B8B425D
S21440279000F0418192F8441019B1116C8B4200F060
S2144027A03C8192F8501019B1D16C8B4200F03781C1
S2144027B092F85C1019B1916D8B4200F0328192F81C
S2144027C0681019B1516E8B4200F0238192F8741054
S2144027D000293FF4CFAE116F99427FF4CBAE09216A
S2144027E001EB4101002002EB8103187238BDD5EDA4
S2144027F0027A9FED347AF8EE677A334B67EE877A43
S214402800C3ED007A38BDD5ED027A9FED307AF8EE0A
S214402810677A2F4B67EE877AC3ED007A38BDD5EDE1
S214402820027A9FED287AF8EE677A2A4B67EE877A27
S214402830C3ED007A38BDD5ED027A9FED227AF8EEE8
S214402840677A254B67EE877AC3ED007A38BD95EDFB
S214402850027ADFED226AB8EE477ADFED217A214B25
S214402860E7EE267AC3ED007A38BDD5ED027A9FEDC5
S2144028701E7AF8EE677A1D4B67EE877AC3ED007ACC
S21440288038BD95ED027ADFED1A6AB8EE477ADFED8D
S214402890197A194BE7EE667AFCEEE77AC3ED007AD2
S2144028A038BD00BF00800240591640000850442002
S2144028B00CA84420751640000050442014C1412006
S2144028C018A844200402013C3C0040206C9CB43BC9
S2144028D00000432020C14120045044200402813C93
S2144028E0CDCC4C3D2C004020A069CE3B3000402053
S2144028F0F278DC4200207D4634004020D436E83B67
S214402900CDCCCC3D95ED027A5FED046AB8EE477AC1
S2144029105FED057A444BE7EE267AC3ED007A38BD84
S214402920D5ED027A9FED417AF8EE677A404B67EE36
S214402930877AC3ED007A38BD6B68FF2B7FF41AAEFA
S214402940AB68FF2B41D03B4A136013E63A4A117AF4
S21440295001F0FF00002946D0117D002945D092F8AD
S2144029602010002943D092F82C10C9B192F8383084
S214402970002B3ED092F84430002B3CD092F850309A
S214402980002B3AD092F85C30002B3AD092F8683060
S214402990002B34D092F87430002B7FF4EBAD092333
S2144029A0686803EB43032549012402EB830301EBEC
S2144029B080021C7212681A60586038BDE02A7FF4A4
S2144029C0D9ADAA681E4B1A6038BD1E4B4020194A26
S2144029D0197059709970D970197159719971D97166
S2144029E01972106038BD0346DAE70123D8E70223A0
S2144029F0D6E70423D4E70523D2E70623D0E7082307
S214402A00CEE70723CCE70121EAE60221E8E60321E8
S214402A10E6E60821E4E60421E2E60521E0E60621B2
S214402A20DEE60721DCE600BF3800402038CF9A3B80
S214402A30440040204000402018A844202076400013
S214402A404800402014C141202DE9F04F6C4B002433
S214402A504FF4E1356B4F4FF48046A246DFF8E491E1
S214402A60DFF808B22DED068BBBB0DFED67AA9847BE
S214402A70664B9847664B9847664B9847C0214FF43D
S214402A800062654B27916FF001010E202695059454
S214402A900791289229942A94984726AB5F4A604823
S214402AA01946604B98475E48B8475F4D5C48A84714
S214402AB05B48B8475A48A8470121594800255B4B10
S214402AC098475B4B40223021554883F80E23C3F885
S214402AD08061584A1E60904726AB574F13221946CE
S214402AE0564B4FF07E501D605C601C72DD601C6172
S214402AF01C759D61DC6183F820405D629C6283F8B2
S214402B002C401D635C6383F83840DD631C6483F8A7
S214402B1044409D64DC6483F850405D659C6583F862
S214402B205C401D665C6683F86840DD661C6783F81B
S214402B307440B847424B4FF07E5E28463246414985
S214402B4016958DF85C4018958DF864401A958DF86A
S214402B506C401C958DF874401E958DF87C402095F1
S214402B608DF8844022958DF88C4024958DF89440BD
S214402B7027933993CDF898E0B847284632463249ED
S214402B800FADB8470799314B314CCB1A07930FCC52
S214402B900FC594E807000C340CAB85E8070094E8B2
S214402BA0070083E807002B4B1B78002BFBD0294AF5
S214402BB0002329487F251370284B984707EE900A34
S214402BC0DFED278A0C2287FEAA8ADFED266ADFED34
S214402BD0267A37EEC87A531976EEC87A5B08B0EE96
S214402BE0C77AF0EEE77A591CBCEEC77AFCEEE77A75
S214402BF017EE100A17EE904AA04258D9EEE300BFEF
S214402C00C9164000451640000000C842391740002B
S214402C1061034000210D40001122400080D1F008A1
S214402C2000800240A51540004D1640005516400055
S214402C3000E100E05D1640006D38400018A84420D2
S214402C40000080BF00404320000042200040442057
S214402C50F87540001C40402000684420C1054000F4
S214402C6066FF43460000DC43FE14E9431400402060
S214402C70581CCD4ACC4C02EB830204EB8004D2EDC8
S214402C80006AD4ED007A36EEC87A77EEC87AB0EEAF
S214402C90C77AF0EEE77ABCEEC77AFCEEE77A17EE34
S214402CA0102A17EE904AA242C0F0998301466B184C
S214402CB08D424FEA5303DBD8BC4B2C461B68AB42D5
S214402CC004D9BA4B0C341B68A342FAD8B74B1B68DE
S214402CD0E41A0C2C02D90C3C0C2CFCD8621E092A97
S214402CE000F2D18440F2A523D340DB0740F1CB84E9
S214402CF0B4EEE88AAC4B03EB8503F1EE10FA40F1F4
S214402D00B884144653ED019A0F9B9C4200F0B88459
S214402D10109A13449C4200F06185119A13449C42D9
S214402D2000F05985129A13449C4200F05185139A3C
S214402D3013449C4200F04985149A13449C420CBFAD
S214402D4006240024B7EE009A0BAA4FF480719848E8
S214402D50984B8DED269A9847B4EEEA8AF1EE10FA33
S214402D6040F34F83DFED947A9DED0B7AB4EEE77A2D
S214402D70F1EE10FA40F34583904BC9EE086A1B7A91
S214402D80002B00F0CD848E4B1B68372B04D98C4B20
S214402D901B68482B40F2DA84894B1B687F2B00F275
S214402DA0D584874B1B68402B854B93ED007A7E4B32
S214402DB003EB850300F22885B8EE477A9FED816ADB
S214402DC0DFED817A53ED025A37EE467A38EEE56A01
S214402DD067EE277AB0EE697AA7EE867AF0EE477A03
S214402DE077EEC87A754BB7EE007A1B78A6EEA77AD0
S214402DF08DED267A002B00F04A84DFED747A69EE7A
S214402E00A77A6F4B1B68372B03D96D4B1B68482B33
S214402E101ED96B4B1B687F2B1AD8694B1B68402BFF
S214402E20674B93ED006A604B03EB850300F2028527
S214402E30B8EE466ADFED635A9FED637A13ED025AA9
S214402E4036EE656A78EEC55A26EE077AE5EE877A5C
S214402E50B7EE007ACDED167A37EEC86A0123F0EE6B
S214402E60477A8DF85C300223E6EE867A1E46CDED34
S214402E70277A0CA9AB1C0DF15808AA1E03916FF0D7
S214402E800B004949C446CDF81880B04601EB830391
S214402E90049401EB8202214609930CAB08924FF052
S214402EA0010E1E464A4F9FED474A56F8044BDFED4B
S214402EB0464A002C71D00C44A7FB0123CA1A03EBE8
S214402EC052033AAA9B08C3EBC303CB1A013102EB69
S214402ED08303A14253F8AC3C1844EDD1374B13F86A
S214402EE00E3003F0FF02002B78D080EAE073F7EE56
S214402EF0007AA3EBE07340B19FED367A013B67EE74
S214402F00877AFBD10028C0F21B842D4B69EEA77A46
S214402F101B68372B03D92A4B1B68482B1DD9284BD7
S214402F201B687F2B19D8264B1B68402B244B93EDF0
S214402F30007A1D4B03EB850300F20C84B8EE477A0B
S214402F40089AD3ED005A92ED006A37EE447A35EE91
S214402F50C66A27EE247AE6EE077AB7EE007ACCED1C
S214402F60027A37EEC86A3AAB0EF1010E0122F0EE55
S214402F70477A03EB8803BEF1040F8CF80C2008F167
S214402F8001080CF1080CE6EE867A43ED147A2ED052
S214402F90214656F8044B002C8DD1084B0C4613F8AE
S214402FA00E3003F0FF0217E020764000400040203D
S214402FB000684420F1384000BD37863514C14120B2
S214402FC048004020000080420000803CF5FFFF3E65
S214402FD0254992247D9C873F002B86D10EF1010E19
S214402FE08CF80C200CF1080CBEF1040FD0D1DDF8A3
S214402FF00CC04246AF1ECE4B5CF8040B0021049C2E
S214403000F7EE005ACDF810A003EB8707DDF81880DE
S2144030109246C84E9FEDC83A9FEDC84ADFEDC83A83
S2144030209FEDC87A00286DD02044A6FB0423E21A00
S21440303003EB52033AAA9B08C3EBC303E31A0134DB
S21440304002EB8303844253F8AC3C1944EDD1BE4BAB
S21440305013F80E3003F0FF02002B5BD081EAE173D9
S214403060F7EE007AA3EBE17339B1013B67EE877A5E
S214403070FBD10029B8BFC5EEA77AB44B1B68372BE7
S21440308069EEA77A03D9B14B1B68482B1CD9AF4BC6
S2144030901B687F2B18D8AD4B1B68402BAB4B93ED72
S2144030A0006AA34B00F27383B8EE466A03EB8503CF
S2144030B097ED005AD3ED004A36EE436A34EEC55AD1
S2144030C026EE046AE5EE067A37EEC86AC8ED087A58
S2144030D0F0EE657A3AAB0EF1010E012203EB8A035D
S2144030E008F10808E6EE867ABEF1070F88F81C203D
S2144030F00AF1010A43ED147A15D004465CF8040B35
S214403100002891D1904B204613F80E3003F0FF0272
S214403110002BA3D10EF1010E88F8242008F10808F0
S214403120BEF1070FE9D1884B5646DDF810A0DB7993
S21440313003F0FF02002B00F0FD82834B1B7A002B2E
S21440314040F02083DFED829A68EEA99A7F4B1B6899
S214403150372B03D97D4B1B68482B20D97B4B1B68EC
S2144031607F2B1CD8794B1B68402B784B93ED007A0D
S2144031706F4B03EB850300F23483B8EE477A9FED3E
S2144031806E6ADFED6E7A93ED005A37EE467A53ED6F
S214403190025A35EE656A67EE277AE6EE279A39EEEA
S2144031A0C87A3AA9F7EE007A0122F0EE692A01EBD6
S2144031B0860306F1010ECDED249AE6EE877A8DF869
S2144031C0942043ED147A9DF87C20F1EE040AB7EE85
S2144031D0007A9DF85C60039200239DF89420DDED14
S2144031E0163A9DF864509DED184A9DF86C40DDED0A
S2144031F01A4A9DF874709DED1C5A9DED1E1A9DF856
S21440320084C0DDED201A9DF88C809DED222ADFEDEE
S214403210515A9FED499A9FED493A9FED490A0492CB
S21440322059004D48CA1800EB8202107A002800F078
S214403230D080D2ED007A77EEE87AF5EEC07AD2ED1D
S214403240007AF1EE10FA4CBF78EEE77A77EEE87A3D
S214403250F4EEC77AF1EE10FACCBF01220022002A23
S21440326000F0B780CA183C4800EB8202D2ED007AE4
S2144032704EB137EEE36AB0EEC66AB4EEC76AF1EE18
S21440328010FA00F1A6804DB137EEC46AB0EEC66AB9
S214403290B4EEC76AF1EE10FA00F19B804CB137EEFF
S2144032A0E46AB0EEC66AB4EEC76AF1EE10FA00F110
S2144032B090804FB137EEC56AB0EEC66AB4EEC76AC4
S2144032C0F1EE10FA00F18580039A42B137EEC16AFA
S2144032D0B0EEC66AB4EEC76AF1EE10FA79D4BCF125
S2144032E0000F08D037EEE16AB0EEC66AB4EEC76AA1
S2144032F0F1EE10FA6DD4B8F1000F08D037EEC26A7E
S214403300B0EEC66AB4EEC76AF1EE10FA61D4049A1B
S21440331042B137EEE26AB0EEC66AB4EEC76AF1EE84
S21440332010FA56D4094A1268402A3BD016E000BF2D
S2144033302076400025499224000080420000803CD0
S21440334000007C427D9C873F14C1412048004020BD
S21440335005000040666666BF18A84420CA18CF49D4
S21440336001EB8202CE49526809687F2A1AD87F2923
S21440337018D8CB4909684029C94991ED006AC9491E
S214403380B8EE466A01EB820100F2128236EE496AD6
S21440339091ED00AA51ED029A26EE036A7AEE699AFA
S2144033A0E9EE867A77EEC87A67EEA67AF4EE657A24
S2144033B0F1EE10FA0DDDF4EE607AF1EE10FA08D573
S2144033C03AAA77EE877A02EB8E020EF1010E42EDB4
S2144033D0147A01330A2B7FF423AF14E01146994246
S2144033E080F0CB81C8181D460A46AE494308F0EE29
S2144033F0668A01EB8301D1ED017AD1ED006AFFF7D1
S214403400E8BB4FF0010E3AA9A74BA84A1B6801EB50
S2144034108E041268A648A749009326AB019218EE80
S214403420102A44F8500C0D46A348A44CA0475246D8
S214403430C2F30D0355F8041B013209EB83031960F0
S2144034409F4BAB42F4D19F4BDFED9F8AD3ED007A82
S2144034500AF580639FED9D8A88EEA77A0695954C7F
S2144034609FED9BAADFED9B9A9FED9B9A27EE888A5D
S214403470059D0493FCEEC77ACDED037A974BB6EEE6
S214403480006A974E05F1010893ED007A954BD3ED0F
S214403490007A954B77EE277AD3ED006A934BE7EEAA
S2144034A0866A16EE900A98470022914BB047914E96
S2144034B002460B4600209049B04706460F46206815
S2144034C08A4B984702460B4630463946844EB047AC
S2144034D08A4B984707EE905A039BF8EE677A20602F
S2144034E0434514BF45460025854B7E4F67EE887A98
S2144034F017EE900A9847F0EE697A07EE100A6FF4D6
S214403500FA63764A6FF44A7EE7EE0A7A0AEB0301DC
S214403510D2ED004AAAF2DF53AAF2B342C1F30D013C
S214403520C3F30D037748C2F30D0209EB810109EBA3
S214403530830364EE894A67EEA87A09EB820293ED2C
S214403540007A91ED006ACAF30D01FCEEE77AD4EDFD
S214403550005A36EE076A17EE903AD2ED007A6A4A7B
S214403560AAEB030336EE276A1268D0ED003AA3F1C1
S214403570C7066648AAEB0202C6F30D06DFED647A7C
S21440358000EB81015848C2F30D0209EB860690ED28
S214403590004A6FF4C87097ED005A0AF1010A1818ED
S2144035A05A4F96ED007AC3F30D06C0F30D0007EBB5
S2144035B082026FF4167725EE275A09EB800092EDCB
S2144035C0003A09EB8606D0ED007AD819734477EEB8
S2144035D0277AC0F30D0096ED007AC3F30D0309EB8E
S2144035E0800077EE877A09EB8303D0ED006A93ED8F
S2144035F0007A77EEA67A049B9A4577EE877AE4EED1
S214403600A75AF0EE657AB0EE657AE6EE057AA3EE56
S214403610237AE7EE047A81ED007AE4EC017A7FF4CF
S2144036202DAF3C4BDFED3C7A93ED007A4FF4806350
S214403630204A67EE277A394C10460595069D17EEC8
S214403640901AA0471B4B079F1A4ADBF80060981A4F
S214403650F3EC017AFDEEE77AFC18AB42CDED037A47
S214403660BDF80C203252325A92B23253ECD1FFF7A8
S2144036709ABA0134D3ED019A0F9B9C427FF448AB33
S2144036800124FFF75FBBF0EE689AFFF73DBB0023CF
S21440369001228DF85C301646FFF7EBBB18A8442095
S2144036A048004020207640003C0040203800402023
S2144036B0000080BF0040442000684420C10D400008
S2144036C0005044202C00402000B632473A021039C1
S2144036D0A69B443B6F12033CCDCC4C3E20C14120C0
S2144036E029434000045044200000432081424000CB
S2144036F00000E03FC13F40000000F03F4D47400023
S214403700793B4000300040203400402000004220FA
S214403710C3F5A83E4400402000FEFF46013C400062
S2144037204D4B1B78002BB2D0DFED4C7A68EEA77A73
S214403730FFF767BBB6468DF89420DDED242A42E5B8
S214403740B7EE007AC7EE277AFFF7DFBBF0EE697A6E
S214403750FFF746BBB8EE477A9FED416AD3ED005A75
S214403760099B37EE467A93ED005A27EE247A35EEDB
S214403770656AE6EE077AFFF7F0BBF0EE668A1D460E
S214403780FFF79ABADFED377A69EEA79ADEE4B8EE2D
S214403790466A03EB8502D2ED024A36EE636A92ED44
S2144037A0005A34EEC55A26EE046AE6EE057A8BE4F5
S2144037B036EE406A91ED02AAD1ED009A26EE036AF3
S2144037C07AEE699AE9EE867AECE50524FFF7BABA0E
S2144037D00424FFF7B7BA0324FFF7B4BA0224FFF76E
S2144037E0B1BAB8EE477A9FED1E6ADFED1F7A93EDC9
S2144037F0025A37EE467AD3ED005A35EE656A67EEE2
S214403800277AE6EE279ACAE4B8EE477A9FED146A1E
S214403810DFED157AD3ED025A37EE467A35EEE86A92
S21440382067EE277AB0EE697AA6EE277AF0EE477A08
S214403830FFF7D6BAB8EE466ADFED095A9FED0A7A28
S21440384093ED025A36EE656A75EE685A26EE077AAA
S214403850E5EE877AFFF7FCBA14C14120F5FFFF3E3C
S21440386000007C42050000400000803C30B49508D3
S2144038700BD00B462C46013C186058609860D860C8
S21440388003F11003F7D101EB051112F0030203D048
S214403890013A41F8040BFBD130BC70472DE9F003E8
S2144038A05FEA920918D004460B464D46D4F800808D
S2144038B0D4F804C0A768E668013DC3F80080C3F8A2
S2144038C004C09F60DE6004F1100403F11003EDD1E4
S2144038D04FEA09194844494412F0030205D050F80B
S2144038E0043B013A41F8043BF9D1BDE8F003704788
S2144038F030B48D08DFED187A1FD003462C46D3ED42
S214403900006A93ED017A66EEA66A27EE076A76EEBF
S214403910A77A93ED027A76EE277A67EE076A93EDFA
S214403920037A76EEA76A27EE077A013C03F1100386
S21440393077EE267AE3D100EB051011F0030107D0AD
S214403940B0EC017A27EE077A013977EE877AF7D11D
S214403950C2ED007A30BC7047000000002DE9F0034D
S21440396001F1FF3C5FEA9C0900F10407D0ED007AC4
S2144039705CD03C464E4604200025D4ED006AF4EE6A
S214403980E76AF1EE10FA94ED017A48BFF0EE667AF7
S214403990F4EEC77AA0F1030848BF4546F1EE10FAA8
S2144039A0D4ED026AC8BFF0EE477AF4EEE67AA0F1AC
S2144039B00208C8BF4546F1EE10FA94ED037AC8BF38
S2144039C0F0EE667AF4EEC77A00F1FF38C8BF454697
S2144039D0F1EE10FAC8BF0546C8BFF0EE477A013E82
S2144039E004F1100400F10400C7D107EB09171CF0DE
S2144039F0030C1DD0CCEB01010020B7EC017AB4EEED
S214403A00E77AF1EE10FA48BFF0EE477A01EB000491
S214403A1000F1010048BF25466045B0EE677AECD11C
S214403A2082ED007A1D60BDE8F00370474D46DEE744
S214403A30B0EE677AF4E700BF30B48D08DFED167A53
S214403A4017D003462C46D3ED006A93ED017A77EE05
S214403A50A67AD3ED026A77EE877A93ED037A77EE0D
S214403A60A67A013C03F1100377EE877AEBD100EBA0
S214403A70051011F0030305D0B0EC017A013B77EE58
S214403A80877AF9D106EE901A30BCB8EE667AC7EE61
S214403A90877AC2ED007A7047000000002DE9F003F7
S214403AA001F1FF3C5FEA9C0900F10407D0ED007A83
S214403AB05CD03C464E4604200025D4ED006AF4EE29
S214403AC0E76AF1EE10FA94ED017AC8BFF0EE667A36
S214403AD0F4EEC77AA0F10308C8BF4546F1EE10FAE7
S214403AE0D4ED026A48BFF0EE477AF4EEE67AA0F1EB
S214403AF0020848BF4546F1EE10FA94ED037A48BFF7
S214403B00F0EE667AF4EEC77A00F1FF3848BF4546D5
S214403B10F1EE10FA48BF054648BFF0EE477A013E40
S214403B2004F1100400F10400C7D107EB09171CF09C
S214403B30030C1DD0CCEB01010020B7EC017AB4EEAB
S214403B40E77AF1EE10FAC8BFF0EE477A01EB0004D0
S214403B5000F10100C8BF25466045B0EE677AECD15B
S214403B6082ED007A1D60BDE8F00370474D46DEE703
S214403B70B0EE677AF4E700BFDFED1E7A06EE900AF5
S214403B80B5EE007A66EEA77A77EE877AF5EEC07ADB
S214403B90F1EE10FABDEEE77A04D517EE103A013B87
S214403BA007EE103AB8EEC77ADFED136A77EEC77ABB
S214403BB067EEA67AFCEEE76A16EE903AC3F3080381
S214403BC007EE103AF8EE476AB7EE007A77EEE67AF6
S214403BD00A4A37EE677A02EB830191ED006AD1ED2F
S214403BE0016A27EE067A67EEA67A77EE277A17EE10
S214403BF0900A704783F9223E000000442078400037
S214403C0070B49E0807EE901A23D0354614460146F7
S214403C10D1ED005A91ED016AD1ED026A91ED037A39
S214403C2065EEA75A26EE276A66EEA76A27EE277A3B
S214403C30013DC4ED005A84ED016AC4ED026A84ED8C
S214403C40037A01F1100104F11004E1D13601304449
S214403C50324413F0030307D0B0EC017A27EE277AFC
S214403C60013BA2EC017AF7D170BC704708B500F072
S214403C700BF8DFED047A06EE900A86EEA77A17EE8A
S214403C80100A08BD1872313F10B52DED028B8AB070
S214403C9008EE100A00F072F8334B93F90040631CAC
S214403CA009D0B4EE488AF1EE10FA04D6B5EEC08AD2
S214403CB0F1EE10FA03DD0AB0BDEC028B10BD2B4BC3
S214403CC0019318EE100A0023089300F0D9FACDE9C4
S214403CD00401CDE90201CCB9254BB5EE408A4FF040
S214403CE06042F1EE10FACDE9062334D10223009368
S214403CF0684600F059F9B0B1089BCBB9DDE906013A
S214403D0000F024FD0AB0BDEC028B10BD194BB5EE99
S214403D10408A0022F1EE10FACDE906230DD10223A7
S214403D209C420093E4D100F061FD22230360E3E768
S214403D3000F05CFD089B0360E0E70123022C009343
S214403D400BD100F053FD212303600B4800F02EF901
S214403D50CDE90601D0E701230093684600F024F938
S214403D600028F2D1EDE700BF4C0040202480400000
S214403D70FFFFEFC70000F0FF4080400030B482B045
S214403D800190019B33F000422DD0002B41DBB3F174
S214403D90FF4F4BDAB3F5000F30DB0025734AC3F311
S214403DA01604224402F4000282F07E50DB1504F131
S214403DB00F0120437F3B07EE900AC1F316012B44C8
S214403DC0B7EE007A0F2903EBD25337EEC77A36DCCC
S214403DD0B5EE407AF1EE10FA72D1002B40F0A0809A
S214403DE0DFED637A05E0DFED636A9FED617AC6EE4C
S214403DF0877A17EE900A02B030BC7047DFED5E7AE5
S214403E009DED017A67EE277A6FF0180517EE903A27
S214403E10C4E7DDED017A9FED567A77EEE76AC6EEA7
S214403E20877A17EE900A02B030BC7047DDED017A13
S214403E3077EEA77A17EE900A02B030BC7047F0EEE5
S214403E40006A77EE266A9FED4D2A9FED4D4A9FED1C
S214403E504D5ADFED4D2ADFED4D4ADFED4D7A9FEDB1
S214403E604D6A4D49C7EE263AC4F55712214402F52D
S214403E7022720A43002A06EE903A63EEA35AB8EE40
S214403E80E63A65EEA56AA6EE824AE6EEA24AA6EEB7
S214403E90845AA6EEA46AE6EE857A67EEA57AE6EE42
S214403EA0867A4CDDB6EE006A27EE066A26EE076A8C
S214403EB0A3B977EE866AA3EEE66A77EE467A98E787
S214403EC0DFED366AF6EE007AE7EE667A67EE076A68
S214403ED067EEA66A9BB977EE667A8AE7DFED305AD8
S214403EE09FED305A77EE866A63EE257AE3EEA67A41
S214403EF076EE677A77EEC77AD3EE057A79E707EEFD
S214403F00903ADFED275A9FED276AF8EEE77AE7EE1C
S214403F10E56A36EEC77A97EE867AF0EE477A68E735
S214403F2007EE903A9FED1E7ADFED1E6AF8EEE77ACE
S214403F3027EE877AA7EEA67AF0EE477A59E773B16E
S214403F409FED176ADFED175A77EE676A66EE437A9B
S214403F50E3EEA67A77EEC77AD3EE257A49E777EE90
S214403F60677AA3EEE77AF0EE477A42E720FB4A000C
S214403F7000000000000000CC0000004C9788173E70
S214403F8025333A3E2549923E4FD01C3E298E633E0D
S214403F90ABAA2A3FCDCCCC3E305CCFFFABAAAA3EE4
S214403FA0D1F717378071313F002070470020014914
S214403FB0704700BF0000F87F81F0004102E000BF7C
S214403FC083F0004330B54FEA41044FEA430594EA94
S214403FD0050F08BF90EA020F1FBF54EA000C55EACF
S214403FE0020C7FEA645C7FEA655C00F0E2804FEAA0
S214403FF05454D4EB5555B8BF6D420CDD2C4480EA82
S214404000020281EA030382EA000083EA010180EAB1
S214404010020281EA0303362D88BF30BD11F0004FFF
S2144040204FEA01314FF4801C4CEA113102D0404235
S21440403061EB410113F0004F4FEA03334CEA133370
S21440404002D0524263EB430394EA050F00F0A78088
S214404050A4F10104D5F1200E0DDB02FA0EFC22FA83
S21440406005F2801841F1000103FA0EF2801843FA77
S21440407005F359410EE0A5F120050EF1200E012A68
S21440408003FA0EFC28BF4CF0020C43FA05F3C018A6
S21440409051EBE37101F0004507D54FF0000EDCF11F
S2144040A0000C7EEB00006EEB0101B1F5801F1BD3C8
S2144040B0B1F5001F0CD349085FEA30004FEA3C0CCC
S2144040C004F101044FEA445212F5800F80F09A80C2
S2144040D0BCF1004F08BF5FEA500C50F1000041EBC6
S2144040E0045141EA050130BD5FEA4C0C404141EBCA
S2144040F0010111F4801FA4F10104E9D191F0000FF1
S21440410004BF01460020B1FA81F308BF2033A3F173
S2144041100B03B3F120020CDA0C3208DD02F1140C6A
S214404120C2F10C0201FA0CF021FA02F10CE002F1A5
S2144041301402D8BFC2F1200C01FA02F120FA0CFC9E
S214404140DCBF41EA0C019040E41AA2BF01EB0451E7
S214404150294330BD6FEA04041F3C1CDA0C340EDCE5
S21440416004F11404C4F1200220FA04F001FA02F328
S21440417040EA030021FA04F345EA030130BDC4F1E6
S2144041800C04C4F1200220FA02F001FA04F340EADB
S2144041900300294630BD21FA04F0294630BD94F08C
S2144041A0000F83F4801306BF81F480110134013D73
S2144041B04EE77FEA645C18BF7FEA655C29D094EAE4
S2144041C0050F08BF90EA020F05D054EA000C04BF62
S2144041D01946104630BD91EA030F1EBF002100204D
S2144041E030BD5FEA545C05D14000494128BF41F0EC
S2144041F0004130BD14F580043CBF01F5801130BD50
S21440420001F0004545F0FE4141F470014FF00000DA
S21440421030BD7FEA645C1ABF194610467FEA655C8B
S2144042201CBF0B46024650EA013406BF52EA03352D
S21440423091EA030F41F4002130BD00BF90F0000F1B
S21440424004BF0021704730B54FF4806404F1320457
S2144042504FF000054FF0000150E700BF90F0000F10
S21440426004BF0021704730B54FF4806404F1320437
S21440427010F0004548BF40424FF000013EE700BF07
S21440428042004FEAE2014FEA31014FEA02701FBF97
S21440429012F07F4393F07F4F81F06051704792F069
S2144042A0000F14BF93F07F4F704730B54FF46074E3
S2144042B001F0004521F0004120E700BF50EA01022E
S2144042C008BF704730B54FF000050AE050EA0102DB
S2144042D008BF704730B511F0004502D5404261EB4B
S2144042E041014FF4806404F132045FEA915C3FF48C
S2144042F0DCAE4FF003025FEADC0C18BF03325FEA25
S214404300DC0C18BF033202EBDC02C2F1200300FAD9
S21440431003FC20FA02F001FA03FE40EA0E0021FAFE
S21440432002F11444C1E600BF70B54FF0FF0C4CF4E8
S214404330E06C1CEA11541DBF1CEA135594EA0C0F9E
S21440434095EA0C0F00F0DEF82C4481EA030621EAD9
S2144043504C5123EA4C5350EA013518BF52EA033514
S21440436041F4801143F4801338D0A0FB02CE4FF0C6
S2144043700005E1FB02E506F00042E0FB03E54FF0F6
S2144043800006E1FB03569CF0000F18BF4EF0010EEE
S214404390A4F1FF04B6F5007F64F5407404D25FEAEA
S2144043A04E0E6D4146EB060642EAC62141EA55519D
S2144043B04FEAC52040EA5E504FEACE2EB4F1FD0CDF
S2144043C088BFBCF5E06F1ED8BEF1004F08BF5FEA5D
S2144043D0500E50F1000041EB045170BD06F000460F
S2144043E046EA010140EA020081EA0301B4EB5C04BC
S2144043F0C2BFD4EB0C0541EA045170BD41F48011B4
S2144044004FF0000E013C00F3AB8014F1360FDEBFD8
S214404410002001F0004170BDC4F10004203C35DAB4
S2144044200C341BDC04F11404C4F1200500FA05F337
S21440443020FA04F001FA05F240EA020001F00042D8
S21440444021F0004110EBD37021FA04F642EB06014E
S2144044505EEA430E08BF20EAD37070BDC4F10C0478
S214404460C4F1200500FA04F320FA05F001FA04F23C
S21440447040EA020001F0004110EBD37041F1000128
S2144044805EEA430E08BF20EAD37070BDC4F1200533
S21440449000FA05F24EEA020E20FA04F301FA05F29B
S2144044A043EA020321FA04F001F0004121FA04F243
S2144044B020EA020000EBD3705EEA430E08BF20EA13
S2144044C0D37070BD94F0000F0FD101F0004640004D
S2144044D041EB010111F4801F08BF013CF7D041EACF
S2144044E0060195F0000F18BF704703F000465200D3
S2144044F043EB030313F4801F08BF013DF7D043EAA4
S2144045000603704794EA0C0F0CEA135518BF95EA59
S2144045100C0F0CD050EA410618BF52EA4306D1D1E0
S21440452081EA030101F000414FF0000070BD50EAFF
S214404530410606BF1046194652EA430619D094EA89
S2144045400C0F02D150EA013613D195EA0C0F05D173
S21440455052EA03361CBF104619460AD181EA0301C7
S21440456001F0004141F0FE4141F470014FF000007F
S21440457070BD41F0FE4141F4780170BD70B54FF01A
S214404580FF0C4CF4E06C1CEA11541DBF1CEA13559A
S21440459094EA0C0F95EA0C0F00F0A7F8A4EB05047C
S2144045A081EA030E52EA03354FEA013100F0888073
S2144045B04FEA03334FF0805545EA131343EA12633C
S2144045C04FEA022245EA111545EA10654FEA0026F1
S2144045D00EF000419D4208BF964244F1FD0404F5AA
S2144045E0407402D25B084FEA3202B61A65EB030506
S2144045F05B084FEA32024FF480104FF4002CB6EBC3
S214404600020E75EB030E22BFB61A754640EA0C0042
S2144046105B084FEA3202B6EB020E75EB030E22BF82
S214404620B61A754640EA5C005B084FEA3202B6EBC3
S214404630020E75EB030E22BFB61A754640EA9C0082
S2144046405B084FEA3202B6EB020E75EB030E22BF52
S214404650B61A754640EADC0055EA060E18D04FEA10
S214404660051545EA16754FEA06164FEAC30343EAB0
S21440467052734FEAC2025FEA1C1CC0D111F4801F7D
S2144046800BD141EA00014FF000004FF0004CB6E776
S21440469011F4801F04BF01430020B4F1FD0C88BF15
S2144046A0BCF5E06F3FF6AFAEB5EB030C04BFB6EB20
S2144046B0020C5FEA500C50F1000041EB045170BD13
S2144046C00EF0004E4EEA113114EB5C04C2BFD4EB40
S2144046D00C0541EA045170BD41F480114FF0000EC4
S2144046E0013C90E645EA060E8DE60CEA135594EA40
S2144046F00C0F08BF95EA0C0F3FF43BAF94EA0C0F43
S2144047000AD150EA01347FF434AF95EA0C0F7FF4B7
S21440471025AF104619462CE795EA0C0F06D152EA0B
S21440472003353FF4FDAE1046194622E750EA4106EF
S21440473018BF52EA43067FF4C5AE50EA41047FF400
S2144047400DAF52EA43057FF4EBAE12E74FEA410263
S214404750B2F1E04324BFB3F5001CDCF1FE5C0DD99A
S21440476001F0004C4FEAC0024CEA5070B2F1004FE4
S21440477040EB830008BF20F00100704711F0804FE7
S21440478021D113F13872BCBF01F00040704741F4AC
S21440479080114FEA5252C2F11802C2F1200C10FAB0
S2144047A00CF320FA02F018BF40F001004FEAC12394
S2144047B04FEAD32303FA0CFC40EA0C0023FA02F338
S2144047C04FEA4303CCE77FEA625307D150EA01330E
S2144047D01EBF4FF0FE4040F44000704701F00040DE
S2144047E040F0FE4040F40000704700BF014B1868A0
S2144047F0704700BF5000402070B50F4E0F4D761BDF
S214404800B61018BF002405D0013455F8043B98472D
S214404810A642F9D10A4E0B4D761B03F0BBFCB610F0
S21440482018BF002406D0013455F8043B9847A642EA
S214404830F9D170BD70BD00BFA0814000A08140008E
S214404840A8814000A08140000FB400B5074983B05E
S21440485004AB086853F8042B8168019300F006FC0B
S21440486003B05DF804EB04B0704700BF5000402032
S214404870024B0146186800F003B800BF50004020C5
S2144048802DE9F04F01F10B06162E83B0054640F297
S2144048909E8036F0070600F1BD80B14200F2BA8035
S2144048A000F086FBB6F5FC7FC0F09382730A00F0FA
S2144048B0B880042B00F27981B30903F1390003F183
S2144048C0380EC300BF4F3B44A3F108015C68A142C9
S2144048D006D10CE0002A80F2AA80E468A14206D005
S2144048E0636823F003039A1B0F2AF3DD70463C6986
S2144048F0DFF8E4E2744500F0AB81636823F003031D
S2144049009A1B0F2A00F39081002AC7F814E0C7F8D4
S21440491010E080F29D80B3F5007F80F06181DB0877
S21440492003F1010C99107A6857F83C80C4F8088067
S21440493001238B4007EBCC0113430839E1607B60D1
S21440494047F83C40C8F80C408210012494409C42F2
S21440495000F28B801C4206D120F0030064001C420B
S21440496000F10400FAD007EBC009CC468046DCF8DC
S2144049700C309C4507D16DE1002A80F27B81DB68D4
S2144049809C4500F06781596821F003018A1B0F2A75
S214404990F2DDD3F80CC0D3F8088000939C19284663
S2144049A046F0010642F001055E60C8F80CC0CCF83F
S2144049B008807C613C61C4F80CE0C4F808E065609F
S2144049C05A5000F0FBFA009B03F108041EE0102941
S2144049D020D800F0EDFA102618230220794F3B44E9
S2144049E0A3F108025C68944200F03D816368E16888
S2144049F0A66823F00303234428465A68F16042F031
S214404A0001028E605A6000F0D9FA0834204603B09E
S214404A10BDE8F08F00240C2320462B6003B0BDE891
S214404A20F08F40204FF400734FF03F0E4AE7234488
S214404A30E1685A68A66842F00102F16028468E6036
S214404A405A6000F0BBFA0834204603B0BDE8F08F49
S214404A50234428465A6842F001025A6000F0AEFAF3
S214404A600834204603B0BDE8F08FBC68636823F086
S214404A700308B04504D3A8EB06030F2B00F385804C
S214404A80DFF85891504BD9F800201B680132334468
S214404A9004EB080A00F0558103F580530F3323F4E6
S214404AA07F6B2BF00F0B5946284600F08DFA411CC1
S214404AB0024600F0FC80824500F2F780434B1968BE
S214404AC05944196000F04D81D9F8000001301BBFF1
S214404AD0A2EB0A0A5144C9F80020196012F00701F7
S214404AE000F01581C1F10800C1F58051024408313B
S214404AF002EB0B09C9F30B09A1EB09094946284605
S214404B000193009200F060FA431C9DE80C0000F010
S214404B104381801A484440F001001968BA6049440D
S214404B20BC425060196017D0B8F10F0F40F2FB80BE
S214404B306068A8F10C0222F0070204EB020E00F0B7
S214404B4001004FF0050C10430F2A6060CEF804C0F9
S214404B50CEF808C000F217811D4BBC681A68914217
S214404B6088BF19601B4B1A689142626888BF1960FB
S214404B7022F003029642A2EB060301D80F2B04DC78
S214404B80284600F01BFA002440E7A21943F0010330
S214404B9046F0010666602846BA60536000F00EFA9A
S214404BA00834204603B0BDE8F08F142B71D9542B3F
S214404BB000F2A380330B03F16F0003F16E0EC300C7
S214404BC080E600BF800440203C5044200C504420E7
S214404BD034504420385044208804402088084020E0
S214404BE05A0A042A5BD9142A00F2AE8002F15C010C
S214404BF0C9005B3207EB010C7958ACF1080C8C45C8
S214404C0000F088804A6822F00302934273D2896893
S214404C108C45F7D1DCF80C207B68E260C4F808C00D
S214404C209460CCF80C408FE6A11946F0010C42F097
S214404C300106C4F804C0284679613961C1F80CE021
S214404C40C1F808E04E60E25000F0B8F90834DDE6FE
S214404C507B6879E608F1010818F0030F0CF1080CA0
S214404C607FF485AE2DE0DC68A34208BF02303FF4F7
S214404C703EAEBBE619441C464A68DB6854F8086FEB
S214404C8042F001024A602846F3609E6000F096F9C2
S214404C90BCE603F15C0003F15B0EC30012E69A0922
S214404CA002F13901C9003832A4E7BC4254D0BC688E
S214404CB0626822F003025DE759F80839994540F0EA
S214404CC0868010F0030F00F1FF30F5D17B6823EAB1
S214404CD004037B6064009C423FF6C7AE002C3FF462
S214404CE0C4AE1C4240467FF43EAE64001C4200F117
S214404CF00400FAD037E68C468CE7B3F5AA7F15D881
S214404D00F30B03F1780003F1770EC300DAE54FF4B6
S214404D108051EDE67B689210012101FA02F21343BE
S214404D207B60624679E70123536029E740F254529C
S214404D30934222D8B30C03F17D0003F17C0EC300EE
S214404D40C0E503F1100BAEE6542A29D81A0B02F13F
S214404D506F01C9006E324DE7204B196859441960FF
S214404D60B2E6CAF30B0000287FF4AEAE08EB0B03A6
S214404D70BA6843F001035360EEE67F204FF47E733B
S214404D804FF07E0E9EE504F108012846009301F0A0
S214404D9089FA009B1968DFE601204FF00009BCE65F
S214404DA0B2F5AA7F05D8DA0B02F17801C90077324E
S214404DB020E740F254518A4205D89A0C02F17D0110
S214404DC0C9007C3216E74FF47E717E2212E77B687C
S214404DD080E7F00806F1080300E600BF0C504420C8
S214404DE0844641EA000313F003036DD1403A41D3B1
S214404DF051F8043B40F8043B51F8043B40F8043B70
S214404E0051F8043B40F8043B51F8043B40F8043B5F
S214404E1051F8043B40F8043B51F8043B40F8043B4F
S214404E2051F8043B40F8043B51F8043B40F8043B3F
S214404E3051F8043B40F8043B51F8043B40F8043B2F
S214404E4051F8043B40F8043B51F8043B40F8043B1F
S214404E5051F8043B40F8043B51F8043B40F8043B0F
S214404E6051F8043B40F8043B51F8043B40F8043BFF
S214404E70403ABDD2303211D351F8043B40F8043B9F
S214404E8051F8043B40F8043B51F8043B40F8043BDF
S214404E9051F8043B40F8043B103AEDD20C3205D3AF
S214404EA051F8043B40F8043B043AF9D2043208D0A7
S214404EB0D2071CBF11F8013B00F8013B01D30B8819
S214404EC003806046704700BF082A13D38B078DD0F7
S214404ED010F003038AD0C3F10403D21ADB071CBFC9
S214404EE011F8013B00F8013B80D331F8023B20F833
S214404EF0023B7BE7043AD9D3013A11F8013B00F86C
S214404F00013BF9D20B7803704B7843708B788370F3
S214404F106046704770B4860746D0541E002A41D07B
S214404F20CAB2034602E014F1FF343BD303F8012B28
S214404F309D07F8D1032C2ED9CDB245EA05250F2C76
S214404F4045EA054519D903F110022646103E0F2EB4
S214404F5042F8105C42F80C5C42F8085C42F8045C8C
S214404F6002F11002F2D8A4F1100222F00F0204F06F
S214404F700F041032032C13440DD91E462246043A21
S214404F80032A46F8045BFAD8221F22F003020432B2
S214404F90134404F003042CB1C9B21C4403F8011BAB
S214404FA09C42FBD170BC704714460346C2E700BF24
S214404FB0014801F011BC00BFA0A84420014801F000
S214404FC00DBC00BFA0A8442038B5074C00230546BA
S214404FD008462360FDF798FA431C00D038BD236886
S214404FE0002BFBD02B6038BDB4A844202DE9F84FE9
S214404FF04B6E9C0493462FD59368126853B30E4667
S214405000074602F1080919E920045FEA9A0817D012
S214405010043D002401E0A04510D0324655F8041F58
S214405020384601F0BBF8431C04F10104F3D10023D9
S214405030CBF80830CBF80430BDE8F88FDBF8083002
S2144050402AF0030AA3EB0A03CBF8083009F1080953
S214405050002BD8D10020EAE701F00AFA0023CBF86B
S2144050600830CBF80430BDE8F88F00BF2DE9F04F8C
S214405070ADB01D468B4690460793069018B1836B9D
S214405080002B00F0F380DBF86430BBF90C00DF0740
S21440509081B202D48E0540F1FC808C040AD4DBF841
S2144050A0643040F4005123F40053ABF80C10CBF8B6
S2144050B0643089B2080740F1B380DBF81030002B2B
S2144050C000F0AE8001F01A030A2B00F0B5800023F2
S2144050D00DF170090B93119310930393CDF83C9008
S2144050E0CA46CDF810B098F800304446FBB1252BA0
S2144050F002D11CE0252B03D014F8013F002BF9D138
S214405100A4EB08059DB1109B119ACAF800800133A4
S2144051102A44072BCAF80450119210937ADD002ACD
S21440512040F0B084039B10922B44CA4603932378E6
S214405130002B00F0E08300204FF000038DF837305E
S21440514004F1010862780546064603464FF0FF34F0
S21440515008F10108A2F12001582900F2DE82DFE8BA
S21440516011F02102DC02DC022902DC02DC02DC0255
S214405170DC02DC02DC0289029502DC02A200BD02EF
S214405180DC029F01A401A401A401A401A401A4017E
S214405190A401A401A401DC02DC02DC02DC02DC0285
S2144051A0DC02DC02DC02DC02DC02B201DC02DC02F5
S2144051B0DC02DC02DC02DC02DC02DC02DC02DC02BA
S2144051C09701DC02DC02DC02DC02DC029B01DC0232
S2144051D0DC025302DC02DC02DC02DC02DC02DC0223
S2144051E0DC02DC02DC02DC025A021B02DC02DC02CD
S2144051F0DC026E021B02DC02DC027302DC02F501FA
S21440520082010902D702DC029A02DC02A700DC0215
S214405210DC022E020AF1080A039B2B44039386E71E
S2144052205946069800F0ACFD18BBBBF80C1001F0D0
S2144052301A030A2B7FF44BAFBBF90E30002BFFF658
S21440524046AFDBF86430DB0705D48F0503D4DBF8C4
S214405250580001F0C3FA2B4642465946069800F0DD
S2144052604DFD039003982DB0BDE8F08F00F0F4FE9E
S21440527009E7DBF86430D90704D4BBF80C309A054C
S21440528040F1AA844FF0FF33039303982DB0BDE856
S214405290F08FDBF8580001F09FFABBF90C0081B2A2
S2144052A0FBE67642079243F0040398F800204FE767
S2144052B008969E0600F150840799DD060A4600F1DE
S2144052C0EF83580640F1EC830E8804310027012214
S2144052D007914FF000018DF837100025611C00F053
S2144052E0168123F08001029156EA070140F01481AE
S2144052F0002C40F05C83002A40F0B78313F0010393
S214405300059300F057840DF1B00B30230BF8413D68
S214405310059BA342B8BF234601930DB101330193C9
S214405320029B13F00203099302D0019B02330193C0
S214405330029B13F084030A9340F01782089B019A5D
S2144053409D1A002D40F31182102D40F39084109B3F
S214405350119AC44ED6461027A2461946069C07E028
S21440536001F1020C0EF1080E0146103D102D11DD24
S214405370481C1032072811928EE8C0001090EFDDCE
S214405380002A40F0E481103D102D11464FF0010CEC
S214405390CE46EDDC54466146F2462A440729119231
S2144053A0CAF80060CAF80450109100F3EC829DF8E9
S2144053B037500AF1080A481C002D40F0DE81099B50
S2144053C0002B00F0F88102320EA902230728119222
S2144053D010908AE80A0040F3EA81002A40F08C8365
S2144053E00A9B802B4FF001001146CA4640F0E781E9
S2144053F0089B019D5E1B002E40F3E181102E9A4DC6
S21440540040F35084D4461027A246069C07E001F19C
S214405410020E0CF1080C0146103E102E11DD481C01
S2144054201032072811928CE8A0001090EFDD002A79
S21440543040F09D82103E102E4FF0010E1146CC4695
S214405440EDDC5446E2463244BEF1070F11928AE83C
S2144054506000CDF840E000F369830AF1080A0EF1D7
S21440546001007146ABE1089613F0200240F08C83B1
S21440547013F0100140F01A8313F0400200F0168338
S21440548007980A460146043106880791002720E718
S214405490089643F01003E7E7089643F0100308E742
S2144054A043F0800398F8002052E6A2F1300100262F
S2144054B018F8012B06EB860601EB4606A2F13001F2
S2144054C00929F5D946E60896002840F0088443F0B6
S2144054D010039E0600F14C83DD0600F1F382580669
S2144054E040F1F082079DB5F900602A46F71704326E
S2144054F0304639460792002871F10002C0F25D83BB
S214405500611C9DF837504FF001027FF4EAAE56EA30
S214405510070100F04D820293012A00F08C82022A95
S21440552040F05C820B98CB46330906F00F0143EA05
S21440553007733A091E461746435C0BF8013D56EA88
S2144055400703F1D1A9EB0B030593E1E6002840F0F1
S214405550C083990600F16783DA0600F1F1805B06A6
S21440556040F1EE80079A136804320792BDF80C208B
S2144055701A80B8E507983D4A08960B920668782246
S214405580302104308DF8392043F00203079000277D
S2144055908DF8381002229CE60896002899D08DF89F
S2144055A0375096E798F80020002D7FF4D1AD0120C3
S2144055B02025CDE543F0010398F80020C8E508967D
S2144055C0002840F0938329490B919F0600F1E8821A
S2144055D00798DE06014600F170825D0640F16D8256
S2144055E00431068807910027D80740F1228256EA00
S2144055F0070100F01E8230218DF8392043F0020367
S2144056008DF83810022264E60896002840F06B8336
S21440561017490B91D9E7079908960A688DF84820EC
S2144056204FF000000A468DF8370004320120019002
S214405630079205900DF1480B0293002470E643F064
S214405640400398F8002083E598F800206C2A03BFB2
S21440565098F8012043F0200308F1010843F01003B6
S21440566076E500BF60804000708040004480400087
S2144056703080400007990E680A46002E02F1040268
S214405680FFF60FAE079298F8002061E598F80020E4
S21440569001202B255CE507990896D1F800B04FF01D
S2144056A000028DF837200E1DBBF1000F00F0E5829A
S2144056B0671C00F0C482224600215846019301F040
S2144056C01FF9019B002800F0E582A0EB0B02059233
S2144056D0079602939DF83750002419E698F8002064
S2144056E02A2A08F1010700F0E982A2F130010929CF
S2144056F0B8464FF000043FF62DAD18F8012B04EBEA
S214405700840401EB4404A2F130010929F5D921E5CE
S21440571043F0200398F800201AE50896002840F049
S214405720DB82002A00F0E78001218DF848204FF008
S214405730000201918DF8372005910DF1480B7BE76B
S214405740079A136804320792039A1A60CBE40FAAAA
S21440575004992046FFF74AFC002840F0398110990A
S214405760119A01F1010CCE46FFE51099119A481C9A
S2144057709DF83750002D3FF422AE01320DF137052B
S2144057800121072811921090CAF80050CAF8041058
S21440579040F30881002A40F0BC81099B002B3FF46F
S2144057A01FAE0EAB022208461C931D92CA46014607
S2144057B00AF1080A01300A9B802B3FF419AE059B7C
S2144057C0E41A002C2EDD102CB34D1EDDD6461026D6
S2144057D0069FDDF810A006E0881C0EF1080E19465C
S2144057E0103C102C10DD4B1C1032072B11928EE80B
S2144057F060001093F0DD002A65D1103C102C4FF06D
S21440580001001146CE46EEDCF246224407281192AD
S214405810CAF80050CAF80440109000F385800AF198
S214405820080A01300599CAF800B00A4407281192C0
S214405830CAF80410109040F38280002A40F0188185
S214405840029B1092580735D5089B01995C1A002C8C
S21440585040F3E780CA46102C40F3188210998F4ECA
S214405860069FDDF810B0102506E0881C0AF1080AED
S2144058701946103C102C11DD4B1C1032072B119290
S214405880CAF80060CAF804501093EEDD42BB103CE4
S214405890102C4FF001001146CA46EDDC2244072882
S2144058A01192CAF80060CAF80440109051DD002AF0
S2144058B040F09B81039B089A01998A42ACBF9B1893
S2144058C05B1803934EE00FAA51463846FFF78EFB0F
