S01300004761746F725363726962652E73726563BC
S21440000038984120452D40003D2D4000412D400070
S2144000103D2D40003D2D40003D2D4000000000009D
S2144000200000000000000000000000003D2D4000E1
S2144000303D2D4000000000003D2D40003D2D40007D
S2144000403D2D40003D2D40003D2D40003D2D4000C3
S2144000503D2D40003D2D40003D2D40003D2D4000B3
S2144000603D2D40000000000075274000412840001C
S2144000700D2940003D2D40003D2D40003D2D4000C7
S214400080D9294000A52A40003D2D40003D2D400086
S2144000903D2D40003D2D40003D2D40003D2D400073
S2144000A03D2D40003D2D40003D2D40003D2D400063
S2144000B03D2D40003D2D40003D2D40003D2D400053
S2144000C03D2D40003D2D40003D2D40003D2D400043
S2144000D0000000003D2D4000000000003D2D400087
S2144000E03D2D40003D2D40003D2D40003D2D400023
S2144000F03D2D40003D2D40003D2D40003D2D400013
S2144001003D2D40003D2D40003D2D40003D2D400002
S2144001103D2D40003D2D4000000000000000000046
S2144001203D2D40003D2D4000AD0140003D2D40009E
S2144001303D2D4000000000003D2D40003D2D40007C
S21440014010B5054C237833B9044B13B10448AFF3CC
S21440015000800123237010BD0010402000000000E6
S2144001604CF741000C4B43B10C480D4910B5AFF36A
S21440017000800C48036823B910BD0A48036833B9A9
S2144001807047094B002BF7D0BDE810401847064B88
S214400190002BF5D0184700BF000000004CF7410088
S2144001A0041040204CF7410000000000214B70B482
S2144001B0DB6DDA072AD5204D0022204C2B782048CC
S2144001C093422E781F49204B1CBF2146034686F09B
S2144001D001061E4C1E489FED1F7A2E70216003605C
S2144001E001E02168036833F81230114404321BB230
S2144001F0B2F5806F07EE903AF8EEE77A67EE877AC8
S214400200C1ED007AEDD1144B01221A70094BD3F898
S2144002109C30DB070CD5114B11481C7811491A78D5
S214400220002C18BF0146104882F0010201601A7087
S21440023070BC7047008007401000402000144120EA
S214400240004C4120003C4120002441201C0040201E
S2144002500C004020000100381C10402018004020B0
S214400260002C412000344120140040202DE9F0416C
S214400270202688B00021304B3246684698472F4BA0
S2144002803A202F4C98474FF080652E4B6A46DFF851
S214400290C8E02046C3F88451002183F83A630F270C
S2144002A05D600125DFF8B480CDF80CE0C047264BF2
S2144002B06A46DFF8ACE0294603F1100023F0030657
S2144002C0DFF8A0C018602046E766A666E5601F4EC9
S2144002D02565C3F80CE0DFF890E0C3F81CC0DFF8F3
S2144002E08CC05E605E61C3F808E0C3F818E01B612E
S2144002F0CDF80CC0C047164B0221164ADFF870C036
S21440030003F1100823F00300DFF868E05E605E61EA
S2144003101B61C3F80080C3F808C0C4F8AC70C3F8CB
S21440032018E0C4F8A800DA60E160DA61C4F89050DA
S21440033008B0BDE8F08100BF99594000792C4000D4
S2144003400080074000E100E0201040200004000B41
S214400350401040202440004001280421A5204000B1
S214400360004C4120002441202040004011480120FC
S214400370002C41200034412010B5134B984718B14B
S2144003801248134B9847FEE7124B04469847124BC9
S2144003909847124B984721460220114B98472146D2
S2144003A00220104B984702200F4B98474FF04020B2
S2144003B00E4B98470E4C01220E4B4FF04020E26108
S2144003C098470223E36110BD95174000C0AD40003A
S2144003D0CD524000BD044000F90340006D0240008D
S2144003E0C12C4000F52C4000292D40007D1C4000CB
S2144003F0008007408D1C40002DE9F041284B9CB002
S2144004001620002498474FF04020264B0F2598474B
S21440041001264FF4E0684FF0020E80270EAA694688
S2144004204FF04020204BCDF800E001940294039416
S2144004301094129413941494CDF81880059604954D
S2144004400E9511950F9798474FF0200C4FF0100ED1
S21440045015AA07A94FF04020144BCDF824C0CDF87C
S2144004602CE0CDF83480079608940A940C9615959F
S21440047016971794189519941A941B9498474FF00A
S21440048040200B4B98474FF040200A4B98474FF080
S214400490FF314FF04020084B98471CB0BDE8F08134
S2144004A0792C4000691C4000111D40009D1C4000F6
S2144004B0951C4000851C4000851D400070B54FF6D9
S2144004C0FF710020404CA047404B0020984748F61C
S2144004D00413984203D03E483E4B9847FEE7082117
S2144004E00420A047472105203B4DA0473B48A8474E
S2144004F043210520A04709210420A04703210C20C2
S214400500A04703210E20A04700212120A04700211C
S2144005103D20A04701216220A04701216820A04736
S21440052000217420A04740F204717520A0474FF484
S21440053000417620A0474FF4BB517720A0470521C5
S2144005407420A0472548A84740F605411520A047F7
S21440055000211420A04744F206011620A04742215D
S2144005601920A04708211A20A0474FF402611B20FB
S214400570A0470F211220A0471848A84710212C203A
S214400580A04710212D20A04711215A20A0473321F3
S2144005905A20A0470F214320A047F0214420A047DF
S2144005A00F48A84777215A20A047FF215A20A04746
S2144005B0B9213920A0473A20B921A0472B46084800
S2144005C0BDE87040184700BF1D174000591740004F
S2144005D0E4AD4000CD52400001004020C2DB0300A5
S2144005E0252B4D00F0B40E4C20EAE07021EAE17174
S2144005F0B4F90040944201DC621E12B2094CB4F9D0
S21440060000409C4201DC013C23B2074F074E084D98
S214400610084C388031802A802380F0BC704700BF69
S214400620005441200A54412002544120065441209F
S2144006300454412008544120014BB3F90000704750
S21440064000544120014BB3F9000070470A54412042
S2144006502DE9F047BDF82070002A47D01D46002BF4
S21440066044D0002A14464FDB002D41DB324BB3F911
S214400670006086423ADB314BB3F900E08E4535DB0D
S2144006802F4B0219B3F900309A422FDDDFF8BCC079
S21440069001EB050ABCF90090CA4527DD98423DDBD0
S2144006A01FFA80FC494540DB1FFA81F80CF1FF3207
S2144006B008F1FF3322442B4412B21BB2964204DAAE
S2144006C0741C3246A4EB0C0424B29E4505DA0EF1A7
S2144006D001057346A5EB08052DB21A4EB04704FB3C
S2144006E005F13846184BBDE8F0471847BDE8F08797
S2144006F0ABB201315D4219440F4B2DB2B3F90060E5
S21440070009B28642B7DAF1E793B20130002DC3F161
S2144007100004184424B200B2A8DAE9E71FFA83FCC2
S2144007201846A2EB0C0424B2BCE71FFA89F84946E7
S214400730AAEB08052DB2B9E70454412008544120DD
S21440074002544120511B4000D11B4000065441201A
S2144007502DE9F04786B00024284D6FF07F42284EA2
S2144007604FF4A0784FF4F077DFF8B4A002A8254BFA
S21440077004924FF0C649A5F800800594CDF808804D
S21440078037800397984750464FF080411E4B984716
S21440079053234FF080415046A9F800301B4B9847F2
S2144007A024224FF6FF701A4BA9F800209847194BA1
S2144007B09847DFF870902146B5F90020B6F900302A
S2144007C02046C8470220144B98472146204640F210
S2144007D03F1340F2DF122F80A6F80080C847B5F9D5
S2144007E000202146BDF814502046B6F900300B4C88
S2144007F00095A04706B0BDE8F08700BF00544120F2
S2144008000A54412081194000E9244000E524400074
S2144008101D1B4000C9184000791B4000510640008F
S21440082000120E40E505400010B5034B9847034BB9
S214400830BDE81040184700BF51074000410840003F
S2144008402DE9F043574C9FB0DFF8909104F10C052A
S21440085006AB15AF04F1300CEE460CAEDFF88081E7
S21440086094E8070003C31A803C340FCD0FC70FCD62
S2144008700FC79CE807002B680025AEE803003B60E6
S2144008804A278EF80020DFF85CE10FCC0FC60FCC6D
S214400890D4F800C0444CCDF828E00B9509958DF867
S2144008A02C700FC64FF0205101234FF080523F4826
S2144008B086F800C0A0473E4A13203E4B4FF4AF7424
S2144008C009928DF82D50984709A93B4B3B489847CD
S2144008D03B4E7C233A4639493A48B0473A4E2A4638
S2144008E006213848394FB047012201463548B847B7
S2144008F03748C8472A4607213248B0472022014693
S2144009003048B8472A4607212E48B047411C102297
S2144009102C4889B2B8472A4607212A48B047811C46
S2144009204B22284889B2B8472A4607212548B0476F
S214400930C11C8422234889B2B8472A460821214848
S214400940B04706AA01461F48C0472A4609211D4807
S214400950B04715AA01461B48C0472A462E211948CB
S214400960B0476A4601461748C0472A4638211548C8
S214400970B0470CAA01461348C0472A4606211148EC
S214400980B047811C01220F4889B2124EB847124820
S2144009900C4DC84703A92846B047013CFAD11FB0C2
S2144009A0BDE8F083F8AD4000ED24400000140E4052
S2144009B080D1F008792C4000891D4000008001401D
S2144009C0011140006010402005154000C915400048
S2144009D0D828320011164000252B4D00010040203B
S2144009E04D154000801A060070B54FF48055144CE3
S2144009F0002114482A4640F60406A0472A4600210D
S214400A001148A0472A4600211048A0472A46002100
S214400A100F48A0474FF40055324600210D48A047E6
S214400A20324600210C48A0472A4600210B48A047E2
S214400A302A46234600210A48BDE87040184700BFB2
S214400A40995940000014402000244020006C40206B
S214400A50007C402000344020006040200058412068
S214400A600040402059B30268531E994227D04B1C81
S214400A709A4210B401F1FF34436827D903EB84034C
S214400A80B0EE005AF6EE005A07EE901A93ED026A60
S214400A9093ED007AF8EE677AD3ED014A77EE066A70
S214400AA037EE467AE4EEC56A27EE257A87EE266A62
S214400AB076EE277A17EE900A5DF8044B704707EEFD
S214400AC0901AF8EE677A17EE900A704703EB8103A8
S214400AD093ED007A53ED017AB4EEE77AF1EE10FA30
S214400AE008D807EE901A5DF8044BF8EE677A17EED2
S214400AF0900A704707EE904AF8EE677ADAE700BF4A
S214400B00F8B50121464E20200025B047454B044607
S214400B10012108204FF40077A5606360B047424942
S214400B202B46206000250A460760416000E0526878
S214400B3002EB830201331560226811689942F6D8A9
S214400B4001210820B0474FF480673849002300252C
S214400B50E0600A460760416000E0526802EB8302AC
S214400B6001331560E26811689942F6D801210820E1
S214400B70B0474FF400772E490023002520610A46EF
S214400B800760416000E0526802EB83020133156063
S214400B90226911689942F6D801210820B0474FF4DF
S214400BA0806724490023002560610A46076041604B
S214400BB000E0526802EB83020133156062691168F7
S214400BC09942F6D801210820B0474FF480671A4969
S214400BD000230025A0610A460760416000E0526895
S214400BE002EB830201331560A26911689942F6D878
S214400BF001210820B04711494FF4806600230025A4
S214400C000A46E0610660416000E0526802EB8302FB
S214400C1001331560E26911689942F6D82046F8BD5E
S214400C200D524000CDCC4C3D00D4402000C4402066
S214400C3000BC4020008C402000AC4020009C40205F
S214400C402DE9F04F0F4604469146DFF830842DEDEF
S214400C50048BC56885B0496806686A6808463B687C
S214400C603668C047236900225B681A60002E00F091
S214400C7026824FF0000E22696B68526803EB8E03A3
S214400C800EF1010E92ED007AD3ED007A764577EEBE
S214400C90277AC2ED007AEED1012E00F027824FEA85
S214400CA0860C00214FF0010823694FEA880208F1BC
S214400CB001085B68C64503EB0100134400681860F2
S214400CC020696B6840680B441044D3ED007A90ED81
S214400CD0007A77EE677AC0ED007A20696B684068E4
S214400CE0634402440B4401F1040192ED007AD3EDD3
S214400CF0007A77EE277AC2ED007AD5D1226953681A
S214400D00D3ED007ACDED037A1268002A00F0E18137
S214400D10002202E05B68DDED037A03EB82030132DA
S214400D2093ED007A77EE277AC3ED007A2369196847
S214400D309142EFD86369D4F80C805968A56976B1BA
S214400D406FF04043043133449B007A681A44043BB6
S214400D50126841F8042B1A1DF7D1636959680020C0
S214400D603246BD4BE24608606169BC4F4968DFF8D1
S214400D7010B361449847E269616900235268484667
S214400D804968B847A269E36951685868D8F80420AA
S214400D90D8F80030D847D8F80410484601236A6887
S214400DA0B84746B34FF0000B019523694FEA8B02D4
S214400DB021680BF1010B5B684F681344A84D17443C
S214400DC01868A84B9847019B804689465B68534401
S214400DD00AF1040A1868A34B984702460B46A847F0
S214400DE0A14D02460B4640464946A8479F4B98476A
S214400DF05E453860D9D12368B7EE008ADFF884A212
S214400E005B68DFF8849283ED008A23685D68D5EDE1
S214400E10018AFDEEE87ACDED038A17EE900A0028A7
S214400E20B8BF4042D0478AA3D3E90023C84708B199
S214400E3088EEA88A85ED018A23689DED038A5B6863
S214400E40B7EE009A93ED017AC7EE087AC3ED017AC1
S214400E5023685D68D5ED028A38EE888AFDEEC87A4A
S214400E608DED038A17EE900A0028B8BF4042D0475F
S214400E7077A3D3E90023C847002800F0E68078EE41
S214400E80A88AC8EE887AC5ED027A23685B68F0EED9
S214400E90006AD3ED027A86EE887A67EE877AC3EDEB
S214400EA0027A23685D6895ED039A79EE088AFDEE2E
S214400EB0E87ACDED038A17EE900A0028B8BF404284
S214400EC0D04763A3D3E90023C847002800F0BA8080
S214400ED0B0EE087AC7EE287A67EE897AF0EE086AAE
S214400EE0C5ED037A236886EEA87A5B68D3ED037A6D
S214400EF067EE877AC3ED037A23685D6895ED049ABA
S214400F0078EE898AFDEEE87ACDED038AB0EE688AFF
S214400F1017EE900A0028B8BF4042D0474CA3D3E90A
S214400F200023C847002840F08680F7EE007AF1EEAE
S214400F30006AC5ED047A236886EEA87A5B68D3ED2E
S214400F40047A67EE877AC3ED047A236893E8420012
S214400F50052952D94FF00C0805272DE0F7EE007A08
S214400F60C6ED007AF91E9DED037A01372368C6EE7A
S214400F70877A5B682B4493ED007A67EE277AC3ED59
S214400F80007A206894ED017A466806EB080308F17B
S214400F90040853ED017AF4EEC77AF1EE10FA06D55E
S214400FA093ED007AF4EEC77AF1EE10FA6ED401684B
S214400FB0B94222D99DED038ABD002E44D6ED007A73
S214400FC037EE888AFDEEC87A8DED038A17EE900AD2
S214400FD00028B8BF4042D0471DA3D3E90023C847E6
S214400FE007EE907AF8EE676A0028B7D086EE887AE1
S214400FF0D6ED007A67EE277AB2E7304604F108036A
S21440100003AA1B4DA847A16820681A4B9847F7EEDD
S214401010007A07EE100AB4EEE77AF1EE10FA45D4FD
S214401020DFED156AC6EE877A17EE900A05B0BDEC7E
S214401030048BBDE8F08FB1EE007AC7EE287A67EEF3
S214401040897A74E7F7EE007A48E7F0EE497A1AE7CD
S214401050F168E388B5F8E43E153440007D3640003C
S214401060D5484000914B4000D14840006D5140006B
S21440107099344000650A400000A4B546F940400057
S214401080C53F40006D4B400059514000A160194B90
S21440109098479FED197A06EE900AC7EE267A17EE25
S2144010A0900A05B0BDEC048BBDE8F08FDFED137AF7
S2144010B017EE900A05B0BDEC048BBDE8F08F2269B0
S2144010C05368D3ED007ACDED037A12683AB1B44650
S2144010D01EE66369D4F80C805968A56930E66369F2
S2144010E0B446D4F80C805968A56938E64FF0040C2D
S2144010F004E600BF650A400000A4B54600000000B4
S2144011002DE9F04F044600258361072089B0A16091
S21440111025618A46227317464E4E8146B04703469F
S2144011204FF00208079503955046236003A94A4DA1
S21440113005938DF81C70CDF81080CDF81890A84710
S214401140002840F0D781D4F800A007469AF8060059
S21440115000EB40004000B0470397606003A905904D
S214401160069707978DF80C90CDF810809AF80630C1
S214401170227B03EB4303A0688DF81C205B0006939C
S214401180A847002840F0B68194E888001978587837
S214401190DA7841EA0020997893F805E041EA02219E
S2144011A01A799B7981EA4001387842EA0E2203EBAD
S2144011B0430C82EA4102294943EA00234FEA4C0C99
S2144011C083EA42030CF1070CDA011FFA8CFC3ED48A
S2144011D0ACF1080EBEF1010F13DD0120DFF87C8074
S2144011E039183A5C0230497880B242EA012282EAF3
S2144011F0430313F0807F83EA080218BF1346704506
S214401200EEDB674417F8087C87EA4307F90103D505
S21440121087F4000787F01B07022000234FEA1C2EA6
S2144012200322049002A8039303A90793237B059007
S214401230A0688DF80CC08DF80DE006928DF81C3035
S214401240A84768B16FF0030009B0BDE8F08F4B4087
S214401250BEE700BFF5524000691E40001B008000FC
S2144012609DF80A5027F07F439DF808209DF8091006
S21440127042EA054242EA01229A42E3D123689F7934
S2144012800193002F00F03981A7F1080A7B1ED4F89D
S2144012900480CAF3C40A432B03460AF1010A4FEA04
S2144012A0CA02D2B240F2168108F135098646014696
S2144012B0002019F818CC19F830BC0133054609F15E
S2144012C030096BF3070019F842BC6CF3070519F8B0
S2144012D05ACC6BF30F2519F83CBC6CF30F2019F869
S2144012E054CC6BF3174519F836BC6CF3174019F815
S2144012F04ECC6BF31F6501F07F3B6CF31F6005F02F
S2144013007F3C694000F07F3580EA0E00DC440EF0FA
S2144013107F3E5FFA83FB01F0803100F08030AE44C0
S214401320DA458CEA01018EEA000EC1D8CEF30723D7
S214401330CEF3074CC1F30725C1F3074073449742E9
S214401340634403EB1E630B442B44034403EB1163DB
S214401350DBB20AD002EB4201013208EB4101D2B2C5
S214401360497997420B44DBB2F4D85800B047019B0A
S21440137060619B79002B3FF465AF60684FF0000CCE
S21440138001270CEB4C0E00254FEA4E0E00EB0E01EB
S2144013904B79A3B13B4618B262690978013302F82B
S2144013A01010DBB26169DA1B01EB4001D2B24D701E
S2144013B0606800EB0E014E799642ECD81F46013528
S2144013C00B79EDB2AB42E3D20CF1010C23685FFA25
S2144013D08CFC99798C45D4D300293FF433AFA1F1E6
S2144013E0080C4B1ECCF3C40C432B0CF1010C4FEAFB
S2144013F0CC05EDB270D94FF0000800F135074246F3
S2144014004646002317F8189C17F830AC08F1010838
S2144014109E4630376AF3070317F842AC69F3070E67
S21440142017F85A9C6AF30F2E69F30F2317F83CAC53
S21440143017F8549C6AF3174E17F836AC69F31743FF
S21440144017F84E9C6AF31F6E06F07F3A69F31F63E7
S2144014508EEA06060EF07F3903F07F3B5FFA88FE81
S214401460534002F07F3206F08036D14403F080339A
S2144014705A44F44589EA060682EA0302C1D8C2F312
S2144014800723C2F3074CC6F3072EC6F30747134499
S214401490A942634403EB1263334473443B4403EB77
S2144014A01663DBB21AD1002B3FF4CCAE61690A78E2
S2144014B0092A24D000220132D2B29A423FF4C2AE68
S2144014C011F8020F0928F6D152B20020227709B04F
S2144014D0BDE8F08F02463DE700231D4605EB45027A
S2144014E0013500EB4202EDB25279A9421344DBB219
S2144014F0F4D8D8E74FF0FF30A6E6384636E7002265
S214401500E3E700BF03689B79EBB110B444682278E8
S2144015108A4213D05A1EA31DD2B2013202EB4202B7
S21440152004EB420203E013F8060B884206D09342CF
S2144015301C46F8D100205DF8044B7047B4F8010013
S2144015405DF8044B70471846704700BF30B500231F
S21440155087B004680225019303920A0A0493059310
S2144015600295A3798DF804108DF80520BBB1446828
S214401570B4F801208A4220D05A1EA31DD2B20132AE
S21440158002EB420204EB420203E0B4F801508D4203
S21440159013D09A421C4603F10603F6D10023047B7F
S2144015A001A9084A806804938DF81440904700309B
S2144015B018BF0120404207B030BDE3780133DBB2AC
S2144015C0EDE700BF1D1F4000F0B589B00C46002374
S2144015D0090A077B02268DF807200DF10705012230
S2144015E0039307938DF80D1003A9084B80688DF878
S2144015F00C408DF81C70049605950692984700306E
S21440160018BF0120404209B0F0BD00BF1D1F40007A
S214401610F0B5036887B09B79002B33D045682A78AD
S214401620052A2AD05A1EAB1DD2B2013202EB420224
S21440163005EB420203E013F8064B052C1DD09342FF
S2144016401D46F8D100231F460022047B02260925AA
S21440165001920592039101A90B4A80688DF80470A7
S2144016608DF80530029604958DF81440904700306A
S21440167018BF0120404207B0F0BDB5F80130DFB2D8
S2144016801B0AE1E71F46DFE7691E40002DE9F041EF
S21440169090B9002A90460DDD0C468F18084E094D2D
S2144016A02146013430682B689847BC42F8D1404602
S2144016B0BDE8F0818046FAE74FF0FF38F7E700BF15
S2144016C00878412000784120013802281ED82DE9AC
S2144016D0F0411546BAB10E460C46DFF83C800D4F39
S2144016E001E0013D0DD014F8011BD8F800003B681E
S2144016F098470028A4EB0600F3DA4FF0FF30BDE829
S214401700F081BDE8F0811046BDE8F0814FF0FF3033
S214401710704700BF047841200878412070B50B46DA
S21440172086B00E0A1A228DF801300125022401A93E
S214401730074B8DF8040007488DF800600295CDF8F9
S2144017400CD004948DF81420984706B070BD00BFA6
S2144017501D1F40000080014030B587B01A22012589
S21440176002248DF8040001A9084B09480295CDF8DB
S2144017700CD004948DF8142098479DF800009DF8EE
S214401780013043EA002007B030BD00BF691E40006C
S2144017900080014010B54FF0005184B0154C212018
S2144017A0A0474FF000512020A0474FF080517A20AC
S2144017B0A0474FF000611620A0474FF08051782098
S2144017C0A0474FF0C0510A20A0474FF0805112204A
S2144017D0A047002208491320084C094B01918DF878
S2144017E00D200294984701A9064B0748984704B035
S2144017F010BD00BF2126400080D1F008801A0600A8
S214401800792C4000891D4000008001402DE9F04FB2
S214401810013A0C46013B294F85B002440546234415
S214401820DFF8A08038464FF08041C2F3072AD6B290
S214401830ADF80A20ADF80E304FEA152BADF808503B
S214401840EDB2ADF80C404FF0C644C0472A221C4BC0
S214401850384622804FF000094FF080410193984768
S214401860A4F800B0384625804FF08041A4F800A088
S2144018702680C047A4F8009038464FF080419DF837
S2144018800DB09DF80CA09DF80F609DF80E50C04717
S2144018902B2238464FF080412280019B984738469D
S2144018A04FF08041A4F800B0A4F800A02680258020
S2144018B0C047A4F8009005B0BDE8F08F00120E4077
S2144018C0E5244000E924400008B54FF08041044B31
S2144018D0044898474FF0C64329221A8008BD00BFE7
S2144018E0E924400000120E402DE9F047214D82B019
S2144018F00646214FADF8041028464FF080414FF081
S214401900C644ADF80660B8472A234FEA1629F6B211
S214401910284623804FF00008DFF860A04FF0804153
S214401920D047A4F80090284626804FF08041A4F87F
S21440193000902680B847A4F8008028464FF08041A3
S2144019409DF805909DF80460B8472B2328464FF035
S21440195080412380D04728464FF08041A4F800902D
S2144019602680A4F800902680B847A4F8008002B0ED
S214401970BDE8F08700120E40E9244000E524400010
S2144019802DE9F043564B85B0804609209847002203
S21440199003215448544B4FF0C6449847534A0321BA
S2144019A05048534B01259847524A03214D48524BC5
S2144019B09847524A524B03214A489847514E4FF057
S2144019C080415148B0474FF080414F482580B0474E
S2144019D011234FF080414C482380B047D3234FF02B
S2144019E0804149482380494FB847238849F2884177
S2144019F0ADF8043023889BB2ADF80630DAB22388BF
S214401A009BB2ADF80830DBB220881B0280B243EAB6
S214401A100243C2B2ADF80A00208813438B4203D07B
S214401A20284605B0BDE8F0834FF036094FF08041B8
S214401A3035484825B047A4F800904FF080413248DA
S214401A40B84725804FF080412F48B047CF234FF00E
S214401A5080412D482380B84704234FF080412A48D0
S214401A602380B0473A234FF0804127482380B84729
S214401A7005234FF0804124482380B04712234FF07F
S214401A80804121482380B04729234FF080411E489B
S214401A902380B047A4F800904FF080411A48B847DA
S214401AA0002125800846B8F80430B8F80020184CC5
S214401AB0A047B8F808000022164B60F30F0203F563
S214401AC0207160F31F4243F8042B8B42FBD1002168
S214401AD00025114B08469847284605B0BDE8F083D8
S214401AE0792C400000000840491C400003040A0AC4
S214401AF0511C400004000A00591C400003100F000F
S214401B00611C4000E924400000120E40E5244000DD
S214401B100D18400000DC4020E918400070B5094D23
S214401B2006464FF08041084B28464FF0C64498473B
S214401B30512328464FF080412380044B9847268007
S214401B4070BD00BF00120E40E9244000E52440006E
S214401B50F0B4054F054E064D064C388031802A803D
S214401B602380F0BC704700BF84DE402086DE4020E5
S214401B7080DE402082DE402038B500F00103002B96
S214401B800BBF48240824C82188210BBFE822A8227E
S214401B9068232823850701D50C46134610F0040F0A
S214401BA04FF0804107484FF0C645074A08BF1C46DD
S214401BB0904736234FF0804102482B80034B98478E
S214401BC02C8038BD00120E40E9244000E524400039
S214401BD0154B164A2DE9F04106461B8812880F46DB
S214401BE0134801331349013200880988121A124DEE
S214401BF05B1A92B29BB2A847104B4FF080411048F8
S214401C0098474FF0C6452C232B805FB17C1EDFF8EB
S214401C1034800B4F013C4FF080413846C047631C30
S214401C202E80F7D1BDE8F08182DE402080DE402065
S214401C3084DE402086DE40200D184000E924400027
S214401C4000120E40E524400009014250704700BF94
S214401C5000EB01114A60704700EB01118A60704743
S214401C6000EB0111CA60704700234FF40042026047
S214401C704360036143618361C3617047012303602E
S214401C80704700BF02230360704700BF4FF4807365
S214401C90036070474FF4007303607047F0B4002948
S214401CA02FD00469CF688E6991E828002B438D6851
S214401CB023434C692B430D6921043B4301F47F01C8
S214401CC0334343EA05630B430361EAB154695368FF
S214401CD091692343466914680B43916804F01F04D6
S214401CE015693343D26809022343120401F4706134
S214401CF043EA057302F470220B431343F0BC43617E
S214401D0070470161002AE1D14261F0BC704700BFD4
S214401D10F0B400292FD08469CF688E6991E82800F6
S214401D202B438D6823434C692B430D6921043B4369
S214401D3001F47F01334343EA05630B438361EAB111
S214401D405469536891692343C66914680B43916884
S214401D5004F01F0415693343D26809022343120472
S214401D6001F4706143EA057302F470220B43134397
S214401D70F0BCC36170478161002AE1D1C261F0BC0A
S214401D80704700BF81647047F0B44FF0FF33802641
S214401D9004220825202483622F4B076A0660066BC0
S214401DA00560046002604A689A424DD82B4C0B6826
S214401DB0A2422ED92A4C2B491444A1FB0321A4004D
S214401DC0890BB3FBF4F30339033BFF2940D90022C8
S214401DD000E03CB101324908062A8CBF00240124A9
S214401DE0FF29F6D8FF2B07D914B905E0062A03D8F1
S214401DF05B080132FF2BF9D81B02002412049BB269
S214401E0002F4E022C9B213430B4303612046F0BC00
S214401E1070475200B3FBF2F3033B0022FF2B02D87D
S214401E2008E0062A03D85B080132FF2BF9D81204D3
S214401E3002F4E02219020024DBB289B213430B43BA
S214401E4003612046F0BC704701242046F0BC704732
S214401E5001240022C6E700BF801A060000DC050009
S214401E600012FD3FF1197605CA68002A53D070B4B7
S214401E7000268C6846604B680D7C1B022D0403F4DC
S214401E80407305F4FE0543F480532B434360C6601D
S214401E904B689BB91D460123C5600360036AD9059C
S214401EA01FD4012A20D047F230519E0712D4036A2D
S214401EB0DD0516D40139F8D109202AE0012B0D782A
S214401EC0E9DD4E78022B46EA0525E4D08B7843EAD6
S214401ED00525E0E7036B013A04F8013B036AD905A0
S214401EE0DFD5052070BC704702219D0747F230526F
S214401EF0016007D4036ADE05F3D4013ADCD09D07BF
S214401F000160F7D5036B2370036ADB07FCD5036AD1
S214401F10002070BC70470120704700BF0346C86869
S214401F20002834D070B400268C685E600A7C4D6809
S214401F3012042D0202F4FE0205F440752A435A604C
S214401F40DE604A688AB91546DD601A6AD60509D445
S214401F505507FAD514F8012B01385A6313D01A6A7C
S214401F60D605F5D5052070BC7047012A0D78EBDD07
S214401F704E78022A46EA0525E6D08A7842EA0525C2
S214401F80E2E7510705D41A6AD405EBD4F9E70120F5
S214401F90704702221A601A6AD207FCD570BC704796
S214401FA043699B0702D5C1610020704701207047F6
S214401FB04369DB0703D5836900200B707047012017
S214401FC0704700BFF0B50346244C00204FF0880E03
S214401FD0C3F8E44024274FF480764FF40025204C85
S214401FE05860206058629862C3F800E01F601E6028
S214401FF01D6061B308680501AA421CD368084FF605
S214402000FE7600EBC202B2FBF5F2D508681EB0427F
S2144020101DD81204002002F4E0222A431A624D68BA
S2144020208A680F692A43CE6859683A433243114357
S21440203022605960F0BDC0004FF6FE76D20002EB3B
S2144020405002B2FBF0F2D508681EB04201D901201A
S214402050F0BD586840F400205860DAE70041535518
S21440206088DE402040230360704700BF1023036093
S214402070704700BF42690346920704D5C1F3080182
S2144020800020D96170470120704700BF4369DB07D5
S21440209005D583690020C3F308030B607047012011
S2144020A0704700BF00EB81115368C86D0B6693689C
S2144020B04B66136823F07F430B671369C3F30B0328
S2144020C04B675369CB67936923F07F43C1F88030F1
S2144020D0D36923F07F43C1F88430D3688B67704759
S2144020E070B51048104DA8473E2100200F4B104CAD
S2144020F09847A0470028FCD00E4B98470E4C0F4BF5
S2144021000F4A9A62A0470028FCD002200D4B984701
S2144021100D4B002098470D4B98472B460148BDE88D
S2144021207040184700A3E111E52E4000F52B400013
S214402130492C4000592C4000692C400000060E40B7
S214402140013F1820712B4000A12B4000FD2D400080
S214402150B04B4FF400422DE9F0475A60BFF35F8F13
S214402160DFF83483AC4FAD4D4046AD4CA84740EA0F
S21440217007011120A047AB48A847AB49AB4E0143E7
S214402180AB48A0474046A84740EA0701A948A047B1
S214402190A948A84740EA0601A848A047A848A84733
S2144021A0A84F40EA0601A848A0476FF06040A847FD
S2144021B0DFF8E88240EA0701A448A0476FF0704085
S2144021C0A84740EA0801A248A0476FF07040A847D9
S2144021D0A049A14E0143A148A0476FF06040A847E0
S2144021E040EA08019E48A0479E48A84740EA0701A3
S2144021F09D48A047736A05209C4A43F4E0237362D7
S2144022009047BFF34F8FBFF36F8FBFF34F8FBFF330
S2144022106F8F4FF00009C6F85092736943F400334D
S2144022207361BFF34F8FBFF36F8F914B9149924AC3
S21440223059605A60BFF34F8FBFF36F8FD6F8903216
S21440224023F00103C6F89032D6F8943223F0010307
S214402250C6F89432BFF34F8FBFF36F8F874C0A2078
S214402260A0470B20A0470C20A0471020A0471120D5
S214402270A0474FF40075824C4FF40003814F4FF453
S214402280001123611026C4F8A0304FF0080E2363D7
S21440229038463D614B46C7F8A0504FF400523D6368
S2144022A06561C4F8A0506566C4F8905065652562BF
S2144022B0C4F88450D4F870C0DFF8E4812CF4007C75
S2144022C0C4F870C0D4F874C02CF4007CC4F874C051
S2144022D0C4F8C050C4F8D450C4F8B0502166C4F80E
S2144022E0901061656162C4F88010D4F870C02CF418
S2144022F0001CC4F870C0D4F874C02CF4001CC4F899
S21440230074C06160D8F8141141EA060C5E49C8F8FA
S21440231014C10E66C1F890604E654E62C1F880608A
S214402320D1F870C0DFF87C814CEA060CC1F870C06A
S214402330D1F874C04CEA060CC1F874C04E604FF039
S2144023406051C4F860E0C4F890E0C4F854E0C4F8C3
S21440235024E0C4F880E0D4F870C02CF0080CC4F830
S21440236070C0D4F874C02CF0080CC4F874C0C4F81C
S21440237004E02666C4F8906066656662C4F88060CD
S214402380D4F870E02EF0100EC4F870E0D4F874E084
S2144023902EF0100EC4F874E06660C0474B463846D0
S2144023A04FF080424FF06051C04738460123FF222D
S2144023B04FF00061C04701233F224FF00061334891
S2144023C0C047204601234FF4C0324FF00061C0475B
S2144023D0384601234FF480724FF00061C0473846BC
S2144023E001234FF400624FF00061C04701234FF4D1
S2144023F000224FF000612648C0474B462A463846E2
S2144024004FF08051C04729463846224BBDE8F0473A
S214402410184700BF50180E4001000001C12440007C
S214402420B5244000FFFF1F000100230601002303E0
S2144024301200400013000020FFFF0300140040205D
S214402440FFFF010001000113150044201600004064
S214402450170000600100250300ED00E01800007042
S21440246019000080FFFF0F001A0010A0A9244000AA
S214402470000C0E400C08005A0C07005A792C4000FD
S214402480000E0E4000120E4000100E4000160E4089
S21440249000140E40E5244000FFFF3F00010000030B
S2144024A000800840ED244000014B5860704700BF54
S2144024B090ED00E0014BD8601961704790ED00E068
S2144024C020280DD94022052302E001331F2B05D0DA
S2144024D090424FEA4202F8D8580070473E20704774
S2144024E0082070470163704741637047B1F1005F51
S2144024F030B43BD031D9B1F1405F1BD0B1F1605F11
S21440250018D0B1F1205F03D0002330BC1846704786
S214402510DD07426448D413F00A0F026648D09C0791
S214402520026248D5C0F88020012342610260184606
S21440253030BC704703F00404DB0742642FD5426684
S214402540002C2FD00265B1F1605F4ED0426301236C
S21440255002610260184630BC7047B1F1805F05D01A
S214402560B1F1C05F02D0B1F1006FCDD1B1F1805F63
S21440257042643CD024D9B1F1C05F42D0B1F1005F93
S21440258005D1016F11430167416F11434167DB0776
S214402590426025D501234266184630BC7047026625
S2144025A0002CCFD14265CEE713F00A0F4266B6D173
S2144025B09C074262B6D41907B6D5C0F88420B3E764
S2144025C0B1F1006FE3D1046FD143056F2C400D4647
S2144025D00C400467416F446F214029404167D6E76D
S2144025E001230266184630BC70470263AFE7016FAE
S2144025F011430167416F446F214021EA0201416760
S214402600C5E7016F046F214021EA02010167416F6F
S21440261011434167BBE700BFC06C7047806C704792
S214402620534B01F0F04203EB5013B2F1005F70B42D
S2144026304FEA43236DD00BD8B2F1805F27D0B2F17A
S214402640C05F52D0B2F1006F38D0002070BC7047E7
S214402650B2F1405F66D0B2F1605F63D0B2F1205F06
S214402660F3D100F01F000122CD0702FA00F25A64AF
S21440267073D55A6611F00A0F6DD01A628C076ED564
S214402680C3F880205A6101201A6070BC704700F081
S2144026901F020120C90700FA02F25A641C6F44EA7E
S2144026A002041C675C6F5D6F04EA050424EA0204BA
S2144026B05C675A6016D55A6670BC704700F01F02B9
S2144026C0012000FA02F25A64D6431D6F1C6F254063
S2144026D035401D675C6F5D6F2C4034405C67CC07AF
S2144026E05A60E8D41A6670BC704700F01F0201209A
S2144026F000FA02F25A641C6F1D6F2C4024EA020452
S2144027001C67CE075C6F44EA02045C675A60E9D5F2
S214402710D1E700F01F02012000FA02F25A641C6F53
S2144027201443EDE700F01F00012201F0605401F071
S21440273004058240C9075A640BD55A66A5B11A6586
S214402740B4F1605F12D05A631A6101201A6070BCFF
S21440275070471A66F2E75A6290E71A668AE70807F1
S21440276090D5C3F884208DE75A65E9E71A63EBE70E
S2144027700707200070B52E4B2E48984705462E4B2F
S2144027802C489847054015D02C4C20680A2819D06C
S21440279020690A281FD0206A0A2825D0206B0A28DC
S2144027A02BD0206C0A2831D0206D0A2837D0206ED6
S2144027B00A2800D070BD616E2942FBD0E36EBDE8AA
S2144027C07040184761680D42E2D0E36898476368F6
S2144027D09D43EFD0DCE761692942DCD0E369984746
S2144027E063699D43E6D0D6E7616A2942D6D0E36A5C
S2144027F09847636A9D43DDD0D0E7616B2942D0D0CD
S214402800E36B9847636B9D43D4D0CAE7616C29421B
S214402810CAD0E36C9847636C9D43CBD0C4E7616DE8
S2144028202942C4D0E36D9847636D9D43C2D0BEE74E
S21440283019264000000E0E401D2640008CDE40202B
S21440284070B52E4B2E48984705462E4B2C48984739
S214402850054015D02C4C20680B2819D020690B2831
S2144028601FD0206A0B2825D0206B0B282BD0206C3D
S2144028700B2831D0206D0B2837D0206E0B2800D087
S21440288070BD616E2942FBD0E36EBDE870401847CC
S21440289061680D42E2D0E368984763689D43EFD095
S2144028A0DCE761692942DCD0E369984763699D4368
S2144028B0E6D0D6E7616A2942D6D0E36A9847636A8B
S2144028C09D43DDD0D0E7616B2942D0D0E36B98477B
S2144028D0636B9D43D4D0CAE7616C2942CAD0E36C8F
S2144028E09847636C9D43CBD0C4E7616D2942C4D002
S2144028F0E36D9847636D9D43C2D0BEE719264000FE
S21440290000100E401D2640008CDE402070B52E4B39
S2144029102E48984705462E4B2C489847054015D0DC
S2144029202C4C20680C2819D020690C281FD0206A0F
S2144029300C2825D0206B0C282BD0206C0C2831D0AE
S214402940206D0C2837D0206E0C2800D070BD616EEC
S2144029502942FBD0E36EBDE87040184761680D42DF
S214402960E2D0E368984763689D43EFD0DCE761694F
S2144029702942DCD0E369984763699D43E6D0D6E7B1
S214402980616A2942D6D0E36A9847636A9D43DDD0A0
S214402990D0E7616B2942D0D0E36B9847636B9D4389
S2144029A0D4D0CAE7616C2942CAD0E36C9847636CBE
S2144029B09D43CBD0C4E7616D2942C4D0E36D9847B0
S2144029C0636D9D43C2D0BEE71926400000120E40FC
S2144029D01D2640008CDE402070B52E4B2E48984772
S2144029E005462E4B2C489847054015D02C4C206861
S2144029F0102819D0206910281FD0206A102825D00A
S214402A00206B10282BD0206C102831D0206D102839
S214402A1037D0206E102800D070BD616E2942FBD0A2
S214402A20E36EBDE87040184761680D42E2D0E36847
S214402A30984763689D43EFD0DCE761692942DCD064
S214402A40E369984763699D43E6D0D6E7616A2942C1
S214402A50D6D0E36A9847636A9D43DDD0D0E7616B82
S214402A602942D0D0E36B9847636B9D43D4D0CAE7E6
S214402A70616C2942CAD0E36C9847636C9D43CBD0C7
S214402A80C4E7616D2942C4D0E36D9847636D9D43AA
S214402A90C2D0BEE71926400000140E401D26400056
S214402AA08CDE402070B52E4B2E48984705462E4B60
S214402AB02C489847054015D02C4C2068112819D032
S214402AC0206911281FD0206A112825D0206B112894
S214402AD02BD0206C112831D0206D112837D0206E95
S214402AE0112800D070BD616E2942FBD0E36EBDE870
S214402AF07040184761680D42E2D0E36898476368C3
S214402B009D43EFD0DCE761692942DCD0E369984712
S214402B1063699D43E6D0D6E7616A2942D6D0E36A28
S214402B209847636A9D43DDD0D0E7616B2942D0D099
S214402B30E36B9847636B9D43D4D0CAE7616C2942E8
S214402B40CAD0E36C9847636C9D43CBD0C4E7616DB5
S214402B502942C4D0E36D9847636D9D43C2D0BEE71B
S214402B601926400000160E401D2640008CDE4020F0
S214402B70023802280DD8084B53F8200007490B6B43
S214402B800A4623F4407303430B63936E1B07FCD53E
S214402B9070470020F2E700BF58AE400000060E40E7
S214402BA013490B6B23F07003184308638B6E1807AA
S214402BB007D44FF4006301E0013B16D08A6E12073B
S214402BC0FAD50B490B6B23F0030343F002030B6368
S214402BD08B6E180707D44FF4006301E0013B04D026
S214402BE08A6E1207FAD5002070470120704700BF52
S214402BF000060E40A0B90E4B09020E4889B21A468E
S214402C0030B40D4C1D6A2C40204301431962936E2C
S214402C10DB07FCD5116A094B0B43136230BC704787
S214402C200349074A086A074B024013430B62704742
S214402C3000060E4001003700FCFFC8FF00003701C9
S214402C40FCFFC8FE02003701024B986E00F480304D
S214402C50704700BF00060E40024B4FF000529A628B
S214402C60704700BF00060E40024B986E00F0020010
S214402C70704700BF00060E403F281AD81F280AD8C3
S214402C8001230E4A03FA00F0916930EA010312D09C
S214402C9010610020704701232038084A03FA00F0EC
S214402CA0D2F8083130EA030305D0C2F8000100200C
S214402CB07047012070470020704700BF00060E4056
S214402CC00B4B4FF4807210B403EB800402FA00F012
S214402CD0226C22F47F621143216402E09A6E024223
S214402CE002D11A680242F9D15DF8044B704700BF22
S214402CF000060E400B4B4FF4807210B403EB80047A
S214402D0002FA00F0226C22F007021143216402E02E
S214402D109A6E024202D11A680242F9D15DF8044B1B
S214402D20704700BF00060E404FF48073024A03FA15
S214402D3000F01060704700BF00060E40FEE700BF80
S214402D40FEE700BF20492148814210B582B009D035
S214402D501F4B984206D2C2431E4C1A4422F003022E
S214402D600432A0471C481D4B984207D2C24300215C
S214402D701B4C1A4422F003020432A047194B1A4A4D
S214402D8023F07F039360EFF31083B3FA83F35B097A
S214402D90019372B6BFF35F8F144A00231449137031
S214402DA001980B6843F470030B60BFF34F8FBFF37B
S214402DB06F8F20B101231370BFF35F8F62B60D4B48
S214402DC098470D4B9847FEE74CF7410000004020DF
S214402DD0D8094020655840000010402038784120EF
S214402DE0995940000000400000ED00E020004020DF
S214402DF088ED00E07D5240007D314000324A136B42
S214402E0003F00303012B3CD025D3022B0DD02F48D3
S214402E1003682D490A6B02F07002702A2BD00A6BA9
S214402E20C2F30212D34003607047136A2748DB019F
S214402E303AD5274B036024490A6B02F00302022A64
S214402E40E7D18A6A896AC2F30A42C9B202FB0333EF
S214402E50B3FBF1F3DDE71F4B1B495B690A6B13F0CD
S214402E60800F1A4802F0700214BF4FF400434FF42C
S214402E70FA43702AD3D1184AA2FB03235B080360A7
S214402E807047136AD9010CD4104814490160126A7D
S214402E9002F07002102A11D00D4B202A18BF0B46A4
S214402EA0B7E70B4B0948B4E70C4B0360126A02F0D5
S214402EB07002102A04D0202ABBD0BCE7084BA8E7F3
S214402EC0074B0360B7E700BF00060E4024004020D3
S214402ED0001BB70010180E40ABAAAAAA00093D0076
S214402EE000127A00164B984217D9164B984210D9C2
S214402EF0154B98421AD9154B984213D9144B984201
S214402F0018D9144B9842144B94BF144A144A1A606A
S214402F107047114B134A1A6070470F4B4FF0806250
S214402F201A6070470C4B104A1A6070470A4B0F4A9B
S214402F301A607047084B4FF004221A60704700BF73
S214402F40BFF35E017FE7BD023FDB1C04FFCE7B057F
S214402F50BFC2DA067FB63908000C0E4000050004F2
S214402F600006000400010004000300040002000400
S214402F700D4A0E49136843B11844814202DB106083
S214402F80184670474FF0FF30704710B4084C204446
S214402F901460814204DB106020465DF8044B7047A5
S214402FA04FF0FF30F9E700BFFCDE4020FCFF452035
S214402FB0389A41204FF0FF30704700BF4FF400531F
S214402FC000204B60704700BF0120704700207047CC
S214402FD02D4B0022F0B5984283B004460D46019230
S214402FE03AD02A4B98423FD0294B984244D0294B5E
S214402FF0984215D0284B984224D0284B9C4217D054
S214403000274B9C4201D003B0F0BD01AF254E394658
S2144030102046B0470028FAD1019B2B7003B0F0BD84
S214403020214E29462046B0470028FAD103B0F0BDCD
S21440303001AF1C4E39462046B0470028FAD1019BC6
S2144030402B70EBE701AF174E39462046B0470028B5
S214403050FAD1019B2B70E1E7134E074629463846C6
S214403060B0470028FAD1C8E70F4E074629463846EB
S214403070B0470028FAD1C0E70B4E074629463846E7
S214403080B0470028FAD1BBE700080E40000A0E40C1
S214403090001A0E40001C0E400040024000800240D5
S2144030A000C002408D204000B11F40002A4B98428D
S2144030B070B50D461CD0294B984222D0284B9842DA
S2144030C028D0284B98422ED0274B984207D0274BE3
S2144030D0984238D0264B98422DD0002070BD0446EA
S2144030E0244E29462046B0470028FAD1012070BD1C
S2144030F00446214E29462046B0470028FAD10120F2
S21440310070BD04461C4E29462046B0470028FAD1DA
S214403110012070BD0446184E29462046B047002878
S214403120FAD1012070BD0446134E29462046B047CA
S2144031300028FAD1DAE704460E4E29462046B04724
S2144031400028FAD1D2E704460A4E29462046B04720
S2144031500028FAD1CAE700BF00080E40000A0E4019
S214403160001A0E40001C0E40004002400080024004
S21440317000C0024075204000A11F40002DE9F04FDE
S2144031807A4B00257A4F4FF480647A4EDFF8688297
S214403190DFF86892DFF868A22DED028B91B09FEDC4
S2144031A0768A9847754B9847754B9847754B98471E
S2144031B00E20B847DFF84CE2DFF84CC24FF4E1315E
S2144031C0C0224FF400630E20CEF800C0C8F800605E
S2144031D0A846C9F800A00A910B920C930D950E953F
S2144031E0B847694A0AA93046684B9847DFF81C92A8
S2144031F03046674B98473046664B9847D9F800307C
S2144032002946654F9868B847D9F800302946634E36
S2144032105868B847624B9847624B83469847624B1C
S21440322098470746614B98473A46034629462846FC
S21440323000955F4DA847012108205E4DB0470346E4
S21440324001210820DFF8C89183E83000B0475A4B88
S21440325082465A485A4ECAF80040CAF80430594B7B
S2144032609847594D2146594C0AA8594B9847594BAF
S2144032701B78002BFBD0C8F30903326805EB8301AB
S21440328002F5806752F8040B974241F8040BF9D1D7
S21440329003F5807350484749C3F3090303F5806735
S2144032A0C3F30902F0EC017A013305EB8202BB421C
S2144032B092ED007A67EE277AE1EC017AF0D34FF48C
S2144032C08062DAF804103B48444B9847DBF81820F5
S2144032D00023384952680AA8414FB8470AAA5146BF
S2144032E0404B5846404F9847404BC9F80000D9F8E5
S2144032F00000984702460B4605A83D49B847314B63
S21440330005A93C489847D9F8003002220023306887
S21440331002F1020E2768111D1844D0ED007A67EEC0
S214403320887AFDEEE77ACDED037ABDF80C0027F8F3
S2144033301300276837F8130080B2B8520832D4F822
S21440334000C03CF81370BFB22CF80E70276837F8F0
S2144033501300043380B2B3F5806F7852D7D11D4B3B
S2144033604FF0000208F580781A7080E7E1204000B0
S214403370792C40000080024000FEFF46512140006C
S214403380290840007903400080D1F008C51F40005E
S214403390652040006D204000715A40000D524000AC
S2144033A0010B4000E9094000390640004506400050
S2144033B05106400000E0402000F0402000C04000A1
S2144033C01C004020CD524000000041201400402008
S2144033D0753540001C10402000B040004534400089
S2144033E07D364000410C4000115C4000914B40004F
S2144033F010C0400014C040000878412004784120A6
S214403400AD30400000784120D12F400028004020B9
S2144034100C78412030B495080BD00B462C46013C26
S214403420186058609860D86003F11003F7D101EB3C
S214403430051112F0030203D0013A41F8040BFBD108
S21440344030BC70472DE9F0035FEA920918D0044675
S2144034500B464D46D4F80080D4F804C0A768E6680A
S214403460013DC3F80080C3F804C09F60DE6004F1ED
S214403470100403F11003EDD14FEA091948444944BA
S21440348012F0030205D050F8043B013A41F8043BE1
S214403490F9D1BDE8F00370472DE9F00301F1FF3C98
S2144034A05FEA9C0900F10407D0ED007A5CD03C4608
S2144034B04E4604200025D4ED006AF4EEE76AF1EEAD
S2144034C010FA94ED017A48BFF0EE667AF4EEC77AC9
S2144034D0A0F1030848BF4546F1EE10FAD4ED026A63
S2144034E0C8BFF0EE477AF4EEE67AA0F10208C8BF0D
S2144034F04546F1EE10FA94ED037AC8BFF0EE667AD0
S214403500F4EEC77A00F1FF38C8BF4546F1EE10FA30
S214403510C8BF0546C8BFF0EE477A013E04F1100426
S21440352000F10400C7D107EB09171CF0030C1DD0AF
S214403530CCEB01010020B7EC017AB4EEE77AF1EE6D
S21440354010FA48BFF0EE477A01EB000400F10100A4
S21440355048BF25466045B0EE677AECD182ED007AEA
S2144035601D60BDE8F00370474D46DEE7B0EE677A73
S214403570F4E700BF4B08802B10B40182038047D08D
S21440358017D9B3F5007F3DD029D9B3F5806F20D049
S214403590B3F5006F13D1214C2149224A4FF46E6394
S2144035A08460416042618381002040B25DF8044BF4
S2144035B07047202B1CD0402B06D0102B1DD0FF2050
S2144035C040B25DF8044B7047174C1849184A3823E8
S2144035D0E6E7184C1849194A4FF4E163E0E7B3F5BB
S2144035E0807FECD1164C1749174A4FF4DC73D7E767
S2144035F0164C1749174A3023D2E7174C1749184A32
S2144036001423CDE7174C1849184A4FF4E073C7E720
S214403610174C1849184AD023C2E700BF28AE4100CD
S21440362020C040009021410020014100E8CB4100ED
S214403630D8F04100108B4100106A410090014100D3
S21440364068ED410090614100E8CD4100C8994100D5
S214403650108A4100200041002099410090694100B5
S21440366048994100E8D54100289E410068D941006C
S214403670D8F24100289A410068E941002DE9F04718
S214403680078A82467F08914607808846002B5ED18F
S2144036901A46012300F016FC98ED007AD8ED017A20
S2144036A037EE077A77EEA77AB6EE004A77EE276AC5
S2144036B077EE677A66EE846A67EE847ABAF80040F8
S2144036C0DAF81400C9ED006AC9ED017A013C083009
S2144036D009F1080208EBC40508F108032946D3EDB2
S2144036E0007AD1ED004AD5ED015AD0ED006A93ED4F
S2144036F0015A90ED017A34EEE76A74EEA74A66EE18
S214403700863A75EE857A27EE066A75EE655A66EE57
S214403710A76A73EEA44A67EE277A36EE256A77EEF6
S214403720A47A76EE666A67EE847A66EE846A013C30
S214403730C2ED007AC2ED016AA5F1080503F108035F
S21440374000F1080002F10802C8D1BDE8F08791ED0B
S214403750007AD1ED017AB6EE004A77EE276A77EE28
S214403760677A66EE846A67EE847A16EE901A456942
S214403770013F164646F8081B083508EBC70CC2ED55
S214403780017A08F10804B7B36246D4ED007AD2ED68
S214403790004ADCED015AD5ED006A94ED015A95EDEC
S2144037A0017A37EEE46A74EEA74A66EE863A75EE1C
S2144037B0857A27EE066A75EE655A66EEA76A74EE57
S2144037C0E34A27EE277A36EE256A74EEC77A76EE17
S2144037D0666A67EE847A66EE846A013FC6ED007AD2
S2144037E0C6ED016AACF1080C04F1080405F10805C1
S2144037F006F10806C8D1504649461A46BDE8F04785
S214403800012300F05FBB00BF2DE9F04F2DED088B84
S214403810B0F800B0804608464FEA5B018D0000EBEA
S2144038208B095FEADB0B00EB050681B04D44D8F808
S214403830042000F0BA8000F1100A06F1100C09F1DD
S214403840100E05F1100704464B461AED040A1CED0F
S214403850047A1EED041A57ED042A95ED012A95EDDB
S214403860024AD5ED034AD4ED010AD4ED033AD3ED2E
S214403870011A93ED025AD6ED016AD6ED027A94ED1E
S214403880023AD3ED035A96ED036A70EE01BA36EE6D
S214403890248A30EEA1BA33EEA5AA77EE229A36EE07
S2144038A0829A77EE848A73EE05AA4AED04BA84EDCE
S2144038B001BAC4ED02AA84ED03AA4CED049A86ED43
S2144038C0038A86ED019AC6ED028A30EE411A72EE00
S2144038D0C72A32EE662A92ED007AD2ED016A70EE81
S2144038E0E11A21EE078A61EEA60A21EE261A61EE5B
S2144038F0871A22EEA60A62EE266A22EE072A22EEF1
S214403900877A78EE200A36EE877A71EEC11A30EE64
S214403910422A4EED040AC3ED011A07ED042A85ED4E
S214403920017A73EEE55A92ED037A74EE676A34EEE6
S214403930C66AD2ED027A33EE455A65EE874A65EEA0
S214403940273A65EEA75A25EE075A26EE874A26EE10
S214403950077A26EE276A66EEA77A73EEA44A75EED5
S214403960C55A34EE466A77EE277ABBF1010BC3EDB3
S214403970024A0AF1100AC3ED035A04F1100485ED19
S214403980026AC5ED037A0CF1100C06F110060EF132
S214403990100E07F1100702F1100203F1100305F1B3
S2144039A010057FF452AFD8F804208CB2214602238B
S2144039B000F04CFCD8F8042048462146022301B0CB
S2144039C0BDEC088BBDE8F04F00F040BC2DE9F04F51
S2144039D02DED0A8B028891B05208930009910A9007
S2144039E01944099804911944D0ED004A91ED005AC3
S2144039F0049C34EE854A94ED007A05911944D1ED45
S214403A00007A34EE073A37EE833A059D94ED016A24
S214403A1013EE104AD0ED013AD5ED015A34EEC55AB0
S214403A20DDF828B0049DD1ED016A0891DBF804105A
S214403A3040F8084B73EEA54A95ED013A73EEE55A09
S214403A4076EE053ADDF820B034EE833A9BED012A57
S214403A5034EE474A73EEE63A74EEC64A75EEC72A27
S214403A6035EE466A33EE023A069034EE674A13EE77
S214403A70900A059C0295CDF80CB0ABF10405DDF834
S214403A8024B0520874EEE64A0F9276EE866A0794A1
S214403A9032EEA76A8BED013A029C35EE877A44F8FF
S214403AA0080B14EE100A0294049C77EE677A84EDB5
S214403AB0016A079C01F1080B44F8080B16EE900AC1
S214403AC0CDF838B001F1100B1831CDF82CB00C9170
S214403AD0DDF814B00399023A0794089CCBED014AEE
S214403AE0520841F8080B2B440391C4ED017A0D921D
S214403AF000F04381DC46DDF824B0DDF82CA00BF165
S214403B001004DDF814B0DDF830E00BF11000DDF8FD
S214403B1010B0ACF10406ABF10409D84693468DE8E4
S214403B202008029A574650ED020A54ED028A92ED5A
S214403B30006A78EEA09AD1ED006A79EE867A76EE43
S214403B40A77A10ED014AD1ED013A92ED012A14ED23
S214403B50018A44ED027A38EE047AD2ED017AD1ED4C
S214403B60015A77EE277A77EEA57A44ED017A009DE2
S214403B7018ED010AD5ED004A1CED015A30EE249AA4
S214403B80D3ED001A79EE057A71EEA77A55ED015A13
S214403B9016ED013A53ED012A19ED011A48ED017A66
S214403BA071EE257A56ED01AA13ED01AA77EEAAAA80
S214403BB078EEE08A38EE448A3AEE8A4A32EE28BAFE
S214403BC009ED014A78EE46AA30EE640A1AED024A3A
S214403BD05AED014A3BEE63BA7AEEA6AA75EE610A42
S214403BE031EE651A30EE43AA6BEE04CA6AEEA4BA0A
S214403BF03AEE22AA70EE815A7CEEABBA2AEE24CA7E
S214403C002BEE24BA2AEE04AA6AEE84AA25EE844A4B
S214403C1065EEA45A1BEE90BA75EE8A5A3CEE444ABC
S214403C207AEECBAA39EE455A77EEC37A42F808BB0D
S214403C3042ED01AA0CED014A46ED015AD7ED005A75
S214403C4079EEC69A75EE611A77EEE27A97ED015AEA
S214403C5037EE427A79EEE64A37EE637A61EEE59AD7
S214403C6027EE854A24EEA5AA27EE059A64EE854AF5
S214403C7027EE257A39EEC44A67EEA55A61EE851AD4
S214403C8037EE647A14EE10BA3AEE099A71EEE51AF7
S214403C9000ED029A00ED017A45F808B9C5ED011A23
S214403CA038EE066A38EEC22A32EEC33ADEED007AC5
S214403CB09EED017A73EE823A76EE666A33EE403ACD
S214403CC070EEC15A63EEA74A26EE876A23EE074A8D
S214403CD025EEA75A74EE864A63EE873A66EEA76AE2
S214403CE034EE455A25EE877A63EE277A009514EE31
S214403CF0905A76EEE36A15EE10BA37EE273A41F858
S214403D00085B019D41ED016A013D43F808B904F1A5
S214403D100804A8F10808A9F108090AF1080AACF154
S214403D20080CA6F1080607F1100700F108000EF18E
S214403D30180E83ED013A01957FF4F5AEDDF834B008
S214403D400B9806994FEACB0300EB0B1019440BEB8C
S214403D504B020E9C029DDDF81CB00B90069103981A
S214403D600C991C441D449B44184401EBC2010E941C
S214403D700295CDF81CB003900C91069A079B92EDE5
S214403D80003AD3ED005A029C33EE254A94ED007A71
S214403D90039D74EE073AD5ED007A77EEA33A94ED9C
S214403DA0016AD5ED016AD2ED014A93ED015AC2EDA2
S214403DB0003A74EE853A94ED012AD5ED012A33EEA9
S214403DC0822A34EEC55A73EE655A72EE224A35EEB2
S214403DD0473AC2ED014A36EE252ADDF838B033EED2
S214403DE0273ADBED004ADBED012A32EE662A62EE28
S214403DF0241A22EE222A63EE244A63EE222A74EE26
S214403E00C24A71EEA22AC4ED014AC4ED002A34EE3D
S214403E10474A73EEC63A0B9834EE674A90ED003A3E
S214403E20D0ED014A73EEE63A64EE032A23EE833A77
S214403E3063EEA43A64EE244A72EEA33A73EE644A02
S214403E40C3ED003AC3ED014A35EE077A35EEC66A51
S214403E500C9977EE677AD1ED015A91ED007A76EEBD
S214403E60866A26EE876A27EE877A66EEA56A67EE4A
S214403E70A57A77EE666A76EE277AC5ED016A0F9ADE
S214403E80C5ED007A0A9D94B209986A6821460423D3
S214403E9000F0DCF9049821466A68042300F0D6F95D
S214403EA0059821466A68042300F0D0F908986A68A5
S214403EB02146042311B0BDEC0A8BBDE8F04F00F05C
S214403EC0C5B900BF2DE9F047012A07469046894606
S214403ED09A4604885AD0B4F5807F52D017D9B4F5A4
S214403EE0806F1BD062D9B4F5006F4AD0B4F5805FBE
S214403EF005D1484621467A68012300F0A7F9BAF171
S214403F00000F12D1B8F1010F17D0BDE8F087202C72
S214403F1037D04FD9402CECD0802CF0D1384649468B
S214403F20FFF772FCBAF1000FECD04846B989BA6880
S214403F3000F02AF9B8F1010FE7D107EE104AF8EE83
S214403F40477AB7EE007AC7EE277A002CDDD009F123
S214403F50080309F10401002213ED027A27EE277ABE
S214403F6003ED027A91ED007A27EE677A17EE100A93
S214403F700132944203F1080341F8080BECD8BDE83F
S214403F80F08738464946FFF721FDB8E7ACB101F166
S214403F900C05002655ED027AF1EE677A0136B442FA
S214403FA045ED027A05F10805F4D894E7B4F5007FAC
S214403FB09FD0A4E7102CB1D0A1E7B4F5807F8ED86F
S214403FC0A5E700BF5FEA930CF0B470D0674616468C
S214403FD00D46044694ED007AD5ED006A94ED016AEC
S214403FE0D5ED017A27EE264A26EE275A66EE265A61
S214403FF034EE454A94ED026AD5ED036A67EE274AE9
S21440400094ED037AD5ED027A94ED045A66EE273A9B
S21440401074EEA54A26EE266AD5ED045A67EE266A61
S21440402086ED004A67EE277A94ED054A73EEE66A17
S214404030C6ED014A77EE867AD5ED054AC6ED026AA8
S214404040C6ED037A94ED067A95ED066AD4ED076AD6
S214404050D5ED077A24EE253A67EE063A24EE244A52
S21440406026EE866A65EE244A66EEA76A65EE255A0F
S21440407067EE277A74EE834A75EEC45A73EEE66AA4
S21440408077EE867A013FC6ED045AC6ED054AC6ED80
S214404090066AC6ED077A04F1200405F1200506F10C
S2144040A0200697D14FEA4C1420442144224413F072
S2144040B003031FD090ED007A91ED006AD0ED016ABF
S2144040C0D1ED017A67EE065A26EE866A66EEA76A54
S2144040D067EE277A75EEE66A77EE867A013BC2EDA2
S2144040E0006AC2ED017A00F1080001F1080102F110
S2144040F00802DFD1F0BC70475FEA930C2DE9F0016F
S21440410031D0674615460C460646B046D4ED007A92
S21440411098ED007A27EE277A96ED025AD6ED015AA8
S21440412096ED036AD4ED026AD4ED017A85ED007A05
S21440413094ED037A65EE266A65EEA77A26EE077A50
S214404140013FC5ED026A85ED037AC5ED017A06F1B9
S214404150100604F1100405F11005D6D14FEA0C14F0
S21440416020442144224413F0030309D0B0EC017AE2
S214404170F1EC017A67EE277A013BE2EC017AF5D161
S214404180BDE8F001704700BF4B1C012B98BF70473D
S2144041902DE9F003911C9B08B1F80480B1F8029019
S2144041A00A8831F802CC8044814402448444D9F8D9
S2144041B00070D8F800601568DCF80040C9F8006068
S2144041C0C8F80070CCF800501460D9F80470D8F8DD
S2144041D004605568DCF80440C9F80460C8F8047008
S2144041E0CCF8045054600831013B7FF4D5AFBDE8AD
S2144041F0F00370474B1C012B98BF70472DE9F00326
S214404200911C9B08B1F80480B1F802900A8831F8F6
S21440421002CC00EB580800EB590900EB520200EBC9
S2144042205C0CD9F80070D8F800601568DCF80040DF
S214404230C9F80060C8F80070CCF800501460083127
S214404240013B7FF4DFAFBDE8F00370472DE9F00F88
S2144042502DED108BDFEDB7AAA6B0239004308B4629
S214404260249206938A4625904FEADA01CC004A000B
S2144042700794239E1346079F0B440892324606EB4C
S214404280C3044FEA01191B011B913A4438464D01BD
S2144042904FF0000825990393043410444FEACA03AC
S2144042A0CDF80480CDF810A0CDF80890CDF814B025
S2144042B0029E039F064402EB050C174400EB050ADA
S2144042C0D6ED009ADCED006A97ED007A9AED009AFA
S2144042D092ED00AA54ED010A11ED015AD0ED007A94
S2144042E035EE290A7AEE261A37EE892A70EE873A94
S2144042F070EE025A31EEA36A75EE864A35EEC66A0D
S21440430041ED014A86ED006A029E099726446719E8
S214404310D2ED018A97ED003AD6ED002A94ED001AC8
S21440432038EEE26A3AEE66AA70EEC70A71EE436A63
S214404330DDF80C9001EB050B894491ED007ADBED3E
S214404340004A99ED008AD0ED015A36EE264A76EEBE
S214404350666A3AEE606A7AEE200A31EE031A35EE65
S214404360695A37EE243A78EEA22A37EE647A24EE7B
S2144043702A4A75EE884A26EE2A6A75EEC85A77EEBD
S214404380C97A66EEAA6A60EEAA0A30EE422A71EE52
S214404390E33A72EE811A72EEC12A33EE241A33EEF5
S2144043A0643A75EE844A75EEC45A35EE064A35EEE2
S2144043B0465A37EE266A37EE667A77EEA06A77EE8A
S2144043C0E07A31EE21AA72EE229A33EE639A74EEC8
S2144043D0248A71EE611A72EE622A73EE233A35EE43
S2144043E0258A36EE660A77EE670A74EE644A75EEFC
S2144043F0655A76EE266A77EE277ADDF80480CDF8A1
S21440440028C0DDF810C081ED00AAE044CBED001ACC
S214404410CDF80480C0ED009ACAED002A80ED019ADE
S214404420C9ED003AC2ED008ADDF82480DDF828C0E8
S214404430C8ED004A8CED008A44ED015A82ED010A2F
S214404440C7ED006AC6ED000A019F059EC4ED007ADE
S214404450BE42194418441A441C443FF629AF1B98E0
S214404460DDF810A00728DDF80890B34640F2258214
S2144044700699089A069D01EB4106069C511C354458
S21440448001EB4001844606982C44DDF81880204411
S2144044901B9A8044079F4FEAC8080A44CDF880809C
S2144044A0DDF88C8094440C37F600E400C0001F967C
S2144044B02294219008EBC10108EBCC0C08EBC20219
S2144044C00698B844069C209F249EC0003E44240183
S2144044D0043104321C901D942198CDF860801396C8
S2144044E0DDF89080199117922499229A249C249E54
S2144044F01F9FED00804411440CF1040C2C443E44B4
S214404500CDF85080CDF858C0159112941E9510964F
S214404510DDF89080DDF870C024981D99239AE04419
S21440452008440C320124CDF83C8011901A920E9427
S21440453002E000BFF304353F119F1098D7ED005AB4
S214404540CDED015AD0ED005A1298CDED025AD0ED7D
S214404550005A1598CDED035AD0ED005A1498CDED7B
S214404560045AD0ED005A1398CDED055AD0ED005AB6
S2144045701098CDED065AD0ED015A1298CDED095A55
S214404580D0ED015A0F9E159896ED006A96ED017A89
S214404590D7ED017ACDED0A5AD0ED015A8DED077A66
S2144045A0CDED087ACDED0B5AB0EE46DA1498139955
S2144045B0169D1A9ADDF83880D0ED01FA17A8D1ED8D
S2144045C001DA13C802EB090C01EB090600EB0907F8
S2144045D054ED019A50ED015A1CED01AA55ED016AC1
S2144045E012ED016A17ED015A11ED011A16ED01BAE6
S2144045F07AEE260A7BEE057A36EE299A71EE253A51
S21440460039EE20EA73EEA71A3EEE217A02ED017AE1
S21440461097ED007AD1ED008A90ED003A96ED008A4B
S2144046203BEE45BA78EE474A78EEC32A31EE651A35
S21440463094ED002A95ED000AD2ED005A9CED005A02
S21440464032EEE44A72EEA42A71EE0B4A38EE077A4E
S2144046507AEE666A36EE696A38EE833A75EE829A84
S21440466024EE2A4A64EEAA4A75EEC25A35EE002A6D
S21440467073EEE73A73EE077A33EE473A39EE827ACC
S21440468079EEC29A35EE842A75EEC45A36EEA44ABE
S21440469076EEE46A77EE67EA35EE405A32EE440A42
S2144046A032EE042A35EEE64A75EEA66ADDED0A5A83
S2144046B025EEAEFADDED035A3EEE61EA65EEAEEA71
S2144046C039EE609ACDED00EA65EE8EEA79EE03BAF1
S2144046D0CDED0CEADDED0A5A31EE4B1ADDED01EA7E
S2144046E039EEE3CA62EEAA2A21EE2A1A6EEEABEA49
S2144046F025EE8EEADDED085A75EE224A39EE439AEB
S21440470035EE625A79EEA39A76EE012ACDED0DEAA1
S21440471065EE8CCADDED01EA65EEABBADDED055A15
S21440472072EEA40A36EE416A72EEE42A25EE89BAA3
S2144047302EEE8CCA2FEEA9AADDED07EA65EEA99A01
S214404740DDED065A76EE054A2EEE808A25EEA21A52
S2144047506DEE208A6DEE821A6EEEA00A25EE822A53
S214404760DDED04EADDED0B5A2EEEA43A65EE843A12
S21440477036EE456A65EEA44A2EEE844ADDED095AC9
S214404780DDED02EA77EE277A9DED0C7A2EEE865A1C
S21440479037EE0FFA25EE866A9DED0D7A65EEA65A3F
S2144047A02FEE899A6EEEA66A2DEE000ADDED00EA3F
S2144047B06DEEA22A3EEECEEA77EE2CCA7CEE6BBABF
S2144047C03BEE0AAA39EEC99A38EE888A70EE600A3D
S2144047D071EE211A72EE622A73EE233A74EE644A40
S2144047E075EE255A76EEC66AD044C345C2ED007AC9
S2144047F004ED01FA84ED00EA1A444CED01CACCED12
S21440480000BA1C4405ED01AA85ED009A01ED018A27
S214404810C1ED000A1D4447ED011AC7ED002A1944B0
S21440482040ED013AC0ED004A184446ED015AC6ED47
S214404830006A3FF6C7AE0E980F991C9A119C1D9EB3
S214404840109FDDF87C8011443444474401300E907C
S214404850DDF848C01E98229A219E0F911194159912
S214404860149C1097DDF88080139F84441144344490
S21440487047441998179ACDF848C01591DDF868C096
S214404880189914941397169C0E9E1B9F0CF1080CB7
S2144048900830083108320834BE42CDF868C0199056
S2144048A01891179216947FF447AEDDF87080B246A2
S2144048B01FFA88F8CDF81880D6E426B0BDEC108BE9
S2144048C0BDE8F00F704700BF81F0004102E000BF36
S2144048D083F0004330B54FEA41044FEA430594EA7B
S2144048E0050F08BF90EA020F1FBF54EA000C55EAB6
S2144048F0020C7FEA645C7FEA655C00F0E2804FEA87
S2144049005454D4EB5555B8BF6D420CDD2C4480EA68
S214404910020281EA030382EA000083EA010180EA98
S214404920020281EA0303362D88BF30BD11F0004FE6
S2144049304FEA01314FF4801C4CEA113102D040421C
S21440494061EB410113F0004F4FEA03334CEA133357
S21440495002D0524263EB430394EA050F00F0A7806F
S214404960A4F10104D5F1200E0DDB02FA0EFC22FA6A
S21440497005F2801841F1000103FA0EF2801843FA5E
S21440498005F359410EE0A5F120050EF1200E012A4F
S21440499003FA0EFC28BF4CF0020C43FA05F3C0188D
S2144049A051EBE37101F0004507D54FF0000EDCF106
S2144049B0000C7EEB00006EEB0101B1F5801F1BD3AF
S2144049C0B1F5001F0CD349085FEA30004FEA3C0CB3
S2144049D004F101044FEA445212F5800F80F09A80A9
S2144049E0BCF1004F08BF5FEA500C50F1000041EBAD
S2144049F0045141EA050130BD5FEA4C0C404141EBB1
S214404A00010111F4801FA4F10104E9D191F0000FD7
S214404A1004BF01460020B1FA81F308BF2033A3F15A
S214404A200B03B3F120020CDA0C3208DD02F1140C51
S214404A30C2F10C0201FA0CF021FA02F10CE002F18C
S214404A401402D8BFC2F1200C01FA02F120FA0CFC85
S214404A50DCBF41EA0C019040E41AA2BF01EB0451CE
S214404A60294330BD6FEA04041F3C1CDA0C340EDCCC
S214404A7004F11404C4F1200220FA04F001FA02F30F
S214404A8040EA030021FA04F345EA030130BDC4F1CD
S214404A900C04C4F1200220FA02F001FA04F340EAC2
S214404AA00300294630BD21FA04F0294630BD94F073
S214404AB0000F83F4801306BF81F480110134013D5A
S214404AC04EE77FEA645C18BF7FEA655C29D094EACB
S214404AD0050F08BF90EA020F05D054EA000C04BF49
S214404AE01946104630BD91EA030F1EBF0021002034
S214404AF030BD5FEA545C05D14000494128BF41F0D3
S214404B00004130BD14F580043CBF01F5801130BD36
S214404B1001F0004545F0FE4141F470014FF00000C1
S214404B2030BD7FEA645C1ABF194610467FEA655C72
S214404B301CBF0B46024650EA013406BF52EA033514
S214404B4091EA030F41F4002130BD00BF90F0000F02
S214404B5004BF0021704730B54FF4806404F132043E
S214404B604FF000054FF0000150E700BF90F0000FF7
S214404B7004BF0021704730B54FF4806404F132041E
S214404B8010F0004548BF40424FF000013EE700BFEE
S214404B9042004FEAE2014FEA31014FEA02701FBF7E
S214404BA012F07F4393F07F4F81F06051704792F050
S214404BB0000F14BF93F07F4F704730B54FF46074CA
S214404BC001F0004521F0004120E700BF50EA010215
S214404BD008BF704730B54FF000050AE050EA0102C2
S214404BE008BF704730B511F0004502D5404261EB32
S214404BF041014FF4806404F132045FEA915C3FF473
S214404C00DCAE4FF003025FEADC0C18BF03325FEA0B
S214404C10DC0C18BF033202EBDC02C2F1200300FAC0
S214404C2003FC20FA02F001FA03FE40EA0E0021FAE5
S214404C3002F11444C1E600BF70B54FF0FF0C4CF4CF
S214404C40E06C1CEA11541DBF1CEA135594EA0C0F85
S214404C5095EA0C0F00F0DEF82C4481EA030621EAC0
S214404C604C5123EA4C5350EA013518BF52EA0335FB
S214404C7041F4801143F4801338D0A0FB02CE4FF0AD
S214404C800005E1FB02E506F00042E0FB03E54FF0DD
S214404C900006E1FB03569CF0000F18BF4EF0010ED5
S214404CA0A4F1FF04B6F5007F64F5407404D25FEAD1
S214404CB04E0E6D4146EB060642EAC62141EA555184
S214404CC04FEAC52040EA5E504FEACE2EB4F1FD0CC6
S214404CD088BFBCF5E06F1ED8BEF1004F08BF5FEA44
S214404CE0500E50F1000041EB045170BD06F00046F6
S214404CF046EA010140EA020081EA0301B4EB5C04A3
S214404D00C2BFD4EB0C0541EA045170BD41F480119A
S214404D104FF0000E013C00F3AB8014F1360FDEBFBF
S214404D20002001F0004170BDC4F10004203C35DA9B
S214404D300C341BDC04F11404C4F1200500FA05F31E
S214404D4020FA04F001FA05F240EA020001F00042BF
S214404D5021F0004110EBD37021FA04F642EB060135
S214404D605EEA430E08BF20EAD37070BDC4F10C045F
S214404D70C4F1200500FA04F320FA05F001FA04F223
S214404D8040EA020001F0004110EBD37041F100010F
S214404D905EEA430E08BF20EAD37070BDC4F120051A
S214404DA000FA05F24EEA020E20FA04F301FA05F282
S214404DB043EA020321FA04F001F0004121FA04F22A
S214404DC020EA020000EBD3705EEA430E08BF20EAFA
S214404DD0D37070BD94F0000F0FD101F00046400034
S214404DE041EB010111F4801F08BF013CF7D041EAB6
S214404DF0060195F0000F18BF704703F000465200BA
S214404E0043EB030313F4801F08BF013DF7D043EA8A
S214404E100603704794EA0C0F0CEA135518BF95EA40
S214404E200C0F0CD050EA410618BF52EA4306D1D1C7
S214404E3081EA030101F000414FF0000070BD50EAE6
S214404E40410606BF1046194652EA430619D094EA70
S214404E500C0F02D150EA013613D195EA0C0F05D15A
S214404E6052EA03361CBF104619460AD181EA0301AE
S214404E7001F0004141F0FE4141F470014FF0000066
S214404E8070BD41F0FE4141F4780170BD70B54FF001
S214404E90FF0C4CF4E06C1CEA11541DBF1CEA135581
S214404EA094EA0C0F95EA0C0F00F0A7F8A4EB050463
S214404EB081EA030E52EA03354FEA013100F088805A
S214404EC04FEA03334FF0805545EA131343EA126323
S214404ED04FEA022245EA111545EA10654FEA0026D8
S214404EE00EF000419D4208BF964244F1FD0404F591
S214404EF0407402D25B084FEA3202B61A65EB0305ED
S214404F005B084FEA32024FF480104FF4002CB6EBA9
S214404F10020E75EB030E22BFB61A754640EA0C0029
S214404F205B084FEA3202B6EB020E75EB030E22BF69
S214404F30B61A754640EA5C005B084FEA3202B6EBAA
S214404F40020E75EB030E22BFB61A754640EA9C0069
S214404F505B084FEA3202B6EB020E75EB030E22BF39
S214404F60B61A754640EADC0055EA060E18D04FEAF7
S214404F70051545EA16754FEA06164FEAC30343EA97
S214404F8052734FEAC2025FEA1C1CC0D111F4801F64
S214404F900BD141EA00014FF000004FF0004CB6E75D
S214404FA011F4801F04BF01430020B4F1FD0C88BFFC
S214404FB0BCF5E06F3FF6AFAEB5EB030C04BFB6EB07
S214404FC0020C5FEA500C50F1000041EB045170BDFA
S214404FD00EF0004E4EEA113114EB5C04C2BFD4EB27
S214404FE00C0541EA045170BD41F480114FF0000EAB
S214404FF0013C90E645EA060E8DE60CEA135594EA27
S2144050000C0F08BF95EA0C0F3FF43BAF94EA0C0F29
S2144050100AD150EA01347FF434AF95EA0C0F7FF49E
S21440502025AF104619462CE795EA0C0F06D152EAF2
S21440503003353FF4FDAE1046194622E750EA4106D6
S21440504018BF52EA43067FF4C5AE50EA41047FF4E7
S2144050500DAF52EA43057FF4EBAE12E74FF0FF3C4C
S21440506006E000BF4FF0010C02E000BF4FF0010C1D
S2144050704DF804CD4FEA410C7FEA6C5C4FEA430C96
S21440508018BF7FEA6C5C1BD001B050EA410C0CBFE5
S21440509052EA430C91EA030F02BF90EA020F002047
S2144050A0704710F1000F91EA030F58BF994208BFAE
S2144050B090422CBFD8176FEAE37040F0010070476B
S2144050C04FEA410C7FEA6C5C02D150EA013C07D1C2
S2144050D04FEA430C7FEA6C5CD6D152EA033CD3D00D
S2144050E05DF8040B704700BF8446104662468C4607
S2144050F01946634600E000BF01B5FFF7B7FF00283A
S21440510048BF10F1000F01BD4DF808EDFFF7F4FF62
S2144051100CBF012000205DF808FB00BF4DF808EDED
S214405120FFF7EAFF34BF012000205DF808FB00BF10
S2144051304DF808EDFFF7E0FF94BF012000205DF832
S21440514008FB00BF4DF808EDFFF7CEFF94BF0120E7
S21440515000205DF808FB00BF4DF808EDFFF7C4FFE0
S21440516034BF012000205DF808FB00BF4FEA410233
S214405170B2F1E04324BFB3F5001CDCF1FE5C0DD970
S21440518001F0004C4FEAC0024CEA5070B2F1004FBA
S21440519040EB830008BF20F00100704711F0804FBD
S2144051A021D113F13872BCBF01F00040704741F482
S2144051B080114FEA5252C2F11802C2F1200C10FA86
S2144051C00CF320FA02F018BF40F001004FEAC1236A
S2144051D04FEAD32303FA0CFC40EA0C0023FA02F30E
S2144051E04FEA4303CCE77FEA625307D150EA0133E4
S2144051F01EBF4FF0FE4040F44000704701F00040B4
S21440520040F0FE4040F40000704700BF024B0A46A4
S2144052100146186800F002B82800402010B502FB8E
S21440522001F100F06FF80446D8B150F8042C22F093
S2144052300302043A242A18D8132A14D900231B2A16
S2144052400360436016D9242A8360C36011BF00F10F
S21440525010020361436100F118020023136053609B
S2144052609360204610BD0246F7E7002100F094FB0D
S214405270204610BD00F10802EFE700BF70B50F4EA4
S2144052800F4D761BB61018BF002405D0013455F8D4
S214405290043B9847A642F9D10A4E0B4D761B1AF0AE
S2144052A03FFAB61018BF002406D0013455F8043B28
S2144052B09847A642F9D170BD70BD00BF2CF741009B
S2144052C02CF7410034F741002CF741000FB400B5ED
S2144052D0074983B004AB086853F8042B81680193F0
S2144052E001F04AFF03B05DF804EB04B0704700BF1E
S2144052F028004020024B0146186800F003B800BF63
S214405300280040202DE9F04F01F10B06162E83B001
S214405310054640F29E8036F0070600F1BD80B14259
S21440532000F2BA8000F086FBB6F5FC7FC0F09382B0
S214405330730A00F0B880042B00F27981B30903F1B8
S214405340390003F1380EC300BF4F3B44A3F10801B8
S2144053505C68A14206D10CE0002A80F2AA80E4688C
S214405360A14206D0636823F003039A1B0F2AF3DD9D
S21440537070463C69DFF8E4E2744500F0AB81636850
S21440538023F003039A1B0F2A00F39081002AC7F8E4
S21440539014E0C7F810E080F29D80B3F5007F80F0FF
S2144053A06181DB0803F1010C99107A6857F83C805C
S2144053B0C4F8088001238B4007EBCC01134308391F
S2144053C0E1607B6047F83C40C8F80C4082100124FE
S2144053D094409C4200F28B801C4206D120F0030091
S2144053E064001C4200F10400FAD007EBC009CC462A
S2144053F08046DCF80C309C4507D16DE1002A80F2EF
S2144054007B81DB689C4500F06781596821F0030189
S2144054108A1B0F2AF2DDD3F80CC0D3F8088000931D
S2144054209C19284646F0010642F001055E60C8F821
S2144054300CC0CCF808807C613C61C4F80CE0C4F831
S21440544008E065605A5000F0FBFA009B03F1080440
S2144054501EE0102920D800F0EDFA1026182302206E
S214405460794F3B44A3F108025C68944200F03D81CA
S2144054706368E168A66823F00303234428465A6815
S214405480F16042F001028E605A6000F0D9FA0834AA
S214405490204603B0BDE8F08F00240C2320462B6046
S2144054A003B0BDE8F08F40204FF400734FF03F0E3E
S2144054B04AE72344E1685A68A66842F00102F16070
S2144054C028468E605A6000F0BBFA0834204603B087
S2144054D0BDE8F08F234428465A6842F001025A60DD
S2144054E000F0AEFA0834204603B0BDE8F08FBC6842
S2144054F0636823F00308B04504D3A8EB06030F2BDC
S21440550000F38580DFF85891504BD9F800201B688F
S2144055100132334404EB080A00F0558103F580530A
S2144055200F3323F47F6B2BF00F0B5946284600F0C1
S2144055308DFA411C024600F0FC80824500F2F7805E
S214405540434B19685944196000F04D81D9F8000062
S21440555001301BBFA2EB0A0A5144C9F8002019606B
S21440556012F0070100F01581C1F10800C1F5805125
S2144055700244083102EB0B09C9F30B09A1EB0909F8
S214405580494628460193009200F060FA431C9DE885
S2144055900C0000F04381801A484440F0010019682E
S2144055A0BA604944BC425060196017D0B8F10F0F3A
S2144055B040F2FB806068A8F10C0222F0070204EB80
S2144055C0020E00F001004FF0050C10430F2A6060F9
S2144055D0CEF804C0CEF808C000F217811D4BBC6858
S2144055E01A68914288BF19601B4B1A6891426268DC
S2144055F088BF196022F003029642A2EB060301D848
S2144056000F2B04DC284600F01BFA002440E7A219C2
S21440561043F0010346F0010666602846BA605360D0
S21440562000F00EFA0834204603B0BDE8F08F142B85
S21440563071D9542B00F2A380330B03F16F0003F1B2
S2144056406E0EC30080E600BF580440203010412054
S21440565000104120281041202C104120600440209A
S214405660600840205A0A042A5BD9142A00F2AE8009
S21440567002F15C01C9005B3207EB010C7958ACF1D2
S214405680080C8C4500F088804A6822F0030293425A
S21440569073D289688C45F7D1DCF80C207B68E260D1
S2144056A0C4F808C09460CCF80C408FE6A11946F0C8
S2144056B0010C42F00106C4F804C0284679613961FD
S2144056C0C1F80CE0C1F808E04E60E25000F0B8F9CE
S2144056D00834DDE67B6879E608F1010818F0030F28
S2144056E00CF1080C7FF485AE2DE0DC68A34208BFC1
S2144056F002303FF43EAEBBE619441C464A68DB68BF
S21440570054F8086F42F001024A602846F3609E60F3
S21440571000F096F9BCE603F15C0003F15B0EC300B3
S21440572012E69A0902F13901C9003832A4E7BC42B0
S21440573054D0BC68626822F003025DE759F8083925
S214405740994540F0868010F0030F00F1FF30F5D108
S2144057507B6823EA04037B6064009C423FF6C7AE46
S214405760002C3FF4C4AE1C4240467FF43EAE64007C
S2144057701C4200F10400FAD037E68C468CE7B3F5BD
S214405780AA7F15D8F30B03F1780003F1770EC30018
S214405790DAE54FF48051EDE67B689210012101FA7C
S2144057A002F213437B60624679E70123536029E7A0
S2144057B040F25452934222D8B30C03F17D0003F1D9
S2144057C07C0EC300C0E503F1100BAEE6542A29D880
S2144057D01A0B02F16F01C9006E324DE7204B196873
S2144057E059441960B2E6CAF30B0000287FF4AEAE07
S2144057F008EB0B03BA6843F001035360EEE67F20E4
S2144058004FF47E734FF07E0E9EE504F10801284665
S214405810009303F07DFD009B1968DFE601204FF002
S2144058200009BCE6B2F5AA7F05D8DA0B02F178018A
S214405830C900773220E740F254518A4205D89A0C84
S21440584002F17D01C9007C3216E74FF47E717E225C
S21440585012E77B6880E7F00806F1080300E600BF21
S21440586000104120844641EA000313F003036DD143
S214405870403A41D351F8043B40F8043B51F8043BCE
S21440588040F8043B51F8043B40F8043B51F8043BD5
S21440589040F8043B51F8043B40F8043B51F8043BC5
S2144058A040F8043B51F8043B40F8043B51F8043BB5
S2144058B040F8043B51F8043B40F8043B51F8043BA5
S2144058C040F8043B51F8043B40F8043B51F8043B95
