:020000040040BA
:10000000E02C4020AD1D4000A91D4000A91D40006E
:10001000A91D4000A91D4000A91D400000000000CE
:10002000000000000000000000000000A91D4000CA
:10003000A91D400000000000A91D4000A91D4000AE
:10004000A91D4000A91D4000A91D4000A91D400098
:10005000A91D4000A91D4000A91D4000A91D400088
:10006000A91D400000000000D11B4000E51B40001E
:10007000F91B4000A91D4000A91D4000A91D40001A
:100080000D1C4000211C4000A91D4000A91D40007E
:10009000A91D4000A91D4000A91D4000A91D400048
:1000A000A91D4000A91D4000A91D4000A91D400038
:1000B000A91D4000A91D4000A91D4000A91D400028
:1000C000A91D4000A91D4000A91D4000A91D400018
:1000D00000000000A91D400000000000A91D400014
:1000E000A91D4000A91D4000A91D4000A91D4000F8
:1000F000A91D4000A91D4000A91D4000A91D4000E8
:10010000A91D4000A91D4000A91D4000A91D4000D7
:10011000A91D4000A91D40000000000000000000D3
:10012000A91D4000A91D4000A91D4000A91D4000B7
:10013000A91D400000000000A91D4000A91D4000AD
:1001400010B5054C237833B9044B13B10448AFF311
:1001500000800123237010BD3C09402000000000F6
:10016000F8AC42000C4B43B10C480D4910B5AFF34D
:1001700000800C48036823B910BD0A48036833B9EE
:100180007047094B002BF7D0BDE810401847064BCD
:10019000002BF5D0184700BF00000000F8AC42006B
:1001A00040094020F8AC42000000000010B420EAF2
:1001B000E07021EAE1710C4CB4F90040944201DC9A
:1001C000621E12B2094CB4F900409C4201DC013CB1
:1001D00023B2074C20800748018007490A80074A5C
:1001E00013805DF8044B70478C0C4020960C402027
:1001F000900C4020940C40208E0C4020920C40200B
:10020000014BB3F9000070478C0C4020014BB3F94F
:1002100000007047960C4020002A5CD0F8B51C46C0
:100220001546002B48D0002A47DB002C4CDB2A4B1C
:10023000B3F90060B0423FDC284BB3F90070B9421B
:100240003ADC274BB3F9003042199A4234DD254A93
:10025000B2F9002001EB040E96452DDD984203DA39
:100260000544ED1A2DB21846914203DA0C44A41A43
:1002700024B211461FFA80FC0CEB0502013A12B2BF
:100280001FFA81FE0EEB0403013B1BB2964204DA17
:10029000751CA5EB0C052DB232469F4204DA7C1C7E
:1002A000A4EB0E0424B23B460F4EB04704FB05F10D
:1002B000BDF818000D4B9847F8BD93B25D422DB2C2
:1002C0000130184400B2B0E7A3B25C4224B201315D
:1002D000194409B2ABE770478E0C4020920C4020C5
:1002E000900C4020940C4020ED124000ED13400093
:1002F0002DE9F04F83B0BDF93040BDF93450BDF960
:100300003870002D68D088461E46002F64D0554BAB
:10031000B3F90030B3425FDB5349B1F900E0A645C1
:100320005ADB5249B1F9001006EB050C8C4553DD40
:10033000DFF850C1BCF900C004EB0709E1454BDD13
:100340008E420CDAB6B21FFA81F9A6EB090A5544BF
:100350002DB2C844A8EB06080FFA88F80E4664458B
:100360000ADAA4B21FFA8CF1A4EB01094F443FB2A0
:100370000A44121B12B264461FFA86FA0AEB050CF5
:100380000CF1FF3C0FFA8CFC1FFA84F909EB070112
:10039000013909B2634504DA5D1CA5EB0A052DB2EB
:1003A0009C468E4505DA0EF10107A7EB09073FB21F
:1003B00071460379032B0FD8DFE803F002202011E8
:1003C000A1EB0903ACEB0A02018900911BB212B246
:1003D00021463046264CA04703B0BDE8F08F254BA0
:1003E0001D68002DF8D0ACEB0A03A1EB090212B294
:1003F00000921BB222463146A847EDE7B0F900A0B3
:10040000836803EB480B002A03DD4FEA4A0302FB33
:1004100003BB6046184B9847554502D1B8F1000F11
:1004200015D0002FD8DD4FEA4A0A4F443FB2DFF81B
:100430004C90DFF84C8021463046C847013424B246
:1004400029465846C047D344BC42F4D1C4E72146AC
:1004500030460A4B984707FB05F15846084B98472A
:10046000BAE700BF8E0C4020920C4020900C402038
:100470001902400058094020D9124000C51240001E
:10048000A1134000940C402010B50446114B98472E
:1004900014F0040F14D14FF4F0720F4B1A804FF484
:1004A000A0720E4B1A800D4B1B88013B0A4A128822
:1004B000013A1BB212B200210846094CA04710BDF8
:1004C0004FF4A072044B1A804FF4F072034B1A8061
:1004D000E9E700BF151340008C0C4020960C40202B
:1004E000AD01400038B50F4CB4F9004084420EDC39
:1004F0000D4BB3F90030834209DB0C4BB3F90030EC
:100500008B4204DC0A4BB3F900308B4200DA38BD71
:1005100014460B460246074DA8472046064B98470F
:10052000F5E700BF900C40208E0C4020940C40203A
:10053000920C4020ED124000611340002DE9F04183
:1005400086B0214D4FF4A0722A80204E4FF4F073F4
:100550003380029203936FF07F4304930024059449
:1005600002A81B4B9847DFF888804FF08041404637
:10057000184B98474FF0C64753233B804FF08041BC
:100580004046154B984724233B804FF6FF70134B92
:100590009847134B9847B6F90030B5F9002021462B
:1005A0002046104FB84702200F4B9847B6F900304D
:1005B000B5F90020BDF814100091214620460B4CDF
:1005C000A04706B0BDE8F0818C0C4020960C40207E
:1005D00039114000F5194000F1194000A9124000FE
:1005E000A9104000AD0140008904400019024000FC
:1005F00000120E402DE9F04F85B004468846914622
:100600009A46BDF83810BDF83C3002934FF21E03F5
:10061000994208D09AF809309AF808200091494682
:100620004046254DA8479AF8003013B105B0BDE803
:10063000F08F9AF80830DA0813F0070F18BF01326C
:100640009AF809309AF80A70E71B17FB03F717FBB3
:1006500002F7DAF8042012FA87F7013B09F10102E8
:1006600052FA83F39BB20393DFF850B01DE06400AD
:10067000E4B20135EBB29E420ED905EB080000B2A0
:1006800015F0070F08BF17F8014B14F0800FEED0DC
:10069000029A4946D847EAE709F101091FFA89F3A6
:1006A0000FFA83F9039A9A42C0D09AF80860002E94
:1006B000F2D000252C46E0E719024000E504400096
:1006C000F0B50F7A91F809E00FFA8EF500210126B6
:1006D0008C4605E075442DB2614610F8014F54B1C7
:1006E00004780A2CF6D00D2CF7D0394409B28E428A
:1006F000B8BF0E46F1E716801D80F0BD2DE9F04F22
:1007000087B00646039190461F46BDF84090BDF85D
:1007100044A09DF848409DF84C30029305AB0DF184
:1007200016023946474DA84714F0020F1BD0BDF9F9
:100730001430002BB8BF0133A8EB63080FFA88F818
:1007400014F0100F19D0BDF91630002BB8BF0133CB
:10075000039AA2EB63031BB203933378002B6DD093
:10076000DFF8E4B067E014F0040FE9D0BDF814300E
:10077000A8EB03080FFA88F8E2E714F0200FECD09A
:10078000BDF81630039AD31A1BB20393E5E701357F
:10079000029A022A14D0029A012A24D0039C4B46C2
:1007A000A9461D462CE015F8012F002AF0D02A7822
:1007B0000A2AECD00D2AF6D03A7A13441BB2F2E79B
:1007C000BDF91620002AB8BF0132039901EB62047B
:1007D0001A46002BB8BF5A1CA4EB620424B24B4645
:1007E000A9461D460CE0BDF81640039A1444E41ACD
:1007F00024B24B46A9461D4602E016F8013F7BB1E4
:1008000030780A280CD00D28F7D0CDF804A0009538
:100810003B4642462146D8473B7A1C4424B2ECE78B
:100820002B464D4699467B7A013398440FFA88F857
:100830002B781BB12E4635460023B8E707B0BDE83C
:10084000F08F00BFC1064000F50540002DE9F04FD4
:1008500083B083468A460193164C174B174D002AE6
:1008600008BF1D4604F184074FF6FF76DFF8549069
:10087000DFF8548003E004340135BC4216D0B4F9EB
:100880000000ABEB0000B4F90230AAEB030303FB5A
:1008900003F300FB0030C847C047094B9847B042FC
:1008A000E9D22B78019A13700646E4E703B0BDE85D
:1008B000F08F00BF180040209C004020C000402066
:1008C000152C4000E92540000D21400008B5024BE1
:1008D0009847024B984708BD3D0540005D09400020
:1008E00070B586B0054603A91248134B9847BDF86A
:1008F0000E40C4F58054114B984704FB00F31B0BCA
:100900002B80BDF81040C4F580540D4B984704FB74
:1009100000F31B0B6B809DF812309B002B714FF482
:10092000A074044E074D69463046A847013CFAD1F1
:1009300006B070BD980C4020050F40000102400039
:100940000D024000B90E400008B50248024B98471E
:1009500008BD00BF980C4020950E40002DE9F043E3
:100960009FB0554C1BAB94E8070003C31A8012AD2F
:1009700004F10C060FCE0FC50FCE0FC533682B60E8
:100980000FAB04F1300207CA03C31A7006AD3C3442
:100990000FCC0FC50FCC0FC523682B700025039516
:1009A0000595464B04934A278DF8147001234FF0A8
:1009B00080524FF020514248424CA047424B039393
:1009C0008DF815501320414B9847414E03A93046EE
:1009D000404B9847404C7C233A46314620463F4E98
:1009E000B0472A46062120463D4EB0470122014627
:1009F00020463C4FB8473C48DFF8F890C8472A46A5
:100A000007212046B047202201462046B8472A4603
:100A100007212046B047411C102289B22046B84722
:100A20002A4607212046B047811C4B2289B2204626
:100A3000B8472A4607212046B047C11C842289B204
:100A40002046B8472A4608212046B0471BAA01463F
:100A50002046DFF8A480C0472A4609212046B04737
:100A600012AA01462046C0472A462E212046B047FA
:100A70000FAA01462046C0472A4638212046B047E3
:100A800006AA01462046C0472A4606212046B0470E
:100A9000811C012289B22046B8471448C8474FF448
:100AA000A0740D4E124D69463046A847013CFAD15C
:100AB0001FB0BDE8F08300BFA8414000801A0600C7
:100AC00000140E40E91A400080D1F008551D400086
:100AD0000080014031154000980C4020FD0A400084
:100AE000950D40004D0E4000D8283200252B4D00BA
:100AF000B90E400001004020D50D4000F0B587B090
:100B000004460E4617468160027383610025056125
:100B100007209D4B9847206001950595022302937D
:100B20000390072304938DF8147001A93046974B66
:100B30009847401B18BF0120404208B107B0F0BDE4
:100B40002568A87900EB400040008F4B9847606013
:100B5000002301930493059307238DF804300223A7
:100B600002930390AB7903EB43035B000493237B75
:100B70008DF8143001A9A068844B9847003018BF45
:100B8000012040420028D9D127686068BB7903EB77
:100B9000430676000736B6B23A4606370021DFF83C
:100BA000F0C192F801E0157845EA0E2585EA410189
:100BB00011F0807F18BF81EA0C010232BA42F0D1F5
:100BC000027843EA022383EA410212F0807F03D0D5
:100BD00082F4000282F01B02A6F10807012F12DD49
:100BE0000123DFF8ACE1C1184D78C15C41EA052171
:100BF00081EA420212F0807F18BF82EA0E020233BD
:100C00009BB2BB42EFDB304410F8083C83EA42025F
:100C100012F0807F03D082F4000282F01B0222F0E7
:100C20007F450023019305938DF80460360A8DF803
:100C3000056002230293CDF80CD003230493237B99
:100C40008DF8143001A9A068504B984728B34FF095
:100C5000FF33AB4240F08B802568A87998B1002320
:100C60000133DAB29042FBD86268431EDBB2013333
:100C700003EB430302EB4301002053791844C0B255
:100C800006329142F9D140003F4B98476061AB7901
:100C900073B100270126BE4637E09DF802209DF87B
:100CA000003043EA02439DF8012043EA0223D0E7E3
:100CB0006FF0030042E70130C0B26268531919793E
:100CC00081421CD35B79002BF5D062682A445379AA
:100CD000002BF0D033461178626902F81310626974
:100CE00002EB430250700133DBB262682A44991B65
:100CF00092F805C0C9B28C45EDD81E46DBE7013736
:100D0000FFB223689B799F4207D207EB47035A0043
:100D10001546636813447046D4E75BB31046013B45
:100D2000DBB2013303EB430302EB430200214379BF
:100D30001944C9B206308242F9D1F1B1626913781F
:100D4000092B0FD000230133DBB28B420CD012F8F9
:100D5000020F0928F7D15BB2B3F1FF3F10D0237720
:100D60000020EBE60023F6E76FF00300E6E66FF005
:100D70000300E3E66FF00300E0E66FF00300DDE65A
:100D80006FF00300DAE600BFB12C400065154000AB
:100D90001B00800003689A79D2B110B444682378AC
:100DA0008B420ED0A31D013AD2B2013202EB4202B5
:100DB00004EB4202934209D01C4613F8060B88420A
:100DC000F8D1B4F801005DF8044B70470020FAE751
:100DD0000020704730B587B000230193049305933A
:100DE0008DF804100B0A8DF805300223029303924C
:100DF00003689A79BAB14468B4F801308B420FD0D5
:100E0000A31D013AD2B2013202EB420204EB4202CC
:100E1000934216D01C460633B4F801508D42F7D1E8
:100E2000E2780132D2B20492037B8DF8143001A92A
:100E30008068054B9847003018BF0120404207B03A
:100E400030BD0022EFE700BF1116400000B589B0A9
:100E50008DF807200023039307938DF80C10090ADF
:100E60008DF80D10022304930DF107030593012360
:100E70000693037B8DF81C3003A98068044B9847C8
:100E8000003018BF0120404209B05DF804FB00BFEC
:100E9000111640008269074B03EB52135B02D96BBA
:100EA00002F01F02012303FA02F20A420CBF1846A5
:100EB000002070470707200030B587B004460D4674
:100EC000002205210D4B98470023019305938DF8CF
:100ED0000400000A8DF805000223029303950923FC
:100EE0000493237B8DF8143001A9A068044B984724
:100EF000003018BF0120404207B030BD950D4000C2
:100F000065154000F0B585B004460E46174D184FE4
:100F10002046A84728B301A92046B847034610BB7E
:100F20009DF80430626912F81320092AF0D1227F5B
:100F30009B1A33709DF8053073709DF808309DF84A
:100F400006101A0942EA011272809DF8072003F088
:100F50000F0343EA0213B3809DF80930B3710023F5
:100F600001E06FF00303184605B0F0BD950E400098
:100F7000B90E400008B54FF080410448044B984733
:100F80002C224FF0C6431A8008BD00BF00120E404D
:100F9000F519400070B506460D4614464FF08041E5
:100FA0000C480D4B9847B6B24FF0C6431E8004B9AB
:100FB00070BD4FF080410748084B9847621E4FF0C4
:100FC000C64135F8023B0B80013AB2F1FF3FF8D140
:100FD000EEE700BF00120E40F5194000F119400085
:100FE000014630B1034A044B013BFDD19142FAD88E
:100FF00070477047A1860100A086010000B583B04C
:1010000058B94823ADF8063001220DF1060136200B
:10101000044B984703B05DF804FBE823ADF80630B5
:10102000F2E700BF950F400010B584B0ADF80E0098
:10103000013A0244ADF80C20ADF80A10013B194406
:10104000ADF80810030AADF80030C0B2ADF80200E8
:10105000C2F30723ADF80430D2B2ADF80620042263
:1010600069462A200F4CA047002211461046A0478F
:101070009DF80B30ADF800309DF80A30ADF8023025
:101080009DF80930ADF804309DF80830ADF8063011
:10109000042269462B20A047002211461046A04793
:1010A00004B010BD950F400008B50022114629205C
:1010B000014B984708BD00BF950F4000044A931E9E
:1010C00002F27E2223F8020F9342FBD1704700BF49
:1010D0005C09402010B584B0ADF80600ADF80410EE
:1010E000030AADF80830C0B2ADF80A00ADF80C3014
:1010F000ADF80E00042202A92A200E4CA0470022BF
:1011000011461046A0479DF80520ADF808209DF82F
:101110000430ADF80A30ADF80C20ADF80E300422E2
:1011200002A92B20A047002211461046A04704B078
:1011300010BD00BF950F4000F0B585B004460920F2
:10114000464B9847464D002203212846454B984779
:10115000454A03212846454B9847454A03212846DE
:10116000444B9847444A03212846444B9847002261
:1011700011460120424EB047C820424DA8470022E8
:1011800011461120B047C820A8473F4E4FF080417C
:1011900030463E4B98474FF0C645D3232B804FF047
:1011A000804130463A4B98472B88ADF80430298867
:1011B00089B2ADF806102B889BB2ADF808302A88AA
:1011C00092B2ADF80A202888C9B2DBB21B0243EA0A
:1011D0000143D2B2134349F28842934202D0012024
:1011E00005B0F0BD04AE482326F8023D0122314689
:1011F0003620234FB8476420224DA8470423ADF87A
:101200000E3001223146CF20B8476420A84705237D
:10121000ADF80E30012231463A20B8476420A84785
:10122000002211461220B8476420A847194B98475E
:101230006420A8470020184B98476420A847A3883B
:10124000228800210846154DA847A068144B9847EE
:1012500000210846134B98470020C1E7551D400068
:10126000000008406114400003040A0A67144000AB
:1012700004000A006F14400003100F0077144000B0
:10128000950F4000E10F400000120E40F51940009C
:10129000F1194000A9104000FD0F40002910400046
:1012A000BD104000D510400000B583B002A921F860
:1012B000020D01225120024B984703B05DF804FB58
:1012C000950F4000024B1880024B1980704700BFF9
:1012D000E00B4020E20B4020024B1880024B1980AB
:1012E000704700BFDC0B4020DE0B402010B4054CE3
:1012F00020800548018005490A80054A13805DF871
:10130000044B7047E00B4020E20B4020DC0B4020F8
:10131000DE0B402000B583B010F0010F0CBF682336
:101320002823ADF8063010F0020F05D0BDF80630C6
:1013300043F08003ADF8063010F0040F05D0BDF87F
:10134000063023F02003ADF8063001220DF106012E
:101350003620024B984703B05DF804FB950F400020
:1013600010B50446084B1988084B1888084B984755
:10137000084B98474FF080410748084B98474FF07B
:10138000C6431C8010BD00BFE20B4020E00B402094
:10139000D5104000750F400000120E40F1194000BA
:1013A00070B504460D460B4B18880B4B19880B4B38
:1013B0001B8801335B1A0A4A12880132121A9BB247
:1013C00092B2084EB0472A4621462C20064B984739
:1013D00070BD00BFE00B4020E20B4020DE0B402040
:1013E000DC0B402029104000950F40002DE9F04112
:1013F00005460E46124B1888124B1988124B1B8853
:1014000001335B1A114A12880132121A9BB292B24E
:101410000F4CA0470F4B98477EB1741EDFF83C80FD
:101420004FF080470C4E39464046B0474FF0C64318
:101430001D80013CB4F1FF3FF5D1BDE8F08100BF54
:10144000E00B4020E20B4020DE0B4020DC0B402074
:1014500029104000750F4000F119400000120E40A5
:1014600009014250704700EB01114A60704700EBE0
:1014700001118A60704700EB0111CA6070470000DB
:10148000284B99424BD8A3F57A5399422DD910B4E1
:10149000254CA4FB0234A40B033C244B0B449B00BF
:1014A000B2FBF3F2033AFF2C1DD90021013164088D
:1014B000FF2C01D90629F9D9FF2A07D9062905D811
:1014C00001315208FF2A01D90629F9D913029BB22A
:1014D000090401F4E0210B43E4B22343036100203B
:1014E0005DF8044B70470021E6E74900B2FBF1F2DA
:1014F000033AFF2A11D9002301335208FF2A01D9E8
:10150000062BF9D9110289B21B0403F4E0230B4323
:10151000D2B21A430261002070470023F2E7012093
:10152000704700BF801A0600F11976050012FD3FD2
:1015300008B54FF0FF328262026A80220260026BBD
:101540000822026020220260042202600A684968C0
:10155000034B9847012814BF0020012008BD00BF9D
:1015600081144000CA68002A4CD070B48C680026F0
:1015700046604B681B0203F4407343F480530D7CB8
:101580002D0405F4FE052B434360C6604D685DB134
:101590000B78012D02DD4E7846EA0323022D04DD8F
:1015A000897841EA032300E00023C360012303603C
:1015B000022512E0056013F0020F1BD0036B2370AD
:1015C000036A13F0010FFBD0036A002070BC704760
:1015D000036B04F8013B013AF2D0036A13F4807FF5
:1015E00014D147F23051012AE4D013F0020FEFD1A9
:1015F000002AE5D0036A13F4807F05D10139F2D1C6
:101600000920E3E7012070470520DFE70520DDE73B
:10161000CB68002B43D070B48C68002646600A7CEF
:10162000120402F4FE024D682D0205F440752A43AF
:101630004260C6604D685DB10A78012D02DD4E78CA
:1016400046EA0222022D04DD897841EA022200E006
:101650000022C26004E014F8012B4263013B0FD06A
:10166000026A12F4807F1ED112F0040FF3D1026AD5
:1016700012F4807F15D112F0040FECD1002BF6D1BB
:10168000036A13F4807F11D113F0040FF8D0022302
:101690000360036A13F0010FFBD0002004E0012077
:1016A0007047052000E0052070BC70470520FBE76F
:1016B00010B51048104B98473E2100200F4B98471B
:1016C0000F4CA0470028FCD00E4B98470E4A0F4BFA
:1016D0009A620F4CA0470028FCD002200D4B98477F
:1016E00000200D4B98470D4B98470248024B9847F6
:1016F00010BD00BF00A3E111811F4000D11C4000BC
:10170000251D4000351D4000013F182000060E40F9
:10171000451D4000351C40006D1C4000751E4000FA
:10172000F8B54FF40042844B5A60BFF35F8F834F8C
:101730003846834DA847834E40EA06011120824C6B
:10174000A0478248A847824901438248A0473846BB
:10175000A84740EA06018048A0478048A84706F10C
:10176000087606F5403640EA06017D48A0477D48E8
:10177000A84740EA06017C48A0476FF06040A847B0
:101780007A4E40EA06017A48A0476FF07040A847B9
:10179000784F40EA07017848A0476FF07040A847AB
:1017A000764901437648A0476FF06040A84740EA79
:1017B00007017448A0477448A84740EA06017348E7
:1017C000A047734C636A43F4E02363620520714BC6
:1017D0009847BFF34F8FBFF36F8F6F4B6F4A5A60BD
:1017E000A2F580725A60BFF34F8FBFF36F8FD4F8AA
:1017F000903223F00103C4F89032D4F8943223F0ED
:101800000103C4F89432BFF34F8FBFF36F8F0A20E8
:10181000634CA0470B20A0470C20A0471020A047F6
:101820001120A0475F4C4FF400032361C4F8A0309F
:1018300023635D4E4FF400753561C6F8A0503563E3
:101840006561C4F8A0506566C4F89050656525626E
:10185000C4F88450236F23F400732367636F23F469
:1018600000736367C4F8C050C4F8D450C4F8B050D3
:1018700008232366C4F8903063656362C4F880303F
:10188000226F22F008022267626F22F0080262676C
:10189000636010232366C4F8903063656362C4F804
:1018A0008030226F22F010022267626F22F0100255
:1018B0006267636000234FF400524FF0605130467E
:1018C0003A4FB84700234FF080424FF06051304606
:1018D000B8470123FF224FF000613046B84701238B
:1018E0003F224FF000613248B84701234FF4C03225
:1018F0004FF000612046B84701234FF480724FF04B
:1019000000613046B84701234FF400624FF0006198
:101910003046B84701234FF400224FF000612548BC
:10192000B84700232A464FF080513046B847294631
:101930003046214B9847F8BD50180E40FFFF3F003E
:10194000D519400001000001C9194000FFFF1F0028
:10195000010023061200400013000020FFFF0300D7
:1019600014004020FFFF0100150044200100011376
:10197000160000400100000317000060010025036D
:101980001800007019000080FFFF0F001A0010A05F
:1019900000ED00E0BD194000000C0E400C08005A9C
:1019A000551D4000000E0E4000120E40E91A400086
:1019B00000160E4000140E40F1194000014B586013
:1019C000704700BF90ED00E0014BD860196170478F
:1019D00090ED00E0202809D9042320220133520091
:1019E000904201D91E2BF9D9580070470423FBE718
:1019F00001637047416370474264B1F1C05F3AD000
:101A000013D8B1F1006F25D0B1F1805F0AD1036F17
:101A100013430367436F416F0B4023EA020343679D
:101A2000426070470029FBD17047B1F1205F21D09F
:101A300009D8B1F1005FF3D1036F13430367436F1C
:101A400013434367ECE7B1F1405F13D0B1F1605F3E
:101A500010D0E5E710B4016F046FD34321401C465A
:101A600019400167436F416F0B4023404367426059
:101A70005DF8044B7047036F016F0B4023EA0203CC
:101A80000367436F13434367CAE7416412F0010FD2
:101A90000DD1016612F00A0F0BD0016212F0020F95
:101AA00009D112F0080F08D0C0F8841005E0416693
:101AB000F0E74162F2E7C0F88010416101607047D1
:101AC00010B4019C41644CB901664BB101654AB93F
:101AD0004163016101605DF8044B70474166F4E7C2
:101AE0004165F4E70163F4E770B582B00546164638
:101AF0001C46B1F1005F14D00AD9B1F1405F24D087
:101B0000B1F1605F21D0B1F1205F17D000201AE061
:101B1000B1F1805F05D0B1F1C05F02D0B1F1006FCB
:101B2000F4D132462846114B984714F0010F02D1E8
:101B30002E66012007E06E66012004E01A46314659
:101B40000B4B9847012002B070BD04F001030093D5
:101B5000C4F38003B1F1605F14BF0022012231465B
:101B60002846044CA0470120EDE700BFF9194000CA
:101B70008B1A4000C11A4000C06C7047806C7047DF
:101B80002DE9F041044688460E4B9847054620460D
:101B90000D4B9847054013D00C4C04F1600603E050
:101BA000B4420DD010345DB120684045F8D1616871
:101BB0002942F5D0E3689847636825EA0305EFE713
:101BC000BDE8F081791B40007D1B4000E40B402004
:101BD00008B50A210148024B984708BD000E0E4087
:101BE000811B400008B50B210148024B984708BDF6
:101BF00000100E40811B400008B50C210148024B2B
:101C0000984708BD00120E40811B400008B5102106
:101C10000148024B984708BD00140E40811B40004C
:101C200008B511210148024B984708BD00160E4027
:101C3000811B4000032811D0042812D002280CBFB9
:101C40004FF480710021084A136B23F440730B4357
:101C50001363936E13F0080FFBD070474FF440717D
:101C6000F1E74FF40071EEE700060E40174A136BE0
:101C700023F0700318431063936E13F0080F0AD11A
:101C80004FF4006311498A6E12F0080F03D1013B33
:101C9000F9D1012070470D4A136B23F0030343F081
:101CA00002031363936E13F0080F0AD14FF400631D
:101CB00006498A6E12F0080F05D1013BF9D10120C7
:101CC0007047002070470020704700BF00060E409C
:101CD000A0B90E48036A090289B20D4A1A400D4B99
:101CE0001343194301620246936E13F0010FFBD0B8
:101CF000064A116A084B0B431362704703490B6A8B
:101D0000064A1A40064B13430B62704700060E400A
:101D1000FCFFC8FF0100370000003701FCFFC8FED0
:101D200002003701024B986E00F48030704700BF0C
:101D300000060E404FF00052014B9A62704700BF00
:101D400000060E40024B986E00F00200704700BF84
:101D500000060E403F281ED81F280CD8114B9A6948
:101D600001238340934318D0012303FA00F00D4B65
:101D700018610020704720380A4BD3F8082101234E
:101D8000834093430BD0012303FA00F0054BC3F8C3
:101D9000000100207047012070470020704700209C
:101DA000704700BF00060E40FEE7000000B583B09C
:101DB000254B264A9A4210D0254B234A9A420CD2F0
:101DC000013B9B1A23F00303043313441F4951F8CA
:101DD000040B42F8040B9A42F9D11E4B1E4A9A4258
:101DE0000AD2013B9B1A23F003030433134400215E
:101DF00042F8041B9342FBD1184A194B23F07F038E
:101E00009360EFF31083B3FA83F35B09019372B627
:101E1000BFF35F8F0022134B1A700199124A1368A7
:101E200043F470031360BFF34F8FBFF36F8F29B17B
:101E300001220C4B1A70BFF35F8F62B60B4B9847B1
:101E40000B4B9847FEE700BF00004020F8AC420073
:101E50003C094020E00C40203C09402000ED00E01F
:101E600000004000E100402088ED00E0612C4000CF
:101E7000452040003B4B1B6B03F00303012B1DD09F
:101E800083B1022B36D0374B1B6B03F07003702BE2
:101E90005FD0344B1A6B3449C2F302120B68D34043
:101EA0000B607047314B5B6913F0800F14BF4FF428
:101EB00000424FF4FA422C4B1A60E4E7294B1B6AAC
:101EC00013F0807F03D02A4A274B1A60DBE7294AA8
:101ED000254B1A60234B1B6A03F07003102B05D0AF
:101EE000202BD0D1224A204B1A60CCE7224A1E4B2D
:101EF0001A60C8E71B4B1B6A13F0807F16D01C4A80
:101F0000194B1A60174B1B6B03F00303022BBAD15A
:101F1000144A916A926A1448C1F30A41036801FBAA
:101F20000333D2B2B3FBF2F30360ACE7114A0E4BBA
:101F30001A600C4B1B6A03F07003102B05D0202B8A
:101F4000E0D10B4A084B1A60DCE70B4A064B1A60DB
:101F5000D8E7054A13680949A1FB03135B0813601E
:101F6000704700BF00060E40E400402010180E40ED
:101F7000001BB70000093D0000127A00ABAAAAAA14
:101F8000164B984213D9164B984215D9154B9842C7
:101F900016D9154B984217D9144B984218D9144B9F
:101FA000984294BF134A144A144B1A6070474FF07A
:101FB0008062124B1A607047114A104B1A607047CA
:101FC000104A0E4B1A6070470F4A0C4B1A6070474C
:101FD0004FF00422094B1A60704700BFBFF35E0147
:101FE0007FE7BD023FDB1C04FFCE7B05BFC2DA06E4
:101FF0007FB639080005000400060004000C0E40FE
:102000000001000400020004000300040A4B1B68E6
:1020100053B1094B1B681A180849914208DB104656
:10202000054A106018467047054A034B1A60F0E7EE
:102030004FF0FF30704700BF540C4020FCFF45209C
:10204000E02E40202DE9F04188B0244B9847244BE6
:102050009847244B9847244B9847244BB3F90030BA
:10206000C01A48BF013040F34F04214B98471F4D21
:10207000B5F902300293B5F900200192C31A1BB2E0
:10208000009323460022114628461A4CA0472023DD
:10209000ADF814300225184CDFF86C800026A047FC
:1020A0000028FCD006A8C04705AB3246BDF91A107F
:1020B000BDF91800114FB8470396082302934FF457
:1020C000784301934FF21E0300930D4B022229B275
:1020D00005A80C4FB8470935ADB2E0E7211740001D
:1020E000B1164000CD08400001024000E800402049
:1020F0000D024000F1024000490940004D08400037
:102100000C004020FD064000E10840002DE9F04FA2
:102110008BB004460D4600F057F8294B93F900A008
:10212000BAF1FF3F06460F4612D022462B46204604
:10213000294600F059FD834650B94FF000084FF092
:10214000000942464B462046294600F025FD20B9AD
:10215000304639460BB0BDE8F08F1A4BCDF820B0B1
:102160000122CDE90445CDE902458DE80C00BAF124
:10217000000F17D042464B464046494600F0C4FB8C
:10218000BAF1020FCDE906010ED100F063FD212363
:102190000360089B73B9DDE90667304639460BB02A
:1021A000BDE8F08FCDE90689684600F0C9F800283F
:1021B000EFD1EAE700F04EFD089B0360EBE700BFBC
:1021C000F4004020C8AC42002DE9F8435B4F8F4338
:1021D00005460C4600F0928000290B4602466FDD52
:1021E0000F157BD0A7F2FF37C3F31303F80743F4AF
:1021F00080135CD403EBD27100260B447F10520095
:10220000B64616204FF400110EEB01049C424FEA33
:10221000D2754FEA420203DC1B1B04EB010E0E4495
:10222000013805EB43034FEA5101EDD184462024E8
:102230004FF0004109E020D003EBD275013C4FEA9A
:1022400051012B444FEA420220D0734501EB0C05AB
:10225000F1DD002D05EB010C09DBF0469542A3EB07
:102260000E0300D9013B521B0844C646E4E7BCF10B
:10227000000FF2DB0EF10108F0E79542DCD8002DEB
:1022800005EB010C44DB98460023ECE7134313D124
:102290004008731003F17F5303F50013F20703EBBB
:1022A000075948BF40F000404946BDE8F8835B004D
:1022B00003EBD27352009DE7411C2DD00130E7E7BC
:1022C000064621F000473E43EFD069BB0F46D30AD4
:1022D000153F5205002BFAD0DE0220D4002400E086
:1022E00004465B00DD0204F10100F9D5C0F12001D4
:1022F00022FA01F10B433F1B824073E702460B4673
:1023000000F0D8F92A46234600F022F8BDE8F88309
:10231000BCF1000FAEDAB6E701362046B9E700207F
:1023200020214FF0FF34E3E702460B4600F00EF8A1
:1023300002460B4600F0E8FAB7E700BF0000F07F66
:102340000020704781F0004102E000BF83F00043AD
:1023500030B54FEA41044FEA430594EA050F08BF40
:1023600090EA020F1FBF54EA000C55EA020C7FEA04
:10237000645C7FEA655C00F0E2804FEA5454D4EB81
:102380005555B8BF6D420CDD2C4480EA020281EA4B
:10239000030382EA000083EA010180EA020281EA83
:1023A0000303362D88BF30BD11F0004F4FEA0131D5
:1023B0004FF4801C4CEA113102D0404261EB4101E4
:1023C00013F0004F4FEA03334CEA133302D052426A
:1023D00063EB430394EA050F00F0A780A4F1010426
:1023E000D5F1200E0DDB02FA0EFC22FA05F2801860
:1023F00041F1000103FA0EF2801843FA05F3594146
:102400000EE0A5F120050EF1200E012A03FA0EFCC4
:1024100028BF4CF0020C43FA05F3C01851EBE371EE
:1024200001F0004507D54FF0000EDCF1000C7EEB0B
:1024300000006EEB0101B1F5801F1BD3B1F5001F49
:102440000CD349085FEA30004FEA3C0C04F1010468
:102450004FEA445212F5800F80F09A80BCF1004F91
:1024600008BF5FEA500C50F1000041EB045141EA13
:10247000050130BD5FEA4C0C404141EB010111F414
:10248000801FA4F10104E9D191F0000F04BF0146BF
:102490000020B1FA81F308BF2033A3F10B03B3F19D
:1024A00020020CDA0C3208DD02F1140CC2F10C022D
:1024B00001FA0CF021FA02F10CE002F11402D8BF8B
:1024C000C2F1200C01FA02F120FA0CFCDCBF41EA57
:1024D0000C019040E41AA2BF01EB0451294330BD26
:1024E0006FEA04041F3C1CDA0C340EDC04F1140403
:1024F000C4F1200220FA04F001FA02F340EA0300DA
:1025000021FA04F345EA030130BDC4F10C04C4F11F
:10251000200220FA02F001FA04F340EA03002946FF
:1025200030BD21FA04F0294630BD94F0000F83F449
:10253000801306BF81F480110134013D4EE77FEA2C
:10254000645C18BF7FEA655C29D094EA050F08BF78
:1025500090EA020F05D054EA000C04BF1946104659
:1025600030BD91EA030F1EBF0021002030BD5FEA9D
:10257000545C05D14000494128BF41F0004130BDC5
:1025800014F580043CBF01F5801130BD01F0004519
:1025900045F0FE4141F470014FF0000030BD7FEA8C
:1025A000645C1ABF194610467FEA655C1CBF0B4687
:1025B000024650EA013406BF52EA033591EA030F9E
:1025C00041F4002130BD00BF90F0000F04BF002196
:1025D000704730B54FF4806404F132044FF00005C9
:1025E0004FF0000150E700BF90F0000F04BF002142
:1025F000704730B54FF4806404F1320410F00045A8
:1026000048BF40424FF000013EE700BF42004FEAA2
:10261000E2014FEA31014FEA02701FBF12F07F431F
:1026200093F07F4F81F06051704792F0000F14BF1C
:1026300093F07F4F704730B54FF4607401F0004560
:1026400021F0004120E700BF50EA010208BF7047B7
:1026500030B54FF000050AE050EA010208BF7047AC
:1026600030B511F0004502D5404261EB41014FF415
:10267000806404F132045FEA915C3FF4DCAE4FF019
:1026800003025FEADC0C18BF03325FEADC0C18BF00
:10269000033202EBDC02C2F1200300FA03FC20FA51
:1026A00002F001FA03FE40EA0E0021FA02F114449E
:1026B000C1E600BF70B54FF0FF0C4CF4E06C1CEAB3
:1026C00011541DBF1CEA135594EA0C0F95EA0C0F28
:1026D00000F0DEF82C4481EA030621EA4C5123EA9B
:1026E0004C5350EA013518BF52EA033541F48011CA
:1026F00043F4801338D0A0FB02CE4FF00005E1FB7D
:1027000002E506F00042E0FB03E54FF00006E1FBC6
:1027100003569CF0000F18BF4EF0010EA4F1FF0409
:10272000B6F5007F64F5407404D25FEA4E0E6D4149
:1027300046EB060642EAC62141EA55514FEAC5205A
:1027400040EA5E504FEACE2EB4F1FD0C88BFBCF5D6
:10275000E06F1ED8BEF1004F08BF5FEA500E50F187
:10276000000041EB045170BD06F0004646EA01014D
:1027700040EA020081EA0301B4EB5C04C2BFD4EB7F
:102780000C0541EA045170BD41F480114FF0000E78
:10279000013C00F3AB8014F1360FDEBF002001F0E6
:1027A000004170BDC4F10004203C35DA0C341BDC60
:1027B00004F11404C4F1200500FA05F320FA04F032
:1027C00001FA05F240EA020001F0004221F0004166
:1027D00010EBD37021FA04F642EB06015EEA430ED9
:1027E00008BF20EAD37070BDC4F10C04C4F1200509
:1027F00000FA04F320FA05F001FA04F240EA0200BC
:1028000001F0004110EBD37041F100015EEA430E8C
:1028100008BF20EAD37070BDC4F1200500FA05F2AC
:102820004EEA020E20FA04F301FA05F243EA02032B
:1028300021FA04F001F0004121FA04F220EA02003A
:1028400000EBD3705EEA430E08BF20EAD37070BD80
:1028500094F0000F0FD101F00046400041EB010160
:1028600011F4801F08BF013CF7D041EA060195F042
:10287000000F18BF704703F00046520043EB0303FC
:1028800013F4801F08BF013DF7D043EA06037047E9
:1028900094EA0C0F0CEA135518BF95EA0C0F0CD0F4
:1028A00050EA410618BF52EA4306D1D181EA03013A
:1028B00001F000414FF0000070BD50EA410606BF34
:1028C0001046194652EA430619D094EA0C0F02D179
:1028D00050EA013613D195EA0C0F05D152EA0336BE
:1028E0001CBF104619460AD181EA030101F00041DC
:1028F00041F0FE4141F470014FF0000070BD41F025
:10290000FE4141F4780170BD70B54FF0FF0C4CF4FE
:10291000E06C1CEA11541DBF1CEA135594EA0C0F1D
:1029200095EA0C0F00F0A7F8A4EB050481EA030E6A
:1029300052EA03354FEA013100F088804FEA033351
:102940004FF0805545EA131343EA12634FEA02221F
:1029500045EA111545EA10654FEA00260EF00041E0
:102960009D4208BF964244F1FD0404F5407402D232
:102970005B084FEA3202B61A65EB03055B084FEAC3
:1029800032024FF480104FF4002CB6EB020E75EBC0
:10299000030E22BFB61A754640EA0C005B084FEAE8
:1029A0003202B6EB020E75EB030E22BFB61A754665
:1029B00040EA5C005B084FEA3202B6EB020E75EBB0
:1029C000030E22BFB61A754640EA9C005B084FEA28
:1029D0003202B6EB020E75EB030E22BFB61A754635
:1029E00040EADC0055EA060E18D04FEA051545EA24
:1029F00016754FEA06164FEAC30343EA52734FEACD
:102A0000C2025FEA1C1CC0D111F4801F0BD141EA45
:102A100000014FF000004FF0004CB6E711F4801FAA
:102A200004BF01430020B4F1FD0C88BFBCF5E06F8A
:102A30003FF6AFAEB5EB030C04BFB6EB020C5FEA9A
:102A4000500C50F1000041EB045170BD0EF0004EEF
:102A50004EEA113114EB5C04C2BFD4EB0C0541EA21
:102A6000045170BD41F480114FF0000E013C90E61E
:102A700045EA060E8DE60CEA135594EA0C0F08BFE2
:102A800095EA0C0F3FF43BAF94EA0C0F0AD150EAE1
:102A900001347FF434AF95EA0C0F7FF425AF104674
:102AA00019462CE795EA0C0F06D152EA03353FF49C
:102AB000FDAE1046194622E750EA410618BF52EA19
:102AC00043067FF4C5AE50EA41047FF40DAF52EAED
:102AD00043057FF4EBAE12E74FF0FF3C06E000BF8A
:102AE0004FF0010C02E000BF4FF0010C4DF804CD97
:102AF0004FEA410C7FEA6C5C4FEA430C18BF7FEA57
:102B00006C5C1BD001B050EA410C0CBF52EA430C84
:102B100091EA030F02BF90EA020F0020704710F104
:102B2000000F91EA030F58BF994208BF90422CBF93
:102B3000D8176FEAE37040F0010070474FEA410C8C
:102B40007FEA6C5C02D150EA013C07D14FEA430CAA
:102B50007FEA6C5CD6D152EA033CD3D05DF8040B1B
:102B6000704700BF8446104662468C46194663464D
:102B700000E000BF01B5FFF7B7FF002848BF10F124
:102B8000000F01BD4DF808EDFFF7F4FF0CBF012069
:102B900000205DF808FB00BF4DF808EDFFF7EAFFE5
:102BA00034BF012000205DF808FB00BF4DF808EDA0
:102BB000FFF7E0FF94BF012000205DF808FB00BF95
:102BC0004DF808EDFFF7CEFF94BF012000205DF81F
:102BD00008FB00BF4DF808EDFFF7C4FF34BF01202C
:102BE00000205DF808FB00BF4FEA410C7FEA6C5CF7
:102BF00002D150EA013C0AD14FEA430C7FEA6C5CF7
:102C000002D152EA033C02D14FF0000070474FF06E
:102C1000010070474A0011D212F5001211D20DD5F1
:102C20006FF47873B3EB62520ED44FEAC12343F0D2
:102C3000004343EA505323FA02F070474FF000007C
:102C4000704750EA013002D14FF0FF3070474FF02B
:102C500000007047014B1868704700BFF800402023
:102C600070B50F4E0F4D761BB61018BF002405D05F
:102C7000013455F8043B9847A642F9D10A4E0B4D52
:102C8000761B28F027F8B61018BF002406D00134B0
:102C900055F8043B9847A642F9D170BD70BD00BFFE
:102CA000E0AC4200E0AC4200E8AC4200E0AC4200E4
:102CB000024B0146186800F003B800BFF80040203E
:102CC0002DE9F04F01F10B06162E83B0054640F2B8
:102CD0009E8036F0070600F1BD80B14200F2BA8056
:102CE00000F09EFAB6F5FC7FC0F09382730A00F004
:102CF000B880042B00F27981B30903F1390003F1A4
:102D0000380EC300BF4F3B44A3F108015C68A142E9
:102D100006D10CE0002A80F2AA80E468A14206D025
:102D2000636823F003039A1B0F2AF3DD70463C69A6
:102D3000DFF8E4E2744500F0AB81636823F003033D
:102D40009A1B0F2A00F39081002AC7F814E0C7F8F5
:102D500010E080F29D80B3F5007F80F06181DB0898
:102D600003F1010C99107A6857F83C80C4F8088088
:102D700001238B4007EBCC0113430839E1607B60F2
:102D800047F83C40C8F80C408210012494409C4213
:102D900000F28B801C4206D120F0030064001C422C
:102DA00000F10400FAD007EBC009CC468046DCF8FD
:102DB0000C309C4507D16DE1002A80F27B81DB68F5
:102DC0009C4500F06781596821F003018A1B0F2A96
:102DD000F2DDD3F80CC0D3F8088000939C19284684
:102DE00046F0010642F001055E60C8F80CC0CCF860
:102DF00008807C613C61C4F80CE0C4F808E06560C0
:102E00005A5000F013FA009B03F108041EE0102949
:102E100020D800F005FA102618230220794F3B44F1
:102E2000A3F108025C68944200F03D816368E168A8
:102E3000A66823F00303234428465A68F16042F051
:102E400001028E605A6000F0F1F90834204603B0A8
:102E5000BDE8F08F00240C2320462B6003B0BDE8B2
:102E6000F08F40204FF400734FF03F0E4AE72344A9
:102E7000E1685A68A66842F00102F16028468E6057
:102E80005A6000F0D3F90834204603B0BDE8F08F53
:102E9000234428465A6842F001025A6000F0C6F9FD
:102EA0000834204603B0BDE8F08FBC68636823F0A7
:102EB0000308B04504D3A8EB06030F2B00F385806D
:102EC000DFF85891504BD9F800201B680132334489
:102ED00004EB080A00F0558103F580530F3323F407
:102EE0007F6B2BF00F0B5946284600F0A5F9411CCB
:102EF000024600F0FC80824500F2F780434B1968DF
:102F00005944196000F04D81D9F8000001301BBF11
:102F1000A2EB0A0A5144C9F80020196012F0070117
:102F200000F01581C1F10800C1F58051024408315B
:102F300002EB0B09C9F30B09A1EB09094946284625
:102F40000193009200F078F9431C9DE80C0000F01A
:102F50004381801A484440F001001968BA6049442E
:102F6000BC425060196017D0B8F10F0F40F2FB80DF
:102F70006068A8F10C0222F0070204EB020E00F0D8
:102F800001004FF0050C10430F2A6060CEF804C01A
:102F9000CEF808C000F217811D4BBC681A68914238
:102FA00088BF19601B4B1A689142626888BF19601C
:102FB00022F003029642A2EB060301D80F2B04DC99
:102FC000284600F033F9002440E7A21943F001033A
:102FD00046F0010666602846BA60536000F026F9A4
:102FE0000834204603B0BDE8F08F142B71D9542B60
:102FF00000F2A380330B03F16F0003F16E0EC300E8
:1030000080E600BF28054020880C4020580C402056
:10301000800C4020840C40203005402030094020A6
:103020005A0A042A5BD9142A00F2AE8002F15C012C
:10303000C9005B3207EB010C7958ACF1080C8C45E8
:1030400000F088804A6822F00302934273D28968B4
:103050008C45F7D1DCF80C207B68E260C4F808C02E
:103060009460CCF80C408FE6A11946F0010C42F0B8
:103070000106C4F804C0284679613961C1F80CE042
:10308000C1F808E04E60E25000F0D0F80834DDE608
:103090007B6879E608F1010818F0030F0CF1080CC1
:1030A0007FF485AE2DE0DC68A34208BF02303FF418
:1030B0003EAEBBE619441C464A68DB6854F8086F0C
:1030C00042F001024A602846F3609E6000F0AEF8CC
:1030D000BCE603F15C0003F15B0EC30012E69A0943
:1030E00002F13901C9003832A4E7BC4254D0BC68AF
:1030F000626822F003025DE759F80839994540F00B
:10310000868010F0030F00F1FF30F5D17B6823EAD1
:1031100004037B6064009C423FF6C7AE002C3FF482
:10312000C4AE1C4240467FF43EAE64001C4200F137
:103130000400FAD037E68C468CE7B3F5AA7F15D8A1
:10314000F30B03F1780003F1770EC300DAE54FF4D7
:103150008051EDE67B689210012101FA02F21343DF
:103160007B60624679E70123536029E740F25452BD
:10317000934222D8B30C03F17D0003F17C0EC3000F
:10318000C0E503F1100BAEE6542A29D81A0B02F160
:103190006F01C9006E324DE7204B19685944196020
:1031A000B2E6CAF30B0000287FF4AEAE08EB0B03C7
:1031B000BA6843F001035360EEE67F204FF47E735C
:1031C0004FF07E0E9EE504F108012846009300F0C2
:1031D000BFF8009B1968DFE601204FF00009BCE64C
:1031E000B2F5AA7F05D8DA0B02F17801C90077326F
:1031F00020E740F254518A4205D89A0C02F17D0131
:10320000C9007C3216E74FF47E717E2212E77B689C
:1032100080E7F00806F1080300E600BF580C4020E4
:10322000014800F07BB900BFC80C4020014800F005
:1032300077B900BFC80C402038B5074C00230546BD
:1032400008462360FEF7E2FE431C00D038BD236829
:10325000002BFBD02B6038BDDC0C4020024B13B19F
:10326000024800F005B87047000000007D324000C1
:10327000002301461A46184600F054B938B50A4CE6
:103280000A4D641BA4100AD004F18043013B05EBF6
:103290008305013C55F804399847002CF9D1BDE865
:1032A000384027F021BD00BFF8AC4200F4AC42002A
:1032B000F8B5244F0C460646FFF7B2FFBB685D68C1
:1032C000C4F57E610F3125F00305294421F47F61A7
:1032D00021F00F01A1F58054B4F5805F07DB0021D8
:1032E0003046FFF7A9FFBB682B44984204D0304614
:1032F000FFF79CFF0020F8BD61423046FFF79CFFBE
:1033000001300DD0104BBA6819682D1B45F001052E
:103310003046091B55601960FFF788FF0120F8BD92
:1033200000213046FFF788FFBA68831A0F2BDEDDD5
:10333000064C0549246843F00103001B53600860F4
:10334000D5E700BF28054020580C40203009402018
:10335000002944D02DE9F0410D468046FFF760FF7B
:1033600055F8047C694927F00103A5F10804E21827
:103370008E685068B24220F003005ED0FE075060B5
:103380000BD455F8087CE41B01F1080EA5687545BF
:103390003B446DD0E768EF60BD6015186D68ED07C0
:1033A0003ED543F001026260E350B3F5007F17D2CF
:1033B000DB08581C9A104D6851F83070A760012343
:1033C000934001EBC0022B43083AE2604B6041F8A6
:1033D0003040FC604046BDE8F041FFF727BF704732
:1033E0005A0A042A52D89A0902F13907FF0002F159
:1033F0003805C819CA59083890424FD0516821F091
:1034000003018B4232D292689042F7D1C368A06028
:10341000E3609C60C4604046BDE8F041FFF706BF32
:1034200095683B4FBD42034440D0D068E86043F00C
:10343000010285606260E350B7E7FF07034407D4E9
:1034400055F8082CA41A1344A068E268C260906082
:10345000304A126843F00100934260608C60B9D337
:103460002D4B40461968FFF723FFB3E71046CDE721
:1034700011184968C90744D49168D268CA600344E6
:1034800043F0010091606060E350A3E7142A16D86E
:1034900002F15C07FF0002F15B05AAE7AA10012315
:1034A0004D6893402B434B600346B0E743F0010265
:1034B0004C610C61E560A5606260E3508AE7542AC4
:1034C00006D81A0B02F16F07FF0002F16E0590E7B4
:1034D000B2F5AA7F06D8DA0B02F17807FF0002F1F5
:1034E000770586E740F25450824206D89A0C02F1E2
:1034F0007D07FF0002F17C057BE74FF47E777E2598
:1035000077E743F001016160136063E7280540201D
:103510003005402034094020880C4020704700BF0F
:10352000704700BF2DE9F8432C4D064628689846A1
:103530000F469146FFF7F2FF294B1C68D4F848313B
:10354000002B3ED05A681F2A1CDC02F1010E76B116
:1035500003EB82010124C1F88890D3F888019440DC
:103560002043022EC3F88801C1F8088123D002321B
:10357000C3F804E0286843F82270FFF7D1FF002069
:10358000BDE8F883174B0BB34FF4C870FFF790FBFF
:103590000346D8B1D4F848210260002141600A46B0
:1035A000C4F848014FF0010EC0F88811C0F88C1122
:1035B000002EDCD0CCE7D3F88C110C43C3F88C413F
:1035C000D5E704F5A673C4F84831BBE72868FFF7D0
:1035D000A7FF4FF0FF30BDE8F88300BF3809402057
:1035E000D0AC4200B12C4000000000000000000000
:1035F00000000000000000000000000000000000CB
:10360000000000000000000000000000000030008A
:10361000300030003000300030003000000030005A
:1036200030000000000000000000000000006C00FE
:103630006C006C006C000000000000000000000046
:10364000000000000000000000000000000000007A
:1036500048004800FC00480048004800FC004800C2
:103660004800000000000000000000000000100002
:1036700010003C00400030000800040078001000FA
:10368000100000000000000000000000000000002A
:103690007C00A400A8004800100014002A004A0082
:1036A0004400000000000000000000000000700066
:1036B000880088008800700088008A008A008C00DA
:1036C000700000000000000000000000000010007A
:1036D00010001000000000000000000000000000CA
:1036E00000000000000000000000000008001000C2
:1036F00010002000200020002000200020001000EA
:103700001000080000000000000000002000100071
:103710001000080008000800080008000800100059
:103720001000200000000000000000000000280041
:1037300010007C00100028000000000000000000C5
:103740000000000000000000000000000000000079
:1037500000000000100010001000FE00100010001B
:103760001000000000000000000000000000000049
:103770000000000000000000000000000000180031
:1037800018003000200000000000000000000000D1
:1037900000000000000000000000FE00000000002B
:1037A0000000000000000000000000000000000019
:1037B00000000000000000000000000000001800F1
:1037C00018000000000000000000000000000000E1
:1037D0000400080008001000100020002000400035
:1037E0004000000000000000000000000000780021
:1037F000840084008C009400A400C4008400840031
:103800007800000000000000000000000000100030
:1038100030005000100010001000100010001000C8
:103820007C000000000000000000000000007000AC
:103830008800080008001000100020002000400050
:10384000FC0000000000000000000000000070000C
:103850008800080008003000080008000800880000
:1038600070000000000000000000000000000800E0
:10387000180028002800480088008800FC00080084
:1038800008000000000000000000000000007C00B4
:1038900080008000B800C40004000400040084001C
:1038A0007800000000000000000000000000380068
:1038B000400080008000B000C80084008400480000
:1038C0003000000000000000000000000000FC00CC
:1038D0000400040008000800100010002000200070
:1038E0004000000000000000000000000000780020
:1038F00084008400840078008400840084008400B4
:1039000078000000000000000000000000007800C7
:103910008400840084008C007400040008001000FF
:10392000E0000000000000000000000000000000B7
:1039300000000000000030003000000000003000F7
:103940003000000000000000000000000000000047
:103950000000000000006000600000000000600047
:103960006000C000800000000000000000000000B7
:1039700000000000040018006000800060001800D3
:103980000400000000000000000000000000000033
:103990000000000000007E00000000007E0000002B
:1039A0000000000000000000000000000000000017
:1039B00000000000400030000C0002000C0030004D
:1039C0004000000000000000000000000000700047
:1039D00088000800080010002000200000002000DF
:1039E00020000000000000000000000000000000B7
:1039F00000003C004200BA00AA00AA00AA00BC00D5
:103A000040003C000000000000000000000010002A
:103A1000100028002800280044007C004400820098
:103A20008200000000000000000000000000F00024
:103A3000880088008800F0008800880088008800DE
:103A4000F00000000000000000000000000038004E
:103A500044008000800080008000800080004400DE
:103A60003800000000000000000000000000F0002E
:103A7000880084008400840084008400840088001E
:103A8000F0000000000000000000000000007C00CA
:103A900040004000400078004000400040004000EE
:103AA0007C000000000000000000000000007C001E
:103AB00040004000400040007800400040004000CE
:103AC000400000000000000000000000000038007E
:103AD00044008000800080009C008400840044003A
:103AE0003C00000000000000000000000000840016
:103AF000840084008400FC0084008400840084002E
:103B000084000000000000000000000000007C00B5
:103B10001000100010001000100010001000100025
:103B20007C00000000000000000000000000F80021
:103B3000080008000800080008000800080010003D
:103B4000E000000000000000000000000000840011
:103B5000840088009000A000D000880088008400C5
:103B60008400000000000000000000000000800051
:103B70008000800080008000800080008000800045
:103B8000FC000000000000000000000000008400B5
:103B90008400CC00CC00B400B40084008400840015
:103BA000840000000000000000000000000084000D
:103BB000C400C400A400A400940094008C008C00F5
:103BC0008400000000000000000000000000300041
:103BD000480084008400840084008400840048003D
:103BE0003000000000000000000000000000F000B5
:103BF00088008400840084008800F0008000800039
:103C00008000000000000000000000000000300004
:103C100048008400840084008400840084004800FC
:103C2000300020001C000000000000000000F00038
:103C30008800840084008800F000900088008400E0
:103C40008400000000000000000000000000780078
:103C5000840080004000300008000400040084005C
:103C60007800000000000000000000000000FE00DE
:103C700010001000100010001000100010001000C4
:103C800010000000000000000000000000008400A0
:103C90008400840084008400840084008400840004
:103CA000780000000000000000000000000082001A
:103CB00082004400440044004400280028002800FA
:103CC0001000000000000000000000000000840060
:103CD000840084008400B400B400B400780048007C
:103CE000480000000000000000000000000082000A
:103CF0004400440028001000100028004400440044
:103D000082000000000000000000000000008200AF
:103D10004400440028002800280010001000100073
:103D20001000000000000000000000000000FC0087
:103D300004000800080010001000200040004000AF
:103D4000FE0000000000000000000000E000800015
:103D50008000800080008000800080008000800063
:103D60008000E000000000000000000000004000B3
:103D7000400020002000100010000800080004008F
:103D8000040000000000000000000000E00020002F
:103D90002000200020002000200020002000200023
:103DA0002000E00000000000000000000000100003
:103DB0002800440000000000000000000000000097
:103DC00000000000000000000000000000000000F3
:103DD00000000000000000000000000000000000E3
:103DE0007C00000000000000000000000000200037
:103DF00010000800000000000000000000000000AB
:103E000000000000000000000000000000000000B2
:103E1000000000007800040004007C0084008C0096
:103E2000760000000000000000000000800080001C
:103E300080008000B800C4008400840084008800F2
:103E4000F000000000000000000000000000000082
:103E5000000000007C008000800080008000800066
:103E60007C000000000000000000000002000200D2
:103E7000020002003E0042008200820082004200F6
:103E80003E000000000000000000000000000000F4
:103E9000000000007C0082008200FE0080008000A4
:103EA0007E000000000000000000000000001C0078
:103EB00020002000FC002000200020002000200026
:103EC000FC000000000000000000000000000000F6
:103ED000000000007C0084008400840084008C00CA
:103EE00074000400440038000000000080008000DE
:103EF00080008000B800C400840084008400840036
:103F0000840000000000000000000000000010001D
:103F100000000000700010001000100010001000E1
:103F20007C0000000000000000000000000008000D
:103F300000000000780008000800080008000800E1
:103F4000080008001000E000000000008000800071
:103F50008000800088009000A000E00090008800B1
:103F60008400000000000000000000000000F000DD
:103F700010001000100010001000100010001000C1
:103F8000FE00000000000000000000000000000033
:103F900000000000AC00D400940094009400940051
:103FA000940000000000000000000000000000007D
:103FB00000000000B800C400840084008400840075
:103FC000840000000000000000000000000000006D
:103FD00000000000780084008400840084008400D5
:103FE0007800000000000000000000000000000059
:103FF00000000000B800C400840084008400840035
:10400000F800800080008000000000000000000038
:10401000000000007C008400840084008400840090
:104020007C00040004000400000000000000000008
:1040300000000000CC003000200020002000200004
:10404000F800000000000000000000000000000078
:10405000000000007C008000800078000400040064
:10406000F800000000000000000000000000000058
:1040700000002000FC002000200020002000200084
:104080001C00000000000000000000000000000014
:1040900000000000880088008800880088008800F0
:1040A000740000000000000000000000000000009C
:1040B0000000000082004400440028002800100096
:1040C00010000000000000000000000000000000E0
:1040D0000000000084008400B400B40048004800E0
:1040E0004800000000000000000000000000000088
:1040F00000000000440028002800100028004400B0
:10410000440000000000000000000000000000006B
:10411000000000008200440044002800280028001D
:10412000100010002000200000000000000000002F
:1041300000000000FC000400080010002000400007
:10414000FC0000000000000000000000080010005B
:1041500010000800080010001000080008001000FF
:104160001000080000000000000000001000100017
:1041700010001000100000000000100010001000DF
:1041800010001000000000000000000020001000DF
:10419000100020002000100010002000200010005F
:1041A00010002000000000000D00050A4B00000078
:1041B000321900008B00000E0800803205020A034D
:1041C0000320020F0F0A0000000018182020000032
:1041D0000000000A0000020200001818000003009E
:1041E00000000000020001181E1E1E1E1E1E1E1EC4
:1041F0001E1E1E1E1E1E000000000000000000000B
:104200000000000000000000CB5ACB5ACB5ACB5A1A
:10421000CB5ACB5ACB5ACB5ACB5ACB5ACB5ACB5A76
:10422000CB5ACB5ACB5ACB5ACB5ACB5ACB5ACB5A66
:10423000CB5ACB5ACB5ACB5ACB5ACB5ACB5ACB5A56
:10424000CB5ACB5ACB5ACB5ACB5ACB5ACB5ACB5A46
:10425000CB5ACB5ACB5ACB5ACB5ACB5ACB5ACB5A36
:10426000CB5ACB5ACB5ACB5ACB5ACB5ACB5ACB5A26
:10427000CB5ACB5ACB5AAA52CB5ACB5ACB5ACB5A3F
:10428000CB5ACB5ACB5ACB5ACB5ACB5ACB5ACB5A06
:10429000CB5ACB5ACB5ACB5ACB5ACB5ACB5ACB5AF6
:1042A000CB5ACB5ACB5ACB5ACB5ACB5ACB5ACB5AE6
:1042B000CB5ACB5ACB5ACB5ACB5ACB5ACB5ACB5AD6
:1042C000CB5ACB5ACB5ACB5ACB5ACB5ACB5ACB5AC6
:1042D000CB5ACB5ACB5ACB5ACB5ACB5ACB5ACB5AB6
:1042E000CB5ACB5ACB5ACB5ACB5ACB5ACB5ACB5AA6
:1042F000CB5ACB5ACB5ACB5ACB5ACB5ACB5ACB5A96
:10430000CB5ACB5ACB5ACB5ACB5ACB5ACB5ACB5A85
:10431000CB5ACB5ACB5ACB5ACB5ACB5AAA52CB5A9E
:10432000CB5ACB5ACB5ACB5ACB5ACB5ACB5ACB5A65
:10433000CB5ACB5ACB5ACB5ACB5ACB5ACB5ACB5A55
:10434000CB5ACB5ACB5ACB5ACB5ACB5ACB5ACB5A45
:10435000CB5ACB5ACB5ACB5ACB5ACB5ACB5ACB5A35
:10436000CB5ACB5ACB5ACB5ACB5ACB5ACB5ACB5A25
:10437000CB5ACB5ACB5ACB5ACB5ACB5ACB5ACB5A15
:10438000CB5ACB5ACB5ACB5ACB5ACB5ACB5ACB5A05
:10439000CB5ACB5ACB5ACB5ACB5ACB5ACB5ACB5AF5
:1043A000CB5ACB5ACB5ACB5ACB5ACB5ACB5ACB5AE5
:1043B000CB5ACB5ACB5ACB5ACB5ACB5ACB5ACB5AD5
:1043C000CB5ACB5ACB5ACB5ACB5ACB5ACB5ACB5AC5
:1043D000CB5ACB5ACB5ACB5ACB5ACB5ACB5ACB5AB5
:1043E000CB5ACB5ACB5ACB5ACB5ACB5ACB5ACB5AA5
:1043F000CB5ACB5ACB5ACB5ACB5ACB5ACB5ACB5A95
:10440000CB5ACB5ACB5ACB5ACB5ACB5ACB5ACB5A84
:10441000CB5ACB5ACB5ACB5ACB5ACB5ACB5ACB5A74
:10442000CB5ACB5ACB5ACB5ACB5ACB5ACB5ACB5A64
:10443000CB5ACB5ACB5ACB5ACB5ACB5ACB5ACB5A54
:10444000CB5ACB5ACB5ACB5ACB5ACB5ACB5ACB5A44
:10445000CB5ACB5ACB5ACB5ACB5ACB5ACB5ACB5A34
:10446000CB5ACB5ACB5ACB5ACB5ACB5ACB5ACB5A24
:10447000CB5ACB5ACB5ACB5ACB5ACB5ACB5ACB5A14
:10448000CB5ACB5ACB5ACB5ACB5ACB5ACB5ACB5A04
:10449000CB5ACB5ACB5ACB5ACB5ACB5ACB5ACB5AF4
:1044A000CB5ACB5ACB5ACB5ACB5ACB5ACB5ACB5AE4
:1044B000CB5ACB5ACB5ACB5ACB5ACB5ACB5ACB5AD4
:1044C000CB5ACB5ACB5ACB5ACB5ACB5ACB5ACB5AC4
:1044D000CB5ACB5ACB5ACB5ACB5ACB5ACB5ACB5AB4
:1044E000CB5ACB5ACB5ACB5ACB5ACB5ACB5ACB5AA4
:1044F000CB5ACB5ACB5ACB5ACB5ACB5ACB5ACB5A94
:10450000CB5ACB5AAA52CB5ACB5ACB5ACB5ACB5AAC
:10451000CB5ACB5ACB5ACB5ACB5ACB5ACB5ACB5A73
:10452000CB5ACB5ACB5ACB5ACB5ACB5ACB5ACB5A63
:10453000CB5ACB5ACB5ACB5ACB5ACB5ACB5ACB5A53
:10454000CB5ACB5ACB5ACB5ACB5ACB5ACB5ACB5A43
:10455000CB5ACB5ACB5ACB5ACB5ACB5ACB5ACB5A33
:10456000CB5ACB5ACB5ACB5ACB5ACB5ACB5ACB5A23
:10457000CB5ACB5ACB5ACB5ACB5ACB5ACB5ACB5A13
:10458000CB5ACB5ACB5ACB5ACB5ACB5ACB5ACB5A03
:10459000CB5ACB5ACB5ACB5ACB5ACB5ACB5ACB5AF3
:1045A000CB5ACB5ACB5ACB5ACB5ACB5ACB5ACB5AE3
:1045B000CB5ACB5ACB5ACB5ACB5ACB5ACB5ACB5AD3
:1045C000CB5ACB5ACB5ACB5ACB5ACB5ACB5ACB5AC3
:1045D000CB5ACB5ACB5ACB5ACB5ACB5ACB5ACB5AB3
:1045E000CB5ACB5ACB5ACB5ACB5ACB5AAA52CB5ACC
:1045F000CB5ACB5ACB5ACB5ACB5ACB5ACB5ACB5A93
:10460000CB5ACB5ACB5ACB5ACB5ACB5ACB5ACB5A82
:10461000CB5ACB5ACB5ACB5ACB5ACB5ACB5ACB5A72
:10462000CB5ACB5ACB5ACB5ACB5ACB5ACB5ACB5A62
:10463000CB5ACB5ACB5ACB5ACB5ACB5ACB5ACB5A52
:10464000CB5ACB5ACB5ACB5ACB5ACB5ACB5ACB5A42
:10465000CB5ACB5ACB5ACB5ACB5ACB5ACB5ACB5A32
:10466000CB5ACB5ACB5ACB5ACB5ACB5ACB5ACB5A22
:10467000CB5ACB5ACB5ACB5ACB5ACB5ACB5ACB5A12
:10468000CB5ACB5ACB5ACB5ACB5ACB5ACB5ACB5A02
:10469000CB5ACB5ACB5ACB5ACB5ACB5ACB5ACB5AF2
:1046A000CB5ACB5ACB5ACB5ACB5ACB5ACB5ACB5AE2
:1046B000CB5ACB5ACB5ACB5ACB5ACB5ACB5ACB5AD2
:1046C000CB5ACB5ACB5ACB5ACB5ACB5ACB5ACB5AC2
:1046D000CB5ACB5ACB5ACB5ACB5ACB5ACB5ACB5AB2
:1046E000CB5ACB5ACB5ACB5ACB5ACB5ACB5ACB5AA2
:1046F000CB5ACB5ACB5ACB5ACB5ACB5ACB5ACB5A92
:10470000CB5ACB5ACB5ACB5ACB5ACB5ACB5ACB5A81
:10471000CB5ACB5ACB5ACB5ACB5ACB5ACB5ACB5A71
:10472000CB5ACB5ACB5ACB5ACB5ACB5ACB5ACB5A61
:10473000CB5ACB5ACB5ACB5ACB5ACB5ACB5ACB5A51
:10474000CB5ACB5ACB5ACB5ACB5ACB5ACB5ACB5A41
:10475000CB5ACB5ACB5ACB5ACB5ACB5ACB5ACB5A31
:10476000CB5ACB5ACB5ACB5ACB5ACB5ACB5ACB5A21
:10477000CB5ACB5ACB5ACB5ACB5ACB5ACB5ACB5A11
:10478000CB5ACB5ACB5ACB5ACB5ACB5ACB5ACB5A01
:10479000CB5ACB5ACB5ACB5ACB5ACB5ACB5ACB5AF1
:1047A000CB5ACB5ACB5ACB5ACB5ACB5ACB5ACB5AE1
:1047B000CB5ACB5ACB5ACB5ACB5ACB5ACB5ACB5AD1
:1047C000AA52CB5ACB5ACB5ACB5ACB5ACB5ACB5AEA
:1047D000CB5ACB5ACB5ACB5ACB5ACB5ACB5ACB5AB1
:1047E000CB5ACB5ACB5ACB5ACB5ACB5ACB5ACB5AA1
:1047F000CB5ACB5ACB5ACB5ACB5ACB5ACB5ACB5A91
:10480000CB5ACB5ACB5ACB5ACB5ACB5ACB5ACB5A80
:10481000CB5ACB5ACB5ACB5ACB5ACB5ACB5ACB5A70
:10482000CB5ACB5ACB5ACB5ACB5ACB5ACB5ACB5A60
:10483000CB5ACB5ACB5ACB5ACB5ACB5ACB5ACB5A50
:10484000CB5ACB5ACB5ACB5ACB5ACB5ACB5ACB5A40
:10485000CB5ACB5ACB5ACB5ACB5ACB5ACB5ACB5A30
:10486000CB5ACB5ACB5ACB5ACB5ACB5ACB5ACB5A20
:10487000CB5ACB5ACB5ACB5ACB5ACB5ACB5ACB5A10
:10488000CB5ACB5ACB5ACB5ACB5ACB5ACB5ACB5A00
:10489000CB5ACB5ACB5ACB5ACB5ACB5ACB5ACB5AF0
:1048A000CB5ACB5ACB5ACB5ACB5ACB5ACB5ACB5AE0
:1048B000CB5ACB5ACB5ACB5ACB5ACB5ACB5ACB5AD0
:1048C000CB5ACB5ACB5ACB5ACB5ACB5ACB5ACB5AC0
:1048D000CB5ACB5ACB5ACB5ACB5ACB5ACB5ACB5AB0
:1048E000CB5ACB5ACB5ACB5ACB5ACB5ACB5ACB5AA0
:1048F000CB5ACB5ACB5ACB5ACB5ACB5ACB5ACB5A90
:10490000CB5ACB5ACB5ACB5ACB5ACB5ACB5ACB5A7F
:10491000CB5ACB5ACB5ACB5ACB5ACB5ACB5ACB5A6F
:10492000CB5ACB5ACB5ACB5ACB5ACB5ACB5ACB5A5F
:10493000CB5ACB5ACB5ACB5ACB5ACB5ACB5ACB5A4F
:10494000CB5ACB5ACB5ACB5ACB5ACB5ACB5ACB5A3F
:10495000CB5ACB5ACB5ACB5ACB5ACB5ACB5ACB5A2F
:10496000CB5ACB5ACB5ACB5ACB5ACB5ACB5ACB5A1F
:10497000CB5ACB5ACB5ACB5ACB5ACB5ACB5ACB5A0F
:10498000CB5ACB5ACB5ACB5ACB5AAA52CB5ACB5A28
:10499000CB5ACB5ACB5ACB5ACB5ACB5ACB5ACB5AEF
:1049A000CB5ACB5ACB5ACB5ACB5ACB5ACB5ACB5ADF
:1049B000CB5ACB5ACB5ACB5ACB5ACB5ACB5ACB5ACF
:1049C000CB5ACB5ACB5ACB5ACB5ACB5ACB5ACB5ABF
:1049D000CB5ACB5ACB5ACB5ACB5ACB5ACB5ACB5AAF
:1049E000CB5ACB5ACB5ACB5ACB5ACB5ACB5ACB5A9F
:1049F000CB5ACB5ACB5ACB5ACB5ACB5ACB5ACB5A8F
:104A0000CB5ACB5ACB5ACB5ACB5ACB5ACB5ACB5A7E
:104A1000CB5ACB5ACB5ACB5ACB5ACB5ACB5ACB5A6E
:104A2000CB5ACB5ACB5ACB5ACB5ACB5ACB5ACB5A5E
:104A3000CB5ACB5ACB5ACB5ACB5ACB5ACB5ACB5A4E
:104A4000CB5ACB5ACB5ACB5ACB5ACB5ACB5ACB5A3E
:104A5000CB5ACB5ACB5ACB5ACB5ACB5ACB5ACB5A2E
:104A6000CB5ACB5ACB5ACB5ACB5ACB5ACB5ACB5A1E
:104A7000CB5ACB5ACB5ACB5ACB5ACB5ACB5ACB5A0E
:104A8000CB5ACB5ACB5ACB5ACB5ACB5ACB5ACB5AFE
:104A9000CB5ACB5ACB5ACB5ACB5ACB5ACB5ACB5AEE
:104AA000CB5ACB5ACB5ACB5ACB5ACB5ACB5ACB5ADE
:104AB000CB5ACB5ACB5AAA52CB5ACB5AAA52CB5A20
:104AC000CB5ACB5ACB5ACB5ACB5ACB5ACB5ACB5ABE
:104AD000CB5ACB5ACB5ACB5ACB5ACB5ACB5ACB5AAE
:104AE000CB5ACB5ACB5ACB5ACB5ACB5ACB5ACB5A9E
:104AF000CB5ACB5ACB5ACB5AAA52CB5ACB5ACB5AB7
:104B0000CB5ACB5ACB5ACB5ACB5ACB5ACB5ACB5A7D
:104B1000CB5ACB5ACB5ACB5ACB5ACB5ACB5ACB5A6D
:104B2000CB5ACB5ACB5ACB5ACB5ACB5ACB5ACB5A5D
:104B3000CB5ACB5ACB5ACB5ACB5ACB5ACB5ACB5A4D
:104B4000CB5ACB5ACB5ACB5ACB5ACB5ACB5ACB5A3D
:104B5000CB5ACB5ACB5ACB5ACB5ACB5ACB5ACB5A2D
:104B6000CB5ACB5ACB5ACB5ACB5ACB5ACB5ACB5A1D
:104B7000CB5ACB5ACB5ACB5ACB5ACB5ACB5ACB5A0D
:104B8000CB5ACB5ACB5ACB5ACB5ACB5ACB5ACB5AFD
:104B9000CB5ACB5ACB5ACB5ACB5ACB5ACB5ACB5AED
:104BA000CB5ACB5ACB5ACB5ACB5ACB5ACB5ACB5ADD
:104BB000CB5ACB5ACB5ACB5ACB5ACB5ACB5ACB5ACD
:104BC000CB5ACB5ACB5ACB5ACB5ACB5ACB5ACB5ABD
:104BD000CB5ACB5ACB5ACB5ACB5ACB5ACB5ACB5AAD
:104BE000CB5ACB5ACB5ACB5ACB5ACB5ACB5ACB5A9D
:104BF000CB5ACB5ACB5ACB5ACB5AAA52CB5ACB5AB6
:104C0000CB5ACB5ACB5ACB5ACB5ACB5ACB5ACB5A7C
:104C1000CB5ACB5ACB5ACB5ACB5ACB5ACB5ACB5A6C
:104C2000CB5ACB5ACB5ACB5ACB5ACB5ACB5AAA5285
:104C3000CB5AAA52CB5ACB5ACB5ACB5ACB5ACB5A75
:104C4000CB5ACB5ACB5ACB5ACB5ACB5ACB5ACB5A3C
:104C5000CB5ACB5ACB5ACB5ACB5ACB5ACB5ACB5A2C
:104C6000CB5ACB5ACB5ACB5ACB5ACB5ACB5ACB5A1C
:104C7000CB5ACB5ACB5ACB5ACB5ACB5ACB5ACB5A0C
:104C8000CB5ACB5ACB5ACB5ACB5ACB5ACB5ACB5AFC
:104C9000CB5ACB5ACB5ACB5ACB5ACB5ACB5ACB5AEC
:104CA000CB5ACB5ACB5ACB5ACB5ACB5ACB5ACB5ADC
:104CB000CB5ACB5ACB5ACB5ACB5ACB5ACB5ACB5ACC
:104CC000CB5ACB5ACB5ACB5ACB5ACB5ACB5ACB5ABC
:104CD000CB5AAA52CB5ACB5ACB5ACB5ACB5ACB5AD5
:104CE000CB5ACB5ACB5ACB5ACB5ACB5ACB5ACB5A9C
:104CF000CB5ACB5ACB5ACB5ACB5ACB5AAA52CB5AB5
:104D0000CB5ACB5ACB5ACB5ACB5ACB5ACB5ACB5A7B
:104D1000CB5ACB5ACB5ACB5ACB5ACB5ACB5ACB5A6B
:104D2000CB5ACB5ACB5ACB5ACB5ACB5ACB5ACB5A5B
:104D3000CB5ACB5ACB5ACB5ACB5ACB5ACB5ACB5A4B
:104FF000CB5ACB5AAA52CB5ACB5ACB5ACB5ACB5AB2
:10500000CB5ACB5ACB5ACB5ACB5ACB5ACB5ACB5A78
:10501000CB5ACB5ACB5ACB5ACB5ACB5ACB5ACB5A68
:10502000CB5ACB5ACB5ACB5ACB5ACB5ACB5ACB5A58
:10503000CB5ACB5ACB5ACB5ACB5ACB5ACB5ACB5A48
:10504000CB5ACB5ACB5ACB5ACB5ACB5ACB5ACB5A38
:10505000CB5ACB5ACB5ACB5ACB5ACB5ACB5AAA5251
:10506000CB5ACB5ACB5ACB5ACB5ACB5ACB5ACB5A18
:10507000CB5ACB5ACB5ACB5ACB5ACB5ACB5ACB5A08
:10508000CB5ACB5ACB5ACB5ACB5ACB5ACB5ACB5AF8
:10509000CB5ACB5ACB5ACB5ACB5ACB5ACB5ACB5AE8
:1050A000CB5ACB5ACB5ACB5ACB5ACB5ACB5ACB5AD8
:1050B000CB5ACB5ACB5ACB5ACB5ACB5ACB5AAA52F1
:1050C000EB5ACB5ACB5ACB5ACB5ACB5ACB5ACB5A98
:1050D000CB5ACB5ACB5ACB5ACB5ACB5ACB5ACB5AA8
:1050E000CB5ACB5ACB5ACB5ACB5ACB5ACB5ACB5A98
:1050F000CB5ACB5ACB5ACB5ACB5ACB5ACB5AAA52B1
:10510000CB5ACB5ACB5ACB5ACB5ACB5ACB5ACB5A77
:10511000CB5ACB5AEF7B3084308430843084308457
:1051200030843084308430843084308430843084DF
:1051300030843084308430843084308430843084CF
:1051400030843084308430843084308430843084BF
:10515000EF7B0C63CB5ACB5ACB5ACB5ACB5ACB5A98
:10516000CB5ACB5ACB5ACB5ACB5ACF7B30843084D4
:10517000308430843084308430843084308430848F
:10518000308430843084308430843084308430847F
:10519000308430843084308430843084308430846F
:1051A0003084308430843084CF7BCB5ACB5ACB5A76
:1051B000CB5ACB5ACB5ACB5ACB5ACB5ACB5ACB5AC7
:1051C0000C63EF7B308430843084308430843084CE
:1051D000308430843084308430843084308430842F
:1051E000308430843084308430843084308430841F
:1051F0003084308430843084308430843084EF7B59
:10520000CB5ACB5ACB5ACB5ACB5ACB5ACB5ACB5A76
:10521000CB5ACB5ACB5ACB5AEF7B30843084308474
:1052200030841084308430843084308430843084FE
:1052300030843084308430843084308430843084CE
:1052400030843084308430843084308430843084BE
:10525000308430841084AE73CB5ACB5ACB5ACB5A9D
:10526000CB5ACB5ACB5ACB5ACB5ACB5ACB5A2C63AC
:1052700010843084308430843084308430843084AE
:10528000308430843084308430843084308430847E
:10529000308430843084308430843084308430846E
:1052A000308430843084308430841084CF7BCB5A77
:1052B000CB5ACB5ACB5ACB5ACB5ACB5ACB5ACB5AC6
:1052C000AA52CB5A0C63EF7B308430843084308414
:1052D000308430843084308430843084308430842E
:1052E000308430843084308430843084308430841E
:1052F000308430843084308430843084308430840E
:10530000308430848E73CB5ACB5ACB5ACB5ACB5A7B
:10531000CB5ACB5ACB5ACB5ACB5ACB5A4D6B108463
:1053200030843084308430843084308430843084DD
:1053300030843084308430843084308430843084CD
:1053400030843084308430843084308430843084BD
:1053500030843084308430843084AE73CB5ACB5A5E
:10536000CB5ACB5ACB5ACB5ACB5ACB5ACB5ACB5A15
:10537000CB5A2C6310843084308430843084308461
:10538000308430843084308430843084308430847D
:10539000308430843084308430843084308430846D
:1053A000308430843084308430843084308430845D
:1053B00010846D6BCB5ACB5ACB5ACB5ACB5ACB5AA3
:1053C000CB5ACB5ACB5ACB5ACB5A6D6B1084308404
:1053D000308430843084308430843084308430842D
:1053E000308430843084308430843084308430841D
:1053F000308430843084308430843084308430840D
:1054000030841084308410848E73CB5ACB5ACB5A9C
:10541000CB5ACB5ACB5ACB5ACB5ACB5ACB5ACB5A64
:105420004D6B1084308430843084308430843084F8
:1054300030843084308430843084308430843084CC
:1054400030843084308430843084308430843084BC
:1054500030843084308430843084308430841084CC
:105460004D6BCB5ACB5ACB5ACB5ACB5ACB5ACB5A81
:10547000CB5ACB5ACB5ACB5A0C632C632C632C637C
:105480002C632C632C632C634D6B4D6B4D6B4D6B00
:105490004D6B2C632C632C634D6B2C632C632C6342
:1054A0002C632C634D6B4D6B2C634D6B2C632C6309
:1054B0002C634D6B4D6B4D6B2C632C63CB5ACB5ACD
:1054C000CB5ACB5ACB5ACB5ACB5ACB5ACB5ACB5AB4
:1054D0008E73518C518C518C518C518C518C518CC0
:1054E000518C518C518C518C518C518C518C518CD4
:1054F000718C518C518C518C518C518C518C518CA4
:10550000518C518C518C518C718C518C518C518C93
:10551000518C518CEF7BCB5ACB5ACB5ACB5ACB5AAE
:10552000CB5ACB5ACB5A4D6B518C518C518C518CE0
:10553000518C518C518C518C518C518C518C518C83
:10554000518C518C518C518C518C518C518C518C73
:10555000518C518C518C518C518C518C518C518C63
:10556000718C518C518C718C518C518C4D6BCB5AF0
:10557000CB5ACB5ACB5ACB5ACB5ACB5ACB5AEF7BBE
:10558000518C518C518C518C518C518C518C518C33
:10559000518C518C518C518C518C518C518C718C03
:1055A000518C518C518C518C518C518C518C518C13
:1055B000518C518C518C518C518C518C518C518C03
:1055C000518C8E73CB5ACB5ACB5ACB5ACB5ACB5A1F
:1055D000CB5ACB5AAE73518C518C518C518C518C0F
:1055E000718C718C518C518C518C518C718C518C73
:1055F000518C518C518C518C518C518C518C518CC3
:10560000518C518C518C518C718C518C518C518C92
:10561000518C518C518C518C518CEB5ACB5ACB5AAA
:10562000CB5ACB5ACB5ACB5ACB5ACB5A3084518C0B
:10563000518C518C518C518C518C518C518C518C82
:10564000518C718C518C518C518C518C518C518C52
:10565000518C518C518C518C518C518C518C518C62
:10566000518C518C518C518C518C518C518C518C52
:105670004D6BCB5ACB5ACB5ACB5ACB5ACB5ACB5A6F
:10568000CB5AEF7B518C518C518C518C518C518C5D
:10569000718C518C518C518C518C518C518C518C02
:1056A000518C518C518C518C518C518C518C518C12
:1056B000518C518C518C518C518C718C518C518CE2
:1056C000518C518C518C518CCB5ACB5ACB5ACB5AD2
:1056D000CB5ACB5ACB5ACB5ACB5A518C518C518C7A
:1056E000718C518C518C518C518C518C518C518CB2
:1056F000718C518C518C518C518C518C518C518CA2
:10570000518C518C518C518C718C518C518C718C71
:10571000518C718C518C518C718C518C518CEB5AF9
:10572000CB5ACB5ACB5ACB5ACB5ACB5ACB5ACB5A51
:105730003084518C518C518C518C518C518C518CAA
:10574000518C518C718C518C518C518C518C518C51
:10575000518C518C518C518C518C518C518C718C41
:10576000518C518C518C518C518C518C518C718C31
:10577000518C518C518CCB5ACB5ACB5ACB5ACB5AD9
:10578000CB5ACB5ACB5ACB5A518C518C518C518C11
:10579000518C518C518C718C518C518C518C518C01
:1057A000518C518C518C518C518C518C518C518C11
:1057B000518C518C518C518C518C518C518C718CE1
:1057C000518C518C518C518C518C518CCB5ACB5A61
:1057D000CB5ACB5ACB5ACB5ACB5ACB5ACB5A518CE9
:1057E000518C518C718C718C518C518C518C518C91
:1057F000518C518C518C518C518C518C518C718CA1
:10580000518C518C518C518C518C518C518C518CB0
:10581000518C518C518C518C718C518C718C518C60
:10582000718C518CCB5ACB5ACB5ACB5ACB5ACB5AC0
:10583000CB5ACB5ACB5A4D6B4D6B4D6B4D6B4D6B61
:105840004D6B4D6B4D6B4D6B4D6B4D6B4D6B4D6B98
:105850004D6B4D6B4D6B4D6B4D6B4D6B4D6B4D6B88
:105860002C634D6B4D6B4D6B4D6B4D6B4D6B4D6BA1
:105870004D6B4D6B4D6B4D6B2C634D6B4D6B0C63DA
:10588000CB5ACB5ACB5ACB5ACB5ACB5ACB5ACB5AF0
:10589000518C718C718C518C518C518C518C518CE0
:1058A000518C518C518C518C518C518C518C518C10
:1058B000518C518C518C518C518C518C518C518C00
:1058C000518C518C518C518C518C518C518C518CF0
:1058D000518C518C518CCB5ACB5ACB5ACB5ACB5A78
:1058E000CB5ACB5ACB5A518C518C518C518C718CD8
:1058F000518C518C518C518C518C518C518C518CC0
:10590000518C518C718C518C518C518C518C518C8F
:10591000518C518C518C518C518C518C518C518C9F
:10592000518C518C518C518C518C518C518CCB5A47
:10593000CB5ACB5ACB5ACB5ACB5ACB5ACB5A518C87
:10594000518C518C518C518C518C518C518C518C6F
:10595000518C518C518C518C518C518C518C518C5F
:10596000518C518C518C518C518C518C518C518C4F
:10597000518C518C518C518C518C518C518C518C3F
:10598000518C518CCB5ACB5ACB5ACB5ACB5ACB5A7F
:10599000CB5ACB5A518C518C518C518C518C518C8F
:1059A000518C518C518C518C518C518C518C518C0F
:1059B000518C518C518C518C518C518C518C518CFF
:1059C000518C518C518C518C518C518C518C518CEF
:1059D000518C518C518C518C718C518CCB5ACB5A2F
:1059E000CB5ACB5ACB5ACB5ACB5A0C63718C518CB5
:1059F000518C518C518C518C518C518C518C518CBF
:105A0000518C518C518C518C518C518C518C518CAE
:105A1000518C518C518C518C518C518C518C518C9E
:105A2000518C518C518C518C518C518C518C518C8E
:105A3000518CCB5ACB5AAA52CB5ACB5ACB5ACB5AAF
:105A4000CB5A518C718C518C518C518C518C518C06
:105A5000518C518C518C518C518C518C518C518C5E
:105A6000518C518C518C518C518C518C518C518C4E
:105A7000518C518C518C518C518C518C518C518C3E
:105A8000518C518C518C518C1084CB5ACB5ACB5A9F
:105A9000CB5ACB5ACB5ACB5A4D6B518C518C518C23
:105AA000518C518C518C518C518C518C518C518C0E
:105AB000518C518C518C518C518C518C718C518CDE
:105AC000718C518C518C518C518C518C518C518CCE
:105AD000718C518C518C518C518C518C518C518CBE
:105AE000CB5ACB5ACB5ACB5ACB5ACB5ACB5A0C6344
:105AF000518C518C518C518C518C518C518C518CBE
:105B0000518C518C518C518C518C518C518C518CAD
:105B1000518C518C518C518C518C518C518C518C9D
:105B2000518C518C518C518C518C518C518C518C8D
:105B3000518C518C518CAE73CB5ACB5ACB5ACB5A19
:105B4000CB5ACB5ACB5AAE73518C518C518C518C51
:105B5000518C518C518C518C518C518C518C518C5D
:105B6000518C518C518C518C718C518C518C518C2D
:105B7000518C518C518C518C518C518C718C518C1D
:105B8000518C518C518C518C518C518C1084CB5A2E
:105B9000CB5ACB5ACB5ACB5ACB5ACB5A4D6B518C92
:105BA000518C518C518C518C518C518C518C518C0D
:105BB000518C518C518C518C518C518C518C518CFD
:105BC000518C518C518C718C518C518C518C518CCD
:105BD000518C518C518C518C518C518C518C518CDD
:105BE000518C518C4D6BCB5ACB5ACB5ACB5ACB5A8A
:105BF000CB5ACB5A2C634D6B4D6B4D6B4D6B4D6B34
:105C00004D6B2C634D6B4D6B4D6B4D6B4D6B4D6BFD
:105C10004D6B4D6B4D6B4D6B4D6B4D6B4D6B4D6BC4
:105C20004D6B4D6B4D6B4D6B2C634D6B4D6B2C6306
:105C30004D6B4D6B4D6B4D6B4D6B4D6B4D6B4D6BA4
:105C4000CB5ACB5ACB5ACB5ACB5ACB5ACB5ACB5A2C
:105C5000518C518C518C518C518C518C518C518C5C
:105C6000518C518C518C518C518C518C518C518C4C
:105C7000518C518C518C518C518C518C518C518C3C
:105C8000518C518C518C518C518C518C518C518C2C
:105C9000518C518C518CEB5ACB5ACB5ACB5ACB5A94
:105CA000CB5ACB5ACB5A518C518C518C518C518C34
:105CB000518C518C718C518C518C518C518C518CDC
:105CC000518C518C518C518C518C518C518C518CEC
:105CD000518C518C518C518C518C518C518C518CDC
:105CE000518C518C518C518C518C518C518CCB5A84
:105CF000CB5ACB5ACB5ACB5ACB5ACB5AEB5A518CA4
:105D0000518C518C518C518C518C518C518C518CAB
:105D1000518C518C518C518C518C518C518C518C9B
:105D2000518C518C518C518C518C518C518C518C8B
:105D3000518C518C518C518C518C518C518C518C7B
:105D4000518C518CCB5ACB5ACB5ACB5ACB5ACB5ABB
:105D5000CB5ACB5A518C518C518C518C518C518CCB
:105D6000518C518C518C518C518C518C518C518C4B
:105D7000518C518C518C518C518C518C518C518C3B
:105D8000518C518C518C518C518C518C518C518C2B
