S01A0000536F756E64496E536F756E644F75745F56322E7372656322
S214400000E0924020B1014000AD01400009054000AB
S214400010AD01400031054000590540000000000099
S214400020000000000000000000000000AD0140009D
S214400030AD01400000000000AD0140002109400035
S214400040AD014000AD014000AD014000AD014000B3
S214400050AD014000AD014000AD014000AD014000A3
S214400060AD0140000000000095074000A907400091
S214400070BD074000AD014000AD014000AD0140006D
S214400080D1074000E5074000AD014000892140000F
S214400090AD014000AD014000AD014000AD01400063
S2144000A0AD014000AD014000AD014000AD01400053
S2144000B0AD014000AD014000AD014000AD01400043
S2144000C0AD014000AD014000AD014000AD01400033
S2144000D000000000AD01400000000000AD014000FF
S2144000E0AD014000AD014000AD014000AD01400013
S2144000F0AD014000AD014000AD014000AD01400003
S214400100AD014000AD014000AD014000AD014000F2
S214400110AD014000AD0140000000000000000000BE
S214400120AD014000AD01400075214000AD014000EA
S214400130AD01400000000000AD014000AD014000B0
S21440014010B5054C237833B9044B13B10448AFF3CC
S21440015000800123237010BDC0094020000000002D
S214400160DC9D40000C4B43B10C480D4910B5AFF335
S21440017000800C48036823B910BD0A48036833B9A9
S2144001807047094B002BF7D0BDE810401847064B88
S214400190002BF5D0184700BF00000000DC9D400053
S2144001A0C4094020DC9D400000000000FEE700003F
S2144001B008B5104B104A9A4209D00E4B0E4A03E03F
S2144001C011681960043304320C498B42F8D30C4B47
S2144001D002E000221A6004330A4A9342F9D30A4ADC
S2144001E00A4B23F07F039360094B9847094B984787
S2144001F0FEE700BF00004020DC9D4000B0094020E4
S214400200C0094020DC8C402000ED00E000004000AB
S214400210552440009D214000F0B587B007460E4665
S2144002206C461A4D0FCD0FC495E8030084E80300D2
S214400230174B184AC3F8E421D3F8142142F01002B1
S214400240C3F8142102216846134B9847134C4FF4C9
S214400250867323604FF0FF33E3600E20104B9847C1
S214400260B6FBF7F6360926624FF40C6363605023FC
S214400270236001220B4B1A700B4B18680023022296
S21440028019468068094CA04707B0F0BD88894000F1
S214400290008008400054414D5D064000008002400A
S2144002A0F9074000DC09402004004020492C40006B
S2144002B010B504460A4B1B7863B10A4B5B6913F4CE
S2144002C0007FFAD0074BDC61064B5B6913F4007F76
S2144002D0FAD010BD04494FF4E130044B9847ECE7A0
S2144002E0DC0940200080024080D1F008190240001E
S2144002F00346064A126822B1044A10680344136053
S21440030070470349014A1160F6E700BFE409402000
S214400310E08C40204FF0FF3070474FF400534B6066
S214400320002070470120704700207047002070472B
S21440033070B50D461646002404E015F8010B034B35
S21440034098470134B442F8DB204670BDB102400005
S21440035008B501460148024B9847FEE7A089400091
S214400360FD2B400070474FF0FF30704710B586B009
S21440037000238DF814308DF8153002930223019334
S21440038005AB00930123C9B2044CA0479DF8140066
S2144003909DF8153043EA002006B010BDED0E400033
S2144003A010B586B01C0A8DF814408DF81530002321
S2144003B002930223019305AB00930123C9B2024C7A
S2144003C0A04706B010BD00BF651040002DE9F843B9
S2144003D08146884614464FF6FF730022314DA847A3
S2144003E0002001E0013080B2B0F57A7FFAD304E015
S2144003F00022414648462C4B984748F604139842FC
S214400400F6D1002C45D0012C45D10024FF2C46D0F7
S214400410264B03EB840393F89620FF2A3FD0234BCA
S21440042003EB8403B3F89430414648461D4DA84735
S2144004300134E4B2EAE7472E18D105201C4B984712
S214400440442D1DD03A2D21D00134E4B2242C26D898
S214400450164B03EB8402957833F8246033462A46DD
S214400460414648460F4FB847052DE4D0742D04D07A
S214400470122DE5D10F2EE3D1DFE7052EF8D1DCE7CC
S214400480F02EDFD164200A4B9847DDE7B92EDBD14A
S214400490F8E70024DAE70748074B9847FEE70020CE
S2144004A0BDE8F883A10340006D034000BC894000CE
S2144004B0690A4000B08A4000FD2B4000104BDA6AC3
S2144004C0DA6ADB6A13F0804F0DD00D4B9A6A0D4BFB
S2144004D013400BB10A4B9B6A094B9B6A13F47F4F40
S2144004E001D0074B9B6A064B9B6A13F0FF0F01D067
S2144004F0034B9B6ABFF36F8FBFF35F8F01BE70479E
S21440050000ED00E00000FFFF08B5EFF30880C1698A
S2144005100448054B9847BFF36F8FBFF35F8F034B7D
S214400520984708BDE88A4000FD2B4000BD044000C7
S21440053008B500BF00BFEFF30880C1690448054B0B
S2144005409847BFF36F8FBFF35F8F01BE08BD00BFF4
S214400550388B4000FD2B400008B5EFF30880C1699A
S2144005600448054B9847BFF36F8FBFF35F8F01BEBC
S21440057008BD00BF588B4000FD2B400010B44164BE
S21440058072B90166046F026FCB431C40224002677B
S214400590446F426F234013404367416010BC70472E
S2144005A04166EFE741645AB90166036F0B43036740
S2144005B0426F436F22EA010213404367416070472F
S2144005C04166F2E741645AB90166026F036F22EA58
S2144005D0010213400367436F0B4343674160704714
S2144005E04166F2E7416442B90166036F0B43036715
S2144005F0436F0B434367416070474166F5E741648C
S21440060012F0010F0DD0416612F00A0F0BD00162B6
S21440061012F0020F09D112F0080F08D0C0F884106B
S21440062005E00166F0E74162F2E7C0F880104161FC
S2144006300160704710B49DF80440416444B141667F
S21440064043B1016542B941630161016010BC704726
S2144006500166F5E74165F5E70163F5E770B582B0F9
S21440066004460D4608E0A27A02F00102216860685E
S214400670274B98470C34013D002D43D0627A062A1A
S21440068043D801A353F822F067064000A506400071
S214400690B5064000C5064000D5064000E7064000C7
S2144006A0E7064000A27A02F0010221686068194B12
S2144006B09847DFE7A27A02F0010221686068164B8D
S2144006C09847D7E7A27A02F0010221686068134B88
S2144006D09847CFE7207A124B9847A27A21686068FD
S2144006E0104B9847C6E7A37A03F001010091C3F385
S2144006F08003062A14BF00220122216860680A4E41
S214400700B047B7E7012002B070BD0020FBE700BF4E
S2144007107D054000A5054000C5054000E5054000B4
S214400720F9074000FF05400035064000F8B5CD6C9F
S2144007308B6C1D4002D00646002407E0F8BD104BE7
S214400740104A68211048114CA0470134BDB1104BE7
S2144007501B689C42F3D20E4B03EBC4035868037AE3
S214400760B342F2D103681D42EFD0094F07EBC407EE
S214400770BB6898477B681B6825EA0305E5E7F8BD34
S214400780BC8B4000788B4000D08B4000F12340006B
S214400790F009402008B502490A20024B984708BD98
S2144007A0000E0E402D07400008B502490B20024BB4
S2144007B0984708BD00100E402D07400008B5024976
S2144007C00C20024B984708BD00120E402D074000F3
S2144007D008B502491020024B984708BD00140E4049
S2144007E02D07400008B502491120024B984708BD26
S2144007F000160E402D0740003E280DD81F2812D860
S214400800104B9A690123834093431AD0012303FA7D
S21440081000F00C4B186114E010B50B4B0B4A9E21B0
S2144008200B480C4CA0472038064BD3F80821012330
S2144008308340934305D0012303FA00F0014BC3F8ED
S2144008400001704700060E40808C40003C8C400003
S2144008508C8C4000F12340003F280AD81F280FD92F
S2144008600B4BD3F808312038012202FA00F018402A
S214400870704710B5074B084AF5210848084CA04772
S214400880034B9B69012202FA00F01840F0E700BFD4
S21440089000060E40A48C40006C8C40008C8C4000BF
S2144008A0F12340004FF48062094B5A60084B9B6826
S2144008B013F4806FFAD10843054B98644FF4806276
S2144008C01A60034B9B6E13F4806FFAD0704700BFDC
S2144008D000060E4008B548F20223036029B90023FB
S2144008E043601620034B984708BD4B00B2FBF3F21B
S2144008F04260F6E7F90740008161C26170470161D6
S214400900426170474FF48073036070474FF4007342
S21440091003607047012303607047022303607047FB
S2144009200E4A136851680131516092682AB10B49EA
S2144009308A68013A8A6000E05B6973B19A68002A67
S214400940FAD0DA68002AF7D15A68013A5A60002A83
S214400950F2D19A600122DA60EEE77047340A40200E
S21440096008B500221C4B5A601C481D4B98471D4B2F
S2144009701B6BC3F301234BB1032B03D01A4A02FB74
S21440098003F304E0194A02FB03F300E0174B00218F
S214400990174A1160174AA2FB03239B09013BB3F198
S2144009A0807F0FD2144A5360E021144B83F8231003
S2144009B0002393600721116033B90122064B1A7356
S2144009C0002008BD0123F7E70D48054B9847002255
S2144009D0014B1A73012008BD340A4020E88C4000C1
S2144009E0FD2B400000060E4000A3E11180D1F00828
S2144009F0A48C4020D34D621010E000E000ED00E0F3
S214400A001C8D4000074B1B7B1BB1814208D2081A45
S214400A10704710B5044B054A88210548054CA04749
S214400A20081AF5E7340A4020408D4000BC8C400050
S214400A30548D4000F1234000064B1B7B13B1054B01
S214400A405868704710B5044B044A97210448054C33
S214400A50A04700BF340A4020408D4000CC8C400068
S214400A60548D4000F123400010B582B001900B4BEE
S214400A701B7B1BB1094B5C68596807E0084B094A69
S214400A80A4210948094CA047044B59682046084B06
S214400A909847019B9842F7D302B010BD340A4020D5
S214400AA0408D4000D88C4000548D4000F1234000DB
S214400AB0050A400038B528B1054680202860002445
S214400AC0204606E0114B124A77211248124CA047A6
S214400AD0012444B94B00B2FBF3F3043BC340FF2B65
S214400AE0F6D90130F5E7072809D81A0242EA00404D
S214400AF003432B6120232B6004232B6038BD074B18
S214400B00034A86210348044CA04700BF448E400059
S214400B10748D40004C8E4000F1234000648E4000AF
S214400B2010B102220260704710B5034B034AAE2153
S214400B300348044CA04700BFA48E40009C8D400054
S214400B404C8E4000F123400010B5D8B1044611F059
S214400B50800F1DD112F07F4F20D1032B24D80020C8
S214400B606060090441EA032343F480536360E06015
S214400B70E260124B1B68EBB10022104B1A60032355
S214400B80236010BD0E4B0F4AC2210F480F4CA047A2
S214400B900F4B0C4AC3210C480C4CA0470D4B094A3E
S214400BA0C4210948094CA0470B4B064AC5210648B4
S214400BB0064CA0470123236010BD00BF480A4020D2
S214400BC0A48E4000A88D40004C8E4000F12340008B
S214400BD0B48E4000CC8E4000EC8E400010B1006BCE
S214400BE0C0B2704710B5034B034AE0210348044C9B
S214400BF0A04700BFA48E4000B88D40004C8E4000F9
S214400C00F123400008B14163704710B5024B034AD8
S214400C10EF210348034CA047A48E4000C88D4000F7
S214400C204C8E4000F123400010B5B0B1044611F0A0
S214400C30800F19D112F07F4F1DD1032B22D80020F0
S214400C406060090441EA03236360E060E2609DF867
S214400C50081020460F4B984710BD0F4B0F4A4FF4D5
S214400C6083710F480F4CA0470F4B0C4A40F20711B8
S214400C700B480C4CA0470D4B084A4FF4847108486B
S214400C80084CA0470A4B054A40F209110448054C57
S214400C90A04700BF050C4000A48E4000D88D400001
S214400CA04C8E4000F1234000B48E4000CC8E400075
S214400CB0EC8E4000006AC0F340007047006AC0F304
S214400CC080007047006A00F00100704710B520B100
S214400CD0094A114208D0416210BD084B084A40F20A
S214400CE03F110848084CA047084B054A4FF4A071EE
S214400CF00448054CA04700BFF70F3D00A48E4000B7
S214400D00E88D40004C8E4000F1234000F88E4000B5
S214400D1010B520B1094A114208D0816210BD084B77
S214400D20084A4FF4A6710848084CA047084B054AA5
S214400D3040F24D110448054CA04700BFF70F3D0058
S214400D40A48E4000F88D40004C8E4000F1234000B9
S214400D50108F400020B10346006ADB6A1840704797
S214400D6010B5034B034A40F26B110348034CA047AF
S214400D70A48E4000188E40004C8E4000F123400068
S214400D8020B1036843F002030360704710B5034B7D
S214400D90034A4FF4BD710348034CA047A48E40005D
S214400DA02C8E40004C8E4000F123400010B520B100
S214400DB049B101600022426010BD064B064AE2215E
S214400DC00648074CA047074B034AE3210348044C18
S214400DD0A04700BFB48F4000248F4000C48F40001F
S214400DE0F1234000A48E4000F8B5D0B106464468D2
S214400DF0ECB105680DB328462F4B984710F0020F0C
S214400E0021D110F0040F47D02369E268934237D0CF
S214400E10A268D15C2846294B984723690133236151
S214400E20F8BD274B274AF6212748284CA047284B91
S214400E30244AF9212448254CA047264B214AFB2129
S214400E402148224CA047A76826692846224B984747
S214400E50B855236901332361E268934203D0013ACF
S214400E60934209D0F8BD022128461C4B98470121E1
S214400E7028461B4B9847F8BD28461A4B9847F8BD5E
S214400E8004212846154B984701212846144B98477D
S214400E902846154B9847F8BD10F0010FE2D00121C7
S214400EA028460E4B98470023237063680BB12046B4
S214400EB0984700237360D5E7550D4000050C400069
S214400EC0B48F4000348F4000C48F4000F123400070
S214400ED0E08F4000A48E4000DD0B4000110D400026
S214400EE0CD0C4000210B4000810D40002DE9F0471D
S214400EF09146089F099E0A9AA8B188469A46034694
S214400F000468416818F0800F14D119F07F4F18D14B
S214400F10BAF1030F1CD811B33E483F4B9847012502
S214400F202846BDE8F0873D4B3D4A40F247113D48D4
S214400F303D4CA0473D4B3A4A40F24B1139483A4C5B
S214400F40A0473B4B364A4FF4A6713648364CA0472E
S214400F50384B334A40F24D113248334CA047012EAD
S214400F6014BF00200120344908608AB15A60FF232C
S214400F7013709760D66000251561022120462F4BDE
S214400F80984753464A46414620462D4CA047C7E719
S214400F9053464A4641462046294DA8470AE0204641
S214400FA0284B984709E07D1C2046274B98473870C9
S214400FB0013E2F46B6B1012EF1D0244B9847054648
S214400FC02046234B98470028EDD1204B98470146B2
S214400FD02846204B9847B0F5C87FF1D91E480E4B9F
S214400FE09847E0E7194B9847064620461B4B9847DC
S214400FF0054660B9154B984701463046154B98470D
S214401000B0F5C87FF1D91648034B984788E70025C6
S21440101086E700BFF48F4000FD2B4000B48F4000B1
S214401020448F4000C48F4000F1234000B48E4000FF
S214401030CC8E4000EC8E4000480A4020CD0C40004C
S214401040490B4000210B4000DD0B4000390A4000B0
S214401050B50C4000050A400024904000C50C4000F6
S2144010603C904000F0B583B00A9D046846687CB169
S21440107011F0800F13D112F07F4F17D1032B1CD8DD
S21440108016B33D483D4B98470125284603B0F0BD72
S2144010903B4B3C4A4FF4D5713B483C4CA0473C4BFD
S2144010A0384A40F2AB113848384CA047394B354A9D
S2144010B04FF4D6713448354CA047374B314A40F24E
S2144010C0AD113148314CA047A5B14560FF2028708E
S2144010D00898A8600998E860012028610898007878
S2144010E0009020462D4DA847042120462C4B98477B
S2144010F00025CAE70898471C007800902046274DF0
S214401100A847099B5E1E06E07D1C39782046254B85
S2144011109847013E2F46A6B1234B984705462046A2
S214401120224B98470028EFD11F4B98470146284648
S2144011301F4B9847B0F5C87FF1D91E480F4B9847CC
S214401140E2E7194B9847064620461B4B98472046F1
S2144011501A4B9847054660B9134B984701463046A8
S214401160134B9847B0F5C87FF1D91548034B9847BD
S2144011708BE7002589E700BF54904000FD2B4000D8
S214401180A48E4000508F4000C48F4000F1234000A2
S214401190B48E4000CC8E4000EC8E4000290C4000BF
S2144011A0CD0C4000050C4000390A4000BD0C400004
S2144011B0050A400084904000810D4000C50C400068
S2144011C09C9040004FF400434360704708B100686D
S2144011D0704710B5024B034A3D210348034CA047D5
S2144011E004954000749140000C954000F123400067
S2144011F020B1012303FA01F1C160704710B5034BDB
S214401200034A5F210348044CA04700BF04954000B2
S214401210A89140000C954000F123400020B10123E6
S21440122003FA01F10161704710B5034B034A6B2185
S2144012300348044CA04700BF04954000B8914000C6
S2144012400C954000F123400008B18069704710B506
S214401250024B034A81210348034CA04704954000B3
S214401260E09140000C954000F123400010B530B1AD
S21440127017290AD8012303FA01F1C16110BD064BB4
S214401280064A9B210648074CA047074B034A9C2129
S2144012900348044CA04700BF049540000492400019
S2144012A00C954000F12340002895400010B530B121
S2144012B017290AD8012303FA01F1016210BD064B33
S2144012C0064AB4210648074CA047074B034AB521B7
S2144012D00348044CA04700BF0495400030924000AD
S2144012E00C954000F12340002895400008B1406A24
S2144012F0704710B5024B034ACF210348034CA04722
S21440130004954000609240000C954000F123400058
S21440131010B528B117290AD800EB81131A6510BDFD
S214401320064B074A40F23B110648074CA047074B7E
S214401330034A4FF49E710348034CA047049540006F
S2144013402C9340000C954000F12340002895400027
S21440135010B528B117290AD800EB81135A6510BD7D
S214401360064B074A4FF4A5710648074CA047074B63
S214401370034A40F24B110348034CA04704954000F3
S214401380449340000C954000F123400028954000CF
S21440139010B528B117290AD800EB8113986D10BDF7
S2144013A0064B074A40F257110648074CA047074BE2
S2144013B0034A4FF4AC710348034CA04704954000E1
S2144013C05C9340000C954000F12340002895400077
S2144013D010B528B117290AD800EB8113D86D10BD77
S2144013E0064B074A4FF4B2710648074CA047074BD6
S2144013F0034A40F265110348034CA0470495400059
S214401400749340000C954000F1234000289540001E
S21440141010B538B117290CD800EB8111C86D8B6D0B
S214401420184010BD064B074A4FF4B9710648074CA2
S214401430A047074B034A40F273110348034CA047AA
S21440144004954000A09340000C954000F1234000D6
S2144014502895400010B528B117290AD800EB81130B
S2144014601A6610BD064B074A40F283110648074CE1
S214401470A047074B034A4FF4C2710348034CA047AA
S21440148004954000B89340000C954000F12340007E
S2144014902895400010B528B117290AD800EB8113CB
S2144014A05A6610BD064B074A40F291110648074C53
S2144014B0A047074B034A4FF4C9710348034CA04763
S2144014C004954000CC9340000C954000F12340002A
S2144014D02895400010B550B1012B0FD8172914D8C5
S2144014E022F00302134300EB8114A36610BD0A4B9F
S2144014F00A4A4FF4D1710A480A4CA0470A4B074A99
S21440150040F2A3110648074CA047084B034A4FF445
S214401510D2710348034CA04704954000E89340002E
S2144015200C954000F123400044954000289540002B
S21440153010B528B117290AD800EB8113DA6610BD1A
S214401540064B074A4FF4D9710648074CA047074B4D
S214401550034A40F2B3110348034CA04704954000A9
S214401560009440000C954000F12340002895400030
S21440157010B538B117290CD822F07F4200EB811302
S2144015801A6710BD064B074A4FF4E0710648074CF1
S214401590A047074B034A40F2C1110348034CA047FB
S2144015A0049540001C9440000C954000F1234000F8
S2144015B02895400010B538B117290CD8C2F30B0255
S2144015C000EB81135A6710BD064B074A4FF4E7718C
S2144015D00648074CA047074B034A40F2CF11034842
S2144015E0034CA04704954000389440000C954000BA
S2144015F0F12340002895400010B528B117290AD895
S21440160000EB81139A6710BD064B074A4FF4EE7104
S2144016100648074CA047074B034A40F2DD110348F3
S214401620034CA04704954000509440000C95400061
S214401630F12340002895400010B528B117290AD854
S21440164000EB8113DA6710BD064B074A40F2F911EA
S2144016500648074CA047074B034A4FF4FD71034822
S214401660034CA04704954000809440000C954000F1
S214401670F12340002895400010B538B117290CD802
S21440168022F07F4202318901425010BD064B074A84
S2144016904FF402710648074CA047074B034A40F2F6
S2144016A009210348034CA04704954000A0944000FD
S2144016B00C954000F12340002895400010B540B1FD
S2144016C017290DD822F07F42023100EB81114A6083
S2144016D010BD074B074A40F217210748074CA04762
S2144016E0074B044A4FF406710348044CA04700BF1A
S2144016F004954000C09440000C954000F123400003
S21440170028954000FF2918BFFF2A02D04FF6FF70E9
S21440171070472DE9F84316460F460546FF2A0CD07B
S214401720FF2F17D0002495F885319C423CD205EB1C
S2144017300413DB7CDBB10134F5E708461E4B9847C3
S2144017400028EDD11D491E481E4B98474FF6FF70A6
S214401750BDE8F8833046184B98470028E2D1174931
S2144017601748184B98474FF6FF70BDE8F88305EBCF
S21440177004154FF0010985F813906F73AE7300217E
S2144017803846DFF84880C047E87349463846C04781
S214401790287400213046C047687449463046C047E2
S2144017A0A874E0B2BDE8F88304490748054B98475B
S2144017B04FF6FF70BDE8F883551E40005095400038
S2144017C03C964000FD2B400058964000051E4000C9
S2144017D010B582B040F2FF73019368B1044600F53D
S2144017E0C472019BEBB1D2E84F3F13F0FF0F09D014
S2144017F0019B013B0193F4E7334B344A9121344833
S214401800344CA04794F888310133DBB2C2E8403FFD
S21440181028B1019B581E0190002BF3D101E0BFF385
S2144018205F8F2D4B1B78B3B1BFF34F8F04F5C47356
S214401830D3E84F3F13F0FF0F0BD094F88831013BAD
S214401840DBB204F5C471C1E8423FBFF34F8FBFF32C
S2144018505F8F02B010BD2148206084F886110123B6
S21440186084F884311E4B984700F01F00013084F8FE
S214401870850100210DE004EB011300225A609A60B6
S2144018801A735A739A73DA731A745A749A74DA74A7
S21440189001318142EFD301220F4B1A70BFF34F8FB5
S2144018A004F5C473D3E84F3F13F0FF0FD1D094F83C
S2144018B08831013BDBB204F5C471C1E8423FBFF357
S2144018C04F8FBFF35F8FC4E7909640006C95400003
S2144018D098964000F1234000540A4020008007407C
S2144018E0CD11400030B583B0044640F2FF730193FB
S2144018F000F5C470019BBBB1D0E84F3F13F0FF0F1B
S21440190003D0019B013B0193F4E794F888310133FF
S214401910DBB2C0E8453F2DB1019B5D1E0195002B13
S214401920F3D101E0BFF35F8F20460C4B9847BFF3DF
S2144019304F8F04F5C473D3E84F3F13F0FF0F0BD01F
S21440194094F88831013BDBB204F5C471C1E8423FEC
S214401950BFF34F8FBFF35F8F03B030BD0517400016
S21440196038B538B1CDB2044690F88501854207D3E4
S214401970042038BD0D4B0E4AF0210E480E4CA047B1
S214401980C9B204EB0110C07C08B9042038BD04EB92
S2144019900110C07CC0B2022805D004EB01114A6099
S2144019A08B60002038BD032038BD00BFB496400091
S2144019B09495400098964000F123400070B5056825
S2144019C030B1CCB290F885319C4208D3042070BD2B
S2144019D02C4B2D4A40F20D112C482D4CA047C9B235
S2144019E000EB0113DB7C0BB9042070BD00EB011348
S2144019F0DB7CDBB2022B42D000EB0110C37CDBB2B7
S214401A00032B01D1032070BD3A20224B9847002873
S214401A1031D021462846204B9847214628461F4B22
S214401A209847FF22214628461D4B98472146284680
S214401A301C4B98470022214628461B4B98470022BD
S214401A4021462846194B9847002221462846184BDF
S214401A509847202221462846164B984700231A4688
S214401A6021462846144EB047002221462846134BAE
S214401A709847002070BD3A20114B9847C9E703208D
S214401A8070BD00BFB4964000A895400098964000B0
S214401A90F123400059084000D11340001D12400079
S214401AA051134000AD1240005514400095144000BC
S214401AB0B5154000F9154000D514400031154000DA
S214401AC0F90740002DE9F84F58B10546D0F8009088
S214401AD04846394B9847074630F07F4308D1BDE823
S214401AE0F88F364B364A40F237113648364CA047C8
S214401AF04846364B984782460024A04625E0214675
S214401B004846334B984710F0020F06D105EB0413B6
S214401B100422DA744FF0010834E04FF0000831E058
S214401B20214648462B4B984710F0010F3DD1B8F15F
S214401B30000F08D005EB06135B6823B105EB0616CD
S214401B40B168204698470134E4B295F885319C4206
S214401B50C5D226460123A3401F42F4D005EB04130A
S214401B60DB7C002BBBD00123A3401AEA030FD7D15E
S214401B7021464846184B9847834610F0010FBED181
S214401B804FF000081BF0020F05D005EB06130422A9
S214401B90DA744FF001081BF0040FC8D005EB0613AB
S214401BA00422DA744FF00108C1E705EB04135A68C3
S214401BB0996820469047BAE749124000C4964000CC
S214401BC0C095400098964000F1234000ED1240003A
S214401BD091134000D1134000111440002DE9F84302
S214401BE058B10C4617469846CEB2054690F8853111
S214401BF09E4209D30420BDE8F883494B494A4FF436
S214401C00D3714948494CA047D0F8009031464846E1
S214401C10474B9847E4B205EB0413DB7C13B904202A
S214401C20BDE8F88305EB0414E37CDBB2022B73D0EB
S214401C3018F0010F34D018F018041BD0082C29D007
S214401C400023089A314648463A4CA0475FFA88F245
S214401C5031464846384B9847FF2231464846374B30
S214401C6098479DF8242031464846354B98470020F3
S214401C70BDE8F883FA6831464846324B98477A685A
S214401C8031464846304B9847BA68314648462F4B0F
S214401C909847D3E7FA68314648462A4B9847CFE7F5
S214401CA07A6831464846284B9847BA68314648468F
S214401CB0264B98473A6831464846254B98473A8AD5
S214401CC031464846234B98477A6931464846224B28
S214401CD09847BA6931464846204B9847FA69314694
S214401CE048461F4B9847FA6831464846154B984732
S214401CF000231A46314648460E4CA047002231463D
S214401D0048460D4B98479DF82420314648460C4B94
S214401D1098470020BDE8F8830320BDE8F88300BF5D
S214401D20B4964000E895400098964000F123400065
S214401D30D1134000D51440003115400051134000E7
S214401D4011134000F915400055144000951440000A
S214401D5071154000B5154000391640007916400010
S214401D60BD16400070B538B1CDB2044690F8853106
S214401D709D4208D3042070BD184B194A4FF4EF71AA
S214401D801848194CA0470668C9B200EB0113DB7C23
S214401D9093B100EB0113DB7CDBB2022B12D000EBDD
S214401DA001110223CB7429463046104B984794F8CD
S214401DB086316BB1002070BD0D490E480E4B9847DA
S214401DC0042070BD0A490D480B4B9847032070BD50
S214401DD0294630460A4B9847002070BDB4964000CE
S214401DE00096400098964000F12340006D12400057
S214401DF014964000D4964000FD2B4000F4964000D8
S214401E00F111400070B504460D460F480F4B9847F9
S214401E10C0F30740002301E00133DBB2834210D811
S214401E2003EB430291000A4A0A445268A242F3D1A5
S214401E30074A0A44127AAA42EED1054B0B44587A16
S214401E4070BDFF2070BD00BF00800740CD11400030
S214401E501497400010B504460D480E4B9847C0F303
S214401E600740FF2C0FD0002383420AD803EB4302DF
S214401E709100094A0A445268A24206D00133DBB2B6
S214401E80F2E7002010BD012010BD012010BD00BFAC
S214401E9000800740CD1140001497400008B5194B0C
S214401EA01B7883B1184B1978164A02EB81025368A7
S214401EB08BB9144BDA68D3F8980102EB8012926E15
S214401EC003EB81035A60104A13780133DBB2137078
S214401ED0022B10D008BD0D480D4B98470A4B197879
S214401EE0084BDA68D3F8980102EB8012926E03EB47
S214401EF081035A60E7E70022034B1A700122014B28
S214401F001A70E7E7600A4020000040209C99400095
S214401F10FD2B400070B51C4C04F10C0500212846F2
S214401F201A4B98471A4B4FF08062C3F884215A6088
S214401F301622FF212846174EB047C4F89C01FF22C0
S214401F4016212846B047C4F89801D4F89C214FF68D
S214401F50FF739A4202D00146984203D10E480F4B77
S214401F609847FEE7084D05F10C0400230C4A20462E
S214401F700C4EB047D5F89C1120460B4EB047D5F8CE
S214401F8098112046B04770BD600A4020D1174000E7
S214401F9000E100E0E5184000BC994000FD2B400001
S214401FA09D1E400061194000BD19400070B582B0CA
S214401FB00023614C0AE0614A02F6D82102EB031284
S214401FC0C2F8D81A04F500540133DBB2012B17D8F7
S214401FD05A4A02EB03125A49C2F8DC1A5949C2F867
S214401FE0E01AC2F8E44A012BE5D0591C534A02F6DF
S214401FF0D82000EB011102EB0312C2F8D81AE1E731
S21440200001211620504B9847000600F0FE404F4AEC
S21440201002434A4BC3F8042B03F6D823BFF34F8F33
S2144020202022002A17DCBFF34F8FBFF36F8F434A3F
S214402030474C0123019302F6D82300930F2302F660
S214402040F822D4F8981104F10C00424DA84700231A
S21440205004F5D07410E04049C1F868322033203A85
S214402060DFE7364A02F6183102EB0312C2F8181BB5
S21440207004F500540133DBB2012B17D82F4A02EB8C
S21440208003122F49C2F81C1BC2F8204B3349C2F832
S214402090241B012BE5D0591C284A02F6183000EBC9
S2144020A0011102EB0312C2F8181BE1E700211620CB
S2144020B0254B9847000600F0FE40294A02431F4B36
S2144020C0C3F8042B03F61833BFF34F8F2022002AA1
S2144020D02BDCBFF34F8FBFF36F8F184A1C4C04F1B5
S2144020E00C050223019302F6183300930F2302F6E1
S2144020F0F822D4F89C112846164EB0474FF04020A0
S214402100184B9847D4F898112846174EB0474FF4C6
S2144021109670164B98474FF04020154B9847D4F88A
S2144021209C112846B04702B070BD0B49C1F86832D2
S2144021302033203ACBE700BF000C402028814020C7
S2144021400010000B20400040051E400001680400BF
S214402150600A4020DD1B400000ED00E024400040C7
S2144021601168010015094000651D4000690A4000DD
S2144021700509400008B50248024B984708BD00BF15
S2144021806C0A4020C51A400008B50248024B9847E2
S21440219008BD00BF608C4020E90D400038B56A4855
S2144021A06A4B9847BFF34F8FBFF36F8F684B002142
S2144021B0C3F85012BFF34F8FBFF36F8F5A6942F484
S2144021C000325A61BFF34F8FBFF36F8FC3F884104E
S2144021D0BFF34F8FD3F88000C0F34E32C0F3C9012F
S2144021E002E01A46FAE7194643F6E07303EA42135A
S2144021F043EA8173564CC4F860324B1E0029F2D134
S214402200531E002AEDD1BFF34F8F636943F48033EA
S2144022106361BFF34F8FBFF36F8F4E494E484F4CAD
S214402220A0474F494F48A0474F4B504A5049514806
S214402230A0475148A047514B984708B15048A0473F
S21440224009215048504B9847504C224600214FF0A9
S21440225040204F4B98478F224E494FF040204E4BE0
S21440226098474FF040204D4B98478F224C494FF0AF
S21440227040204C4B98474FF040204B4B98474B4B99
S214402280984713204A4B98474A4D22464A49284683
S2144022904A4B98474A4C294620464A4B98474A4B11
S2144022A04FF40022C3F880211A60002316221A2118
S2144022B02046464DA84700221A212046444B9847C0
S2144022C048F60413984203D04248244B9847FEE70A
S2144022D000221A213A48404B9847002108463F4B77
S2144022E098473F481D4B98473E4B984716E018493D
S2144022F0C1F85C322033203A002AF8DCBFF34F8F17
S214402300BFF36F8F384B1B78013303F0010348BF90
S2144023105B42364A02EB830300225A60334B1B78FB
S214402320002BFBD0304B1B78013303F0010348BF32
S2144023305B422E4A02EB83035B68002BEED0BFF372
S2144023404F8F4FF40052D7E750180E40C51140004B
S21440235000ED00E0DC994000E0994000FD2B400095
S214402360049A40001C9A4000249A4000289A400054
S214402370349A4000409A4000EC8C4000610940008E
S214402380609A4000309940005D06400080D1F008D9
S214402390D508400021070100FF0840001B09400007
S2144023A002070100F90840000D094000151F4000D3
S2144023B0F907400000800140801A0600B50A400038
S2144023C0608C4020AD0D400000E100E0A1034000DD
S2144023D06D034000849A4000CD034000A5084000AD
S2144023E0989A4000AD1F400000004020600A402000
S2144023F000B50A4C2668054685B01C46F06852B1C2
S214402400074B02928DE80A0022462B46054900F00B
S2144024100DF802F011FF044B1A46F2E70400402084
S214402420C89A4000D89A4000B88940000EB410B50B
S21440243083B005AB064C53F8042B01930146206845
S21440244000F014FD03B0BDE8104003B0704700BF75
S2144024500400402070B50F4E0F4D761BB61018BFC7
S214402460002405D0013455F8043B9847A642F9D1DC
S2144024700A4E0B4D761B07F09BFCB61018BF002487
S21440248006D0013455F8043B9847A642F9D170BDB2
S21440249070BD00BFBC9D4000BC9D4000C49D400038
S2144024A0BC9D4000024B0146186800F003B800BFD0
S2144024B0040040202DE9F04F01F10B06162E83B0A4
S2144024C0054640F29E8036F0070600F1BD80B142D8
S2144024D000F2BA8000F086FBB6F5FC7FC0F093822F
S2144024E0730A00F0B880042B00F27981B30903F137
S2144024F0390003F1380EC300BF4F3B44A3F1080137
S2144025005C68A14206D10CE0002A80F2AA80E4680A
S214402510A14206D0636823F003039A1B0F2AF3DD1B
S21440252070463C69DFF8E4E2744500F0AB816368CE
S21440253023F003039A1B0F2A00F39081002AC7F862
S21440254014E0C7F810E080F29D80B3F5007F80F07D
S2144025506181DB0803F1010C99107A6857F83C80DA
S214402560C4F8088001238B4007EBCC01134308399D
S214402570E1607B6047F83C40C8F80C40821001247C
S21440258094409C4200F28B801C4206D120F003000F
S21440259064001C4200F10400FAD007EBC009CC46A8
S2144025A08046DCF80C309C4507D16DE1002A80F26D
S2144025B07B81DB689C4500F06781596821F0030108
S2144025C08A1B0F2AF2DDD3F80CC0D3F8088000939C
S2144025D09C19284646F0010642F001055E60C8F8A0
S2144025E00CC0CCF808807C613C61C4F80CE0C4F8B0
S2144025F008E065605A5000F0FBFA009B03F10804BF
S2144026001EE0102920D800F0EDFA102618230220EC
S214402610794F3B44A3F108025C68944200F03D8148
S2144026206368E168A66823F00303234428465A6893
S214402630F16042F001028E605A6000F0D9FA083428
S214402640204603B0BDE8F08F00240C2320462B60C4
S21440265003B0BDE8F08F40204FF400734FF03F0EBC
S2144026604AE72344E1685A68A66842F00102F160EE
S21440267028468E605A6000F0BBFA0834204603B005
S214402680BDE8F08F234428465A6842F001025A605B
S21440269000F0AEFA0834204603B0BDE8F08FBC68C0
S2144026A0636823F00308B04504D3A8EB06030F2B5A
S2144026B000F38580DFF85891504BD9F800201B680E
S2144026C00132334404EB080A00F0558103F5805389
S2144026D00F3323F47F6B2BF00F0B5946284600F040
S2144026E0A1FA411C024600F0FC80824500F2F780C9
S2144026F0434B19685944196000F04D81D9F80000E1
S21440270001301BBFA2EB0A0A5144C9F800201960E9
S21440271012F0070100F01581C1F10800C1F58051A3
S2144027200244083102EB0B09C9F30B09A1EB090976
S214402730494628460193009200F074FA431C9DE8EF
S2144027400C0000F04381801A484440F001001968AC
S214402750BA604944BC425060196017D0B8F10F0FB8
S21440276040F2FB806068A8F10C0222F0070204EBFE
S214402770020E00F001004FF0050C10430F2A606077
S214402780CEF804C0CEF808C000F217811D4BBC68D6
S2144027901A68914288BF19601B4B1A68914262685A
S2144027A088BF196022F003029642A2EB060301D8C6
S2144027B00F2B04DC284600F01BFA002440E7A21941
S2144027C043F0010346F0010666602846BA6053604F
S2144027D000F00EFA0834204603B0BDE8F08F142B04
S2144027E071D9542B00F2A380330B03F16F0003F131
S2144027F06E0EC30080E600BF30044020A08C402010
S214402800708C4020988C40209C8C4020380440207F
S214402810380840205A0A042A5BD9142A00F2AE80AF
S21440282002F15C01C9005B3207EB010C7958ACF150
S214402830080C8C4500F088804A6822F003029342D8
S21440284073D289688C45F7D1DCF80C207B68E2604F
S214402850C4F808C09460CCF80C408FE6A11946F046
S214402860010C42F00106C4F804C02846796139617B
S214402870C1F80CE0C1F808E04E60E25000F0B8F94C
S2144028800834DDE67B6879E608F1010818F0030FA6
S2144028900CF1080C7FF485AE2DE0DC68A34208BF3F
S2144028A002303FF43EAEBBE619441C464A68DB683D
S2144028B054F8086F42F001024A602846F3609E6072
S2144028C000F096F9BCE603F15C0003F15B0EC30032
S2144028D012E69A0902F13901C9003832A4E7BC422F
S2144028E054D0BC68626822F003025DE759F80839A4
S2144028F0994540F0868010F0030F00F1FF30F5D187
S2144029007B6823EA04037B6064009C423FF6C7AEC4
S214402910002C3FF4C4AE1C4240467FF43EAE6400FA
S2144029201C4200F10400FAD037E68C468CE7B3F53B
S214402930AA7F15D8F30B03F1780003F1770EC30096
S214402940DAE54FF48051EDE67B689210012101FAFA
S21440295002F213437B60624679E70123536029E71E
S21440296040F25452934222D8B30C03F17D0003F157
S2144029707C0EC300C0E503F1100BAEE6542A29D8FE
S2144029801A0B02F16F01C9006E324DE7204B1968F1
S21440299059441960B2E6CAF30B0000287FF4AEAE85
S2144029A008EB0B03BA6843F001035360EEE67F2062
S2144029B04FF47E734FF07E0E9EE504F108012846E4
S2144029C0009303F025FE009B1968DFE601204FF0D8
S2144029D00009BCE6B2F5AA7F05D8DA0B02F1780109
S2144029E0C900773220E740F254518A4205D89A0C03
S2144029F002F17D01C9007C3216E74FF47E717E22DB
S214402A0012E77B6880E7F00806F1080300E600BF9F
S214402A10708C4020844641EA000313F003036DD1D6
S214402A20403A41D351F8043B40F8043B51F8043B4C
S214402A3040F8043B51F8043B40F8043B51F8043B53
S214402A4040F8043B51F8043B40F8043B51F8043B43
S214402A5040F8043B51F8043B40F8043B51F8043B33
S214402A6040F8043B51F8043B40F8043B51F8043B23
S214402A7040F8043B51F8043B40F8043B51F8043B13
S214402A8040F8043B51F8043B40F8043B51F8043B03
S214402A9040F8043B51F8043B40F8043B51F8043BF3
S214402AA040F8043B403ABDD2303211D351F8043B93
S214402AB040F8043B51F8043B40F8043B51F8043BD3
S214402AC040F8043B51F8043B40F8043B103AEDD242
S214402AD00C3205D351F8043B40F8043B043AF9D293
S214402AE0043208D0D2071CBF11F8013B00F8013B66
S214402AF001D30B8803806046704700BF082A13D373
S214402B008B078DD010F003038AD0C3F10403D21A8A
S214402B10DB071CBF11F8013B00F8013B80D331F8BE
S214402B20023B20F8023B7BE7043AD9D3013A11F83E
S214402B30013B00F8013BF9D20B7803704B784370A9
S214402B408B7883706046704770B4860746D0541EB4
S214402B50002A41D0CAB2034602E014F1FF343BD308
S214402B6003F8012B9D07F8D1032C2ED9CDB245EAA8
S214402B7005250F2C45EA054519D903F110022646CE
S214402B80103E0F2E42F8105C42F80C5C42F8085C8F
S214402B9042F8045C02F11002F2D8A4F1100222F0CE
S214402BA00F0204F00F041032032C13440DD91E46B6
S214402BB02246043A032A46F8045BFAD8221F22F03B
S214402BC003020432134404F003042CB1C9B21C447B
S214402BD003F8011B9C42FBD170BC70471446034669
S214402BE0C2E700BF014803F0BBBF00BFC48C402013
S214402BF0014803F0B7BF00BFC48C40200FB400B5F7
S214402C00074983B004AB086853F8042B81680193E6
S214402C1000F0B6FF03B05DF804EB04B0704700BFA9
S214402C200400402038B5074C00230546084623607C
S214402C30FDF75EFB431C00D038BD2368002BFBD05D
S214402C402B6038BDD88C40202DE9F043614C256878
S214402C5083B004460F4690461E4615B1AB6B002B1C
S214402C6064D0B8F1020F06D0B8F1010F00F29F8091
S214402C70002EC0F29C80636ED80734D52146284685
S214402C8003F048FB216B41B104F14003994202D066
S214402C90284603F0BDFC00232363B4F90C30002221
S214402CA0A26162601A063AD423F44A6323F003030F
S214402CB0B8F1020FA3811DD001AB6A4621462846D3
S214402CC003F052FFA3891843A081002E32D1009E04
S214402CD03046FFF7E7FB074600286BD0A38943F052
S214402CE08003A38128E0A3899905C7D4A06D03F08B
S214402CF037FFC3E70025616E002604F1430243F028
S214402D0002030120A660CE07A38122602261606193
S214402D1001D498053ED5284603B0BDE8F083216926
S214402D20284603F075FCB4F90C30BDE7284603F09E
S214402D3049FB96E7002FCBD0AB6B002B33D0009BE4
S214402D40B4F90C2027609E421CBF42F40062A28168
S214402D50B8F1010F04BF42F00102A28192B212F014
S214402D600803276166610ED0D1071AD5656E764294
S214402D70002315F00105A661A36009D0002528466A
S214402D8003B0BDE8F083A360656E15F00105F5D18C
S214402D909305C0D4A06D03F0E5FE284603B0BDE819
S214402DA0F083A660F0E7284603F00CFBC7E74FF039
S214402DB0FF35B0E7DDF80090B14504D04846FFF750
S214402DC071FB074620B9B4F90C304FF0FF3592E757
S214402DD04E4683E7040040202DE9F84F4B6E9C0496
S214402DE093462FD59368126853B30E46074602F1B2
S214402DF0080919E920045FEA9A0817D0043D002420
S214402E0001E0A04510D0324655F8041F384603F07E
S214402E107BFB431C04F10104F3D10023CBF80830BC
S214402E20CBF80430BDE8F88FDBF808302AF0030A08
S214402E30A3EB0A03CBF8083009F10809002BD8D1D8
S214402E400020EAE703F0CAFC0023CBF80830CBF8B2
S214402E500430BDE8F88F00BF93680BB1FFF7BCBFE6
S214402E6010B41846536010BC704700BF2DE9F04FB1
S214402E70ADB01D468B4690460793069018B1836BBF
S214402E80002B00F0F380DBF86430BBF90C00DF0762
S214402E9081B202D48E0540F1FC808C040AD4DBF863
S214402EA0643040F4005123F40053ABF80C10CBF8D8
S214402EB0643089B2080740F1B380DBF81030002B4D
S214402EC000F0AE8001F01A030A2B00F0B580002314
S214402ED00DF170090B93119310930393CDF83C902A
S214402EE0CA46CDF810B098F800304446FBB1252BC2
S214402EF002D11CE0252B03D014F8013F002BF9D15A
S214402F00A4EB08059DB1109B119ACAF800800133C6
S214402F102A44072BCAF80450119210937ADD002AEF
S214402F2040F0B084039B10922B44CA460393237808
S214402F30002B00F0E08300204FF000038DF8373080
S214402F4004F1010862780546064603464FF0FF3412
S214402F5008F10108A2F12001582900F2DE82DFE8DC
S214402F6011F02102DC02DC022902DC02DC02DC0277
S214402F70DC02DC02DC0289029502DC02A200BD0211
S214402F80DC029F01A401A401A401A401A401A401A0
S214402F90A401A401A401DC02DC02DC02DC02DC02A7
S214402FA0DC02DC02DC02DC02DC02B201DC02DC0217
S214402FB0DC02DC02DC02DC02DC02DC02DC02DC02DC
S214402FC09701DC02DC02DC02DC02DC029B01DC0254
S214402FD0DC025302DC02DC02DC02DC02DC02DC0245
S214402FE0DC02DC02DC02DC025A021B02DC02DC02EF
S214402FF0DC026E021B02DC02DC027302DC02F5011C
S21440300082010902D702DC029A02DC02A700DC0237
S214403010DC022E020AF1080A039B2B44039386E740
S2144030205946069802F09AF818BBBBF80C1001F007
S2144030301A030A2B7FF44BAFBBF90E30002BFFF67A
S21440304046AFDBF86430DB0705D48F0503D4DBF8E6
S214403050580003F087FD2B4642465946069800F036
S2144030604DFD039003982DB0BDE8F08F03F0AAF90C
S21440307009E7DBF86430D90704D4BBF80C309A056E
S21440308040F1AA844FF0FF33039303982DB0BDE878
S214403090F08FDBF8580003F063FDBBF90C0081B2FB
S2144030A0FBE67642079243F0040398F800204FE789
S2144030B008969E0600F150840799DD060A4600F100
S2144030C0EF83580640F1EC830E8804310027012236
S2144030D007914FF000018DF837100025611C00F075
S2144030E0168123F08001029156EA070140F01481D0
S2144030F0002C40F05C83002A40F0B78313F00103B5
S214403100059300F057840DF1B00B30230BF8413D8A
S214403110059BA342B8BF234601930DB101330193EB
S214403120029B13F00203099302D0019B02330193E2
S214403130029B13F084030A9340F01782089B019A7F
S2144031409D1A002D40F31182102D40F39084109B61
S214403150119AC44ED6461027A2461946069C07E04A
S21440316001F1020C0EF1080E0146103D102D11DD46
S214403170481C1032072811928EE8C0001090EFDDF0
S214403180002A40F0E481103D102D11464FF0010C0E
S214403190CE46EDDC54466146F2462A440729119253
S2144031A0CAF80060CAF80450109100F3EC829DF80B
S2144031B037500AF1080A481C002D40F0DE81099B72
S2144031C0002B00F0F88102320EA902230728119244
S2144031D010908AE80A0040F3EA81002A40F08C8387
S2144031E00A9B802B4FF001001146CA4640F0E7810B
S2144031F0089B019D5E1B002E40F3E181102E9A4DE8
S21440320040F35084D4461027A246069C07E001F1BE
S214403210020E0CF1080C0146103E102E11DD481C23
S2144032201032072811928CE8A0001090EFDD002A9B
S21440323040F09D82103E102E4FF0010E1146CC46B7
S214403240EDDC5446E2463244BEF1070F11928AE85E
S2144032506000CDF840E000F369830AF1080A0EF1F9
S21440326001007146ABE1089613F0200240F08C83D3
S21440327013F0100140F01A8313F0400200F016835A
S21440328007980A460146043106880791002720E73A
S214403290089643F01003E7E7089643F0100308E764
S2144032A043F0800398F8002052E6A2F13001002651
S2144032B018F8012B06EB860601EB4606A2F1300114
S2144032C00929F5D946E60896002840F0088443F0D8
S2144032D010039E0600F14C83DD0600F1F38258068B
S2144032E040F1F082079DB5F900602A46F717043290
S2144032F0304639460792002871F10002C0F25D83DD
S214403300611C9DF837504FF001027FF4EAAE56EA52
S214403310070100F04D820293012A00F08C82022AB7
S21440332040F05C820B98CB46330906F00F0143EA27
S21440333007733A091E461746435C0BF8013D56EAAA
S2144033400703F1D1A9EB0B030593E1E6002840F013
S214403350C083990600F16783DA0600F1F1805B06C8
S21440336040F1EE80079A136804320792BDF80C20AD
S2144033701A80B8E507983D4A08960B920668782268
S214403380302104308DF8392043F00203079000279F
S2144033908DF8381002229CE60896002899D08DF8C1
S2144033A0375096E798F80020002D7FF4D1AD0120E5
S2144033B02025CDE543F0010398F80020C8E508969F
S2144033C0002840F0938329490B919F0600F1E8823C
S2144033D00798DE06014600F170825D0640F16D8278
S2144033E00431068807910027D80740F1228256EA22
S2144033F0070100F01E8230218DF8392043F0020389
S2144034008DF83810022264E60896002840F06B8358
S21440341017490B91D9E7079908960A688DF848200E
S2144034204FF000000A468DF8370004320120019024
S214403430079205900DF1480B0293002470E643F086
S214403440400398F8002083E598F800206C2A03BFD4
S21440345098F8012043F0200308F1010843F01003D8
S21440346076E500BF3C9B40004C9B4000209B4000C4
S2144034700C9B400007990E680A46002E02F1040293
S214403480FFF60FAE079298F8002061E598F8002006
S21440349001202B255CE507990896D1F800B04FF03F
S2144034A000028DF837200E1DBBF1000F00F0E582BC
S2144034B0671C00F0C482224600215846019303F060
S2144034C0E7FB019B002800F0E582A0EB0B0205928B
S2144034D0079602939DF83750002419E698F8002086
S2144034E02A2A08F1010700F0E982A2F130010929F1
S2144034F0B8464FF000043FF62DAD18F8012B04EB0C
S214403500840401EB4404A2F130010929F5D921E5F0
S21440351043F0200398F800201AE50896002840F06B
S214403520DB82002A00F0E78001218DF848204FF02A
S214403530000201918DF8372005910DF1480B7BE78D
S214403540079A136804320792039A1A60CBE40FAACC
S21440355004992046FFF740FC002840F03981109936
S214403560119A01F1010CCE46FFE51099119A481CBC
S2144035709DF83750002D3FF422AE01320DF137054D
S2144035800121072811921090CAF80050CAF804107A
S21440359040F30881002A40F0BC81099B002B3FF491
S2144035A01FAE0EAB022208461C931D92CA46014629
S2144035B00AF1080A01300A9B802B3FF419AE059B9E
S2144035C0E41A002C2EDD102CB34D1EDDD6461026F8
S2144035D0069FDDF810A006E0881C0EF1080E19467E
S2144035E0103C102C10DD4B1C1032072B11928EE82D
S2144035F060001093F0DD002A65D1103C102C4FF08F
S21440360001001146CE46EEDCF246224407281192CF
S214403610CAF80050CAF80440109000F385800AF1BA
S214403620080A01300599CAF800B00A4407281192E2
S214403630CAF80410109040F38280002A40F01881A7
S214403640029B1092580735D5089B01995C1A002CAE
S21440365040F3E780CA46102C40F3188210998F4EEC
S214403660069FDDF810B0102506E0881C0AF1080A0F
S2144036701946103C102C11DD4B1C1032072B1192B2
S214403680CAF80060CAF804501093EEDD42BB103C06
S214403690102C4FF001001146CA46EDDC22440728A4
S2144036A01192CAF80060CAF80440109051DD002A12
S2144036B040F09B81039B089A01998A42ACBF9B18B5
S2144036C05B1803934EE00FAA51463846FFF784FB3B
S2144036D0002840F03F811099119A481CCE467FE75B
S2144036E00FAA59463846FFF777FB60B91099119AEA
S2144036F0481CCA46BDE7119BDDF810B0002B40F0D1
S214403700D48100231093DBF8643013F0010FBBF82C
S2144037100C3002D19A0540F1DE805B063FF5B2AC34
S21440372003982DB0BDE8F08F002A40F00681059A38
S2144037301D9201231192CDF870B01093CA460AF13B
S214403740080A029B590704D5089B01995C1A002C6D
S21440375081DC039B089901988142ACBF5B181B181B
S214403760039372BB00231093CA46FFF7BCBB0FAA55
S21440377004992046FFF730FB50BB1099119A01F18F
S214403780010ECC4648E5002A40F040819DF83710AF
S214403790002900F01B8101220DF1370110461D92D1
S2144037A01C91CA4601460AF1080A013007E5029B09
S2144037B0012A00F09880022A0DD1029300260027A5
S2144037C0B0E50FAA04990698FFF706FB0028C9D073
S2144037D0DDF810B097E7029300260027494600E040
S2144037E05946F20842EA4772F80806F007030746C9
S2144037F01646303356EA070201F8013C01F1FF3B1A
S214403800EED1029AD6077FF59DAD302B3FF49AADA8
S214403810023930230BF8013CA9EB010305938B4694
S21440382076E4039B089A8A42ACBF9B185B180393C6
S21440383098E702224DE4002F08BF0A2E52D3CB460B
S214403840304639460A22002304F016FF30320BF881
S214403850012D3046394600230A2204F00DFF064665
S2144038600F4656EA0703EBD16CE50594CB464FE48A
S2144038700FAA04990698FFF7AFFA0028A8D1119A24
S214403880CA465EE70FAA04990698FFF7A5FA0028ED
S2144038909ED1CA46FFF7C0BB4C9B40003C9B4000B5
S2144038A00431166807910122002712E40798014662
S2144038B004310668079100270BE40E68043107912F
S2144038C0002791E507990E680A46F71704320792D3
S2144038D0304639460FE5DBF8580003F043F9BBF8AD
S2144038E00C301AE7029B02930DF1B00B30360123E1
S2144038F00BF8416D05930BE40FAA04990698FFF761
S2144039006BFA00287FF464AF1099119A481CCA4697
S21440391051E60FAA04990698FFF75EFA00287FF44E
S21440392057AF1099119A481CCA4648E4002A40F0FE
S214403930918001201146CA4641E60FAA049906988E
S214403940FFF74AFA00287FF443AF1098119A0130E7
S214403950CA4667E6D346D6E6079E073626F00702EF
S21440396002F10801D2E9006707910122FFF7B1BBD7
S214403970079E073626F00706D6E9000106F108023C
S214403980079206460F46B6E4079E073626F007021D
S21440399002F10801D2E9006707910022FFF799BBC0
S2144039A0079E073626F0070101F108000790D1E987
S2144039B0006719E5CB46FFF7ABBB2D25764267EB94
S2144039C047078DF837500122FFF788BB099BB3B9EC
S2144039D011460120CA46F2E5DBF8580003F0C2F86B
S2144039E04FF0FF330393FFF750BB0FAA0499069896
S2144039F0FFF7F2F900287FF4EBAE119AA9E60EAB7A
S214403A0002221C931D920120CA46D0E50FAA0499B3
S214403A100698FFF7E1F900287FF4DAAE1099119A7C
S214403A20481CCA46A4E5079A03991368CD1708466A
S214403A30043229460792C3E90001FFF754BA5846B4
S214403A400796029303F01CFF002405909DF837501C
S214403A50FFF75EBB0FAA04990698FFF7BDF900284A
S214403A607FF4B6AE1099119A481CCA46A7E510993D
S214403A70119A204E0131FFF790BB062C28BF062432
S214403A80059407960194DFF870B0D5E41098194E67
S214403A90013003E605949DF8375007960293044696
S214403AA0FFF736BB8646FFF7CEBB06980FAA5946A9
S214403AB0FFF792F900283FF424AE24E6079998F8D9
S214403AC001200C68043144EAE474B8460791FFF7D5
S214403AD03FBA8DF837503CE48DF8375021E58DF8E5
S214403AE03750FFF7F4BB8DF8375091E48DF83750D8
S214403AF069E400BF3C9B4000349B40002DE9F04108
S214403B000C46ADF58D6D8989666EE589199621F06E
S214403B1002010646E069ADF80C1017464FF4806186
S214403B20626AADF80E5098461AAD0023079016A864
S214403B3009920693009504950291059103F00CF8BE
S214403B4043463A4669463046FFF790F9051E07DB7E
S214403B503046694602F0DEFB002818BF4FF0FF35BE
S214403B60BDF80C305B0603D5A38943F04003A38120
S214403B70169802F0F3FF28460DF58D6DBDE8F081EE
S214403B802DE9F04FC1B01D468A469146044608903E
S214403B9002F0D4FF03681593184603F071FE0E95A5
S214403BA014901CB1A36B002B00F05F82DAF86430EF
S214403BB0BAF90C2013F0010F93B202D1990540F1E7
S214403BC075829F040AD4DAF8641042F4005321F454
S214403BD00051AAF80C30CAF864109BB21E0740F198
S214403BE02382DAF81020002A00F01E8203F01A0220
S214403BF00A2A00F03E82002318461193139312932C
S214403C0025932493189319930B9330AB239398469C
S214403C1016901790CDF828A099F800304C46EBB196
S214403C20252B02D11AE0252B03D014F8013F002B98
S214403C30F9D1A4EB09058DB1249B259AC8F80090CC
S214403C4001332A44072BC8F804502592249300F3E6
S214403C50018208F108080B9B2B440B932378002B1A
S214403C6000F0F08300231A468DF86F3019460C9307
S214403C709B4666784FF0FF3304F10109099309F13A
S214403C800109A6F12003582B00F2BF83DFE813F0AA
S214403C90E002BD03BD034F03BD03BD03BD03BD032B
S214403CA0BD03BD0354030803BD031A02E802BD0367
S214403CB003033A033A033A033A033A033A033A030E
S214403CC03A033A03BD03BD03BD03BD03BD03BD03B5
S214403CD0BD03BD03BD03BD0349036203BD036203C9
S214403CE0BD03BD03BD03BD03A203BD03BD036F00FB
S214403CF0BD03BD03BD03BD03BD035900BD03BD03E6
S214403D001E03BD03BD03BD03BD03BD03BD03BD030D
S214403D10BD03BD03BD032403730262036203620353
S214403D20B7027302BD03BD03BC02BD03C9027100E6
S214403D300D034702BD035202BD035B00BD03BD0336
S214403D401F024BF0100B1BF0200F40F053830E9ACF
S214403D501BF0100F134640F0B4851BF0400F00F0E8
S214403D60B08514880432002501230E9214E04BF0EF
S214403D70100B1BF0200340F032831BF0100240F083
S214403D8089851BF0400300F085850E9913460A4648
S214403D9004320C880E9200254FF0000A8DF86FA072
S214403DA009994A1C00F00B822BF08002069254EAD6
S214403DB0050240F00A82002940F06F84002B40F054
S214403DC02D851BF001030D9300F0688640AF30232D
S214403DD007F8413D099B0D9A9342B8BF1346079397
S214403DE000231093BAF1000F02D0079B01330793CC
S214403DF0069B13F002030F9302D0079B02330793F0
S214403E00069B13F0840540F01B830C9B079AA3EB9C
S214403E10020BBBF1000F40F31383BBF1100F259943
S214403E20249A28DD43461024A846DDF820A00A9DA3
S214403E3006E0ABF1100BBBF1100F03F1080318DDE1
S214403E400132B94824921031072A259183E811009F
S214403E50EFDD23AA29465046FEF7FEFF002840F035
S214403E606A83ABF1100BBBF1100F2599249A30AB47
S214403E70E6DC454698460132AB4B24920BEB0104F8
S214403E80072A259488E8080800F3CD849DF86FA09B
S214403E9008F10808BAF1000F0ED0249B0133013414
S214403EA00DF16F010122072B2594249388E8060024
S214403EB000F30A8408F108080F9B6BB1249B01337A
S214403EC002341CA90222072B2594249388E8060076
S214403ED000F3068408F10808802D00F02E83099B25
S214403EE00D9AA3EB020ABAF1000F3BDDBAF1100FB0
S214403EF0249B8E4D2BDD42462146B0464FF0100B9C
S214403F002E46089C0A9D06E0AAF1100ABAF1100F48
S214403F1002F1080217DD01331031072B2591249357
S214403F2082E84008F0DD23AA29462046FEF794FFA3
S214403F30002840F00083AAF1100ABAF1100F259924
S214403F40249B30AAE7DC35460C464646904601336D
S214403F505444072B2594249388E8200400F3A9832F
S214403F6008F10808069BDB0500F18582249B0D9925
S214403F70C8F8007001330C44072B2594C8F8041089
S214403F80249300F3758308F10808069B59073BD530
S214403F900C9B079A9D1A002D36DD102D249B21DDA3
S214403FA01026089FDDF828A004E0103D102D08F1EB
S214403FB0080817DD01335C4A24931034072B2594F8
S214403FC088E84400F1DD23AA51463846FEF744FF10
S214403FD0002840F03F82103D102D259C249B0DF17B
S214403FE0C008E7DC0133504A24932C44072B259421
S214403FF088E8240008DD23AA0A990898FEF72CFFD3
S214404000002840F04783259C0B9B0C9A07998A42D0
S214404010ACBF9B185B180B93002C40F033830023F7
S21440402024930DF1C008F7E55146089801F096F83C
S214404030002838D0DAF86430DD0704D4BAF80C30FB
S2144040409C0540F1CA854FF0FF330B930B9841B067
S214404050BDE8F08F23AA0A990898FEF7FDFE0028CF
S21440406040F018830DF1C008F5E5089802F0AAF96B
S2144040709CE5BAF90E20002AFFF6BDADDAF86420BA
S214404080D00705D4990503D4DAF8580002F06AFD43
S2144040902B464A465146089801F01EF80B900B985E
S2144040A041B0BDE8F08FBAF80C309FE5DAF858001A
S2144040B002F056FDBAF90C2093B282E50C980E93A6
S2144040C040420C904BF0040B99F80060D7E5002A6C
S2144040D040F0DF87164B18931BF0200F40F0B98452
S2144040E00E9A1BF0100F134640F0DC831BF0400F77
S2144040F000F0D883043314880E9300251BF0010F7C
S21440410000F0228354EA050300F01E8330238DF826
S21440411070308DF871604BF0020B02233CE64BF09A
S214404120200B99F80060AAE56C9B40007C9B400001
S214404130209B40000E9A176800248DF86F40151D8E
S214404140002F00F04E86099A531C00F0CC8521467D
S214404150384602F09DFD002800F09786C31B0D935D
S21440416009940E95CDF818B023EAE373079310949C
S2144041709DF86FA036E6002A40F096871BF0200F89
S21440418040F05A841BF0100F40F0A2831BF0400F03
S21440419000F09E830E99B1F900400431E51722469F
S2144041A02B460E91002A73F10003C0F287840999CA
S2144041B09DF86FA04A1C4FF001037FF4F5AD54EA1A
S2144041C0050200F06C82CDF818B0012B00F0088391
S2144041D0022B40F09582189830AF230904F00F0167
S2144041E043EA05732A091C461546435C07F8013D19
S2144041F054EA0503F1D130ABDB1B0D93EAE54BF0F7
S214404200400B99F800603AE599F800606C2E03BFC1
S21440421099F801604BF0200B09F101094BF0100BA7
S2144042202DE5002A40F04C871BF0200F40F03F85DC
S2144042301BF0100F40F0FC801BF0400F00F0F880A1
S2144042400E9A136804320E92BDF82C201A80E3E4CE
S21440425099F8006000297FF412AD012220210EE576
S21440426099F800602A2E09F1010000F0F186A6F1C7
S2144042703003092B814698BF002000F23D8619F88E
S214404280016B00EB800003EB4000A6F13003092BE6
S214404290F5D90990F5E44BF0800B99F80060EEE410
S2144042A099F8006001222B21E9E40E9AAE4B14687F
S2144042B018937826302304328DF870304BF0020B7A
S2144042C00E9200258DF87160022365E5002A40F0C5
S2144042D0E486A64B1893FFE60E99CDF818B00A6808
S2144042E08DF8982000230A469A468DF86F3004329F
S2144042F001230793CDF824A0CDF840A00E920D934D
S21440430026AF75E5A6F13003002019F8016B00EBE7
S214404310800003EB4000A6F13003092BF5D90C9042
S214404320AFE4002A40F0C8864BF0100B26E74BF06F
S214404330010B99F80060A2E40E9C23680C93184683
S2144043400028234603F10403FFF6B8AE0E9399F80F
S214404350006094E4002A40F0B7860E9D073525F0AD
S214404360070303F108020E921A6813925B681293D1
S214404370129B139D23F00044284621464FF0FF32FF
S2144043807B4B04F03BF9002840F0A28328462146A8
S2144043904FF0FF32764B04F013F9002840F0988334
S2144043A0169A1398179B129904F000F9002840F0CB
S2144043B035849DF86FA06F4F6F4B032200212BF082
S2144043C08000079209910690472ED8BF1F460D924F
S2144043D0109107E54BF0080B99F800604FE40E9DEE
S2144043E0073525F0070303F10802D3E900450E928E
S2144043F00023D1E40E9D073525F0070303F108029C
S214404400D3E900450E920123C6E4002A40F05086C8
S214404410C6B1002301229A4607928DF89860CDF8DF
S21440442018B08DF86F30099310930D9226AFDFE4E5
S2144044300E9A136804320E920B9A1A60FFF7ECBB82
S214404440259C27E5259BDDF828A0002B40F0948589
S21440445000232493DAF8643013F0010FBAF80C30D6
S21440446002D19A0540F149825B063FF5ECAD0B98C8
S21440447041B0BDE8F08F652E40F3B280169A13988F
S214404480179B129904F088F8002800F06081249B5E
S2144044903A4AC8F80020013301340122072B2594FC
S2144044A02493C8F8042000F3BF8308F108081D9B36
S2144044B0119A259C934203DB069BDF077FF565AD8B
S2144044C0249B1499159AC8F8002001330C44072BF6
S2144044D0C8F804102594249300F3F88308F10808DC
S2144044E0119B5E1E002E7FF750AD102E249B244D50
S2144044F040F3DD811027DDF820A0DDF828B005E088
S21440450008F10808103E102E40F3D18101331034D4
S214404510072B2594249388E8A000F1DD23AA59466A
S2144045205046FEF799FC002840F0CD83259C249BFE
S2144045300DF1C008E6E7AA468CE70C9B079AA3EB6A
S214404540020ABAF1000F7FF7CAACBAF1100F249BEB
S2144045500B4D39DD42462146B0464FF0100B2E46F5
S214404560089C0A9D15E000BF209B40000C9B400025
S214404570FFFFEF7F609B40005C9B4000C88E400082
S2144045807C9B4000AAF1100ABAF1100F02F1080213
S21440459016DD01331031072B2591249382E840081D
S2144045A0F0DD23AA29462046FEF756FC0028C2D155
S2144045B0AAF1100ABAF1100F2599249B30AAE8DC1C
S2144045C035460C464646904601335444072B2594C0
S2144045D0249388E8200400F3648208F108087EE407
S2144045E0119B249E012B40F3FD81013601340123AB
S2144045F0072E25942496C8F80070C8F8043000F3B7
S2144046000E8208F10808149A159BC8F80030013647
S2144046101444072E25942496C8F8042000F32E82CE
S21440462008F10808179B169A1398129903F0B4FFDE
S214404630119B002840F00681013B013601371C449F
S214404640072E24962594C8F80070C8F8043000F366
S214404650D98108F10808199AC8F80420013614448C
S2144046601FAB072E25942496C8F800307FF78BACF6
S21440467023AA0A990898FEF7EFFB58B9259C0DF136
S214404680C00882E423AA0A990898FEF7E5FB0028AA
S2144046903FF4C5ACDDF828A0DCE6DDF818B0012B09
S2144046A000F02181022B27D1CDF818B00024002538
S2144046B091E523AA0A990898FEF7CEFB0028E9D18F
S2144046C0259C0DF1C0084DE423AA0A990898FEF7E8
S2144046D0C3FB0028DED1259C0DF1C008FFF7ECBBDC
S2144046E023AA0A990898FEF7B7FB0028D2D1259C42
S2144046F00DF1C008FFF7F0BBCDF818B00024002538
S21440470030A900E03946E20842EA4572E80804F07B
S214404710070305461446303354EA050201F8013CC7
S21440472001F1FF37EED1069AD2077FF564AD302B04
S2144047303FF461AD3023023907F8013C30AB5B1AD9
S2144047400D930F46FFF746BB0223FFF725BB1D9987
S214404750002940F37482109B119A9342A8BF1346D7
S214404760002B1E460DDD249BC8F8007001333444F0
S214404770072B2594C8F80460249300F3248308F19B
S2144047800808109B002EA8BF9B1B002B1E4640F31C
S214404790D080102E249BC04D40F3B78022464FF069
S2144047A0100ADDF820B00A9C05E008F10808103E23
S2144047B0102E40F3A98001331032072B2592249304
S2144047C088E82004F1DD23AA21465846FEF744FB3C
S2144047D0002840F02483259A249B0DF1C008E6E784
S2144047E0002D08BF0A2C7CD330AF204629460A222B
S2144047F0002303F041FF303207F8012D20462946BA
S21440480000230A2203F038FF04460D4654EA050307
S214404810EBD130ABDB1B0D93FFF7DCBA099B0D9356
S21440482030AFFFF7D7BA23AA0A990898FEF714FBC9
S21440483000287FF42FAF9DF86FA0259C0DF1C0088F
S214404840FFF728BB5F1E002F7FF705AF102F924D56
S21440485040F30A814FF0100ADDF820B005E008F179
S2144048600808103F102F40F3FF8001361034072E03
S2144048702594249688E82004F1DD23AA0A99584610
S214404880FEF7EAFA00287FF405AF259C249E0DF13A
S214404890C008E6E70E990A4604320C680E920025D8
S2144048A0FFF77ABA1C6804330E93002526E40133DA
S2144048B03444072B2594249388E860007FF763AB45
S2144048C0D6E604321C680E9201230025FFF764BA30
S2144048D00E9A146813460433E5170E9322462B4669
S2144048E060E4DDF818B0CDF818B040AF303401239E
S2144048F007F8414D0D93FFF76DBADAF8580002F00D
S21440490031F9BAF80C30AFE5144601333444072B7E
S2144049102594249388E8600040F36D8123AA0A9981
S2144049200898FEF799FA00287FF4B4AE259C0DF15E
S214404930C0081D9B119A934280F25881249A14987D
S2144049401599C8F8001001320444072A2594C8F87F
S2144049500400249200F3528108F10808119A109935
S214404960D31A561A9E42A8BF1E46002E0EDD249A23
S214404970C8F8046001320F443444072AC8F800706F
S2144049802594249200F33C8208F10808002EACBF20
S2144049909E1B1E46002E7FF7F8AA102E249B3E4DE7
S2144049A085DD1027DDF820A0DDF828B005E008F109
S2144049B00808103E102E7FF77AAF01331034072BCD
S2144049C02594249388E8A000F1DD23AA5946504652
S2144049D0FEF742FA002840F07681259C249B0DF194
S2144049E0C008E6E7069BD8073FF5FFAD0136013421
S2144049F00123072E25942496C8F80070C8F8043082
S214404A007FF727AE23AA0A990898FEF725FA0028CA
S214404A107FF440AE259C249E0DF1C0081BE623AAD9
S214404A200A990898FEF718FA00287FF433AE259CBA
S214404A30249E0DF1C008E6E50E9D073525F00705D6
S214404A40D5E9002305F108010E9114461D46FFF7EF
S214404A50A9BB0E9D073525F0070303F108020E9209
S214404A60D3E90045FFF74ABB01363C44072E259460
S214404A70249688E8A0007FF7ECADC3E723AA0A99FE
S214404A800898FEF7E9F900287FF404AE259C249E9A
S214404A900DF1C008C6E500BF7C9B400030AFFFF775
S214404AA099B923AA0A990898FEF7D6F900287FF400
S214404AB0F1AD259C0DF1C008FFF711BA4FF02D0A55
S214404AC0644265EB45058DF86FA00123FFF768B992
S214404AD0139C22462046129C2346214603F08EFD18
S214404AE0002840F08C82099B013326F020030D936A
S214404AF000F09180472B04D1099B002B08BF01236F
S214404B0009934BF480730693129BB3F1000A139BF0
S214404B100793BBBF534603F1004A00232D23662E5E
S214404B200F9300F07F81462E00F0D4810D9B079AAC
S214404B30452B0CBF099B099D21A81EA908BF5D1CDB
S214404B40049003911DA802210290534601950091BE
S214404B50089800F015FC672E074640F0AF811BF022
S214404B60010F00F013827C19169A0798179B51463E
S214404B7003F012FD002840F03281219BA34206D26A
S214404B8030215A1C21921970219B9C42F9D8DB1B7C
S214404B9011930D9B472B00F0B980652E40F376822B
S214404BA01D9B1093662E00F06281119B109A194649
S214404BB0914200F34F811BF0010F40F0098222EA38
S214404BC0E27307930D9267260F9B002B40F096806A
S214404BD009939DF86FA0FFF705B9DAF8580001F081
S214404BE0C1FF4FF0FF330B93FFF730BA069AD50755
S214404BF07FF5B4AEA2E608F108089AE623AA0A9919
S214404C000898FEF729F900287FF444AD1D9B259CA3
S214404C100DF1C008A2E60623099372E74FF02D0A6D
S214404C208DF86FA0FFF7C7BB23AA0A990898FEF72E
S214404C3013F900287FF42EAD0DF1C00837E4249B0D
S214404C40B44AC8F80020013301340122072B2594CA
S214404C502493C8F8042000F3248108F1080829B9F1
S214404C60119B1BB9069BDE077FF58FA9249B1498E2
S214404C70159AC8F80020013302462244072B259295
S214404C80C8F80400249300F3698108F10808002955
S214404C90C0F236811199C8F8007001338C18072B82
S214404CA025942493C8F804107FF76DA9E0E40E9A83
S214404CB00B991368CD170846043229460E92C3E96D
S214404CC00001FEF7A9BFDA46FFF7C4BB23AA0A993C
S214404CD00898FEF7C1F800287FF4DCAC259C0DF15F
S214404CE0C008FFF7FDBB3846099402F0C9FD0E9593
S214404CF00D90CDF818B00346FFF736BA4FF02D0AA0
S214404D0000238DF86FA00993FFF76FB81D9B109393
S214404D101A46033304DB099B19469142BFF645AF5A
S214404D20023E109B8DF87C60013B002B1D93BDBF5F
S214404D30109BC3F101032D222B22092B8DF87D20D9
S214404D4040F33E810DF18B042046734D00E0104643
S214404D5085FB0312D917C1EBA20101EB8102A3EB3D
S214404D6042023032092900F8012C0B4600F1FF328E
S214404D70EDDC30330238D9B2844202F8011C40F2EE
S214404D8090810DF17E00134601E013F8011B00F8F8
S214404D90011BA342F9D101339B1A0DF17E02134445
S214404DA01FAA9B1A119A1993012A13440D9340F394
S214404DB045810D9B149A13440D9323EAE37307939E
S214404DC00023109300E723AA0A990898FEF744F8B0
S214404DD000287FF45FAC259C0DF1C008D1E4234643
S214404DE0D5E6099B1097062B28BF06230997BA4697
S214404DF007930E95CDF818B00D93484FFEF7F2BFC7
S214404E0023AA0A990898FEF727F800287FF442ACB0
S214404E101D9B119A259CD31A0DF1C008B6E5A246F3
S214404E20FFF718BB21A81EA9099D049003911DA851
S214404E3003210290079A019553460091089800F086
S214404E409FFA074644193B78302B00F0CA801D9DD8
S214404E502C4489E6149A119B1344109A0D93002A09
S214404E6040F3E48023EAE37307936726ACE6002B1F
S214404E7040F3FB80099A002A40F0CE801BF0010FD9
S214404E8040F0CA8007930D939EE6099B07930D93C7
S214404E9009900E95CDF818B010909DF86FA0FEF7CB
S214404EA0A1BF23AA0A990898FDF7D6FF00287FF4E9
S214404EB0F1AB1D99259C0DF1C008D0E6472E7FF436
S214404EC052AE1BF0010F00F0DA80462E07EB0504C9
S214404ED0B9D049E621A81EA9099C049003911DA8B3
S214404EE003210290079A019453460091089800F0D7
S214404EF047FA25460746E8E700230993FEF7C1BE72
S214404F004E421031064D43DA1024DDF820A0DDF87D
S214404F1028B00CE0C88E400067666666349B40004A
S214404F207C9B400008F10808103E102E30DD01330F
S214404F301032072B25922493C8F80050C8F8044036
S214404F40F0DD23AA59465046FDF786FF00287FF439
S214404F50BAAE259A249B0DF1C008E5E723AA0A9924
S214404F600898FDF779FF00287FF494AB1D99259AA1
S214404F70249B0DF1C0088AE6089823AA5146FDF7FF
S214404F806BFF00283FF464AAFFF764BA219BFEE556
S214404F9001333244072B88E860002592249308F1B9
S214404FA008087FF777AE23AA0A990898FDF754FFBA
S214404FB000287FF46FAB259A249B0DF1C00869E664
S214404FC0303330228DF87F308DF87E2020ABE7E6F8
S214404FD0109B149A13440D9323EAE37307936726B2
S214404FE0F2E5169A0798179B514603F0D5FA002823
S214404FF07FF42DAFC5F101051D952C44B4E5129BF9
S214405000334F002BB6BF4FF02D0A9DF86FA08DF89A
S2144050106FA0304BFFF7D1B9109B149A1344099AEE
S2144050201A4422EAE2730D920793CDE5109B0D9A3F
S214405030C3F101031A4413460D9213E71BF0010314
S21440504010937FF4B6AE0D9B23EAE3730793BBE55C
S2144050500E9C99F80160236843EAE373099323465C
S214405060043381460E93FEF70ABE099B13B91BF024
S214405070010F02D0149B0133D1E7012302E7219BA5
S214405080DB1B11930D9B472B3FF440AE1D9B1093AB
S21440509047E68DF86F10FFF71DB88DF86F10FFF7D5
S2144050A018B90DF17E037BE68DF86F10FFF766B8F2
S2144050B08DF86F10FFF7ACB98DF86F10FFF734B965
S2144050C08DF86F10FFF7B0B88DF86F10FFF745B941
S2144050D0689B4000649B40002DE9F0410C46ADF5CE
S2144050E08D6D8989666EE589199621F0020106461E
S2144050F0E069ADF80C1017464FF48061626AADF86F
S2144051000E5098461AAD0023079016A809920693AB
S214405110009504950291059101F01EFD43463A46DE
S21440512069463046FEF72CFD051E07DB30466946CD
S21440513001F0F0F8002818BF4FF0FF35BDF80C30EE
S2144051405B0603D5A38943F04003A381169801F07C
S21440515005FD28460DF58D6DBDE8F08138B5304B20
S2144051601B6805460C4613B19A6B002A38D0B4F932
S2144051700C2093B218070CD52069A8B113F0010291
S2144051801ED0636900225B42A361A260F0B100209A
S21440519038BDD9063CD5580726D4206942F00803C6
S2144051A0A3819BB20028E9D103F42072B2F5007FB8
S2144051B0E4D02846214601F005FDA3892069DDE7B5
S2144051C0990758BF6269A2600028E0D1B4F90C3054
S2144051D01A06DDD543F04003A3814FF0FF3038BDBB
S2144051E0184601F0EFF8C2E7216B51B104F14003D5
S2144051F0994204D0284601F00BFAB4F90C2000235B
S214405200236300232069636022F024022060C5E700
S21440521042F0400209232B604FF0FF30A28138BD98
S21440522004004020024B13B1024800F00DB870470E
S214405230000000003564400008B5062002F0ACFAD5
S2144052400120FBF785F800BF002301461A461846A2
S21440525002F02ABC02690B69934200F38D802DE967
S214405260F04F03F1FF3801F1140700F1140B57F823
S21440527028205BF828304FEA880483B00132B3FB1D
S214405280F2F90BEB0403009407EB040A0193B9F11F
S214405290000F39D000252E46BC46DE465CF8044B4F
S2144052A0DEF80030A2B209FB0255220C2C0C09FB9A
S2144052B00242ADB2751B96B2C6EB134615FA83F39F
S2144052C006EB23469BB243EA0643E2454FEA1245C5
S2144052D04EF8043B4FEA2646E0D2009B5BF803308C
S2144052E093B9019C231F9B450CD254F8043C4BB900
S2144052F0A4F1080302E01A68043B1AB99B4508F17A
S214405300FF38F8D3C0F81080044601F073FF002839
S2144053102EDB09F101095D46002357F8041B286877
S2144053208AB29A1A0B0C12FA80F2C3EB104303EBC4
S214405330224392B242EA0342BA4545F8042B4FEA6A
S2144053402343EAD25BF828200BEB880382B91A1F66
S21440535093450BD253F8042C42B9083B02E01A6836
S214405360043B1AB99B4508F1FF38F8D3C4F81080BF
S214405370484603B0BDE8F08F0020704700000000AC
S2144053802DE9F04F016C9BB00446279E92469B4603
S21440539041B1426C4A60012393408B6001F052FD5C
S2144053A000232364BBF1000F5D4635DB00233360EA
S2144053B09D4BAB4315D0504659460022002303F080
S2144053C0EBF8804600282DD0269A01231360289BB0
S2144053D0002B00F0BD809548186001381BB0BDE832
S2144053E0F08F269A42F20F731360BAF1000F0DD178
S2144053F0C5F3130555B9289B8D48002BEED000F118
S2144054000803289A13601BB0BDE8F08F289B894894
S214405410002BE3D0C31CF4E701232BF00045336098
S214405420AB46C5E718AA19AB0192009352465B46B5
S214405430204601F07FFF2B0D814671D0CBF313023F
S21440544042F07F51189FCDF850805046A3F2FF3669
S21440545041F440110022784B02F082FC6CA3D3E961
S214405460002302F031FE6CA3D3E9002302F07AFC5D
S214405470CDE90201304602F0C1FD69A3D3E900231D
S21440548002F022FE02460B46DDE9020102F06AFC0B
S214405490CDE9040103F0C8F8002202900023DDE9BC
S2144054A0040103F083F8002840F07381029D162D16
S2144054B000F25D81614B03EBC503D3E90001524620
S2144054C05B4603F091F8002800F0C5816B1E0293FE
S2144054D000230E93BF1B7B1E069300F154810023CE
S2144054E00893029B002BC0F24581069A0D93114605
S2144054F01944002306910C93249B092B2AD8052B8C
S21440550040F35B86043B24930025249B023B032BFD
S21440551000F24286DFE813F0D403C902DF036104D9
S214405520189F199E3E4406F23243202B40F38E814C
S214405530C3F1400306F212409D402AFA00F0284389
S21440554002F04CFD0123013EA1F1F871149381E76E
S2144055503B4843E7002161642046259101F04CFC1E
S2144055604FF0FF330A93259A0F930123049020644B
S21440557024920B93199B002BC0F2D980029A0E2AD4
S21440558000F3D5802D4B03EBC203D3E90023CDE9CE
S2144055900823259B002BC0F2BA83DDE90856504607
S2144055A02A463346594602F0B9FE03F03DF8804697
S2144055B002F024FD2A46334602F086FD0B4602469C
S2144055C05946504602F0CCFB049D08F130032B7040
S2144055D00A9B012B06460F4605F1010568D00022BE
S2144055E0184B02F071FD0022002306460F4602F0DB
S2144055F0D3FF002840F08880CDF82C904FF0000A6A
S214405600DFF840B00C94DDE9088928E0AFF300806D
S21440561061436F63A787D23FB3C8608B288AC63F73
S214405620FB799F501344D33F0000F07FC98E400063
S2144056308C9B4000989B40000000F83FD89B400061
S214405640C88E40000000244002F03EFD00220023A9
S21440565006460F4602F0A0FF002840F0C1834246AF
S2144056604B463046394602F059FE02F0DDFF04460E
S21440567002F0C4FC42464B4602F026FD02460B466C
S2144056803046394602F06CFB04F1300E049E05F8B5
S21440569001EBA5EB060E0A9EB645CDE9060152463D
S2144056A05B46D1D1A046DDF82C900C9C06460F46B2
S2144056B032463B463046394602F054FB06460F46D5
S2144056C002460B46DDE9080102F070FF48B9324653
S2144056D03B46DDE9080102F05FFFA8B118F0010F74
S2144056E012D015F8018C049A6B1E04E09A4200F022
S2144056F0018413F8018DB8F1390F03F10105F5D097
S21440570008F1010883F800804946204601F09AFBDC
S2144057100022029B2A70269A01331360289B002B96
S21440572000F09E8304981D601BB0BDE8F08F0B9A76
S214405730002A3ED0249A012A40F311830A9B0C9AF1
S2144057405F1EBA42C0F28F83D71B0A9B002BC0F263
S2144057508B84089D0A9B089A1A440892069A01214F
S2144057601A442046069201F007FC064624E0012330
S2144057700E93AFE6089A029BD21A5B420C93002324
S21440578008920D93B8E6C7F10103089300230693E9
S214405790A7E6029D284602F031FC02460B46DDE9AC
S2144057A0040102F0F9FE00287FF480AE6B1E0293DF
S2144057B07CE60C9F089D0B9E002D0CDD069900296B
S2144057C00B4608DDA942089AA8BF2B46D21AED1A06
S2144057D0CB1A089206930C9BD3B10B9B002B00F080
S2144057E0B782002F10DD31463A46204601F060FC75
S2144057F04A4601460646204601F0C8FB49468046D2
S214405800204601F01FFBC1460C9BDA1B40F0A182EC
S2144058100121204601F0B0FB0D9B002B80461CDD8D
S21440582001461A46204601F043FC249B012B804645
S21440583040F3548200230C93D8F8103008EB8303CF
S214405840186901F049FBC0F1200010E0C3F12005C3
S2144058500AFA05F074E60E903CE6249B012B40F3D2
S214405860878200230C930D9B0120002BE4D1069ADF
S214405870104410F01F0000F0A180C0F12003042B5C
S21440588040F39E84089BC0F11C00034408931346D3
S214405890034405440693089B002B05DD49461A46FB
S2144058A0204601F055FC8146069B002B05DD41460F
S2144058B01A46204601F04CFC80460E9B002B40F0DA
