S01300005472616E736372696265722E7372656392
S21440000000A84420F1414000E9414000ED41400055
S214400010E9414000E9414000E9414000000000005D
S214400020000000000000000000000000E941400021
S214400030E941400000000000E9414000114840000E
S214400040E9414000E9414000E94140005D0E400082
S214400050E9414000E9414000E9414000E9414000B3
S214400060E9414000000000004D3F40005D3F400039
S2144000706D3F4000E9414000E5464000E941400010
S2144000807D3F40008D3F4000E9414000E94140004F
S214400090E9414000E9414000E9414000E941400073
S2144000A0E9414000E9414000E9414000E941400063
S2144000B0E9414000E9414000E9414000E941400053
S2144000C0E9414000E9414000E9414000E941400043
S2144000D000000000E941400000000000E941400007
S2144000E0E9414000E9414000E9414000E941400023
S2144000F0E9414000E9414000E9414000E941400013
S214400100E9414000E9414000E9414000E941400002
S214400110E9414000E94140000000000000000000C6
S214400120E9414000E9414000AD014000E94140005E
S214400130E941400000000000E9414000E94140003C
S21440014010B5054C237833B9044B13B10448AFF3CC
S21440015000800123237010BD0040402000000000B6
S214400160EC4C41000C4B43B10C480D4910B5AFF375
S21440017000800C48036823B910BD0A48036833B9A9
S2144001807047094B002BF7D0BDE810401847064B88
S214400190002BF5D0184700BF00000000EC4C410093
S2144001A004404020EC4C4100000000002DE9F84F90
S2144001B0894BDB6DDA0757D5884A1378002B68D110
S2144001C08749884C0B4621601178184603F5807E97
S2144001D0854D81F00101854F117029684E1C07EB53
S2144001E081012E6030F8082B12B2864507EE902A21
S2144001F0F8EEE77AC1ED007AEFD12A68B2F5006FE3
S21440020080F0B2807A4A117801F0FF02002944D18A
S214400210784800E023689B5A01681BB211440232BA
S214400220002BB8BF0133B2F5807FC3F34F030B807A
S214400230F0D1002270482368016833F81230114428
S21440024004321BB2802A07EE903AF8EEE77AC1ED08
S214400250007AF0D1694B1B78002B4CD00368684A73
S214400260934201D0803303605B4BD3F89C30DB076E
S21440027009D5644B1A7842B95E4A634911601A78C8
S21440028082F001021A70BDE8F88F5A4A5F49116041
S214400290F5E7544C5E4B236096E75E4A127802F0D0
S2144002A0FF016ABB5C4A127802F0FF00002A68D160
S2144002B001465A4A4F4842F2742E8846584E03E04A
S2144002C0B1F5807F41D023685B5A1768056836F9D8
S2144002D0179001370D44023109FA83F31760002B5B
S2144002E0B8BF0133C3F34F032B8013687345E7D180
S2144002F0C2F80080E4E703684A4A9342B2D1B3E7C3
S21440030000213C48454A42F2742E8846464F03E058
S214400310B1F5807F19D023685B5A1568066837F9AF
S214400320159001350E44023109FA83F31560002B0F
S214400330B8BF0133C3F34F03338013687345E7D127
S214400340B1F5807FC2F80080E5D1384B196840315E
S21440035019601968B1F57A6FFFF46BAF0021244835
S21440036001701960116064E700264FF4006230495E
S214400370304B1E482E6098472F4A01212368117043
S21440038040E71C4842F2742E244A8846244E2B4F9F
S21440039003E0B1F5807FD8D0236833F80190136826
S2144003A00FFA89F9056836F913A001330D44023176
S2144003B087FB0ACB1360ABEBEA7309FA83F3002B97
S2144003C0B8BF0133C3F34F032B8013687345E0D1A6
S2144003D0C2F80080DDE700BF0080074014004020E0
S2144003E000804120100040206840402000B041205E
S2144003F075404020180040200C004020240040203B
S214400400007F41201C00402000D0412000A8412011
S21440041000004320794240207C4240201C4040203F
S214400420F0DF400000FF4220089B40006040402034
S21440043000884120994C400064404020ABAAAA2A3C
S2144004402DE9F041202688B00021304B32466846E0
S21440045098472F4B3A202F4C98474FF080652E4BAD
S2144004606A46DFF8C8E02046C3F88451002183F886
S2144004703A630F275D600125DFF8B480CDF80CE0C5
S214400480C047264B6A46DFF8ACE0294603F1100029
S21440049023F00306DFF8A0C018602046E766A6668D
S2144004A0E5601F4E2565C3F80CE0DFF890E0C3F822
S2144004B01CC0DFF88CC05E605E61C3F808E0C3F81D
S2144004C018E01B61CDF80CC0C047164B0221164AF7
S2144004D0DFF870C003F1100823F00300DFF868E08F
S2144004E05E605E611B61C3F80080C3F808C0C4F854
S2144004F0AC70C3F818E0C4F8A800DA60E160DA61CE
S214400500C4F8905008B0BDE8F08100BF7D7140004F
S214400510254140000080074000E100E020404020A8
S2144005208000000B40404020244000400128042129
S21440053021394000000043200080412020400040F8
S2144005401148012000A8412000D0412010B5134B8F
S214400550984718B11248134B9847FEE7124B04468B
S2144005609847124B9847124B984721460220114B0A
S214400570984721460220104B984702200F4B984739
S2144005804FF040200E4B98470E4C01220E4B4FF03A
S2144005904020E26198470223E36110BDBD3340002E
S2144005A0D8244100D56B400091064000CD05400060
S2144005B0410440006D414000A1414000D54140000B
S2144005C0CD34400000800740DD3440002DE9F04146
S2144005D0284B9CB01620002498474FF04020264BCE
S2144005E00F25984701264FF4E0684FF0020E80270B
S2144005F00EAA69464FF04020204BCDF800E001940B
S214400600029403941094129413941494CDF8188082
S214400610059604950E9511950F9798474FF0200C28
S2144006204FF0100E15AA07A94FF04020144BCDF8F6
S21440063024C0CDF82CE0CDF83480079608940A9470
S2144006400C96159516971794189519941A941B940A
S21440065098474FF040200B4B98474FF040200A4BAE
S21440066098474FF0FF314FF04020084B98471CB05A
S214400670BDE8F08125414000B93440006135400076
S214400680ED344000E5344000D5344000D5354000D8
S21440069070B54FF6FF710020404CA047404B0020FD
S2144006A0984748F60413984203D03E483E4B984736
S2144006B0FEE708210420A047472105203B4DA047E0
S2144006C03B48A84743210520A04709210420A047CE
S2144006D003210C20A04703210E20A0470021212003
S2144006E0A04700213D20A04701216220A0470121CC
S2144006F06820A04700217420A04740F2047175206E
S214400700A0474FF400417620A0474FF4BB517720D6
S214400710A04705217420A0472548A84740F6054134
S2144007201520A04700211420A04744F206011620B9
S214400730A04742211920A04708211A20A0474FF47D
S21440074002611B20A0470F211220A0471848A84747
S21440075010212C20A04710212D20A04711215A20DF
S214400760A04733215A20A0470F214320A047F0211D
S2144007704420A0470F48A84777215A20A047FF218A
S2144007805A20A047BA213920A0473A20BA21A0478C
S2144007902B460848BDE87040184700BF4533400028
S2144007A081334000FC244100D56B400001004020CE
S2144007B0C2DB0300252B4D00F8B50E461746002435
S2144007C0014600F500552DED028BF1EC017AFDEE69
S2144007D0E77A17EE903A002BB8BF5B428D4283F023
S2144007E002031C44F1D14E4AE40A1368A34201D2E4
S2144007F02346146007EE903A9FED4A7AF8EE677A01
S21440080067EE877A07EE104AB8EEC77AB4EEE77A14
S214400810F1EE10FA06D54FF6FF7333807380BDECC9
S214400820028BF8BD0146404B38469847DFED3F7A8D
S21440083008EE100AB4EEE78AF1EE10FAEBD4DFEDDC
S2144008403C7AB4EE678AF1EE10FAE4DC394B38466F
S2144008509847394B9847394D2FA3D3E90023A847EB
S2144008600028D8D19FED367A7F25DFED367A4FF0D7
S2144008700C0E354F37EE487A0EEB050177EEC87A08
S2144008804908BDEEC77AFDEEE77A481C17EE102AF7
S21440089017EE903A002AB8BF5242002BB8BF5B42D0
S2144008A09A421FD226E007EB810301F1010E93ED39
S2144008B0007A07EB8E0237EE487AD2ED007A77EE72
S2144008C0C87ABDEEC77AFDEEE77A17EE102A17EE25
S2144008D0903A002AB8BF5242002BB8BF5B429A42B9
S2144008E009D370464119A8424FEA5101DBD33580FF
S2144008F0748094E7704688420AD243180D4686466E
S2144009005B0807EB8302D2ED017A92ED007AB1E7FD
S2144009100D46ECE7AFF300809A9999999999E93F8B
S2144009206C404020CDCCCC3D292E400000001C42DF
S21440093000007A4599324000555E4000E163400031
S2144009400000DC43FE14E94310254100000000008F
S2144009502DE9F04F9DB09C4F00244FF06408159150
S21440096002214FF0060C0125F9725421DDF898E07B
S2144009704FF06809169323468DF860400EF1FF3617
S2144009808DF863403C717C71BC713C72BC723C73A8
S214400990782487F803804FF072087970F9732799A6
S2144009A087F807C04FF06B0C7D724D257C73FF2493
S2144009B087F810804FF02F081791289901923246F9
S2144009C087F8029087F811C03D70BD738DF861407E
S2144009D08DF86280029100E00B4612F8015F591CC8
S2144009E0002DF9D103F11D09FF2403210395C9F316
S2144009F0076CC9F30742FC7587F812C0C9F3072C89
S214400A00FA741A22714CBD757B7687F8159087F874
S214400A1014C039762260002B00F0ED81591E6C4AD6
S214400A208E4416F8011F764502F8011FF9D103F1EE
S214400A30210203F11A0A03F11C0603F11B08049273
S214400A4003F1200203F12F0B0395059203F11F02D9
S214400A50069203F11E02079203F12E02089203F15A
S214400A602D02099203F12C020A9203F12B020B92FB
S214400A7003F12A020C9203F129020D9203F1280297
S214400A800E9203F127020F9203F12602109203F111
S214400A902502119203F12402129203F1230222331B
S214400AA0139214934B4B98474B4D02460B4644A12A
S214400AB0D1E90001A847494B98470021FF224FEA59
S214400AC0204E079D4FF0510C032307F80A1007F8F5
S214400AD008204FEA202A07F806C04FF0580C07F8BF
S214400AE00930042307F805E00DF16106069D4FF036
S214400AF0180E07F805A04FF0590A059D7855049D35
S214400B000198049690F8018002207955149D9845E6
S214400B107A5508BF8046139D18BF4FF0030807F864
S214400B2005C00DF1640C129D7B55019B119D93F8F9
S214400B30009007EB0B0307F80590109D07F805801B
S214400B400F9D07F805E04FF0080E0E9D07F805E0EC
S214400B500D9D79550C99039D7A540B9A169907F872
S214400B6002A00A9AB85409980A783A544A780899DA
S214400B707A54324603F8015B624505D012F8015BB1
S214400B80624503F8015BF9D1154907EB0B03019267
S214400B904D2254260DF167051A7172225E710BF1D3
S214400BA0080A9A712A4603C91A90080CADF86C10C8
S214400BB06B218DF86E00D971002316E0AFF30080EC
S214400BC000000000389C8C410001432070404020CB
S214400BD019014320115E40005161400031644000DD
S214400BE01C2741000000F0420B4612F8010F591C2A
S214400BF00028F9D1029A80460BF110004FF0FF0E04
S214400C004FEAC20907EB0B0209F10A063144C1F369
S214400C10076BC1F3074607F80AB0C1F3072AD1723B
S214400C204FF00301567282F80AA082F80C80D37304
S214400C3082F80DE0917353B11AAA391802EB030EED
S214400C4012F8016B724501F8016BF9D11844159BF7
S214400C500021C61C395403F07F023B18C020266092
S214400C609A705870029B002B00F09280179A1FEDE6
S214400C70237A9144B2F90030002BC0F2AF80C1F322
S214400C808630C1F34653C1F3C61E01F07F018DF88E
S214400C90650000208DF864308DF866E08DF86710AA
S214400CA033B90130042817D01CF80030002BF8D098
S214400CB0032811D00CEB000107EB060E00E00B7882
S214400CC043F0800301F8013BA9420EF8013BF6D100
S214400CD003369DF86710361AB955BB196FF06F0189
S214400CE0301D4FF0000E59701178206001F07F01E2
S214400CF09970917801F07F01D970D2ED017A67EE54
S214400D00877AFCEEE77A17EE901AC1F34653C1F3A2
S214400D10863BC1F3C61A01F07F018DF864308DF82A
S214400D2065B08DF866A08DF8671043B90EF1010ED8
S214400D30BEF1040F18D01CF80E30002BF6D0BEF1D2
S214400D40030F11D038440CEB0E0100E00B7843F053
S214400D50800301F8013BA94200F8013BF6D1F01DA3
S214400D609DF86710A0EB0E0039543B18061D6FF037
S214400D707F00002158701078266000F07F00987041
S214400D80907800F07F00D87008324A457FF472AF02
S214400D90049B3744019A07F8018B934205D013F819
S214400DA0018B934207F8018BF9D104362748284F28
S214400DB02660B84723685BB1264E0025DFF898804A
S214400DC016F8011F4046B84701352368AB42F7D8AE
S214400DD01E483B461DB0BDE8F04F184707EE901A38
S214400DE0D2ED016AF8EE677AE6EE877AFCEEE77AAD
S214400DF017EE901AC8E7222392464FF02F0B4FF07B
S214400E001B08149323231C264FF01D0913932423F9
S214400E101293252311932623109327230F932823D9
S214400E200E9329230D932A230C932B230B932C23C9
S214400E300A932D2309932E2308931E2307931F23DB
S214400E40069320230593212304932BE61027410085
S214400E50D56B4000FF0043201427410038B5234897
S214400E60234B984783071FD5224B1A78EAB91A783E
S214400E70214C82F00102214D214922481A702560FA
S214400E8008600021204D0122204C2148214B2A7029
S214400E90217001701978042912D0197802291DD0C2
S214400EA01A780132D2B21A7038BD1A78124C82F0D3
S214400EB00102144D124911481A7025600860E0E797
S214400EC0154D164916482A7000781A700B789842C5
S214400ED008D00B780133DBB20B7038BD0E490A7070
S214400EE00270DDE722700A7038BD00BF30180E4031
S214400EF0B53440002400402020004020000042201E
S214400F000C0040200080402076404020794240201F
S214400F107C4240207B424020754040207440402028
S214400F20784240202DE9F04F1B2B0D464FF0000134
S214400F30174608BF0C22814618BF0A462DED028B85
S214400F4085B029609DF842300192002B40F08780A2
S214400F50DFF824A204228AF800204FF0040E7449D9
S214400F60744E002381F800E0012032701946724C1E
S214400F70724A2370DFF804B21370714E714A8BF8D0
S214400F800030307013607048704B98474FF4F02133
S214400F906D486F4B80466F4CB1FBF7F189B298476E
S214400FA04046A04707464046A0478742FBD06A4B8C
S214400FB0082200244FF40031C3F880206248C3F86A
S214400FC0802183F803431A60644B98479AF80030B0
S214400FD0012122462046624C01EB83012378002BF8
S214400FE0FCD0013220708A42F8D1B5EE008A4FF02C
S214400FF00008DFF88CA15B4FDFED5B8A42F20E7291
S21440100006E02B68934206D83B7823B123788BBB07
S2144010103378002BF5D100234FF400314A48337023
S2144010208BF80030514B984708F1FF33296840222F
S21440103003F07F033AF9233029F831302B6809EB67
S214401040C3035A802B6809EBC30989ED018A2B68D4
S21440105001332B6005B0BDEC028BBDE8F08F012B51
S21440106043D0022BDFF810A118BF06231A468AF891
S214401070003072E708F07F033D49139A18463D4B0F
S214401080029080000390086803995144984702985C
S2144010903AF920305A1C03D0019A13442AF82030DB
S2144010A0B8F1000F1CD008F1FF33029A03F07F031B
S2144010B03AF922203AF923108A421CD02B68402263
S2144010C029F833102B6809EBC3035A802B6809EBC9
S2144010D0C30383ED018AB5EE008A2B6801332B608B
S2144010E0002308F10108237088E7DFF88CA003226C
S2144010F08AF8002031E70AEB8303039AB3F90230FB
S214401100524407EE903AB2F90230F8EEE77A07EE2C
S214401110103AB8EEC77A67EEA87AB4EEE77AF1EE00
S21440112010FACBDCF5EE007A38EE278AD8E700BF17
S2144011307B42402074404020794240207C42402000
S2144011407A4240201C40402030180E404D3440002B
S21440115035344000A134400000E100E079344000DE
S21440116076404020086340209A99993F8D3440004D
S21440117020004020B907400078424020754040207B
S214401180784040202DE9F041054601211C201B4EA9
S214401190B047012D044629DD2846194B98470128BB
S2144011A0074623D16B08174A2560284601336360FB
S2144011B090472568A0613946AD002846B047394675
S2144011C0A0602846B0476568E0603946AD002846CE
S2144011D0B047804639462846C4F81480B0470023B6
S2144011E020612046C8F80030BDE8F0812046002443
S2144011F0054B98472046BDE8F08100BF156B400080
S21440120085154000751340000D6C4000F0B504464F
S214401210006883B0154658B100239E004868A2680F
S2144012200133304432440068106020689842F4D855
S214401230276901216369A268184E0097B047A268E3
S2144012406B6812681A6022686B685208A16803EBE4
S21440125082034A681A606368013B012B1CD90C263E
S2144012600123A1686A6801EBC30102EB83020968A7
S2144012701160A268216890196A68C91A0133D0EDD6
S214401280007A083602EB8102F1EE677AC2ED007A08
S2144012906268013A9A42E4D803B0F0BD6126400045
S2144012A0F0B5304B04460E4615462F4F2DED028BBB
S2144012B083B00068984702460B4600204FF08041B6
S2144012C0B8472A4B98477268E36808EE100A1268D7
S2144012D01A60226873685208E16803EB82031B6851
S2144012E04B606368013B012B1CD90C2701237168B6
S2144012F0E26801EB830102EBC302096811602268D1
S2144013007168D01AE268013301EB80013A4408372D
S214401310D1ED007AF1EE677AC2ED007A6268013A62
S2144013209A42E4D827694FF0FF316369E268206843
S2144013300F4E0097B04723687BB100239800E168C2
S2144013406A68013301440244D1ED007A67EE887A38
S214401350C2ED007A22689A42F0D803B0BDEC028B08
S214401360F0BD00BF115E4000516140008164400006
S2144013706126400070B5041E0BDD0121064E082094
S214401380B04705460121A0002C60B047686028465B
S21440139070BD0025FBE700BF156B400030B400234E
S2144013A0F6EE006A6FF040440FE0416801EB8202BF
S2144013B001EB830112680D680A60026841682244A6
S2144013C0D21A013301EB82021560D0ED007A07EEA7
S2144013D0103A0268F8EE677AB8EE477A224467EE2B
S2144013E0A67AD21AFBFE677AB4EEE77AF1EE10FAE6
S2144013F0DBD430BC704700BF1368F0B505680C6896
S214401400AB4228BF2B46A34228BF23469BB19E46ED
S21440141000239E0044684D680133A719546835443C
S2144014209E45D7ED007A344495ED007A67EE877A8C
S214401430C4ED007AEDD1F0BD03680A68934200D04F
S2144014407047002BFCD0002330B49D0044684A68A7
S21440145001332C442A44246814600A689A42F4D81B
S21440146030BC704702686AB14368DFED087A03EB28
S2144014708202B3EC017A934277EE877AF9D117EE7F
S214401480900A7047DFED017AF9E700BF00000000E0
S21440149090E80600D2ED007A79B100200346B2EC1F
S2144014A0017AB4EEE77AC7FEC77AF1EE10FAD8BFF3
S2144014B0184601338B42F2D170470846704700BF4A
S2144014C0036807EE101A6BB10022436803EB8203F1
S2144014D00132D3ED007A77EE877AC3ED007A03685F
S2144014E09342F2D8704700BF59B30268531E9942E0
S2144014F027D04B1C9A4210B401F1FF34436827D9D9
S21440150003EB8403B0EE005AF6EE005A07EE901A4C
S21440151093ED026A93ED007AF8EE677AD3ED014ACE
S21440152077EE066A37EE467AE4EEC56A27EE257A07
S21440153087EE266A76EE277A17EE900A5DF8044B19
S214401540704707EE901AF8EE677A17EE900A7047E3
S21440155003EB810393ED007A53ED017AB4EEE77A1C
S214401560F1EE10FA08D807EE901A5DF8044BF8EE44
S214401570677A17EE900A704707EE904AF8EE677A59
S214401580DAE700BF431E03420CBF0120002070472D
S214401590002308282DE9F04F0B6089B060DD0B1F53
S2144015A001279E4605934FEA87097546401001EB92
S2144015B0090404EB090655F8043F034444F8043B89
S2144015C0A642F8D13B017F008342ECDB0797CA4630
S2144015D04DD04FF0020ADDF814B04FF0000851F835
S2144015E01A005BF8043F404408F102085344850063
S2144015F048449C004B4405F1040C800004F1040E62
S2144016009B009444154496441444071D1E1DDCED6F
S214401610007A1044DEED006A174495ED007A1344D4
S21440162094ED006A1644C24585ED006ACCED006A2A
S21440163084ED007ACEED007A3C680568D3F800C0A9
S214401640D6F800E0C0F800C0C7F800E01D6034607F
S214401650C5D10AF1020AD145BDD109B0BDE8F08F27
S214401660FBD10B1F4FF0020A0593012307934FEA65
S2144016704A03DDF814B0CDF818A001930023049374
S2144016805BF8043F0499069801310344049103EB48
S2144016900A019B0089001C1D1344081D11441E6846
S2144016A014441044D1F800E025680768C3F800E009
S2144016B02760079B0E60049905609942CDD0049B35
S2144016C0DDF814905B0003930023009359F8043F21
S2144016D00398DBF80410CB45009C034421444FEAB2
S2144016E0830704F102044FEA810007F104080094DE
S2144016F01744019C9044514497ED006A234400F1FE
S2144017000404D8ED006A4FEA81061444104451445C
S2144017104FEA8305D4ED007AA3EB0A0390ED007AF6
S21440172006F1040C80ED006A05F1040EC4ED006A73
S2144017304FEA81045144154487ED007A16440291DD
S214401740944401999644C8ED007A4FEA8300D5ED5B
S214401750006A0B44029904F10407D6ED007A4FEA7A
S2144017608303DCF800804FEA81019EED007A144442
S214401770C6ED006A00F104068CED007A1744C5ED0C
S214401780007A1044164401F1040C03F10405CEF827
S2144017900080D7F800E01144D4F80080944490EDDF
S2144017A0007A1344D6ED007A154484ED007AC7EDEE
S2144017B0007AC0F80080C6F800E00C68DCF800004C
S2144017C01F682E680F60CCF800601C6028607FF4AD
S2144017D07DAF069B0233069352E700BFD1ED0A7AEF
S2144017E01028D1ED085A91ED0F7AD1ED0D6A35EEFD
S2144017F0E74AD1ED0C1A75EEA75AD1ED0E7A36EEC1
S214401800C76A91ED073A76EE872A91ED0B5A71EE4C
S214401810E76A91ED007A71EEA71A91ED052AD2EDAE
S214401820027A91ED030AD1ED063AD1ED044A2DED48
S214401830108B91ED098AB0EE67BAD1ED029A34EE7C
S21440184046AA78EE450AD1ED018A32EE439A86B032
S21440185034EE064A37EE696ACDED047A30EEA61AC3
S21440186078EE807A70EEE60A32EE032A78EEC06AA8
S21440187036EE493A34EEE30A74EEA34AF1EE4B3ABA
S21440188038EE055A36EE096A3AEE418ACDED053A0B
S214401890B0EE639A3AEE011A76EE803AF0EE438A5C
S2144018A076EEC06AA9EE083A34EE200AEBEE088AD5
S2144018B034EE604AB0EE638AE9EE013A37EE297AB2
S2144018C081ED0A3AABEE018AF0EE460AC1ED028A95
S2144018D0ABEE006AB0EE661AE9EE046AC1ED0B3A6A
S2144018E075EEA13AABEE041A81ED038A37EE244A30
S2144018F075EEE15A81ED0E6A37EE647A37EE826A0B
S214401900C1ED0F6A75EE224A75EE626A81ED071ADE
S21440191034EE235A77EEC27AE9EE000A34EE634A92
S21440192081ED005A76EE243A37EE665A36EE646A11
S21440193081ED084A37EE267AC1ED013A77EEA56A80
S214401940C1ED060A77EEE57A81ED096A81ED045A23
S21440195081ED0C7AC1ED056AC1ED0D7A40F31A822D
S21440196091ED127A2028D1ED177AD1ED104A91EDFB
S214401970158A74EEC75A91ED133AD1ED112A74EEDA
S214401980874A78EE676A91ED167A91ED145A32EEF0
S214401990C34A91ED199A38EE278A35EE476AD1ED5B
S2144019A01A7A75EEE69AD1ED1E8A91ED180A75EE12
S2144019B0A66AD1ED1D1A72EE832AD1ED1F5A74EE37
S2144019C006AA91ED1B3A70EE673A91ED1C2A71EE2D
S2144019D0E50A39EE431A71EEA51A72EE685A34EEED
S2144019E0464A92ED056A33EEE0AA35EE075A73EEA4
S2144019F0A03A31EE257A32EE282A75EEC15A66EEC6
S214401A00298A6AEEC60A30EE270AD2ED047A39EE03
S214401A10033AE7EEAA8AE7EEA90A63EEC6AA66EE9E
S214401A20259A27EE679A27EE8A1AE7EEA39AF0EEF3
S214401A306A3AA6EE0A9A24EE67AAE7EEA53A67EE59
S214401A40A67AA6EE071A74EEC55AA6EE26AAE6EEC3
S214401A50047A73EE61AA32EEC84A70EE426A34EEF9
S214401A60857A35EEEA6A74EE264A75EEAA5A76EE1E
S214401A70C46A36EE644A36EE246A76EEE54A76EE78
S214401A80A56A71EE285A33EE215A72EE882A39EE4C
S214401A90203AC1ED135A30EE022A73EEA75A73EE7F
S214401AA0E77A81ED123A70EEC90A3AEE693AC1ED2C
S214401AB0175AC1ED1E7A64EE8B5A72EE857AC1EDE6
S214401AC01B0A77EE024A81ED163A31EE681A79EE35
S214401AD08A9AC1ED117A24EE0B4AC1ED104A26EEE1
S214401AE00B6A81ED1A1A66EE8B6AC1ED1F9A37EEC5
S214401AF0427A81ED144A35EE625A81ED156A81EDDF
S214401B00197A81ED185AC1ED1C5AC1ED1D6A40F391
S214401B104181A0F1210323F00F0310331344D1ED8C
S214401B202B5A1032D1ED28FA4031D1ED1ADA91ED28
S214401B301DEA91ED1C8A7FEEEDEA91ED1F3A7FEEAD
S214401B40ADDAD1ED194A91ED1E0A7EEE437A74EE77
S214401B50E50A91ED135A78EE401A91ED16AAD1EDAA
S214401B6011CA3EEEE7DA91ED146A74EEA54A70EEBD
S214401B70A12A91ED10FA70EEE11AD1ED179A7CEE9B
S214401B80C50A92ED042A76EE4A5A92ED077A7EEE20
S214401B90A7EAD1ED127A7CEE85CA91ED155A3EEE53
S214401BA0033AD2ED053A3DEE22EA92ED061A38EEB9
S214401BB0000ADDED04FA3FEE678A93427DEE622A24
S214401BC035EE695A30EEA5DA36EE0A6A3FEE27AAB7
S214401BD0D1ED157AF1EE63BA37EE07BA70EEE55AF4
S214401BE0B0EE4DFA78EE450AF0EE428A77EEA99AC4
S214401BF038EE055A7EEEA17A3EEEE18ADDED05EA44
S214401C00EBEE8B8AAEEE8EFA61EE0B6AAFEE8EDAB4
S214401C10B0EE60EA36EEA69AEFEEA20AAEEEA2EA82
S214401C20F0EE6B2AB0EE6B4AF1EE47AAE8EE892A50
S214401C30A2EE0B4ACDED012AF0EE652AEFEE885A69
S214401C40B1EE44CAEEEE882AB0EE458AF0EE4C1A63
S214401C50AEEEA75AAFEEA78A7DEEC0FAE2EE091ABC
S214401C60F0EE68EA7CEEE97A8DED028A3AEE068A74
S214401C703AEE466A3DEE80AAF0EE42DAEBEE89EAAC
S214401C803CEEA90AECEE09DAB7EE00CA74EE839A87
S214401C9074EEC34AAAEE8BCAB0EE6A3AB0EE41BAC8
S214401CA078EE4ACAA1EE093AAAEE89BA2FEE619AB0
S214401CB061EE8E1A70EE69BAAEEE8E9AEEEE8F1A1E
S214401CC09DED02FA2DEE63EAF0EE4BAA37EEEFBA40
S214401CD0A2EE20EA77EEAF7A81ED1A9ACDED031A9E
S214401CE076EE24FADDED011A36EE646AF0EE62EA2C
S214401CF062EEE14A61EE8F2ADDED031A81ED12EACB
S214401D0063EEA03AC1ED1B1A65EEC40A26EEAC9A05
S214401D106BEE431A27EEC7EA24EE054A6BEEE66AF8
S214401D2023EE2F3A27EE067AE2EE0D3AEDEEAE2A95
S214401D30EDEE8F4AE8EE850AA8EEA54AECEE2C6A50
S214401D40ACEE2B9AC1ED133AAAEE8B3AC1ED1F2AA0
S214401D50EAEEAF1AC1ED1E4AA1EE06EAC1ED160A3A
S214401D60A1EE277A81ED174A38EE0A8AC1ED186A45
S214401D7030EE290A81ED199A81ED1D3A81ED108ADF
S214401D8081ED110A81ED14EAC1ED1C1A81ED157A38
S214401D907FF4C5AE06B0BDEC108B70472DE9F04F12
S214401DA000299B464FEAC1092DED108B8DB093ED6F
S214401DB002FA0990079240F3E78001EB410201F1F5
S214401DC0FF3A079E8B008D184FEA5A0A374606EBB5
S214401DD0030C4C1903F1040E06EBCA0AB1EE4F8A07
S214401DE0081906EB820206EB8505BE4406EB840422
S214401DF00E18B84607EB800007EB860663440AF1E8
S214401E000C0A0437D4ED007A0837D0ED016A0EF19B
S214401E10080E96ED017A0CF1080CD6ED003A08341F
S214401E2095ED006A76EE871A95ED01BA083254EDC4
S214401E30015A36EE675A90ED000A36EE276A3BEEB8
S214401E40659A1CED01AA76EEC77A93ED001A70EEFD
S214401E50634A57ED036A30EE230A1EED037A75EEA9
S214401E60678AD3ED01AA39EE243A12ED012A39EEFB
S214401E70649A52ED024A35EE275AD8ED017A71EE51
S214401E80643A083677EECA2A08F1080876EEC70A9A
S214401E9008353AEEC24A083331EE241A083072EE5C
S214401EA0A34A78EEC39A36EE877A78EE838A72EE45
S214401EB0E36A30EEC43A75EE492A30EE844A35EE8F
S214401EC0095AB0EE649A77EE8A7AE8EE284AB0EE7F
S214401ED043AAAFEE289AF0EE660AF0EE448AE8EEA1
S214401EE0226AAFEE054AE8EE058AEFEE220AAFEE2A
S214401EF029AAA8EE293A7BEE255AF0EE643A76EE09
S214401F00002A77EE014A3AEE822A0EED03AA0CED3D
S214401F10019A37EE417A44ED013A36EE406A04EDD6
S214401F20023A37EE825A42ED028A77EEC27A42EDA4
S214401F30010A06ED024A35EEA14A46ED016A75EE03
S214401F40E16A74EEA25A75EE043A74EEE24A47ED40
S214401F50035A35EE445A77EE665ABA4537EE267A35
S214401F6048ED013A77EE866A45ED024A77EEC67A44
S214401F7005ED015A43ED025A43ED016A00ED027A3F
S214401F8040ED017A7FF43EAF099B994580F29F82EF
S214401F9001EB090C9BED040A9BED058AE14580F2B6
S214401FA0088101EB0C03ACEB0902079E09F1020A1B
S214401FB0CD18013A06EB83034C1922F001024FEA92
S214401FC0890E0093081992440EF1040806EB850525
S214401FD00A1806EB8404B044B6448B1806EB80001F
S214401FE006EB8A0A06EB820206EB8C0706EB8306B4
S214401FF0009B9EED019A0EF1080E18ED012A083757
S21440200017ED027A0830D3ED011A083555ED017AFE
S21440201032EE473A55ED024A32EE072A57ED010AAC
S21440202031EEE77AD3ED002A71EEA7AA79EE603A50
S214402030D4ED016A72EEE47A92ED006A73EE47DA06
S21440204010ED025A33EE073A10ED017A33EEA7EA66
S214402050D6ED015A73EEE73AD6ED007A36EEC74A29
S21440206094ED00BA76EE678A92ED01AA3BEE451AE9
S21440207008367AEE651A08F1080874EE28CA08345D
S21440208079EE200A083331EE61DA083231EE211A51
S21440209072EEA42A78EEC41A3BEE05BA3AEE25AAAA
S2144020A076EE876A36EE276A2EEE489A2CEEC04ABF
S2144020B072EE627A3BEE467A70EEEABA36EECACAFC
S2144020C068EE218A23EEC05A60EE035AA0EE2D9A9F
S2144020D0A8EE0D4A68EE2D9A60EE0D4A61EE48EA8B
S2144020E0E0EE018AA8EE035AE8EE235A37EECC3AE1
S2144020F07BEE873AE0EE0E9A37EE6B7AE8EE2C4AA5
S21440210077EE8C7AB0EE6E1A72EE222A33EE632A9F
S214402110A0EE211A73EE233A37EE673A77EE277A27
S21440212034EE097A70EEAA1A3BEE066A07ED027A9A
S21440213074EEA90A35EE687A76EE8A6A74EEE94A53
S21440214047ED010A39EE444A38EE855A40ED024AD8
S21440215071EE250A00ED014A71EE655A05ED027AE8
S21440216072EE864A31EEA67A45ED010A06ED015A30
S21440217032EEC66A46ED025A76EEE16A48ED034A0A
S21440218022EE0F5A0EED017A63EE8F5A23EE0F7A47
S214402190F24567EE8F7A04ED016A44ED026A03ED7C
S2144021A0025A43ED015A02ED027A42ED017A7FF47B
S2144021B020AF4FEA490A099B534540F3888101EB1B
S2144021C00A02079CA9EB0101F1EE4FDA04EB82020A
S2144021D05B4609EB0C0004EBC90B06928A0005909F
S2144021E00B924FEA89020A92D3ED0BBAF7EE006AD9
S2144021F093ED09DA7BEEAB7AD3ED08AAB1EE4DAAA1
S21440220093ED0ABAB1EE6B7A059A6BEE27CAB0EE3A
S2144022104AEA9245B0EE6ACAE7EE276AAAEEA7EA0D
S214402220AAEE27CAB0EE4B6A7CEEAC7AF0EE6AEACB
S214402230CDED006AA7EE276AF1EE4E6AABEE277A3E
S214402240E6EEA7EA8DED036AB0EE4C6A8DED047AB1
S214402250AAEE276AACEE27AA8DED016AB0EE666A52
S214402260AAEEA76A8DED026A80F22281059A0AF1EB
S2144022700208069C09EB0B0002F1FF3E0B9A09EBA5
S21440228004010894AEEB0A0E079C02EB0B0700EB2A
S21440229009022EF0010E01EB09060BF1040C02EBCD
S2144022A00905F044DE4604EB8808089C92ED003AA7
S2144022B00EF1080ED6ED007A083495ED014A083640
S2144022C097ED016A73EE671A56ED016A33EE273AC8
S2144022D0D5ED005A74EE467AD7ED00FA34EE064A4B
S2144022E092ED017A083135EEEF6A1CED019A77EEF1
S2144022F0664AD0ED018A54ED022A71EEE79A51ED16
S214402300013A71EEA71A39EE628A5EED010A34EEA2
S214402310862A90ED001A74EEC64A54ED017A38EEDD
S214402320E36A11ED025A30EEE70A083737EE267AAE
S2144023300CF1080C71EE456A083275EEAF5A08305B
S21440234079EEC2FA083539EE822A78EE469A38EEA9
S214402350066A30EE268A70EE666A31EEE40A71EE60
S214402360A44AF0EE691AEDEEAF9A70EEA77AEFEE59
S2144023702F1AF0EE48FAF0EE480A31EE055AEFEE24
S21440238002FA79EE222AB0EE668A78EEA33AEDEEAD
S214402390820AB0EE462AAFEE008AEDEE806A72EE12
S2144023A0858A2DEE210A72EEC52A37EE045A37EE9C
S2144023B0447AADEEA42AAFEE246A33EE259A77EE41
S2144023C0A34A73EE655A77EEE37A32EEC71AAAEE60
S2144023D0AF0A32EE877A6FEECD2ADDED02FA37EE9F
S2144023E0A54A77EEE55A60EEEF7AEAEEA12A04EDCA
S2144023F0010A6FEEA91ADDED01FA28EE4E0AEFEE5D
S214402400A97A6EEE029AEFEEA01AACEE020A44EDFE
S214402410022AECEE089A66EECA0A6AEE062A46EDEC
S214402420027A78EEC93A34EEC53A46ED011A2BEEFA
S214402430812A01ED020A41ED019AEEEE860ADDEDB3
S214402440049AEEEEA62A24EE6B6A9DED000A6CEE28
S214402450A37A63EE6C1A25EEE98A69EE876A47ED41
S214402460020AABEE042A9DED034A78EE898A47EDD0
S214402470012A74EE854AE0EE037AE0EE231A4CED2C
S214402480038AABEE016A4EED014AA4EE078AF04598
S214402490E4EE256A42ED021A42ED017A00ED026A48
S2144024A000ED012A05ED028A45ED016A7FF4FEAE95
S2144024B0059ACA440A9910334A448B440592069AB0
S2144024C01046099A0844524506903FF78DAE0DB027
S2144024D0BDEC108BBDE8F08F0F282DE9F041064685
S2144024E00D466ADC042302249E4263DDE00063005E
S2144024F02A46A500011D234428465619043502EBFA
S2144025008303114430441544171D4FF0000E15ED5B
S214402510016A0EF1020E17ED017A0832D6ED014A35
S214402520A64551ED016A37EE065AD3ED005A37EE0E
S214402530467A52ED017A07F1080790ED016A36EEC9
S214402540A54AD3ED013A76EEE56A77EEA45A00F155
S214402550080077EEE47A01F1080176EE234A05F1A9
S214402560080536EE636A06F1080675EE043A03F18E
S214402570080335EE445A35EEA44A75EEE45A47ED64
S214402580033A77EE464A37EE067A02ED014A37EED0
S214402590A66A01ED035A77EEE67A40ED015A45ED1C
S2144025A0034A06ED016A03ED027A43ED017AAEDB9B
S2144025B0BDE8F0811AD0BDE8F081274B1746984712
S2144025C07F2846DD80241021DFF8908000E0044616
S2144025D030463B462A46C0472146E0008642F6DA69
S2144025E063009E4231DCE6D1002CE4DD601EA40090
S2144025F02A462B1D4008211D2C4405EBC0002944CB
S2144026000C3053ED017A083351ED016A083212ED71
S214402610017A083137EEA66AD4ED015A77EEE67AAB
S214402620083437EE657A03ED036A984252ED016A44
S21440263014ED016A76EE866A42ED016A41ED037A50
S21440264004ED017ADDD1BDE8F081002C3FF750AFB4
S214402650B1E72023102447E7DD1740009D1D4000CA
S2144026602DE9F04F9946164604462DED068B89B067
S2144026701B68189AB0EB830F02910193009200F307
S2144026809980D9F80450AB009C4218DC029B002B82
S21440269072DB042C00F3048100F06181D6ED007AF1
S2144026A096ED017A77EE876A77EEC77AC6ED006ACE
S2144026B0C6ED017A09B0BDEC068BBDE8F08FA510DB
S2144026C0009B019A012DC9F8045003EB820ADDDD18
S2144026D0E3109FEDA67ADFF8A482F6EE008A07EEB6
S2144026E0903A1F46F8EEE77A87EE279A67EE897AA1
S2144026F017EE900AC04707EE900A0AEB8703012FB1
S21440270067EEA87ACAF80000C3ED007A3B46BDD013
S2144027104FF0010B0AF10407954A0AEB850A039627
S2144027205E46CDF81090A346D1461446AA46454686
S214402730984607EE906A0136B8EEE78A28EE098A90
S21440274018EE100AA84707EE900A18EE100A67EE31
S214402750A87AE7EC017AA04707EE900AB04567EE04
S214402760A87A69ED017AE4D1029B55465C46039E01
S214402770002BDDF810908CDA96ED007AB6EE004A23
S214402780D6ED017A042C77EE677A67EE847A37EED8
S214402790677AC6ED017A86ED007A00F3F18089D13A
S2144027A0009A31462046734B09B0BDEC068BBDE817
S2144027B0F04F184783100125022B019389E8280023
S2144027C040F3CB80C3109FED697A009800221946EB
S2144027D003934FF07E53426007EE901A0F468900EF
S2144027E00360F8EEE77ADFF894810D460491C7EE71
S2144027F0278A43191D46059367EEA87A17EE900A76
S214402800C047022F286068607FF73BAF009B0225D9
S214402810019A9B46069403EB8207554BDDF80CA0C5
S2144028201C464346D846B3461E46CDF81C9007EE97
S214402830905A023508F10808083FB8EEE78A28EEB5
S214402840288A18EE100AB047814618EE100AA047AC
S214402850AA45C8F80090C8F804003860C7F8049045
S214402860E5DC039B5E46069C023BDDF81C90012B94
S2144028700FD00499059A0A441146023B52F8105C60
S21440288052F80C0C0839012B0D604860A2F110027A
S214402890F3DC009A09F108010198374B9847F0E6B7
S2144028A009F1080132462046334B9847DDF8008050
S2144028B067102046424631462E4B9847019A68009C
S2144028C0022F08EB820290FBF7F03FF4E7AE2D1A9A
S2144028D0C0EB807E8000B6EE004A02EB85053346AC
S2144028E006EB840402444FEA8E0E022193ED027AF0
S2144028F0023193ED036A083CD4ED005A8F42D4ED82
S214402900014A03F1080377EE655AD2ED007A76EE77
S214402910244A95ED005A0244754467EEA56A34EEA3
S214402920455A64EEE77AE5EE246AE5EE257A36EE19
S214402930666A37EE677A83ED016A83ED007A94ED36
S214402940007A94ED016A77EE277A76EE666AC4EDF1
S214402950007AC4ED016AC9DCA0E6042394E6009A36
S21440296020463146034B984798E600BFDB0F493F69
S214402970654D4000D924400091154000ED4C400084
S2144029806710F1EE677A4FEA450E009B019A022FD8
S214402990C6ED017A03EB82019EFBF7FE00F0FC8158
S2144029A0A5EB0E05CEEB8E7C4FEA8E0E324601EB43
S2144029B0850502204FEA8C0C714406EB840392EDA9
S2144029C0027A023092ED036A083BD3ED005A874202
S2144029D0D3ED014A02F1080277EE655AD1ED007A4E
S2144029E076EE244A95ED005A7144654465EEE76AF2
S2144029F034EE455A67EEA47AE5EE246AE5EE257A8B
S214402A0036EEC66A37EE677A82ED016A82ED007A64
S214402A1093ED007A93ED016A77EE277A76EEC66AF2
S214402A20C3ED007AC3ED016AC9DC013709F108013C
S214402A303246204606EB8707E04BD7ED007AF1EEAC
S214402A40677AC7ED007A9847102C00F3EC8008238D
S214402A5002279C4240F30881009B93ED022ABB006C
S214402A6007EB4702F5184FF0000806F1040CB818BB
S214402A702B4406EB82023C1806EB8000391904F121
S214402A80010E7C1806EB8E0E06EB810106EB8404E5
S214402A90D0ED006A08F102081EED017A0835D4ED43
S214402AA0017A4745D1ED009A36EEC75A91ED013A84
S214402AB076EE872A90ED01AA02F10802DEED005A72
S214402AC033EE676AD4ED006A33EE273A3AEE658A0B
S214402AD05CED010A79EEE67A15ED027A35EE469A15
S214402AE0D3ED013A12ED014A30EEC70A78EE274A96
S214402AF093ED001A79EEA66A52ED021A75EE068A32
S214402B0096ED016A79EE649A04F1080439EE249A47
S214402B1006F1080673EEC44A00F1080038EE678AEC
S214402B200CF1080C7AEE257A55ED015A33EE844ABC
S214402B3003F1080335EEC65A01F1080170EE873AF4
S214402B4036EE256A70EE640A71EE615A31EE217AED
S214402B5070EE244A35EE651A38EEC80A75EE255AE8
S214402B6038EE885AB0EE608A74EE061A34EE466A3C
S214402B70A9EE828AB0EE414AE9EEC20AF0EE648AD5
S214402B80F0EE419AA9EE024A05ED028AB0EE658A59
S214402B90E5EE024AE0EE025AE5EE428AA0EE428AAE
S214402BA0E9EE429A14EE109A37EE831A33EE874ACD
S214402BB032EEA65A33EEC77AB1EE610A77EEC37AA2
S214402BC045ED019A72EEE66A4EED010A74EE053A5C
S214402BD04EF8089B71EE611A42ED028A02ED018AB8
S214402BE034EE455A44ED024A70EE414A44ED015AED
S214402BF077EE675A77EE277A4CED033A36EE667AEA
S214402C0046ED014A76EE266A40ED011A00ED025A7C
S214402C1043ED025A03ED017A41ED027A41ED016A35
S214402C203FF736AF46E5DDF8008031462046644B38
S214402C3042469847802C40F3BD8080271021614D46
S214402C4000E01746324643462046A8473946FA0033
S214402C509442F6DCBB009C423ADD002F7FF72AAD5B
S214402C60009A92ED022AFBE600F09380002F7FF751
S214402C7021AD781EBB00321D4008191D334406EBBB
S214402C80C00031440C3012ED017A083251ED017A21
S214402C90083656ED016A083177EE275A93ED016AF9
S214402CA077EE677A083336EE666A42ED035A90420C
S214402CB056ED016A13ED017A36EE877AB1EE477A21
S214402CC006ED017A41ED037A03ED016ADBD1F1E4CA
S214402CD0CCD1002F7FF7EEAC781E1C1D07EB4707C4
S214402CE004324008F51806EB8701324406EBC00074
S214402CF02B44344400F10C07301DD6ED017A0830E1
S214402D00D3ED014A083695ED017A083391ED016A14
S214402D10083210ED035A37EE874A52ED036A74EED6
S214402D20863A54ED015A37EE677AD1ED007A34EEA2
S214402D30C66A35EE253A083476EEA74A083574EE6C
S214402D40232A083175EE655A33EE245A76EEE77A32
S214402D50F1EE626A00ED035A33EEC44A35EEC65AC7
S214402D60874246ED016A73EE644A77EE676A35EE4F
S214402D70866A77EE277A42ED034A03ED014A04ED70
S214402D80035A45ED016A01ED026A41ED017AB4D17C
S214402D9090E4FA00BB009FE7D6ED037A09F10801FC
S214402DA0064B3246F1EE677A2046C6ED037A9847E0
S214402DB008234EE6402310274BE600BF91154000FF
S214402DC0DD1740009D1D4000F8B501210546114B1A
S214402DD0242025FA01F7984704460F4E3846B04758
S214402DE020602846B047E0603846B0472061284615
S214402DF0B04760612846B047A0612846B047074BB9
S214402E00E06128469847064A0023206262602046D2
S214402E10A360F8BD156B4000751340008511400057
S214402E20CDCC4C3D00000000BE4A0B462DE9F04F8D
S214402E3004464FF4006502F13C06964610462DEDDA
S214402E40048B89B0029553F8045B40F8045B8642D5
S214402E50F9D101F14006DFF810C3B34D00279FEDCE
S214402E60B36AB34B3146B0EE467ADFEDB27A0760CE
S214402E7001E0B3EC017A71ED016A9D42E6EE877A95
S214402E80C0ED007AF5D1043004368445E9D1AA4B2A
S214402E909FEDAA7A01E0B3EC017AD2ED007A67EEB4
S214402EA0877AE2EC017A9042F5D1D4F80C8002A9F8
S214402EB0CDF80CE008AFD8F80050084626684246E1
S214402EC09F4BD6F800900195D4ED018A9847236928
S214402ED0D8F8042047F8109D384605925D68994B0F
S214402EE09847B9F1010F28604FEA89052ED900208E
S214402EF04FF0010E23694FEA8E010EF1010E5B681A
S214402F00F14503EB00020B4412681A602269D8F8B8
S214402F100430526803440A44D3ED007A92ED007AB6
S214402F2077EE677AC2ED007A2269D8F804305268A4
S214402F302B441144034400F1040091ED007AD3ED94
S214402F40007A77EE277AC1ED007AD3D120690DF169
S214402F50200B7D4B4268DFF814A211689847A3699E
S214402F6002A9206A1A460093D4F80C80D047039AE8
S214402F703846636905925A684BF8089D59460432AC
S214402F80724BCDF8109007929847714B5846984729
S214402F90E2696169206AD047E269A369B9F1010F25
S214402FA052685B68D2ED007A93ED007AD8F8043028
S214402FB067EE877AC3ED007A40F21B816FF040419E
S214402FC0019B4FF0010E37460B4499008C46E06952
S214402FD04FEA8E02A3690EF1010E46685868F14525
S214402FE01644D8F80430104496ED007A1344D0EDD9
S214402FF0007A67EE277AC3ED007AE669A069D8F8CA
S2144030000430766840681344664400EB0C02D3ED07
S214403010007AD6ED006AACF1040C92ED007AE6EE4A
S214403020C77AC3ED007AD2D1E2690120A36952681B
S2144030305B682A442B44D2ED007A93ED007AD8F8A8
S214403040043067EE877A2B44C3ED007AE669820047
S21440305001307368A669864503EB010CD8F8043046
S21440306076689CED007A0B441644D6ED007A67EEFF
S214403070277AC3ED007AE6697368A6691A44D8F8D9
S214403080043076680B44D2ED006A0E44A1F1040188
S214403090D3ED007A96ED007AE6EE877AC3ED007AB5
S2144030A0D4D14146009A206A3E462A4B984700278C
S2144030B00194019BBA00716801371B6901EB020855
S2144030C0254C5B6813441868244B9847009B8246FF
S2144030D08B465B682B4404351868204B984702465D
S2144030E00B46A0471E4C02460B4650465946A04744
S2144030F01C4B9847B945C8F80000DAD1F7EE009A5D
S2144031007368012F019CC3ED009A00F090806FF029
S21440311007099FED089A0125DFF854B0DFF854A060
S2144031204AE000BF80424020604741007CF2303B8E
S2144031302847410000000000282741006BC21D368A
S214403140F913400065144000C11440003914400093
S2144031509D134000A1124000995B4000555E400020
S214403160955B400081644000806240200D12400024
S214403170315E40001D644000C7EE097A27EE888A1B
S21440318088ED008A042DA5F1030105F101050FD94C
S21440319073684B44D3ED007AF4EEE78AF1EE10FA0A
S2144031A006DD93ED017AF4EEC77AF1EE10FA53D4C9
S2144031B0AF4209F104093AD0736803EB850898EDED
S2144031C0008A39EE089AFDEEC97A17EE903A83EAFD
S2144031D0E370A0EBE370D8472DA3D3E90023D04794
S2144031E007EE905AB8EE677A0028C5D1C8ED009A27
S2144031F0C8E7A0694146E369476858682F44D8F84D
S21440320004302844009AD7ED007A2B4490ED007A9B
S2144032101B4F67EE877AC3ED007A206AB847B9F14C
S214403220000F7FF444AF4FF07E5273681A6030460A
S214403230144B98470146144B3046A16098479FED83
S214403240137A06EE900AC7EE267A17EE900A09B071
S214403250BDEC048BBDE8F08FA16030460A4B984722
S2144032609FED0A7A06EE900AC7EE267A17EE900A87
S21440327009B0BDEC048BBDE8F08F00BFAFF3008013
S214403280A112400091144000E91440000010B846D6
S214403290F168E388B5F8E43E0368B7EE007A8268E2
S2144032A05B6803EB8203D3ED007A77EE677A17EE1E
S2144032B0900A70472DE9F04190B9002A90460DDDFE
S2144032C00C468F18084E094D2146013430682B684D
S2144032D09847BC42F8D14046BDE8F0818046FAE7C0
S2144032E04FF0FF38F7E700BFA8874420A087442068
S2144032F0013802281ED82DE9F0411546BAB10E46CF
S2144033000C46DFF83C800D4F01E0013D0DD014F82F
S214403310011BD8F800003B6898470028A4EB06003D
S214403320F3DA4FF0FF30BDE8F081BDE8F08110469B
S214403330BDE8F0814FF0FF30704700BFA4874420BF
S214403340A887442070B50B4686B00E0A1A228DF820
S21440335001300125022401A9074B8DF804000748D7
S2144033608DF800600295CDF80CD004948DF81420AA
S214403370984706B070BD00BF6D37400000800140E2
S21440338030B587B01A22012502248DF8040001A921
S214403390084B09480295CDF80CD004948DF81420BB
S2144033A098479DF800009DF8013043EA002007B09A
S2144033B030BD00BFCD3640000080014010B54FF014
S2144033C0005184B0154C2120A0474FF000512020DA
S2144033D0A0474FF080517A20A0474FF0006116205A
S2144033E0A0474FF080517820A0474FF0C0510A20A8
S2144033F0A0474FF080511220A047002208491320D2
S214403400084C094B01918DF80D200294984701A96C
S214403410064B0748984704B010BD00BF2D3D4000FE
S21440342080D1F008801A06002541400099364000B9
S21440343000800140044B024600201B6843F4802372
S21440344019431160704700BF8062402041B9094966
S21440345002680B6823F080731A430B600260704763
S214403460044902680B6843F080731A430B6002609D
S214403470704700BF80624020034B02681B681943B8
S21440348011430160704700BF806240200368034AD2
S21440349023EA0101126811430160704780624020B0
S2144034A0826883689A4203D0826883689342FBD1DD
S2144034B018467047C068704700234FF400420260C9
S2144034C04360036143618361C361704701230360C6
S2144034D0704700BF02230360704700BF4FF48073FD
S2144034E0036070474FF4007303607047F0B40029E0
S2144034F02FD00469CF688E6991E828002B438D68E9
S21440350023434C692B430D6921043B4301F47F015F
S214403510334343EA05630B430361EAB15469536896
S21440352091692343466914680B43916804F01F046D
S21440353015693343D26809022343120401F47061CB
S21440354043EA057302F470220B431343F0BC436115
S21440355070470161002AE1D14261F0BC704700BF6C
S214403560F0B400292FD08469CF688E6991E828008E
S2144035702B438D6823434C692B430D6921043B4301
S21440358001F47F01334343EA05630B438361EAB1A9
S2144035905469536891692343C66914680B4391681C
S2144035A004F01F0415693343D2680902234312040A
S2144035B001F4706143EA057302F470220B4313432F
S2144035C0F0BCC36170478161002AE1D1C261F0BCA2
S2144035D0704700BF816470472C4B994230B44DD839
S2144035E0A3F57A5399422ED9294B2A4C0B44A4FB77
S2144035F002149B00A40BB2FBF3F2033C033AFF2CED
S21440360040D9002100E03BB10131640806298CBF57
S21440361000230123FF2CF6D8FF2A07D913B905E06B
S214403620062903D852080131FF2AF9D8130200258B
S21440363009049BB201F4E021E4B20B432343036147
S214403640284630BC704749000023B2FBF1F2033AEB
S214403650FF2A02D808E0062B03D852080133FF2A77
S214403660F9D81B0403F4E02311020025D2B289B234
S2144036701A430A430261284630BC70470125284653
S21440368030BC704701230021C6E700BF801A060001
S2144036900012FD3FF1197605F8B504224FF0FF37CA
S2144036A08024082620258762076A0460064C076B3C
S2144036B00660056002600A684968A047A0F10100FC
S2144036C0B0FA80F04009F8BDD9354000CA68002AF3
S2144036D049D070B400268C6846604B680D7C1B024F
S2144036E02D0403F4407305F4FE0543F480532B4346
S2144036F04360C6604B68BBB91D460123C5600225C2
S2144037000360036AD9050CD447F23051012A1ED013
S2144037109E0715D5036B013A04F8013B036AD905A9
S214403720F2D5052070BC7047012B0D78E5DD4E784C
S214403730022B46EA0525E0D08B7843EA0525DCE7F0
S214403740036ADE05EDD40139E0D10920EAE79B079C
S2144037500560F5D5036B2370036ADB07FCD5036A67
S214403760002070BC70470120704700BF0346C86801
S214403770002834D070B400268C685E600A7C4D68A1
S21440378012042D0202F4FE0205F440752A435A60E4
S214403790DE604A688AB91546DD601A6AD60509D4DD
S2144037A05507FAD514F8012B01385A6313D01A6A14
S2144037B0D605F5D5052070BC7047012A0D78EBDD9F
S2144037C04E78022A46EA0525E6D08A7842EA05255A
S2144037D0E2E7510705D41A6AD405EBD4F9E701208D
S2144037E0704702221A601A6AD207FCD570BC70472E
S2144037F043699B0702D5C16100207047012070478E
S2144038004369DB0703D5836900200B7070470120AE
S214403810704700BF0B01934210B414D859084FF6B6
S214403820FE7401EBC202B2FBF3F2D308591EA1426A
S21440383015D81204002102F4E0221A430262084618
S2144038405DF8044B7047C9004FF6FE744B0803EB17
S214403850C202B2FBF1F2D308591EA14204D901219B
S2144038605DF8044B08467047416841F400214160CA
S214403870DFE700BFF8B50024144D4FF480764FF0D4
S214403880880E2427C0F8E45044604FF40025446274
S2144038908462C0F800E0076006600D4E0560346044
S2144038A089B10D460B4B09680446984758B96A6873
S2144038B0AB682F691343E96862683B430B431A437E
S2144038C033606260F8BD0120F8BD00BF004153552B
S2144038D0846240201538400040230360704700BF94
S2144038E010230360704700BF81607047406970478F
S2144038F042690346920704D5C1F308010020D96106
S21440390070470120704700BF4369DB0705D58369D0
S2144039100020C3F308030B6070470120704700BFC8
S21440392000EB81115368C86D0B6693684B6613684D
S21440393023F07F430B671369C3F30B034B6753694D
S214403940CB67936923F07F43C1F88030D36923F077
S2144039507F43C1F88430D3688B67704770B5104892
S214403960104DA8472020104B104C9847A0470028E1
S214403970FCD00F4B98470F4C0F4B104A9A62A0470B
S2144039800028FCD002200E4B98470E4B002098474C
S2144039900D4B98472B460248BDE87040184700BF7D
S2144039A000A3E11195434000A9404000F540400087
S2144039B0054140001541400000060E40013F1820DA
S2144039C02540400055404000B1424000814B4FF4F6
S2144039D000422DE9F0415A60BFF35F8FDFF86C82FA
S2144039E07D4F7E4D40467E4CA84740EA0701112059
S2144039F0A0477C48A8477C497C4E01437C48A0476A
S214403A004046A84740EA07017A48A0477A48A84770
S214403A1040EA06017948A0477948A847794F40EAE6
S214403A2006017948A0476FF06040A847DFF820823B
S214403A3040EA07017548A0476FF07040A84740EA43
S214403A4008017348A0476FF07040A8477149724E0E
S214403A5001437248A0476FF06040A84740EA08011B
S214403A606F48A0476F48A84740EA07016E48A047FE
S214403A70736A05206D4A43F4E02373629047BFF3B0
S214403A804F8FBFF36F8FBFF34F8FBFF36F8F002300
S214403A90C6F85032736943F400337361BFF34F8FF7
S214403AA0BFF36F8F624B6349634A59605A60BFF3F6
S214403AB04F8FBFF36F8FD6F8903223F00103C6F8CE
S214403AC09032D6F8943223F00103C6F89432BFF30E
S214403AD04F8FBFF36F8F594C0A20A0470B20A0474B
S214403AE00C20A0471020A0471120A0474FF4000606
S214403AF0534B4FF4007253484FF400151E6110218B
S214403B00C3F8A060A0F500701E630824C0F8102219
S214403B10C0F8A022C0F830225A61C3F8A0205A66E6
S214403B20C3F890205A651A62C3F884201E6F464F29
S214403B3026F400761E675E6F26F400765E67C3F84E
S214403B40C020C3F8D420C3F8B0201D66C3F89050F8
S214403B505D655D62C3F880501A6F22F400121A67E2
S214403B605A6F22F400125A675D60D7F814210A4350
S214403B70C7F814210166C0F8901041654162C0F84C
S214403B808010026F0A430267426F0A4342674160F1
S214403B901C66C3F890405C655C62C3F880401A6F50
S214403BA022F008021A675A6F22F008025A675C60D1
S214403BB01966C3F8901059655962C3F880101A6F99
S214403BC022F010021A675A6F22F010025A675960A4
S214403BD0BDE8F08150180E40010000016D3C4000E9
S214403BE0613C4000FFFF1F00010023060100230345
S214403BF01200400013000020FFFF03001400402086
S214403C00FFFF01000100011315004420160000408C
S214403C10170000600100250300ED00E0180000706A
S214403C2019000080FFFF0F001A0010A0553C40000E
S214403C30000C0E400C08005A0C07005A2541400064
S214403C40000E0E4000120E4000800840FFFF3F006E
S214403C5001000003014B5860704700BF90ED00E044
S214403C60014BD8601961704790ED00E020280DD9CF
S214403C704022052302E001331F2B05D090424FEA35
S214403C804202F8D8580070473E20704708207047D8
S214403C9052004FF40043C0F88410B3FBF2F3013BEC
S214403CA0C3F30D03C0F88C30704700BFD3074164A0
S214403CB015D5416612F00A0F09D09307016209D460
S214403CC0130701D5C0F8841041610160704793071F
S214403CD04162F5D5C0F880104161016070470166C9
S214403CE0E8E700BF0164704741647047C06C7047A6
S214403CF0806C7047D3060AD59306C0F8B01009D436
S214403D005306C0F8D01009D5C0F8C0107047C0F8A8
S214403D10B41070475306C0F8D410F5D4C0F8C41099
S214403D20704700BF004B1847F53C4000534B01F02E
S214403D30F04203EB5013B2F1005F70B44FEA4323F6
S214403D406DD00BD8B2F1805F27D0B2F1C05F52D0B1
S214403D50B2F1006F38D0002070BC7047B2F1405FBF
S214403D6066D0B2F1605F63D0B2F1205FF3D100F06D
S214403D701F000122CD0702FA00F25A6473D55A6634
S214403D8011F00A0F6DD01A628C076ED5C3F88020EA
S214403D905A6101201A6070BC704700F01F02012073
S214403DA0C90700FA02F25A641C6F44EA02041C6710
S214403DB05C6F5D6F04EA050424EA02045C675A609F
S214403DC016D55A6670BC704700F01F02012000FAF4
S214403DD002F25A64D6431D6F1C6F254035401D675E
S214403DE05C6F5D6F2C4034405C67CC075A60E8D40B
S214403DF01A6670BC704700F01F02012000FA02F2FB
S214403E005A641C6F1D6F2C4024EA02041C67CE07C0
S214403E105C6F44EA02045C675A60E9D5D1E700F07B
S214403E201F02012000FA02F25A641C6F1443EDE7A9
S214403E3000F01F00012201F0605401F004058240AA
S214403E40C9075A640BD55A66A5B11A65B4F1605FC6
S214403E5012D05A631A6101201A6070BC70471A6605
S214403E60F2E75A6290E71A668AE7080790D5C3F8E1
S214403E7084208DE75A65E9E71A63EBE707072000D9
S214403E80F8B504460F4B0F46984706460E4B20465D
S214403E909847064015D00D4C002504E0072D04F148
S214403EA010040ED06EB123680135BB42F6D161686E
S214403EB03142F3D0E36838469847636826EA0306FB
S214403EC0ECE7F8BDED3C4000F13C40008862402005
S214403ED02DE9F047DFF87090D9F800C0BCF1060F26
S214403EE02BD84FF00008164E444602E0A445A046A4
S214403EF00CD3250104F1010EA24677595FFA8EF4E1
S214403F0035448F42F2D16D689542EFD14FEA0A1A96
S214403F100CF1010C06EB0A0446F80A100899C44551
S214403F206260A360E16011461A46064B08BFC9F8B6
S214403F30008098470020BDE8F0870120BDE8F08764
S214403F4088624020253D4000F86240200A21014812
S214403F50014B1847000E0E40813E40000B210148A1
S214403F60014B184700100E40813E40000C2101488E
S214403F70014B184700120E40813E40001021014878
S214403F80014B184700140E40813E40001121014865
S214403F90014B184700160E40813E40002DE9F04187
S214403FA006461A4B0C46154698474FF0FF31184BBD
S214403FB0074630469847174B304698474FF0010C17
S214403FC05FFA84FE14496009002C0EF01F0301EBD3
S214403FD080020CFA03F3C2F88030C2F880310CDB62
S214403FE06D010C44EDB284F8005341F82030394658
S214403FF030460A4BBDE8F04118470EF00F0E6D01F3
S214404000074CEDB274442576EFE700BFF13C400024
S214404010E93C4000ED3C400000E100E0E53C40006B
S214404020FCEC00E0023802280DD8084B53F820007C
S21440403007490B6B0A4623F4407303430B63936EA6
S2144040401B07FCD570470020F2E700BF60474100E1
S21440405000060E4013490B6B23F0700318430863A9
S2144040608B6E180707D44FF4006301E0013B16D06F
S2144040708A6E1207FAD50B490B6B23F0030343F005
S21440408002030B638B6E180707D44FF4006301E0FE
S214404090013B04D08A6E1207FAD5002070470120F3
S2144040A0704700BF00060E400E4A10B40E4C114634
S2144040B0136A1C4314628B6E9A03FCD50C6A0B4B36
S2144040C0084A234043F45C1318430862936E9B03EC
S2144040D0FCD5116A064B0B4043F45C1313625DF843
S2144040E0044B704700060E40080037008FFFC8FF9D
S2144040F0FFFFC8FE024B986E00F48030704700BF4A
S21440410000060E40024B4FF000529A62704700BFC6
S21440411000060E40024B986E00F00200704700BF4B
S21440412000060E403F281AD81F280AD801230E4AF8
S21440413003FA00F0916930EA010312D010610020C2
S214404140704701232038084A03FA00F0D2F80831B5
S21440415030EA030305D0C2F8000100207047012072
S21440416070470020704700BF00060E400B4B4FF4D0
S214404170807210B403EB800402FA00F0226C22F442
S2144041807F621143216402E09A6E024202D11A68AD
S2144041900242F9D15DF8044B704700BF00060E405E
S2144041A00B4B4FF4807210B403EB800402FA00F01D
S2144041B0226C22F007021143216402E09A6E02420A
S2144041C002D11A680242F9D15DF8044B704700BF2D
S2144041D000060E404FF48073024A03FA00F0106067
S2144041E0704700BF00060E40FEE700BFFEE700BF78
S2144041F02449254A914200B583B00ED023488242D6
S2144042000BD2D343034423F003030433134451F83F
S214404210040B42F8040B9A42F9D11D4A1D498A42C2
S2144042200AD2D34300200B4423F003030433134441
S21440423042F8040B9A42FBD1174B184A23F07F03EF
S2144042409360EFF31083B3FA83F35B09019372B67E
S214404250BFF35F8F124A00231249137001980B6810
S21440426043F470030B60BFF34F8FBFF36F8F20B1E3
S21440427001231370BFF35F8F62B60B4B98470B4B0F
S2144042809847FEE7EC4C410000004020000A4020E2
S21440429000404020FC8744200000400000ED00E045
S2144042A02500402088ED00E0856B40002148400016
S2144042B0314A136B03F00303012B3DD026D3022B68
S2144042C00DD02E490B682C48026B02F07002702A03
S2144042D02CD0026BC2F30212D3400B607047136AB5
S2144042E02649DB0138D5264B0B602348026B02F08B
S2144042F00302022AE7D1826A806AC2F30A42C0B247
S21440430002FB0333B3FBF0F30B60DCE71D4B1B49AA
S2144043105B6919481B064CBF4FF400434FF4FA4301
S2144043200B60026B02F07002702AD2D1164AA2FBD2
S21440433003235B080B607047136A1049D80108D402
S214404340124B0B60126A02F07002102A11D0202A1B
S214404350B9D10B4B0B60B6E70C4B0B60126A02F000
S2144043607002102A02D0202ABDD0BEE7084B0B6050
S214404370BBE7074B0B60A6E700060E402800402030
S214404380001BB70010180E40ABAAAAAA00093D00B1
S21440439000127A00164B984217D9164B984210D9FD
S2144043A0154B98421AD9154B984213D9144B98423C
S2144043B018D9144B9842144B94BF144A144A1A60A6
S2144043C07047114B134A1A6070470F4B4FF080628C
S2144043D01A6070470C4B104A1A6070470A4B0F4AD7
S2144043E01A607047084B4FF004221A60704700BFAF
S2144043F0BFF35E017FE7BD023FDB1C04FFCE7B05BB
S214404400BFC2DA067FB63908000C0E40000500042D
S214404410000600040001000400030004000200043B
S2144044200D4A0E49136843B11844814202DB1060BE
S214404430184670474FF0FF30704710B4084C204481
S2144044401460814204DB106020465DF8044B7047E0
S2144044504FF0FF30F9E700BFFC624020FCFF4520EC
S21440446000AA44204FF0FF30704700BF4FF400537F
S21440447000204B60704700BF012070470020704707
S2144044802D4B0022F0B5984283B004460D4601926B
S2144044903AD02A4B98423FD0294B984244D0294B99
S2144044A0984215D0284B984224D0284B9C4217D08F
S2144044B0274B9C4201D003B0F0BD01AF254E394694
S2144044C02046B0470028FAD1019B2B7003B0F0BDC0
S2144044D0214E29462046B0470028FAD103B0F0BD09
S2144044E001AF1C4E39462046B0470028FAD1019B02
S2144044F02B70EBE701AF174E39462046B0470028F1
S214404500FAD1019B2B70E1E7134E07462946384601
S214404510B0470028FAD1C8E70F4E07462946384626
S214404520B0470028FAD1C0E70B4E07462946384622
S214404530B0470028FAD1BBE700080E40000A0E40FC
S214404540001A0E40001C0E40004002400080024010
S21440455000C0024009394000013840000A2814D102
S214404560B1F5007F11D1094A137803F0FF0113B16A
S21440457000231370704730B40123054D054C0648A0
S2144045802B7021601370037030BC70470863402066
S214404590006340200C6340202C0040200C2809D1AA
S2144045A0B1F5005F06D1044B1B68FA2B02D9034BCA
S2144045B001221A70704700BFD0874420096340200C
S2144045C02A4B984270B50D461CD0294B984222D0B3
S2144045D0284B984228D0284B98422ED0274B9842BA
S2144045E007D0274B984238D0264B98422DD00020F3
S2144045F070BD0446244E29462046B0470028FAD1CE
S214404600012070BD0446214E29462046B04700286A
S214404610FAD1012070BD04461C4E29462046B047BC
S2144046200028FAD1012070BD0446184E294620467F
S214404630B0470028FAD1012070BD0446134E2946E3
S2144046402046B0470028FAD1DAE704460E4E2946FF
S2144046502046B0470028FAD1D2E704460A4E2946FB
S2144046602046B0470028FAD1CAE700BF00080E40EF
S214404670000A0E40001A0E40001C0E400040024049
S2144046800080024000C00240F1384000F137400050
S214404690034600220E20F0B50C4C87B09E681D687D
S2144046A05968DF680A4B0191049202960095039779
S2144046B09847084A69462046074B98472046074B86
S2144046C098472046064B984707B0F0BD008002400A
S2144046D02541400080D1F00875384000D938400068
S2144046E0E1384000F0B5002483B0394B3948019496
S2144046F09847C30701D403B0F0BD374B01A93548EE
S2144047009847019BFF2B1AD0FE2B4CD0FD2B50D048
S214404710FC2B51D031490A7802F0FF00F2B1304A02
S214404720DDB2304C1068461C1660255413B1136831
S2144047301E2BE0D900232C4A0B701360DBE72B4A74
S214404740137803F0FF01002B31D10123234D244C75
S21440475027482B70216013700370CCE7224A254906
S2144047601468651C156041F824301368042BC2D1C8
S21440477010600A68204B02EB4202204D204C134446
S214404780204F214E1A889B782A80AB7060704B6809
S214404790174A073B5BB223708B683B60CB68DBB243
S2144047A033701070A7E7194B01221A70A3E71470F4
S2144047B0A1E7164B1C709EE7144D0C480C49074A5F
S2144047C0074B2C7004700C7014701C6093E700BF8D
S2144047D0ED38400000800240093940000063402028
S2144047E00C63402030004020046340200863402093
S2144047F02C004020B08744207C474100AC874420B2
S214404800C8874420CC874420C48744201063402077
S214404810024A136801331360704700BFD0874420B4
S2144048202DE9F04F2DED028BADF59C3DAD4BAE4CDA
S2144048300025AFB0AD4F9847AD4B9847AD4B984726
S21440484001AAAD4B0DF1380E07920DF1280BDFF89B
S2144048505093DFF850A3DFF85083A84E9FEDA88A08
S2144048600FCB8EE80F007046A64B9847A64B0E20FF
S2144048709847A649A64B0EA8A64A1C601160A64BB0
S214404880A64A1A609F4B98473B6829469868A44BAF
S21440489098473B68294664275868A14B9847204666
S2144048A0A04B98472046A04B9847204601219F4B57
S2144048B098474FF480434FF040022046FD2189F848
S2144048C00E23C9F88031C9F80030994B9847CAF88A
S2144048D00070984B0122984F4FF400711C883D7031
S2144048E09B78964F96483C80BB70964B964C1D8066
S2144048F01D80964B88F8005035701D60944B954F40
S2144049001D70954B98470A224FF400718C48934B84
S2144049109847934940234FF4007200910A218848F3
S214404920A04702228F4B0A21854898474FF40071D2
S2144049308348B8474FF4806301224FF40051C9F8CA
S21440494080318948C9F80030834B98470A224FF493
S21440495000518548814B9847844950234FF4005274
S21440496000910C218048A04702227E4B0C217E48B5
S21440497098474FF400517C48B8477D4C7D4B4FF4E8
S2144049808052E027DFF824C24FF0070EC9F8802196
S21440499079494FF40060C9F80020C3F804C084F891
S2144049A023709D60C3F800E08847744A6421744BC6
S2144049B0744F1160744ADFF8F8916A440690D550F7
S2144049C0DAF800400023A4001D46CBF800301A4613
S2144049D0CBF80430CBF80830CBF80C303B7023468D
S2144049E098F80010002943D1317801F0FF040029DF
S2144049F030D052B35BF8252054499B1A09680B44C3
S214404A004BF825100135002B40F3288199104EF6BF
S214404A10602292FBF1F2CAF80020042DDAF800205A
S214404A2008BF0025FE2A02D9FE22CAF80020FF2130
S214404A3004932D483E4B98475448554B98473C4B1B
S214404A40DAF8001028489847049B00213F48224641
S214404A503170016039780029C2D03D490978002973
S214404A6040F0BB800021397098F800100029BBD078
S214404A700123FE211C4889F800302D4B984799F8B1
S214404A80003003F0FF04002BF9D14248404B9847D2
S214404A9001232C4D09A988F800300EA8354B1C6020
S214404AA0254BDAF800201B78B5F800C0234DB5F842
S214404AB000E0069D0395384D0295079DA5F800C079
S214404AC01E4DADF800E095F802E0344D8DF802E05A
S214404AD0A847194ADAF8000011780EAA099B0192F5
S214404AE068E000BF5D394000008002405000402032
S214404AF0CD3940004D0540006C47410009634020D9
S214404B0000F0F6459146400025414000C145400032
S214404B10A8874420A4874420A0874420814440009E
S214404B2055724000D9384000E1384000E93840002E
S214404B30F13840007C474100C4874420AC8744207D
S214404B40000E0E40C8874420D13E4000D087442007
S214404B5010634020E53C4000AD3C4000913C4000A6
S214404B605D4540009D3F400000120E409D45400080
S214404B7000ED00E010E000E0C92D40006C40402011
S214404B806CC7FEFF64404020B83801000FDE1E00B0
S214404B9001004020252B4D0030004020250F4000CE
S214404BA000E100E0CC87442008634020141605004E
S214404BB02C0040202B4A029300922B4B2B4A2C4D24
S214404BC0A8472C4B2C4898472C4A88F80040072387
S214404BD0347014602A4A1360F2E6049329492A4B3B
S214404BE0069805929847B3EE0E7A07EE900A04466A
S214404BF0049B059AF4EE477AF1EE10FA7FF732AF4F
S214404C00F4EE487AF1EE10FA7FF52CAF1F48194BB8
S214404C109847FC211E4B1F4898471C48154B984701
S214404C201B4BE1B21B4898471848124B9847C4F3B1
S214404C300721174B1748984714480E4B9847C4F31C
S214404C400741134B1348984710480A4B9847104B58
S214404C501048210E9847059A049B03E76422CAF839
S214404C600020DAE630004020C8874420AC87442045
S214404C705109400001004020252B4D00D08744209C
S214404C8010E000E000884120292E4000086F0F0009
S214404C90F1384000008002402DE9F0035FEA9209B7
S214404CA018D004460B464D46D4F80080D4F804C0CD
S214404CB0A768E668013DC3F80080C3F804C09F605B
S214404CC0DE6004F1100403F11003EDD14FEA091938
S214404CD04844494412F0030205D050F8043B013AD8
S214404CE041F8043BF9D1BDE8F003704700B51C4AD3
S214404CF020F00043934283B018DDB3F1FF4F05DB4D
S214404D00014601F011FC03B05DF804FB694600F073
S214404D1067F800F00302012A15D0022A0CD0CAB167
S214404D2001220199009800F013FEECE7002100F004
S214404D30C5F903B05DF804FB0199009800F0BEF990
S214404D4000F10040DFE70199009800F001FE00F115
S214404D500040D8E70199009800F0B0F9D3E700BFCB
S214404D60D80F493F00B51D4A20F00043934283B018
S214404D7019DDB3F1FF4F05DB014601F0D5FB03B06B
S214404D805DF804FB694600F02BF800F003000128AC
S214404D9018D002280ED0D0B10199009800F08EF9B4
S214404DA000F10040EBE70022002100F0D1FD03B007
S214404DB05DF804FB01220199009800F0C9FD00F15E
S214404DC00040DCE70199009800F078F9D7E7012227
S214404DD00199009800F0BCFDD1E700BFD80F493FCD
S214404DE02DE9F04FA84A20F00044944289B06EDD89
S214404DF0A64A944206460D461CDC0028A44940F3C9
S214404E00FC8001F091FBA34B24F00F049C42064625
S214404E106CD0A14901F088FB01462860304601F07D
S214404E2083FB9D4901F080FB01276860384609B046
S214404E30BDE8F08F994A94426ADDB4F1FF4F4EDAEE
S214404E40E715863FA4EBC754204601F03DFE01F02F
S214404E5021FC034601462046059301F065FB4FF0D2
S214404E60874101F06BFC804601F02EFE01F012FCFB
S214404E70014604464046069401F056FB4FF08741F3
S214404E8001F05CFC0021079001F0ECFD002800F0EA
S214404E90CB802046002101F0E5FD002814BF012309
S214404EA002237F4A019202213A46009105A82946EC
S214404EB000F0C8F9002E07460DDA95E80C0002F11E
S214404EC0004203F1004347422A606B6003E0002241
S214404ED008604A600027384609B0BDE8F08F0146B2
S214404EE001F022FB002768602860F4E76D4901F076
S214404EF01BFB6D49044601F017FB0146286020461F
S214404F0001F012FB684901F00FFB01276860E2E7F9
S214404F1000F094FD6549804601F010FC4FF07C514E
S214404F2001F004FB01F0D0FD074601F0B3FB584901
S214404F30834601F003FC0146404601F0F5FA564927
S214404F408146584601F0FAFB1F2F824621DC584A1C
S214404F50791E24F0FF0352F82120934219D051467F
S214404F60484601F0E1FA8046C5F80080414648468A
S214404F7001F0DAFA514601F0D7FA002E6860AADA54
S214404F8008F1004800F10040C5F8008068607F42A4
S214404F90A1E75146484601F0C7FAE215C0F3C753A9
S214404FA0D31A082B8046DFDD3E490392584601F06F
S214404FB0C5FB80460146484601F0B6FA014604461F
S214404FC0484601F0B1FA414601F0AEFA364980460D
S214404FD0584601F0B3FB414601F0A6FA0146824628
S214404FE0204601F0A1FA039AC0F3C753D21A192AF1
S214404FF080462EDC2860A146B8E701F097FA254B9C
S21440500024F00F049C42064610D0234901F08EFA45
S21440501001462860304601F087FA1F4901F086FABB
S2144050204FF0FF37686056E703233AE71D4901F023
S2144050307DFA1D49044601F079FA0146286020466B
S21440504001F072FA184901F071FA4FF0FF376860C4
S21440505041E71849584601F071FB01468046204614
S21440506001F062FA01468146204601F05DFA41466B
S21440507001F05AFA10490446584601F05FFB2146B3
S21440508001F052FA82466AE7D80F493FE3CB164012
S214405090800FC93FD00FC93F43443537800F49433F
S2144050A0084841000044353708A3852E84F9223F3E
S2144050B08847410000A3852E32318D242DE9F843E0
S2144050C020F00044B4F1485F06460F4649DA01F046
S2144050D0FBFC002800F09D803146304601F02EFB58
S2144050E04E49054601F02AFB4D4901F01FFA294674
S2144050F001F024FB4B4901F017FA294601F01EFB4C
S214405100494901F013FA294601F018FB474901F0D6
S2144051100BFA294601F012FB454901F007FA2946E9
S21440512001F00CFB80464FF07C51284601F006FB10
S21440513041460446284601F001FB394605463046BE
S21440514001F0FCFA0146284601F0EEF901462046F9
S21440515001F0EAF901464FF07E5001F0E5F9BDE86E
S214405160F883014601F0EAFA2C49054601F0E6FAD2
S2144051702B4901F0DBF9294601F0E0FA294901F014
S214405180D3F9294601F0DAFA274901F0CFF9294642
S21440519001F0D4FA254901F0C7F9294601F0CEFAC4
S2144051A0234901F0C3F9294601F0C8FA214B9C4235
S2144051B08046B8DD204B9C4227DC04F17F442146E4
S2144051C04FF07E5001F0B0F981464FF07C512846B2
S2144051D001F0B4FA214601F0A7F9414604462846B4
S2144051E001F0ACFA39460546304601F0A7FA0146CA
S2144051F0284601F099F90146204601F095F9014606
S214405200484601F091F9BDE8F883DFF834900B4C3E
S214405210DBE74FF07E50BDE8F88300BF4ED747AD82
S214405220F6740F317CF29334010DD037610BB63AE9
S214405230ABAA2A3D9999993E0000483F0000903E0F
S2144052400000383F2DE9F04FDDB0904C0893013B0D
S2144052500193D31E48BF131D669D0791DB1023EABA
S214405260E37354F82540099319460133A2EBC30370
S2144052700594019A0493059B02909C18A1EB0206A4
S21440528017D43444002501341FAFDDF89C8108E074
S21440529058F8260001F0FEF90136A64247F8040FFA
S2144052A007D0002EF4DA01362846A64247F8040F07
S2144052B0F7D1059B002B28DB089B9E00029B351FE1
S2144052C01D4420AB1E44059B48AA4FF0000902EB44
S2144052D0830847AF019B002BC0F2B982029BB346BE
S2144052E01C1FCA465BF8041D54F8040F01F026FA4A
S2144052F00146504601F01AF9AC428246F2D147F8D0
S21440530004AF474506F10406E4D105980899029C87
S2144053106FF04042034613449B000A440DF1300AA6
S214405320191F04EB820553440AEB01020A920B93C1
S21440533080464FEA88035CAA0393D318B8F1000F5F
S21440534053F8509C22DD02EB8804543C0BAE47AF2A
S2144053504FF06E51484601F0F1F901F0B5FB01F00F
S21440536099F94FF08741834601F0E8F901464846EF
S21440537001F0DAF801F0A8FB54F8041946F8040FD7
S214405380584601F0D3F8BC428146E1D1049E4846D7
S214405390314600F09DFB4FF07851044601F0CEF9BF
S2144053A000F050FB4FF0824101F0C8F9014620461C
S2144053B001F0BAF8044601F087FB8146069001F0FA
S2144053C069F90146204601F0AFF8002E074640F343
S2144053D0E68008F1FF31C6F108035AF8212042FA68
S2144053E003F000FA03F3D31A4A46C6F10704024410
S2144053F04AF82130069243FA04F4002C5BDD069B03
S214405400B8F1000F03F10103069340F33B82DAF84C
S2144054100060002E40F09482B8F1010F40F35582B0
S2144054205246012352F8046F002E00F04A82591C5F
S214405430C6F5807688454AF8236014DD5AF8212060
S2144054400233C2F1FF0298454AF821200BDD039A49
S21440545052440AEB830391461A68C2F1FF0243F8AE
S214405460042B4B45F8D1049B002B11DD049B012BEC
S2144054704FF0010640F00E8208F1FF325AF8223013
S21440548003F07F034AF822300EE200BF4C4B410047
S214405490022C10D139464FF07E5001F045F80746B1
S2144054A004994FF07E5000F013FB0146384601F059
S2144054B03BF8022407460021384601F0D3FA00287C
S2144054C000F08380059B08F1FF37BB420FDC08F1F4
S2144054D08043013B0B980AEB8303002253F80419E0
S2144054E0834242EA0102F9D1002A40F09D80059BA2
S2144054F0013B5AF82330002B40F0F4810A9A0123EE
S21440550052F8041901330029FAD043441A46069348
S21440551008F10103934237DC0899099A01EB080722
S21440552020A901EB870706999E1801EB020906F1B0
S2144055308046679A013E02EB860648AA02EB83083D
S214405540679B03EB8903039356F8040F01F0A2F818
S214405550019B47F8040B002B19DB029BBB461C1F24
S2144055604FF000095BF8041D54F8040F01F0E6F80C
S2144055700146484600F0DAFFAC428146F2D1039B32
S21440558048F8049B9E42DFD1DDF81880D1E6039BA5
S2144055904FF000099E4248F8049BD5D1F4E705D168
S2144055A008F1FF335AF82340241226E74FF07C5187
S2144055B001F076FA002840F0538104460021384630
S2144055C001F050FA00287FF47DAF049E38467142C1
S2144055D000F07EFA4FF08741A146044601F060FA9B
S2144055E0002800F08D814FF06E51204601F0A6F85D
S2144055F001F06AFA01F04EF84FF08741054601F097
S2144056009DF80146204600F08FFF01F05DFA4AF80B
S2144056102800284601F058FA08F1010733460833B7
S21440562004934AF8270012E0049A5AF82730083ABA
S214405630A14604925BB907F18043013B0AEB830322
S21440564053F80419013F083A0029F9D00492049906
S2144056504FF07E5000F03CFA002F0446C0F25C81CA
S214405660BB0048A91A1D01EB0308019302924FF0B4
S2144056706E560AEB020B08F104055BF8040D01F0C8
S21440568009F8214601F05AF8314645F8040D2046FF
S21440569001F054F8D3450446EFD10026DDF814B0A7
S2144056A00397A8F10408B246BBF1000FB8BF002527
S2144056B015DBA54EA54847460025002403E0544583
S2144056C00DDC56F8040F57F8041F01F037F8014672
S2144056D0284600F02BFF0134A3450546EFDA5CABC5
S2144056E003EB8A03A8F1040843F8A05C46AB4345A5
S2144056F00AF1010AD8D1669B039F032B5AD8DFE8EC
S21440570003F08E5F5F02002F40F30481019A5CA98C
S2144057108B1834AC53F8A06CA51855F804AC314639
S214405720504600F003FF80460146504600F0FCFE1F
S214405730314600F0FBFE286045F8048DAC424646F4
S214405740EBD1012F40F3E680019A5CA98B181444F4
S21440575053F8A06C25460DF1D40A55F8048C314612
S214405760404600F0E3FE07460146404600F0DCFEB9
S214405770314600F0DBFE286045F8047DAA453E46EB
S214405780EBD10020043436AD54F8041D00F0CEFEB4
S214405790A542F9D1B9F1000F00F0B980349A359B93
S2144057A000F1004002F1004203F10043079CA06074
S2144057B022606360069B03F007005DB0BDE8F08F93
S2144057C0019C34AD04342C44002054F8041D00F0F1
S2144057D0ADFEAC42F9D1B9F1000F00F08580079AD2
S2144057E000F1004301461360349800F09DFE002F00
S2144057F00BDD34AD0124013455F8041F00F096FE4D
S214405800A742F8DAB9F1000F01D000F10040079B3B
S2144058105860069B03F007005DB0BDE8F08F029B22
S21440582034AD2B4400201C4654F8041D00F07EFE88
S214405830A542F9D1B9F1000F01D000F10040079B15
S2144058401860069B03F007005DB0BDE8F08FCA46BF
S21440585047F804AF474506F104067FF43BAD54E5F0
S214405860069BB8F1000F03F101030693C8BF02245C
S2144058703FF7CDAD39464FF07E5000F055FE02243E
S214405880074618E6049B002B22DD0026049B012BCE
S2144058903FF4F2AD022B07D108F1FF325AF822301E
S2144058A003F03F034AF82230022C7FF404AE394618
S2144058B04FF07E5000F038FE0746002E3FF4FBAD1A
S2144058C0EEE5013398457FF4ADAD049B002BDDDC5F
